:020000041000EA
:1000000000B5324B212058609868022188439860DF
:10001000D860186158612E4B002199600221596106
:100020000121F02299502B49196001219960352056
:1000300000F044F80222904214D00621196600F024
:1000400034F8196E01211966002018661A6600F04E
:100050002CF8196E196E196E052000F02FF8012189
:100060000842F9D1002199601B49196000215960AB
:100070001A491B48016001219960EB211966A021F2
:10008000196600F012F800219960164914480160C1
:100090000121996001BC002800D000471248134993
:1000A000086003C880F30888084703B5996A0420EC
:1000B0000142FBD001200142F8D103BD02B5186610
:1000C0001866FFF7F2FF186E186E02BD00000240BE
:1000D000000000180000070000035F00212200005C
:1000E000F4000018222000A00001001008ED00E03C
:1000F00000000000000000000000000074B24E7A12
:1001000000200420F7010010C3010010C5010010F9
:10011000C1010010C1010010C1010010C101001097
:10012000C1010010C1010010C1010010C701001081
:10013000C1010010C1010010C9010010CB01001065
:10014000CD010010CD010010CD010010CD01001037
:10015000CD010010CD010010CD010010CD01001027
:10016000CD010010CD010010CD010010CD01001017
:10017000CD010010CD010010CD010010CD01001007
:10018000CD010010CD010010CD010010CD010010F7
:10019000CD010010CD010010CD010010CD010010E7
:1001A000CD010010CD010010CD010010CD010010D7
:1001B000CD010010CD010010CD010010CD010010C7
:1001C00000BE00BE00BE00BE00BE00BEEFF3058054
:1001D000103800BEF2EB8871383105105831051027
:1001E0003402001090A31AE700201F49086006C8D7
:1001F00081F3088810471D48006800282FD10DA4FE
:100200000ECC002902D000F012F8F9E71849194A7B
:10021000002000E001C19142FCD1174988471749ED
:1002200088471749884700BEFDE701C901C29A42C5
:10023000FBD3704758310510C0000020200F00206C
:10024000B83F05100000042000000420B83F05104E
:10025000001004200010042000000000704709482E
:1002600001F072F80047000008ED00E0000000D047
:10027000400F002060DB0020F9180110A9050010D4
:10028000B51801105756000006005250ABB360532A
:10029000842C051006005250861C0302942C051075
:1002A000060052505422A29DA82C05100500525061
:1002B000DE65F468B83F0510F8B5C04610B5064CC9
:1002C0002378002B07D1054B002B02D0044800E017
:1002D00000BF0123237010BD981000200000000013
:1002E00038610110044B10B5002B03D003490448BA
:1002F00000E000BF10BDC046000000009C100020C0
:100300003861011030B583B00D001400012825D0EC
:1003100002284BD0002803D0002080B203B030BDAB
:100320002B4B04221A602B4B1B68DB05FBD5294B9A
:1003300058680004000C13F03BF8274913F031F81B
:10034000E621890513F02DF813F054F8009001917F
:10035000224A2100280012F0FDFBDEE71C4B04229C
:100360001A601C4B1B68DB05FBD51A4B5868000450
:10037000000C13F01DF8184913F013F8E621890555
:1003800013F00FF8164912F0F2FF164912F0F5FFBC
:10039000011C154812F0EBFF13F02CF800900191AE
:1003A0000E4A2100280012F0D5FBB6E700200CF021
:1003B00017F9002805D00D4A2100280012F0CAFBC9
:1003C000ABE70B4A2100280012F0C4FBA5E7C046AA
:1003D00000E0044000C00440333353403861011052
:1003E0006ABC343F2D93E13A0000D8413C610110D2
:1003F0004061011010B51C0010680E4915F056FD43
:1004000000280CD124680C49200015F04FFD00286D
:1004100007D00A49200015F049FD002805D00848FA
:1004200010BD00210CF0D2F8F9E701210CF0CEF854
:10043000F5E7C04630A401101479011040650110A1
:100440004461011010B515F03DFC094B02221A6001
:10045000084B1A688023DB015340E022D20113408D
:10046000054A136003220549054811F017F910BD2C
:1004700000E0044000C0044000D00440B80D00205B
:100480000503001010B50121014811F02BF910BD32
:100490001062011010B504000A22094913F008F88F
:1004A00096218901074811F0C3F90221082001F0C3
:1004B00081F80221092001F07DF8200010BDC0461E
:1004C00004620110008003400123002004E0CA5CA4
:1004D000101800B20133DBB2062BF8D9404200B24B
:1004E00070470000F8B505000F00160004000A343C
:1004F0000A220100200012F0DBFF6F73330AEB7356
:100500002E7421002800FFF7DFFF03126B74A8741C
:100510000022092A09D8054B9B699B06FBD4217848
:10052000024B196001320134F3E7F8BD008003404B
:1005300010B500220C21FFF7D5FF10BD10B51F220A
:100540000A400621FFF7CEFF10BD10B50A001121A9
:10055000FFF7C8FF10BD10B500220121FFF7C2FF51
:1005600010BD00B587B001A8FFF794FF01A8FFF701
:10057000DFFFFA20C00002F0FBF9122101A8FFF70B
:10058000DDFFC82002F0F4F9012101A8FFF7DDFF2B
:10059000C82002F0EDF901A8FFF7DDFFC82002F046
:1005A000E7F907B000BD0000F0B5DE4657464E46FD
:1005B0004546E0B5B54CA54400AF13F0DDF8052382
:1005C0007B6680220021DB3308241B19D81912F026
:1005D00069FF80220021B0235B001B19D81912F09B
:1005E00061FF802212010021F0235B001B19D81942
:1005F00012F058FF202200219E231B011B19D8193D
:1006000012F050FF13F0B8F80CF00CF90BF0BEFF2D
:100610009F4BA04AA049A1480CF09CF838600028E4
:1006200003D09F4813F06CF8F2E79E4813F068F887
:1006300011F024F89C4813F063F8FFF703FF9B4880
:1006400013F05EF8FFF71EFF994813F059F8FFF713
:1006500088FF7C6E2100974813F082F8611E5C23AE
:1006600063430733DB08DB006A46D31A9D467B6091
:1006700000290EDB002251201A54133058659A6568
:100680001A605A609A60DA6414381A545C3301397B
:10069000EEE73B6899461CE09A0050599A1C92007C
:1006A00008269219D219506001339942F4DC502384
:1006B000002208217818C2545C204B4658437B68BE
:1006C0009C4660445C32791812F0F2FE01239C468D
:1006D000E144A14549DA4B469B005C229446543ADA
:1006E0009046B844C44463445B689A464B46203302
:1006F0009B0054329446543A9046B844C4446344F0
:100700005E684B4640339B0054329446543A9046C0
:10071000B844C44463445B6898464B4606339B0127
:1007200054329446543A9346BB44DC4463441D1D02
:100730005C239B18DB194B445F4A944663441B7847
:100740009B46012002F014F959460023512208204B
:10075000381883541332FA653B665246BA60FE601D
:1007600042463A617B653B689FE7FA20800002F0D1
:10077000FFF83E681CE05322AB545123EB5C002B86
:1007800070D0AB6D9A460133AB65AA68686D010005
:1007900051438B4201DB002A52D16B68590012F0A1
:1007A0000BFA0100504612F007FA00292ED001364C
:1007B000A642DADA5C2373437A68D5185023EB5CDF
:1007C000002B17D0D0231B065A682B68DA40012370
:1007D00013405A425341DBB25222AB54002BCAD0D1
:1007E0000132AA5C002AC6D151216A5C0120424034
:1007F0006A54C0E7D0231B065A682B68DA400123ED
:1008000013405A4253415122AB54B6E728000C30F2
:10081000ED6C05E001239340D022120653610131B3
:100820008D42C4DD8B001A58D0231B065B68D34071
:10083000DB07EFD501239340D02212069361EEE748
:100840008B42B4D128000C30ED6C3B6807E09A0075
:10085000115801228A40D02109068A6101339D4244
:10086000F5DCA4E7AB6D002BA1D00023AB6528001D
:100870000C30ED6C3B689D4299DD9A0011580122C5
:100880008A40D02109068A610133F4E7F4F5FFFFBD
:1008900030750000040040005461011060610110D7
:1008A000686101108461011090610110A86101105C
:1008B000C0610110D86101108409000010B5064B19
:1008C0008B4202D108F09AFA10BD044B044A182159
:1008D000044810F0F3FFC046D80D00201862011044
:1008E0003863011038620110F8B50400204B9942BA
:1008F00012D101230B7208F0ABFA0500431C11D191
:100900001C4B186859681C4B9860D96023685B6958
:10091000194920009847F8BD184B194A1D2119485C
:1009200010F0CCFF02F0D8F806000F1E10DBFA2200
:10093000920000232800002112F0FCFC36184F41E1
:10094000002F0BDB002F0DDB0B4B9E60DF60DDE724
:100950000D4B0E4A3F210E4810F0B0FF01267642A3
:100960000C4FEFE7084B094A3F21094810F0A6FF5A
:10097000C40D0020B8700110D80D00208462011051
:100980005063011038620110B4620110206301103D
:10099000D0620110FFFFFF7F10B50400094B1B78E8
:1009A000002B08D0084901230B722368DB69200063
:1009B0009847012010BD02F0E5FC024B01221A709D
:1009C000F0E7C0464EDB0020C40D002010B5040047
:1009D00003689B690349984723681B6A0249200002
:1009E000984710BDD80D0020C40D0020002070478E
:1009F0007047000010B502F06FF8002906DB0BD03D
:100A0000FA229200002312F03DF910BD054B064A70
:100A10003F21064810F052FFFA21890012F0F4F845
:100A2000F3E7C046B462011020630110D0620110E8
:100A3000083000E018000368002B03D08B42F9D186
:100A4000002002E001600B6001207047083000E0E8
:100A500018000368002B05D08B42F9D10B680360A6
:100A6000012000E000207047043000E01800036817
:100A7000002B03D08B42F9D1002002E001600B6013
:100A800001207047043000E018000368002B05D0F7
:100A90008B42F9D10B680360012000E00020704711
:100AA000F8B506008068002833D002F015F8002958
:100AB00006DB04000D0008239C46B44400220CE031
:100AC000154B164A3F21164810F0F8FE154B164AF2
:100AD0004221164810F0F2FE9C4663461B68002B2C
:100AE00012D0200029009E68DF68801BB9410029D0
:100AF000F2DB34003D000E490A68496872407940D3
:100B00000A43E3D06246E7E7002A03D0106803688F
:100B10001360F8BD1000FCE7B4620110E46301103B
:100B2000D062011064630110FC630110886301103E
:100B3000B8700110F0B583B0104B5C681B6800936F
:100B40000194836804E0DC689B68009301940B00C7
:100B5000002B0CD01968009C019D9E68DF68A41BC7
:100B6000BD41002DEFDCF2D1002CECD1EFE7009B72
:100B7000019C0361446103B0F0BDC046B870011030
:100B800070B506000D0002E04B6828009847280069
:100B9000FFF786FF011EF7D16C6800E02468002C87
:100BA00009D0237A002BF9D00023237221002800DA
:100BB00063689847F2E72800FFF7BCFF2B696C6970
:100BC00033607460300070BD034B1B680220184016
:100BD000431E9841C0B2704700C0064010B5104A8D
:100BE000104B12184B419900900F0843990F504039
:100BF00059400D4A0D4B12F09DFB03004A01C00EF7
:100C00001043CA0E58405140094A0A4B12F092FB59
:100C100003004A00C00F1043CA0F5840514010BD96
:100C2000157C4A7FB979379EB9E5E41C6D4758BFFA
:100C3000EB113113BB49D094F0B5C64600B584B072
:100C400002000B0013498C461BE0614601C900906D
:100C50008C4600210191910E9F010F43960100984F
:100C600001998019794102900391110C1D040D43E3
:100C700014040298039900196941801A99410200ED
:100C80000B0005498C45E0D91000190004B080BC68
:100C9000B846F0BD001C0420FF1F0420F0B5CE466E
:100CA000474680B583B0804603684468009301944A
:100CB00003008068D96801E001F00EFF009C019DEF
:100CC00023002B4302D103000B43F5D0009C019D70
:100CD000A60FAB003343A2002E002500AD185E41E5
:100CE0006B0E9946F3019C464B46624613431F0028
:100CF000730EEA0113431E005B0F9C46FB00644623
:100D00002343F20092197B41009C019D60406940A1
:100D1000260A2F063E432D0A009C24062C434440FD
:100D200035004D40070C0E043E4307047C407540DF
:100D30004646346075604C01C50E2C434001C90E17
:100D40000843B460F0601000190003B0C0BCB9469D
:100D5000B046F0BDF0B5DE4657464E464546E0B5D6
:100D600083B00190574B9B69DB0410D5564BDA6B6F
:100D7000E0231340402B0AD0EFF305839846019BF4
:100D8000002B0AD000239946002400258AE04F4B0F
:100D90004F4A81214F4810F091FD4F4B4C4A86211C
:100DA0004C4810F08BFD4D4B1868596801F036FD2A
:100DB000EFF3108672B64A4B1B68002BFBD0BFF3D3
:100DC0005F8F464B19685A688A4516D0BFF35F8F0C
:100DD000434B00221A6086F310885B46002B5ED1DD
:100DE0003E4B1A6892465F684346002BDBD03B4B74
:100DF0001868596801F07CFEDAE7BA42E6D12000B3
:100E00002900001969412F4BDA690123134003437C
:100E10001C000D0001F060FE02000B1E23DB0A2007
:100E2000002112184B41002B23DB002B25DB2B4923
:100E30000A604B6001994B1E4B452DD1294A202356
:100E40005B42CB181FD4116899400B0012680199BE
:100E50008A4022432B4314001D00224B1C605D601E
:100E600001239B46B2E7204B204A3F21204810F047
:100E700025FD012252421F4BD7E71B4B1B4A3F2146
:100E80001B4810F01BFD202301981B1A1168D94044
:100E9000536883400B43D9E701239B4696E7012320
:100EA0009C46E144019B994502D200239B4697E76B
:100EB0002000290003B0F0BCBB46B246A946A046BC
:100EC000F0BDC04600000640008000402C640110C8
:100ED0005C650110F4640110CC8B011090100020AF
:100EE000300100D0380F0020B462011044650110B9
:100EF000D0620110FFFFFF7F10B588B03B4C206827
:100F00006168FFF799FE20606160FFF767FE049B50
:100F10005840059B019359400490059102A800F0A8
:100F200011F902980399FFF759FE069B0193584067
:100F3000079B01935940069007914020FFF70AFF55
:100F4000FFF74CFE049B5840059B019359400490C9
:100F5000059101F0C1FDFFF741FE069B019358404A
:100F6000079B0193594006900791EFF3108472B6E6
:100F70001F4B1B68002BFBD0BFF35F8F1D4B1B78F3
:100F8000002B24D1032B09D85A1CD2001A498C46B5
:100F9000624452681F2A03D00133F3E701235B4206
:100FA0005A1C1DD0DBB2154A13700133DB00124A04
:100FB0009446634405225A6004A8FFF76FFE10228E
:100FC00004A90F4812F074FA0A4B01221A70BFF3F9
:100FD0005F8F074B00221A6084F3108808B010BDA1
:100FE000084B094AE921094810F068FC200F00204D
:100FF000300100D058DB00200000034049DB002016
:10100000280F0020386501107C650110F464011080
:1010100070B586B03E4B1B78002B00D16EE01022DD
:101020003C4902A812F044FA3B4B1C78E4B201F0B0
:1010300053FDFFF7D3FD029B5840039B019359409A
:10104000029003910120FFF785FEFFF7C7FD049B87
:1010500001935840059B01935940049005912F4BF3
:101060001A78531CDB002E4958582E4B984248D012
:101070000021FFF7B3FD029B5840039B01935940A9
:1010800002900391EFF3108672B6274B1B68002B7A
:10109000FBD0BFF35F8F204B1B78DBB2A34213D092
:1010A0001C4B02991A685140039A019258684240B9
:1010B000029103929A68DB68049901914A4005996C
:1010C00001914B400492059302A8FFF7E7FD05004C
:1010D0000C00102202A90F4812F0EAF90E4A137808
:1010E0000133DBB21370BFF35F8F0F4B00221A6026
:1010F00086F310882800210006B070BDFFF7FCFEC3
:101100008DE70132D2000B000021D150B0E7C0467C
:1011100058DB0020280F00204ADB002049DB00209C
:1011200000000340FFFFFF00300100D010B5FFF7C3
:101130006FFF10BD10B5024800F03CF810BDC0466E
:10114000C4D8002010B50822014912F0B1F910BD31
:10115000C4D8002010B5002901D000230AE0114BAB
:10116000114A1F31114810F0A9FB00240DE037325D
:10117000C25401334A1E9A420FD90F2B0DD85A0878
:101180000B4CA25CDC07F0D40424224114000F2293
:101190002240092AEBDC3032EAE7C0180023037052
:1011A00010BDC0468C650110E46501109465011006
:1011B000C4D8002070B588B0040004AD00260496A1
:1011C0000922002105A812F06DF9009609220021DC
:1011D00001A812F067F94B232B700D2269462800F5
:1011E00014F01AFF002304E05A1D69468A5CE25499
:1011F0000133072BF8DD08B070BD0000EFF310805D
:1012000072B6034B1B68002BFBD0BFF35F8F704798
:101210002C0100D0BFF35F8F024B00221A6080F3D5
:10122000108870472C0100D0F8B506000C0015009E
:10123000FFF7E4FFE308F718F15C072222400123DF
:1012400093400B4205D1DBB20B433B70FFF7E2FF4B
:10125000F8BD2100280010F0CBFBF0B583B00600EC
:10126000019114001F00FFF7C9FF00E00134BC42E8
:101270000CD8E308F518F35C0721214001228A40CD
:101280001A42F3D1D2B21A432A7001E00124644217
:10129000FFF7C0FF002C02DB200003B0F0BD019B74
:1012A000002BF9D0089810F0A3FB000070B50500E2
:1012B0000C00FFF7A3FFE308EE18EA5C07210C40DF
:1012C0000123A340134204D09A433270FFF7A2FFD8
:1012D00070BD034B034A2C31034810F0EFFAC046AF
:1012E00078670110E467011098670110002307E098
:1012F000054A9A189200BFF35F8F002111600133F5
:101300001F2BF5D97047C04640000034054A1078BD
:10131000431CDBB21370172B02D9130010221A7072
:101320007047C046F00D002000B583B00100044BAB
:1013300000931F2318220348FFF78FFF03B000BD5F
:10134000F46701103417002010B5010018231B8822
:1013500014221088984710BD10B5010018231B886F
:1013600016221088984710BDF0B5C64600B5070094
:101370000E0000250123984600E00135B5420AD24F
:10138000AC003C192068FFF7DFFF20600028F4D193
:1013900000239846F1E7404680BCB846F0BD000007
:1013A000F8B5DE4657464E464546E0B505000F0007
:1013B00092460A9A934250D31A0E91461E020A9AF6
:1013C00000233000494611F05DFC80466C00641932
:1013D000A400304B9C4664446368834200D2606042
:1013E0002B1FDBB29B46012B3DD9C0239B0123431E
:1013F000802212011A60AB00274A9958002907D0B1
:10140000506911F001FC431C5800C0180338FDD28C
:1014100053465A0123685A40E0231A4080235B0157
:1014200023431A605A46012A28D980239B0123436B
:10143000802212011A604346636042460023300056
:10144000494611F01FFCAD00134B58510120F0BC70
:10145000BB46B246A946A046F8BD104B104A332100
:10146000104810F02BFA012FBFD1C0239B0123435A
:1014700003221A60A368DB07FCD5C9E7216879401D
:1014800003220A401A60A2680123BB401342FAD02B
:10149000CBE7C046008000403817002010680110DC
:1014A000706801102468011030B583B00C2001F081
:1014B000E3FEFFF789FB00280DD0002304E099002C
:1014C0002D4A2E4888500133092BF8D92A4B2C4A33
:1014D0005A6203B030BD2B4B00229A6701F03EFFE9
:1014E000294B01221A60274B5B6C012BFBD1274B48
:1014F00003221A60234B9B6B012BFBD1013300931A
:101500000433234A0121234801F026FE05230093DA
:10151000214A0121214801F01FFE214B00930022A6
:1015200002210420FFF73CFF1E4D00952B000022F6
:1015300001210520FFF734FF104C00942300002206
:1015400000210720FFF72CFF009423000022002138
:101550000820FFF725FF0A4B0093230000220021FB
:101560000920FFF71DFF00952B0000220021062017
:10157000FFF716FFADE7C04638170020006CDC020D
:101580001BB70000008000403CB0004030B000407D
:10159000002F685900800240008C864700C002403E
:1015A000001BB700405973078000014BC0587047BB
:1015B0003817002010B58300084A944663441C681D
:1015C00040226240C02414408022520113431C6018
:1015D000C000034B9C466044416010BD04C0014004
:1015E0000040014080000B4B9C46604400290DD018
:1015F0000823002A0CD004221343026853400C2213
:101600001340802252011043036070470023F0E72B
:101610000022F1E704C00140002909D08000094BF5
:101620009C46604480239B0118430223036070475B
:101630008000044B9C466044C0239B011843022356
:101640000360F4E704C0014070B5D0231B061B689B
:101650009D00094C2C59204207D19B002043064C89
:1016600018510D2000F042F970BD044B044ACC2102
:10167000044810F023F9C046B0D80020806801105B
:1016800044690110AC68011010B50400D0231B069A
:101690001B689B000A4A9B5818420BD00D2000F093
:1016A0003FFAD0231B061B6805499B005A58A243EA
:1016B0005A5010BD034B044AD621044810F0FEF8DE
:1016C000B0D80020F468011020690110AC68011046
:1016D000072303409B00C00899403C308000014B29
:1016E000C150704700400140F8B507000C001600DB
:1016F0001D00FFF7EDFFFB089B00ED1807203840A9
:1017000080008440002E04D080239B011D432C6068
:10171000F8BDC0239B011D432C60F9E710B5D02311
:101720001B061B68002B03D0024BFFF7DDFF10BD2B
:10173000014BFAE7304101400041014010B501235F
:101740008340D0221206936293610521FFF732FF96
:1017500010BD0000074B9B68103080001950BFF38C
:101760005F8FBFF35F8F044B0021196082F31088F5
:101770007047C04600ED00E0240100D01F23181A76
:101780007047000010B5091A081F0A4B9C466144B7
:10179000094A914208D8C30706D440104005400DBD
:1017A000064B184380B210BD054B064AA3210648DC
:1017B00010F084F8FC070000FE0F000000E0FFFFBF
:1017C00078690110F06B0110A869011010B5091AB1
:1017D00004394C08090B08D14905490D064A114343
:1017E0000180064B2343438010BD054B054AAB21C6
:1017F000054810F063F8C04600F0FFFF00F8FFFF57
:10180000F0690110C46B0110A86901100123834025
:10181000034A10681840431E9841C0B27047C04642
:1018200000E100E0002904D0034B1860034B18606E
:101830007047034B1860FBE780E200E000E100E046
:1018400080E100E010B5012383401800FFF7EAFFB4
:1018500010BD000001238340014A13607047C04659
:1018600000E200E0024B9B6810308000C0587047D7
:1018700000ED00E010B5FFF7F5FF002805D0054B9F
:10188000C01A2F2803D8012010BD0020FCE700203B
:10189000FAE7C046F40D002070B504000D00EFF328
:1018A000108672B60C4B1B68002BFBD0BFF35F8F0A
:1018B0002000FFF7D7FF094B984201D0A84205D17D
:1018C000320029002000FFF745FF70BD044B054A98
:1018D000862105480FF0F2FF240100D0CD01001051
:1018E000006A0110246C0110A8690110F0B5DE46F1
:1018F00057464E464546E0B589B0814601911500F0
:10190000EFF3108A72B6744B1B68002BFBD0BFF349
:101910005F8F724B0027DF57002F40DB7C00E419FC
:10192000A4006F4824180622A2566C4B1A706D4B07
:101930009A684B4610339B00D35898461E001B1ADA
:101940002F2B38D9684B98452FD105AE674B338084
:101950007B009B46D8198000614B9846404402307A
:101960006349FFF70FFF7080624BB380FF23B371B1
:10197000F571019B07935F44BF0047440ECE0EC72D
:1019800001231C43A046524641464846FFF7E2FE6B
:1019900009B0F0BCBB46B246A946A046F0BD564BC6
:1019A000564AD72156480FF089FF564B534ADE213D
:1019B00053480FF083FFC04340440C2111F024F939
:1019C000002912D101239E43B34633000026DA7961
:1019D000AA4211D90621595600290CDB4A00521897
:1019E00092001E003E4B9B18F1E7474B434AEA2109
:1019F00043480FF063FF1E00002E3AD005AB434A68
:101A00001A80813A5A800623F3560293002B17DA84
:101A10003F4805AB9B469880029A9A71DD71019A06
:101A20000792301D2100FFF7ADFEB080B7717B003B
:101A3000DB199B002A4FFF185B4607CB07C7A2E7BD
:101A40007800C0198000264BC0180430321DB388BE
:101A5000D90A1C2907D15B055915023149005118D3
:101A6000FFF790FED5E72B4B2B4AB12124480FF00E
:101A700025FF05AE1D4B33807B000293D8198000F3
:101A8000174A9046020042440392901C1849FFF7FF
:101A900079FE7080039A101D5946FFF773FEB080DF
:101AA0001E4B5A464146521A524153431B0DB371C5
:101AB000F571019A0792029B9C466744BF00474418
:101AC0000ECE0EC7114B5A461380813B5380012323
:101AD0001C43A04657E7C046240100D051DB00203C
:101AE000F40D002000ED00E0CD01001000A1FFFF8B
:101AF000240E002001BDFFFF386A01100C6C01109C
:101B0000A8690110606A0110886A0110014800008C
:101B100001BD0000FC6A0110FC6B0110AAAA0000C4
:101B2000F0B5CE46474680B583B006000D00EFF312
:101B3000108872B6564B1B68002BFBD0BFF35F8F2B
:101B4000544B9A6834001034A300D758524B9F422C
:101B500007D0AF4200D198E00197504BFB1A2F2BD2
:101B600009D9424639003000FFF7F4FD03B0C0BC8C
:101B7000B946B046F0BD3000FFF748FE814600216F
:101B80003000FFF75FFEBFF35F8FEFF305810029A1
:101B900001D08C4211D10123019C9C430022A368F7
:101BA000AB4212D00622A256002A0DDB53009B182E
:101BB0009B002200394CE418F1E73621384B394AB2
:101BC000FF3139480FF07AFE2200AB4256D106258C
:101BD0006557002D38DB6B005B199A002F4B9B1863
:101BE0009A68A260DA79E27106229A56A2719B790C
:101BF0005BB2002B0FDA2D48A0806B005B199B00B5
:101C0000264AD3182A4A117899711570494630002E
:101C1000FFF718FEA5E7201D6B005B199B001F4A0C
:101C20009B181A1D9B88D90A1C2907D15B055B15D7
:101C3000023359005118FFF7A5FDDDE71D4B1E4A81
:101C4000B12119480FF03AFE002912D1002A0ED016
:101C5000FF239371194B9380154A1378A371184B86
:101C60000E49641A644163431B0D1370CEE70A4F9B
:101C7000F2E7201D1349FFF7A9FDC7E76A21124BC0
:101C8000084AFF3108480FF019FE034F69E7C046C4
:101C9000240100D000ED00E0CD010010F40D002083
:101CA000146B0110DC6B0110A869011001BD00006C
:101CB00051DB0020FC6A0110FC6B011001BDFFFF2D
:101CC000AAAA00002E0E0020486B011010B50323B5
:101CD00004009C43064A9446644422681840C000AD
:101CE000FC3383409A43130081400B43236010BDB3
:101CF00000E400E070B5012101432E4BCB1A2F2BDD
:101D000028D8EFF30583002B2BD0EFF3108C72B69D
:101D1000294A1268002AFBD0BFF35F8F274A0400CC
:101D2000244D641B64416243120D54B2244A9268EC
:101D30009B00D2588A421BD00022032A32D853007B
:101D40009B189B001B49CB189B795BB2A3421FD009
:101D50000132F2E7C7211B4B1B4A49001B480FF019
:101D6000ADFD92211A4B184AFF3118480FF0A6FD1D
:101D7000134A92681749D150174B1A7882711C7018
:101D8000BFF35F8F0C4B00221A608CF3108870BD7C
:101D90000D005300991889006918FF268E710F4AAB
:101DA0008A80E9E7D1210E4B074A490007480FF026
:101DB00085FDC046F40D0020240100D0AAAA000031
:101DC00000ED00E0506B0110A86B0110A869011034
:101DD000786B0110CD01001051DB002001BDFFFF29
:101DE000846B01100022044B02E0044902C301325B
:101DF000072AFAD97047C04600E400E0808080805E
:101E000010B5FFF7BBFC01000148FFF74FFA10BD0A
:101E10005DDB002000B583B00100064B0093052375
:101E200000220548FFF719FA002801DB1F23181AC2
:101E300003B000BD8C6B01105DDB002070B50400A9
:101E40000E001500FFF762FA0100200000F006F80E
:101E5000A680E580BFF35F8F70BD0000024B9C46FB
:101E600061448900016070474000003410B50400EF
:101E7000FFF74CFA01002000FFF7F0FFFF2323716A
:101E8000BFF35F8F10BD10B50400FFF73FFA0100EC
:101E90002000FFF7E3FFFF23237100236371BFF3EB
:101EA0005F8F10BD034B9C46614489000160BFF306
:101EB0005F8F70474000003410B504000120FFF729
:101EC00033FA01002000FFF7EDFF10BD70B50500EB
:101ED0000C00080000F000FF0949200000F040FE5F
:101EE000FFF714FA074B9C466044800068602C752D
:101EF000D0231B061B786B75A400034BE55070BD07
:101F00001122001040000034E4C800200A4B1A6877
:101F1000EFF3108172B61368002BFCD0BFF35F8F14
:101F2000054B1B68BFF35F8F00221A6081F3108896
:101F300040BF002000217047D4DA002010B50029EE
:101F400022D003681B7B99421ED8174B9C466144E4
:101F5000090183689C4661440C684968002A19D0CD
:101F600003681B7B9A4215D883680F4884466244F5
:101F700012019A1810685368020001208B4201D8A0
:101F80000ED00020C0B210BD084B094A3C210948C0
:101F90000FF094FC054B064A3C2106480FF08EFCDE
:101FA000A242EFD8EDE7C046FFFFFF0FBC6D011066
:101FB000287001107C6D011010B500291ED0037B24
:101FC00099421BD84B005B18033B0468A44663444A
:101FD000002919D0002A1DD0914221D0002A25D0F5
:101FE000047BA24222D804685000801803382018CD
:101FF0008170197800291FD11A7010BD104B114A39
:10200000682111480FF05AFC104B114A6F310E48ED
:102010000FF054FC0F4B0E4A70210B480FF04EFC92
:102020000D4B0B4A712108480FF048FC044B054A40
:10203000682105480FF042FC41701A70DDE7C04688
:10204000E06D011094700110FC6D0110506E0110D4
:10205000707001105C6E0110686E011070B50600A2
:102060000D001400002914D0002A14D08068736871
:102070009847002806D0220029003000FFF79CFF77
:10208000280007E02A0021003000FFF795FF20001C
:1020900000E0100070BD0800FCE70000F0B583B060
:1020A0000500009201930AAB1C780BAB1F78002C43
:1020B00026D003685A7B944207D10123002B19D103
:1020C000002C3BD1200003B0F0BD002C0CD01A7BBB
:1020D000944209D81A6863001B19033BD3189B78F4
:1020E000002BEBD00123E9E73E4B3F4A68213F48F4
:1020F0000FF0E4FB3E4B3F4A67213F480FF0DEFB09
:1021000003689C7B002CDBD012D01A7B94420FD842
:1021100062001219033A19688C4662445178997327
:10212000002900D1D9730023937053701370C7E74F
:102130002C4B2D4A68212D480FF0C0FB002C3AD0C3
:102140002B681B7B9C4236D82C4BE3181B01AA68DA
:1021500094466344009A1A60019A5A60089A9A60F9
:10216000099ADA602E68002C2BD030D0337B9C4249
:102170002DD863001B19033B326894466344002248
:102180009A705A701A70717B22003000FFF766FF58
:102190007073844200D095E7287D009A019B00F07F
:1021A00027FD061E01D0002F17D00C9B002B00D15D
:1021B00088E71E7086E7124B124A3C210E480FF04A
:1021C0007DFB114B114AA52108480FF077FB054B09
:1021D000054A682105480FF071FB2868210000F0CE
:1021E0003FFFE2E7E06D011094700110FC6D0110FB
:1021F000806E0110A07001107C6D0110FFFFFF0FB9
:10220000BC6D011028700110786D011084700110F0
:10221000F0B5DE4657464E464546E0B58BB00990D0
:10222000002308938200B54BD658370052E0B44BD8
:10223000B44A3F21B4480FF041FBB44BB44A3C21AF
:10224000B4480FF03BFB002901D1002869D10021DF
:10225000404600F0FBFEA04219D12A686B68069246
:102260000793AB689846EB689A464346002B14D018
:10227000002C18D03B681B7B9C4214D8631EFA6864
:10228000D35C08931B0218433861002015E0A24B71
:10229000A24A8E219F480FF011FBA14B9F4A922129
:1022A0009C480FF00BFB994B9E4A412199480FF037
:1022B00005FB00239A46984600207B68BFF35F8F9A
:1022C00000221A6086F310884346002B32D1002882
:1022D00000D10CE100F000FC02000B1EA7DB002087
:1022E0000021069007917868EFF3108672B60168B6
:1022F0000029FCD0BFF35F8F396888464C7B002CE7
:10230000D7D09AD0097B8C4297D8874965182D0180
:10231000B9688C46654428686968801A9941002923
:1023200091DD2A686B68099800F062FC00239A46E8
:102330009846C2E7089B1B02234399465146180062
:10234000C04705000E007A68EFF3108B72B6136871
:1023500059424B41D9B2002BF9D1BFF35F8F002E08
:102360001EDB002E46DD3B69002B47D04B456DD16F
:1023700000F0B2FB02000B1E6EDB52197341002B02
:1023800070DB002B72DB0021049101310391029478
:1023900051460191414600913800FFF77FFE4CE025
:1023A0003B69002BDDD04B4514D1069A079B521B8D
:1023B000B341002B14DB002B16DB0021049101310B
:1023C0000391029451460191414600913800FFF774
:1023D00065FE32E0554B514AA1214E480FF06EFA8E
:1023E00001225242524BE6E7454B464A3F214648BE
:1023F0000FF064FA002E01D1002DB4D13B68002CFF
:1024000050D05A7B944237D1012100294AD1DA7B3E
:10241000002A4DD19A7B002A03D1DA7B002A5AD1B7
:102420009C73DC73002C5CD03B681B7B9C4258D8AF
:10243000FA68013C135D0133135500233B617A6850
:10244000BFF35F8F13608BF3108843E7374B334A3A
:10245000A42130480FF032FA294B2A4A3F212A485A
:102460000FF02CFA01225242314B8AE7244B254AC5
:102470003F2125480FF022FA002C0DD01A7B944200
:102480000AD862001219033A1868844662449278A6
:10249000002ABAD00121B8E7264B274A68212748ED
:1024A0000FF00CFA264B274AF62124480FF006FAC3
:1024B000002A0AD0197B8A4207D851008A18033AA9
:1024C00019688C4662445470A4E71A4B1A4A682172
:1024D0001A480FF0F3F91C4B1A4AFB2117480FF06A
:1024E000EDF90A4B0F4A41210A480FF0E7F90BB00A
:1024F000F0BCBB46B246A946A046F0BDE4C80020E9
:10250000B4620110F46F0110D0620110BC6D0110B3
:10251000287001107C6D0110A86E01100C70011064
:10252000C06E01104C700110FFFFFF0FCC6E011048
:10253000FFFFFF7FE06D011094700110FC6D011032
:10254000086F0110607001102C6F011010B50C4B5A
:102550005B68002B04D00A210A48FFF77FFC10BDFE
:10256000074C2300084A1021206800F07FFC03205C
:1025700000F0A6FA03212000FFF7A8FCEBE7C04615
:102580003C0E0020D4DA00203D1F001010B5064B91
:102590005B68002B01D0044810BD044B044A5E2147
:1025A00004480FF08BF9C0463C0E0020406F01102C
:1025B000347001107C6D0110F0B5DE4657464E4672
:1025C0004546E0B58BB0804616001F00149B9A4626
:1025D000159B994616AB1B789B461F2302AA94466F
:1025E000634400221A702BE0002809D0424612688A
:1025F000127B904204D8421E4146C9688A5C41E081
:10260000404B414A412141480FF058F907984CE0AE
:10261000361BAF41002F07DB002F11DA3C4B3D4A40
:102620003F213D480FF04AF9012676423B4FF3E740
:10263000374B384A3F2138480FF040F9002F4FDB25
:1026400043465A68EFF3108472B6136859424B41FF
:10265000D9B20791002BF8D1BFF35F8F1F3302AAC5
:102660009446634404930023039302934B460193DF
:102670005346009332003B004046FFF70FFD031E18
:10268000B2D1020041464968BFF35F8F00250D605B
:1026900084F31088002B29D01F2302A98C466344A1
:1026A0001B78002BB2D112021043002B20D05B46C6
:1026B000002B1DD04946D04704000D0003000B43FA
:1026C0001DD00029A4DB00F007FA06000F1EAFDBC7
:1026D00036196F41002FB1DA012676420F4FADE770
:1026E0000B4B0C4A3F210C480FF0E8F80120404208
:1026F0000BB0F0BCBB46B246A946A046F0BD079859
:10270000F6E7C046BC6D01104C7001107C6D0110E5
:10271000B4620110F46F0110D0620110FFFFFF7F5F
:10272000F8B50400002900D162E04268EFF310859B
:1027300072B6136858424341D8B2002BF9D1BFF3A7
:102740005F8FCBB22268567BB3421BD10120002899
:1027500048D0206988422BD0090AC9B2002B2ED05C
:102760002068007B83422AD8581EE668305C884285
:102770002BD000206368BFF35F8F00221A6085F3BF
:102780001088F8BD002B0DD0167BB3420AD85E002E
:10279000F618033E1768BC466644B678002ED6D0BD
:1027A0000120D4E7134B144A682114480FF086F82F
:1027B0002C21134B134AFF3113480FF07FF8134BB2
:1027C000134A412110480FF079F81900100000F069
:1027D00047FC0028CED199210E4B0A4A49000A48ED
:1027E0000FF06CF823698B42C4D100232361C1E749
:1027F0000020C6E7E06D011094700110FC6D01101F
:10280000646F0110DC6F01107C6D0110BC6D011054
:102810004C700110886F0110407D7047F0B587B093
:1028200006000F00EFF30583002B1FD1062464423E
:10283000E517A4197D418D4202D803D1844201D904
:1028400000240025002D14DB0494059500F044F9C4
:1028500002000B1E13DBA41A9D41002D17DC14D0BF
:102860003000390000F044F907B0F0BD23480FF004
:10287000BFF8234B234A3F2123480FF01FF8204B7A
:10288000204A3F2120480FF019F8002CE8D0FFF72C
:102890007DFE0023029301931C4B0093049A059B39
:1028A000FFF78AFE002818DADAE7002300E00023A9
:1028B000002BD5D1164B1A68EFF3108172B613684E
:1028C000002BFCD0BFF35F8F114B1B68BFF35F8FF2
:1028D00000221A6081F3108820BF0499059A0D4BDD
:1028E0005B6A9A42E3D80B48806A884203D29A42D4
:1028F000DBD00123DCE70123DAE7C0468C6F01104F
:10290000B4620110F46F0110D06201100D1F0010AD
:10291000D4DA00200040054070B504000D0000F03E
:10292000DBF802000B1E0ADB200029008018594149
:1029300000290ADB00290CDBFFF770FF70BD084B94
:10294000084A3F2108480EF0B9FF012040420749DC
:10295000F0E7034B034A3F2103480EF0AFFFC046A8
:10296000B4620110F46F0110D0620110FFFFFF7F0D
:1029700010B5FA2292000023002110F0DBFCFFF7D3
:10298000CBFF10BD70B584B005000C00EFF30583DC
:10299000002B1ED1FFF7FAFD002302930193224B77
:1029A00000932A002300FFF707FE061E23DD20BF49
:1029B000FFF7ECFD3100FFF7B3FE1C4B5B6A9C4256
:1029C0002DD81A4A926AAA422CD29C4225D00120C4
:1029D00026E0164B5B6A994209D8144A926A8242F1
:1029E00007D2994201D001201AE0002018E000200F
:1029F00016E0012014E00D4B5B6A9C4209D80B4A9B
:102A0000926AAA4207D29C4201D0012008E000202D
:102A100006E0002004E0012002E0002000E00020A9
:102A200004B070BD0120FBE70D1F00100040054001
:102A300070B5EFF305801038EFF3108C72B61A4BB7
:102A40001B68002BFBD0BFF35F8F01221300834074
:102A500016494B6316490B60164909780C00C440AF
:102A6000224214D0114A546A8200134D52599442A2
:102A700006D38200114C125999430E4B197007E08E
:102A80000A4A031D9B0099589950002200E0002239
:102A9000BFF35F8F044B002119608CF31088002A6C
:102AA00000D0904770BDC046280100D000400540CE
:102AB0003C7005405CDB0020E0DA002004150020BB
:102AC00010B50100024A0348FEF7AEFB10BDC04638
:102AD000C07001104BDB0020044B5B6A034A906A14
:102AE0001900536A9942F9D17047C0460040054029
:102AF000084B5B6A01E0074B5B6A8B42FBD301E04A
:102B0000044B5B6A8B4203D1024B9B6A8342F7D32F
:102B10007047C0460040054070B504000D00FFF747
:102B2000DBFF02000B0020002900801859418B4276
:102B300002D804D1824202D901204042C1170029A3
:102B400002DBFFF7D5FF70BD024B034A3F2103486C
:102B50000EF0B4FEB462011070710110D062011069
:102B600070B504000D00EFF3108672B61B4B1B68A6
:102B7000002BFBD0BFF35F8F002D1CD02000FEF791
:102B800071FE174B83420BD019002000FEF784FE24
:102B900001212000FEF756FE0123A340114A1360D5
:102BA000A400114BE550BFF35F8F0C4B00221A605D
:102BB00086F3108870BDA2000B4B0021D15001227A
:102BC000A2400A490B7893430B7005492000FEF799
:102BD000A7FF00212000FEF735FEE4E7280100D022
:102BE000312A001038600540041500205CDB00200D
:102BF000F0B5DE4600B584B00400150001921E0059
:102C00000293FFF769FF03958E4202D84ED18542A9
:102C10004CD9EFF3108B72B6274B1B68002BFBD0FF
:102C2000BFF35F8F254A17780125A540EBB23B43E0
:102C30001370234B5D63221D92000199D150A200B5
:102C40002049029850501B6A2B4212D11C4B1B6C1E
:102C50002B4208D00020BFF35F8F174B00221A6071
:102C60008BF3108823E0184B184AC52118480EF042
:102C700025FEFFF731FF8E4214D802D1039B834219
:102C800010D80E4B1B78BB420ED00D4B1D625D63FE
:102C90001F2004400123A3400E4A1360074B1F70FE
:102CA0001E38D8E70020D6E70120D4E7012004B081
:102CB00080BCBB46F0BDC046280100D05CDB0020D4
:102CC00000400540E0DA0020E4700110547101106A
:102CD0000871011080E200E0EFF3108C72B60B4B2C
:102CE0001B68002BFBD0BFF35F8F01238340084A92
:102CF000136208490A789A430A70BFF35F8F034B47
:102D000000221A608CF310887047C046280100D05A
:102D1000004005405CDB002010B500291ED0037B7D
:102D200099421BD84B005B18033B0468A4466344DC
:102D3000002919D0002A1DD0914221D0002A25D087
:102D4000047BA24222D8046850008018033820185F
:102D50008170197800291FD11A7010BD104B114ACB
:102D6000682111480EF0AAFD104B114A6F310E4830
:102D70000EF0A4FD0F4B0E4A70210B480EF09EFD85
:102D80000D4B0B4A712108480EF098FD044B054A83
:102D9000682105480EF092FD41701A70DDE7C046CB
:102DA000E06D011080720110FC6D0110506E011079
:102DB0006C7201105C6E0110686E011070B5060037
:102DC0000D001400002914D0002A14D08068736804
:102DD0009847002806D0220029003000FFF79CFF0A
:102DE000280007E02A0021003000FFF795FF2000AF
:102DF00000E0100070BD0800FCE7000010B50023E3
:102E0000437301338373037BC3730123027B9A42B1
:102E100014D9002B0CD0027B934209D85A00D21847
:102E2000033A01688C4662440133DBB25370EDE72C
:102E30000B4B0C4A68210C480EF040FD002A09D0CB
:102E4000924207D8016853009A18033A8A1800235F
:102E5000537010BD024B034A682103480EF02EFD4B
:102E6000E06D011080720110FC6D011010B501734E
:102E700042608360FFF7C2FF10BD000070B5040020
:102E8000081E00D170BD002934D0237B994231D86F
:102E90004B005B18033B2268944663445A78002A2F
:102EA000F0D02DD0237B9A422AD853009B18033BA5
:102EB00021688C4663445D7800215970002825D034
:102EC000237B984222D843001B18033B21688C4681
:102ED00063440021597001002000FFF76FFF0600D6
:102EE00029002000FFF7CAFF020031002000FFF791
:102EF00065FFC7E7084B094A682109480EF0DEFC68
:102F0000054B064A682106480EF0D8FC024B034ADE
:102F1000682103480EF0D2FCE06D011080720110B0
:102F2000FC6D011070B505000C00160000292FD0B3
:102F300034D0037B994231D84B005B18033B0268C5
:102F4000944663445A78002A2ED19A78002A31D1C7
:102F50001978FFF793FF0300002E0AD0EA7B002ABE
:102F60002ED1AA7B002A03D1EA7B002A3BD1AC7385
:102F7000EC73002B3DD1002C4FD02B7B9C424CD8C6
:102F80002B6861000C19033C1C190023637070BD91
:102F9000254B264A382126480EF090FC254B264A20
:102FA000682126480EF08AFC254B204A3A21204809
:102FB0000EF084FC234B1D4A3B211D480EF07EFC85
:102FC000002A0AD0297B8A4207D851008A18033A7E
:102FD00029688C4662445470C3E7164B164A682130
:102FE00016480EF06BFC184B104A422110480EF0A8
:102FF00065FC002B0BD02A7B934208D843001B189A
:10300000033B2A689446634400229A70B3E7094B55
:10301000094A682109480EF051FC064B064A68210E
:1030200006480EF04BFCC046887101105872011022
:1030300090710110E06D011080720110FC6D0110A3
:10304000D4710110FC7101102C6F011070B50400D7
:103050000A00457B2900FFF765FF6073280070BDFB
:1030600070B50400002967D0437B8B420ED0002945
:1030700011D0037B99420ED84B005B18033B0268CA
:10308000D0188378002B0CD1002056E00121FFF7E7
:10309000DDFF012051E0294B294A682129480EF023
:1030A0000DFC002B20D0227B93421DD85A00D31850
:1030B000033B2268D2182568EB5C8B421AD0002BA8
:1030C0001BD0227B934218D85A00D318033B2268A6
:1030D000D21853788B4216D0002BF0D11A4B1B4AD2
:1030E0006B211B480EF0EAFB144B154A682115486A
:1030F0000EF0E4FB4378137007E0104B104A682190
:1031000010480EF0DBFB437853700023837043704C
:1031100001222000FFF706FF0200617B814205D0FB
:103120002000FFF74BFE6073012006E0094B074AC1
:10313000712107480EF0C2FB002070BDE06D011048
:1031400080720110FC6D0110846B0110407201103F
:103150009071011020720110F0B5C64600B5040050
:103160000E0017001D0037480FF04EFD8046364B0D
:10317000FA18364B9A4239D8010038000FF044FD56
:103180000200103A98235B009A4235D86B1E062B3A
:1031900038D8069B013B062B34D83F09474537D327
:1031A0002D04069B1A0315432368002B36DB284B9E
:1031B0009C4244D080225201264B1A60264B1A6052
:1031C000264B9B6811009943FAD12660A060231D0D
:1031D000C02292011A43212313602368002BFCDADA
:1031E000E5600823136080BCB846F0BD1C4B1D4A47
:1031F00011211D480EF062FB1C4B1A4A19211A4876
:103200000EF05CFB1A4B174A1C2117480EF056FBB8
:10321000184B144A232114480EF050FB22683F2318
:103220001340B342C3D1A3681B051B0D8342BED11B
:10323000E368EE22D2021340AB42B8D1D3E780223A
:103240009201B9E7001BB70080E84BD380F8A932A0
:1032500000C0024000E0004000F0004000C000401C
:103260008C720110B8730110EC72011034730110EC
:10327000507301109C73011080239B000343014A8B
:10328000D362704700800540024B1A68024B5A60B7
:103290007047C046CC2E00200080054010B50200CB
:1032A000164B8020C0051860154B16481860002981
:1032B0000AD0154BE021C9041960002A09D1124B2C
:1032C000802212061A6010BD0C4BE021C90419605F
:1032D000F3E753019B1A9800801800010B4B18600C
:1032E00080235B04984202D3084B094A1A60FFF717
:1032F000CBFF054B8022D2051A60E4E700B0054001
:1033000008200140FCFF010000A00540CC2E002059
:10331000FFFFFF0010B5030010000C4A8024E405F5
:103320001460002B0DD001221343094A094CD461CB
:10333000094C5C401462516293620021FFF7AEFFBA
:1033400010BD034B0022DA61F7E7C04600B005402C
:1033500000800540D3C007B02D3FF84F064BAA228E
:1033600012011A602F22DA60044B054A1A60024BE0
:103370005B68002BFBDA70470040024000600240AF
:1033800000B0FA0010B501F09BFC00F00DFC00F05D
:10339000E5FD00F089FE05F0E7FD01F051FD00F0CC
:1033A00060FA05F019FD10BD0302000A184380B24F
:1033B000704703060202FF2109040A401343020A70
:1033C000FF2109020A401343000E18437047F8B565
:1033D000CE46474680B580460F009146080012F061
:1033E000A9FD061E17D0444600E001342578002DC3
:1033F00017D0A31942464A4493420AD83B78AB42BD
:10340000F3D132003900200012F0C2FD0028ECD1C7
:1034100002E0002400E044462000C0BCB946B046AB
:10342000F8BD0024F8E730B501E0002C14D0047892
:1034300001300B7801319C42F7D020222243D2B2D6
:103440001500613DEDB2192D08D820252B43DBB2C4
:103450009A42EAD0012000E0002030BD0120FCE7C4
:1034600000280AD0C07A002809D1431C9B00054AD5
:103470009B58002B04D0012002E0002000E0002037
:103480007047C046F021002010B5FDF74FFE80B216
:10349000002301E00133DBB2032B0FD81A01D2184D
:1034A000120107498A18927A022AF3D11A01D21816
:1034B00012018A1812898242ECD1E6E710BDC0469B
:1034C000F8210020F0B5D6464F464646C0B5060066
:1034D0008846002401E00134E4B2032C23D82500FF
:1034E00063001B199B00314A9F58002FF3D06300E3
:1034F0001B199B00D3181B7AB342ECD13001801901
:10350000000110302A4BC0189246630099461B19DF
:103510009B0053445A684146B8474D44AD000023D0
:103520005246AB50D7E7002301E00133DBB2032B57
:103530001BD8B342F9D01A01D21812011C498A18BB
:10354000927A022AF1D11A01D21812018A18D07B7C
:103550003201921912018A18D27B9042E5D13301CF
:103560009B191B01CB180422DA7333019B191B0131
:103570000F4AD318DB7B032B04D9E0BCBA46B14613
:10358000A846F0BD0B4C9B00185905F0EBFF084A0C
:10359000300183191B01D318DB7B9B0000211951DB
:1035A0008019000110180423C373E6E7C02100202E
:1035B000F8210020B0210020F0B5D6464F464646FF
:1035C000C0B584B08046030143441B01534AD3185D
:1035D000DB7A012B34D89B00514A9B58002B32D008
:1035E00004014444240110344C4BE418200012F030
:1035F000A1FCA022123081B29200362000F0E8FF38
:103600008146002800D185E001AD0C220021280070
:103610000FF048FF43461B0143441B013F4AD318A8
:103620001889FFF7C1FE28800123AB70FF33AB8000
:103630000C222900484601F0F3F9661E0C2737E0FA
:1036400038480EF0D5F90021FFF73CFF434618013A
:1036500040440701314BDF190023BB7200242000D6
:1036600004B0E0BCBA46B146A846F0BD0134E4B2AD
:10367000013633782E2B01D0002BF7D1731B9BB270
:103680009A463B19284A934216DC220039004846E4
:1036900001F060FA7B1C9BB252462900484601F0BB
:1036A0000BFA3C19A5B26F1CBFB23378002B09D0BE
:1036B000013635000024DCE7484600F04BFF0624C5
:1036C0006442CCE700223900484601F043FA023553
:1036D000ABB28022520069460A804A80FC3A4846D2
:1036E00001F0EAF90D4943461B0142469A181201BE
:1036F0008A18D07BD37A9B00094AD21880000B49E4
:1037000040583523494605F0A5FE0400484600F020
:1037100021FFA4E701246442A1E7C046F82100206C
:10372000F0210020C4730110FEFF0000B021002032
:1037300070B50400000100190001414BC018032CB2
:1037400020D823011B191B013D4AD3189B7A022B59
:1037500034D01AD8002B14D0012B00D06CE0FFF726
:1037600093FE3749220113191B01CB18188102203F
:1037700098720020D87201251D7358732000FFF73E
:103780001BFF70BD2F480EF033F9032B54D12301DA
:103790001B191B012A4A9B58002B07D0013B220111
:1037A0001219120126495350002BEAD120010419A5
:1037B0002401234804190023A372E2E723011B1903
:1037C0001B011F4AD218137B013BDBB21373002B82
:1037D000D7D123011B191B01194AD218537B01337E
:1037E000DBB25373042B09D02201121912011449C0
:1037F0008A1813732000FFF7DFFEC2E7FFF730FEE1
:1038000000280DD00E49220113191B01CB18D87ABC
:103810000130D872012018731A0000235373E9E7AE
:1038200000212000FFF74EFE200104192401044B63
:103830001C190023A372A4E703480EF0D9F8C04670
:10384000F8210020DC730110F873011010B500247A
:1038500004E02000FFF76CFF0134E4B2032CF8D938
:1038600010BD7047012800D97047002904D080009E
:103870000A68044BC250F7E78000034B1A68014BFB
:10388000C250F1E7F0210020F09A011010B5FFF7C7
:10389000DDFF10BD30B583B06B460022DA80012316
:1038A0001D000540184206D0002904DD02786B4651
:1038B000DA7101390130032213000340104209D0AC
:1038C000012903DD03880239023003E0002301E00F
:1038D0000839200007290CDD0268D218934200D96C
:1038E00001320400083443689B189A42F0D901332E
:1038F000EEE71A0C1B041B0CD31803E002889B187C
:10390000023902300129F9DC002902DD01786A461A
:1039100091716A4606321288D318180C1B041B0CCE
:10392000C318180C1B041B0CC018002D05D003066F
:103930001B0C020AFF201040184380B203B030BDB8
:10394000F0B583B00600019115001C00002700E0CF
:103950003668002E15D071897068FFF79BFF00193B
:10396000040C0004000C24187389DB07F0D57B429B
:103970005F41FFB22206120C230AFF241C401443AD
:10398000E6E7002F05D02206120C230AFF241C4074
:1039900014436B469888FFF707FD24182800FFF7AB
:1039A00003FD2018030C0004000C1818030C00047D
:1039B000000C1818C04380B203B0F0BD70B51C688D
:1039C00025042D0C230C5B19049C246825042D0C64
:1039D000ED18230C5B191C0C1B041B0CE3181C0CAE
:1039E0001B041B0CE318FFF7ABFF70BD10B582B0D2
:1039F000049C0094FFF7E2FF02B010BD10B5FFF782
:103A000049FFC04380B210BD70B5050000260024F8
:103A100000E02D68002D15D069896868FFF73AFF2E
:103A20000019040C0004000C24186B89DB07F0D586
:103A300073425E41F6B223061B0C240AFF200440A9
:103A40001C43E6E7002E05D023061B0C240AFF20AA
:103A500004401C43E04380B270BD0000014B1B6872
:103A600018187047F4C80020024B1B68C01A80B2B7
:103A70007047C046F4C80020F8B50400FFF7F4FF13
:103A8000050027883800FFF7E9FF0600648820005A
:103A9000FFF7E4FFFA231B019F420FD89C420FD887
:103AA000AC4202D00388AB420CD1094B1B68B34235
:103AB0000AD07388AB4209D1012000E00020F8BD94
:103AC0000020FCE70020FAE70120F8E70020F6E7F5
:103AD000F8C8002070B504002C4B1B68834242D804
:103AE0002B4B1D68854241D90379002B41D10088B9
:103AF000FA231B0198423FD8FFF7B0FF844216D04B
:103B00000379002B13D1854211D0224B1B688342CD
:103B100035D0038823800088FA231B01984206D001
:103B2000FFF79CFF05002000FFF79EFF688060887C
:103B3000FFF794FF0500844214D00379002B11D1C4
:103B4000144B1B68A3421DD023882B802088FA23A6
:103B50001B01984206D0FFF781FF04002800FFF701
:103B600083FF608070BD0C480DF042FF0B480DF0E4
:103B70003FFF0B480DF03CFF0A480DF039FF054BA5
:103B80001C60C6E7034B1860DEE7C046F4C800209F
:103B9000F8C80020C82E00201874011030740110DD
:103BA0004C7401106874011070B50C4C033403237D
:103BB0009C430B4B1C60FA252D012580002363805C
:103BC00023712800FFF74AFF064B18600123037199
:103BD00005804580044B1C6070BDC046FCC80020B9
:103BE000F4C80020F8C80020C82E002070B5041EBC
:103BF00023D0830722D10500083D164B1B68AB423A
:103C00001FD803000C33144A1268934219D80300DA
:103C1000083B1B79002B17D02800FFF72DFF002849
:103C200015D0083C002323710C4B1B68AB4201D913
:103C30000A4B1D602800FFF74DFF70BD08480DF0CE
:103C4000D7FE08480DF0D4FE07480DF0D1FE074816
:103C50000DF0CEFEF4C80020F8C80020C82E0020C9
:103C600094740110B8740110D4740110FC74011024
:103C7000F0B5C64600B50500CC1CA4B203239C4396
:103C80000B2C05D9FA231B019C4202D900253FE0E9
:103C90000C248C4200D277E03C4B1B68AB423BD8F3
:103CA0003B4B1B68AB4237D92F00083F3800FFF76A
:103CB000DBFE06003F883B1A9BB2083B9BB298464E
:103CC0009C422CD824D03800FFF7C8FE0379002B83
:103CD00031D1FA231B019F4224D00788A419A4B232
:103CE0000834A4B22B4B1B6883421ED02000FFF780
:103CF000B5FE00230371078046802B00083B1C8023
:103D00000088FA231B01984202D0FFF7A7FE4480E7
:103D1000280080BCB846F0BD1F480DF069FE1F4862
:103D20000DF066FE1E480DF063FE2000FFF796FEC4
:103D3000184B1860DAE7230014334345E8D8A41978
:103D4000A4B20834A4B2FA231B019F4219D0200068
:103D5000FFF784FE0F4B1B68834201D90D4B18609F
:103D6000002303712B00083B1A88028046801C80C8
:103D70000088FA231B019842CAD0FFF76FFE4480E7
:103D8000C6E707480DF034FE0025C1E7F4C800205F
:103D9000F8C80020C82E00203075011048750110A9
:103DA00068750110F0B5CE4600B582B0002800D18C
:103DB00082E0C51CADB2032295430B2D05D9FA2331
:103DC0001B019D4202D9002072E00C25854200D2E1
:103DD00074E03B4B1B6899461800FFF745FE07004F
:103DE00032E038480DF004FE01230371A14510D0E4
:103DF000019BE5180835344B1B689D421DD8A3076D
:103E00001ED12000083053E04B461888FFF726FEED
:103E100081464B461B79002B03D02B4A12684A453A
:103E2000F2D1274A49461160274A12684A45DFD035
:103E3000002BDDD025480DF0DBFD25480DF0D8FD29
:103E400024480DF0D5FD27883E000195FA231B017B
:103E50005B1B9F422BD23800FFF700FE0400037962
:103E6000002BF0D103889E1B083E019B9E42EAD3A3
:103E700014339E42B8D37E19B6B20836B6B2FA23CE
:103E80001B019E42ADD03000FFF7E8FD0023037117
:103E90002388038047802680012323710088FA232A
:103EA0001B019842A2D0FFF7D9FD46809EE7002073
:103EB00002B080BCB946F0BD0020F9E70020F7E76A
:103EC000C82E002068750110F8C800207C7501100C
:103ED00098750110C875011010B50400FCF786FD37
:103EE000E3681C68002C0AD022681A60A30703D17B
:103EF000FCF77EFD200010BD02480DF079FDFCF7B7
:103F000077FDF7E7F875011070B505000C008B0719
:103F100009D1FCF76BFDEB681B682360EB681C6044
:103F2000FCF766FD70BD01480DF062FD1C760110C6
:103F3000C36800221A60836803330332934300226C
:103F400007E0C16809681960C1680B6081885B1867
:103F50000132C1889142F4DC7047000010B50024A2
:103F600006E0A200044BD058FFF7E2FF0134A4B2F0
:103F7000082CF6D910BDC0466C77011010B5082882
:103F800005D88000044BC058FFF7A6FF10BD0348BA
:103F90000FF0E6FB0020F9E76C7701103C7601108A
:103FA00010B5082807D8002904D08000044BC05859
:103FB000FFF7AAFF10BD03480FF0D2FBFAE7C04697
:103FC0006C7701105C7601100B688268934206D012
:103FD000002902D08360012070470023FAE7002007
:103FE000FAE70B68C268934206D0002902D0C3608A
:103FF000012070470023FAE70020FAE70C20404236
:10400000704770B504000D0001F09AFA29002000F5
:1040100005F0D8FA2900200000F036FE70BD00003F
:1040200010B500280DD03923C25C343B1340052B5A
:1040300006D1CB0704D54368002B01D0130703D466
:1040400010BD03480DF0D4FC011D06F0A3FEF7E7F8
:104050009077011030B583B005000C0010000029E6
:1040600008D0002A09D06B680A689A4208D100205B
:1040700003B030BD0B480DF0BBFC0A480DF0B8FC96
:104080000192036001A9FFF7BCFF23686B60012167
:104090002800FFF7C5FFEB69002B01D028009847E7
:1040A0000120E5E7B477011070470000F0B5C6467F
:1040B00000B582B005000C0017001E00002920D0BA
:1040C000002F20D0002E20D0002C02D02368002BFF
:1040D0001DD101AA21002800FFF7BCFF012398464B
:1040E000002239002800FFF76FFF0022310028006E
:1040F000FFF777FF4346002B0CD002B080BCB846D8
:10410000F0BD074CDCE7064FDCE7054EDCE700239B
:104110009846E5E701AA21002800FFF79BFFECE79E
:10412000F09A0110F0B5C64600B504000E00170065
:104130009846002832D0079B002B34D0002937D076
:10414000002F37D04346002B36D000256560A56090
:10415000E560354B6361258600223923E254200057
:104160002830042200210FF09DF9E5612562069BAD
:1041700063622E4B1A783C23E254089B236143462A
:104180003A0031002000FFF791FF2000079B98477D
:10419000002823D0002080BCB846F0BD24480FF092
:1041A000DFFA2000F7E723480FF0DAFA0020F2E701
:1041B000214EC5E7204FC5E71F4B9846C5E7C33BD7
:1041C0000022E2540EE01D480DF012FC1C480DF0D8
:1041D0000FFC01313C22A154002B15D03C23E35CA1
:1041E000FF2BECD0174B1D682B000022002BF3D0C7
:1041F0009C42E8D00132FF2AE8DC3C21585C615C3B
:104200008842E6D01B68F1E73C33E35CFE2B07D025
:104210000133064A137025600A4B1C602000BAE780
:10422000024B00221A70F6E7FD3F001054DB00201D
:10423000C4770110E0770110F09A011004780110A2
:1042400018780110D0C80020014B18607047C04694
:10425000CCC8002010B5041E10D03923C35CDA0787
:104260000BD40122134339228354C369002B00D09D
:10427000984703212000FFF7D3FE10BD01480FF03F
:104280006FFAFAE74878011010B5041E0FD03923F1
:10429000C35CDA070AD501229343383283541B07E3
:1042A00009D4E369002B01D02000984710BD0348D2
:1042B0000FF056FAFAE706F0BFFCF2E76478011057
:1042C00010B5041E28D04368002B12D13923E35CBB
:1042D000DB0713D4114B1B68A34213D0104B1B6890
:1042E000A34213D0002B17D01A68A24212D0130099
:1042F000F8E704300021FFF784FEE7E72000FFF72E
:10430000C3FFE7E70020FFF79FFFE7E72268044BC2
:104310001A6001E022681A6010BDC046CCC80020B7
:10432000D0C8002010B5041E04D03923C35C5A073E
:1043300004D510BD09480FF013FAFAE7042213431D
:104340003922835406F082F803212000FFF768FE2B
:10435000236A002BEDD020009847EAE7847801100B
:1043600010B500280CD03923C35C5A0707D50422A6
:10437000934335328354036A002B00D0984710BD15
:1043800001480FF0EDF9FAE7A8780110021E0BD0F2
:10439000064B1868002808D03C23C35C0133DBB20D
:1043A000934202D00068F5E700207047D0C8002093
:1043B00030B504AC2578002404604160028143815B
:1043C00003AB1B780373457301238373C47330BD40
:1043D00002E0C91A89B20068002802D043898B42E2
:1043E000F7D9002A00D011807047000010B5FCF703
:1043F000FDFA034B01221A70FCF7FAFA10BDC04611
:1044000056DB002070B500281AD080235B02994249
:1044100021D2002921D08CB203891B199BB2A3425F
:104420001DD30C254557002D0DDB002A19D04268FD
:10443000511A4160428914194481038100200BE024
:1044400009480DF0D5FA4268511A020010328A422A
:10445000EFD9012000E0012070BD0020FCE7012021
:10446000FAE70120F8E7C0464894011010B5FCF7C0
:10447000BDFA084B00221A70FCF7BAFA064B18680E
:1044800000E0C068002804D0436F002BF9D000F092
:10449000D5FE10BD56DB0020F0DA0020F0B583B069
:1044A00007000E001500412A01D0012A0FD1072074
:1044B000FFF764FD041E07D000230193009533002D
:1044C00032003900FFF774FF200003B0F0BD01484F
:1044D0000DF08EFACC78011010B50022FFF792FF94
:1044E00010BD000010B5002814D080235B02994253
:1044F00018D2002918D08AB2438993420DD3446858
:10450000A446614441609B1A438103899A1A02813F
:10451000002010BD05480DF06BFA05480FF020F99A
:104520000120F6E70120F4E70020F2E748940110AB
:10453000E078011010B5002902DBFFF763FF10BD22
:104540004942FFF7CFFFFAE710B50122FFF7F2FF6C
:1045500010BD000070B5051E01D000260CE0194802
:104560000DF046FA18480DF043FA29000820FFF72D
:1045700017FD0136F6B22500002D21D0FCF736FAE2
:10458000AC7B002CEED0013CE4B2AC73FCF730FA0B
:10459000002C15D12C682A7B0F231340022BE4D06A
:1045A000012B05D0002B08D12800FFF71FFBE0E707
:1045B00029000720FFF7F4FCDBE704480DF018FAA8
:1045C000300070BD48940110007901101879011075
:1045D000F0B5D6464F464646C0B582B005000F003E
:1045E000904684B2C1235B009A4241D011D8012A7F
:1045F00002D0412A00D07DE0424639000020FFF77A
:104600004DFF8146484602B0E0BCBA46B146A846D6
:10461000F0BDA0239B009A426CD1E31C03218B4385
:104620009BB2FA1C94B28C431B199BB21800103039
:1046300080B28A43934260D3824261D8FFF7B2FBD3
:1046400081460028DED0290010314944033103247B
:10465000A14300230193434600933B003A00FFF738
:10466000A7FE4B465B682342CCD027480DF0C0F92B
:1046700000250023994626E0FFF7B8FE4B46002BA5
:1046800002D04846FFF766FFA946BBE7B6B2210055
:104690001031691803310324A143002301934346D9
:1046A000009333003A002800FFF782FE6B68234234
:1046B0001BD14B46002B1BD053461D60BF1BBFB206
:1046C0000024002F9ED0AA460820FFF757FC051EA5
:1046D000D2D0E31C032293439AB20C4B9B1A9BB299
:1046E0001E1CBB42D2D93E1CD0E709480DF080F910
:1046F000A946E3E707480DF07BF90023994681E7D7
:10470000002399467EE7C04690790110EC05000031
:104710002C790110BC79011070B5041E12D00089EB
:10472000884220D90D006389AB420ED2ED1AADB29A
:1047300023890A1A9B1823812468002CF3D113487B
:104740000DF056F912480DF053F9227B120701D1F2
:10475000AB4209D1658125812068002801D0FFF78F
:10476000F9FE0023236070BD6368191B691889B2C4
:104770002000FFF77DFA002804D08442EAD00548E3
:104780000DF036F904480DF033F9C046F079011008
:10479000D8790110247A0110087A01100300002052
:1047A00002E0013080B21B68002BFAD17047000094
:1047B00010B5041E09D0FCF719F9A37B0133A373CC
:1047C000FCF716F9A37B002B00D010BD01480DF0BB
:1047D0000FF9C046407A011010B5002801D0002919
:1047E00008D10C480EF0BCFF0FE003890C891B199F
:1047F000038110000268002AF7D10389428993429D
:1048000004D10A899B180381016010BD02480DF094
:10481000EFF8C046547A01108C7A011010B50C00E4
:10482000FFF7DAFF2000FFF7C3FF10BDF8B5CE4653
:10483000474680B506000D1E914698460AD00A8963
:104840004A4507D300280BD002894B449A4207DB24
:10485000002726E03D480EF083FF1020404270E024
:104860003B480EF07DFF102040426AE039480DF0D1
:10487000BFF839480DF0BCF84B46002B36D1002765
:10488000424539D0002D03D06A892B899A4245D000
:10489000002E03D0728933899A4248D04B46002BB0
:1048A0004ED0738942469B1A6A89D21B934200D329
:1048B00013004C46994500D91C00706840446B6851
:1048C000D91922000EF0F4FDA0443F194B461C1BE1
:1048D000A3B2994672894245C8D36B89BB42C8D3FB
:1048E000CED82D68002DC7D00027C9E71B480EF091
:1048F00037FF1020404224E03668002E02D000230B
:104900009846BFE74B46002B02D100239846B9E7F3
:1049100013480EF025FF1020404212E02B68002BB8
:10492000B6D010480EF01CFF0620404209E0336864
:10493000002BB3D00B480EF013FF0620404200E0DE
:104940000020C0BCB946B046F8BDC046BC7A0110D4
:10495000F07A0110207B0110387B0110547B01108C
:10496000647B0110747B011010B5002904D00A8902
:104970000023FFF75BFF10BD02480EF0F1FE102090
:104980004042F8E7AC7B0110F8B5CE46474680B50B
:104990000500884691461900002805D04346002BA3
:1049A0000BD00027002625E019480EF0D9FE00277D
:1049B0003800C0BCB946B046F8BD16480EF0D0FE6F
:1049C0000027F5E76C89641AA4B2A14500D24C46D1
:1049D000434698196B689C46614422000EF068FDBE
:1049E000E719BFB23619B6B24B461C1BA3B29946A3
:1049F00000212D684B46002BDAD0002DD8D000299D
:104A0000E0D06B898B42DDD8C91A89B2F1E7C04684
:104A1000C87B0110E87B011010B5FFF7D9FC10BD71
:104A2000F8B5CE46474680B5050088461600914643
:104A3000002806D000290AD0038993420DD300270D
:104A40001DE018480EF08CFE1020404223E016486E
:104A50000EF086FE102040421DE014480EF080FE4D
:104A60000120404217E012480CF0C2FF4346D9191A
:104A7000220068680EF01CFD361B3F192D68002EC1
:104A800006D0002DEFD06C89B442EFD33400EDE7AF
:104A90004F4504D10020C0BCB946B046F8BD05481A
:104AA0000CF0A6FF0C7C0110247C0110407C01104E
:104AB000607C0110787C0110F0B583B00F00140009
:104AC00019006B469A1DFFF7A7FF061E24D0028926
:104AD0006B46D88803199A4221DB7389984212D217
:104AE0001A1A944212DD95B273689C4660442A00FB
:104AF00039000EF0DDFC621B92B27919002A07D151
:104B0000002003B0F0BD07480CF072FF2500EBE772
:104B10003068FFF785FFF4E701204042F1E701200C
:104B20004042EEE7907C011070B50B001500118932
:104B30001A00FFF74DFD041E04D02900FFF714FFF3
:104B4000002801D1200070BD01480CF051FFC04683
:104B5000A87C011010B582B014006B469A1DFFF7B7
:104B60005BFF002807D042896B4606331B889A42B8
:104B700001D94268D45402B010BD000010B5027AC9
:104B8000002A07D0134B5C683C23E35C0133DBB2A3
:104B90009A4213D1002906D0002811D00368002BB7
:104BA00010D000200BE000280ED00368002B0DD0A1
:104BB000084A526993420BD0080000E0002010BD63
:104BC0000120FCE70120FAE70120F8E70120F6E7E1
:104BD0000120F4E7B02E0020F0B5D6464F4680B550
:104BE00083B00500244B1968586907F0A8FB07003B
:104BF0006B685E7A214B1C6800239946019313E091
:104C000063699A46002B0DD06B6899461C4B2A00AD
:104C10002100A069D04700281AD16B684B4528D1E4
:104C2000022399460194E468002C1CD0237C9E4208
:104C3000F8D139002000FFF7A1FF0028F2D0637CF3
:104C4000DB07DDD50C4B1B6962689A42EAD1D7E7D6
:104C5000019B002B05D0E268DA60084B1A68E2601D
:104C60001C6001239946484603B0C0BCBA46B14611
:104C7000F0BD04480CF0BCFEB02E0020B8D80020D7
:104C8000C02E0020BC7C011010B5002814D0036891
:104C9000002B11D000290FD00B68002B0CD0074B34
:104CA0001B6800E0DB68002B06D01A680468A2428B
:104CB000F8D10A681A60F5E710BDC046B8D80020E0
:104CC0007047000010B5002409E0154B154A1A8002
:104CD0000DE00134A4B28023DB019C421DD2104AB6
:104CE000138801339BB213800F4A9342EDD000200A
:104CF00003280FD883000D4A9B581B68002B06D051
:104D0000D98A074A12889142E3D0DB68F6E701307E
:104D1000C0B2EDE7024B188810BD0020FCE7C0468A
:104D2000680E002000C0FFFFFFFF0000A0830110FD
:104D300010B5002903D106480CF05AFEC0680028BF
:104D400005D0C36F8B42F9D10023C367F6E710BDCE
:104D5000087D011070B5051E04D0037D012B04D120
:104D600001240DE008480CF043FE08480CF040FE1A
:104D7000A200074BD35818682900FFF7D9FF013468
:104D8000032CF5D970BDC046307D01103C7D01106B
:104D9000A083011010B50100037D012B03D0032077
:104DA000FFF7FEF810BD01480CF022FE547D011003
:104DB00070B5041E09D0037D042B19D0072B1ED01B
:104DC000032B05D00025280070BD12480CF010FE02
:104DD00003F080FB051E01D105232375002D15D09E
:104DE0006B1CF0D1638B0822134363830025EAE731
:104DF00003F070FB051EF1D105232375EEE703F0E8
:104E000069FB051EEAD109232375E7E7200003F0BB
:104E1000D9FCD8E7307D011010B5084B186800E0C8
:104E20002000002809D0C468438B1A07F8D508224F
:104E300093434383FFF7BCFFF2E710BDF0DA002095
:104E400010B5FCF773F98004800C034B9C4660445A
:104E5000024B188010BDC04600C0FFFF680E002046
:104E600010B50100037D012B03D00220FFF798F855
:104E700010BD01480CF0BCFD707D011070B506003E
:104E80000D1E0ED0002E0ED0337D002B11D1002A26
:104E900015D00020032816DC830025495B581B68C9
:104EA00021E0244DEEE724480EF05AFC1020404249
:104EB00017E022480EF054FC0620404211E0FFF7B4
:104EC00001FF021E25D0002D03D02B68002B00D03F
:104ED0003360F2821A4B1A68F2601E6003F03EFFE4
:104EE000002070BDDB68002B11D0DC8A9442F9D120
:104EF000002B11D01968002911D0002D12D02C6878
:104F0000002C12D0A142EDD108204042E9E7013047
:104F1000C0E702204042E4E708204042E1E70820E1
:104F20004042DEE708204042DBE708204042D8E765
:104F3000A0830110F09A0110847D01109C7D011066
:104F4000F4DA002070B504001600002829D0037D93
:104F5000002B2DD1012B4BD00320FFF70FF8051E9E
:104F60004AD023690361E38AC38201230375637D09
:104F70004375637A4372237A0372E37AC372A37A26
:104F8000837223680360E38A002B20D01C4B1B68CC
:104F9000A34214D0002B18D0D968A14213D00B0023
:104FA000F8E718480EF0DCFB250010235B421AE0FE
:104FB00015480EF0D5FB0F235B42002513E0DA689D
:104FC0000F4B1A6001E0E268DA600023E360200022
:104FD000FFF746FF0D4BAB610D4B1A68EA601D6091
:104FE00003F0BCFE0023002E00D03370280070BDFB
:104FF000050009235B42F6E701235B42F3E7C04665
:10500000F4DA0020C47D0110F47D01106554001015
:10501000FCDA002010B50022FFF794FF10BD00005D
:10502000F8B5002816D0456A068DA919C26A448EC3
:10503000231C0E4FBC4200D93B1C9BB2D318CB1A89
:105040000BD5521B0CD480235B029A420BD24285B3
:105050000020F8BD06480CF0CBFC4685881AF8E71E
:1050600000234385F4E703480CF0C2FCD01600008F
:105070002C7E0110507E011010B5041E13D0037D4C
:10508000012B14D0038D591889B20F4A914201D8CF
:105090008B420FD90C4B23852000FFF7C1FF0B4B30
:1050A000984209D810BD0A480EF05AFBFAE70948A1
:1050B0000CF09EFC0185EFE7638B022213436383B0
:1050C000200003F07FFBEDE7A02D0000670B000040
:1050D0006C7E0110847E011010B5041E08D040685B
:1050E000002801D0FFF736FA21000420FEF758FF10
:1050F00010BD10B503E00468FFF7EEFF20000028A4
:10510000F9D110BD10B5002801D0417510BD02487D
:105110000EF026FBFAE7C046AC7E011070B5051E06
:105120000DD00420FEF72AFF041E06D01422290009
:105130000EF0BEF96068FFF73BFB200070BD014830
:105140000CF056FCC87E0110002800D001617047A9
:1051500010B5002804D0037D012B02D08423C15058
:1051600010BD01480CF044FCE47E011010B500288D
:1051700004D0037D012B02D08023C15010BD014813
:105180000CF036FC0C7F011010B5002804D0037D14
:10519000012B02D09023C15010BD01480CF028FC17
:1051A000347F0110002802D0037D012B00D070470E
:1051B0008161FCE710B5002806D0037D012B07D0E4
:1051C0008C23C150427710BD03480EF0C9FAFAE7AC
:1051D00002480CF00DFCC0465C7F0110747F01108A
:1051E00010B5002807D0054B054A10681A68944688
:1051F0006044186010BD03480CF0FAFB640E0020F8
:1052000000DB0020947F011010B5002A0ED0002989
:105210000BD00B8E002B08D0282B0AD9283B9BB231
:105220001A1C834200D9021C90B210BD02480CF037
:10523000DFFB0023F4E7C046B07F011010B5040087
:10524000406F002803D0FFF754FF0023636710BDB1
:1052500010B5041E22D0037D002B1ED00A2B1CD0BB
:10526000012B1AD0806F002803D0FFF773F90023B9
:10527000A367636F002B02D02000FFF7DFFF01233D
:105280005B422386E06EFFF734FF206FFFF731FFAC
:105290000023E36623676822A35210BD01480EF085
:1052A0005FFAFAE7D87F011010B50C1E0BD000286A
:1052B0000CD003688B420CD0002B0FD0DA68A242CE
:1052C0000AD01300F8E71C480CF092FB1B480CF0C6
:1052D0008FFBDB68036001E0E268DA600023E360D3
:1052E0002000FFF7B5FF237D0A2B04D0012B02D04D
:1052F000638BDA070FD4237D012B08D0E36E002BDC
:1053000010D1236F002B10D1636F002B10D100231D
:105310002375E38210BD022213436383200003F050
:1053200051FAE8E706480CF063FB06480CF060FB16
:1053300005480CF05DFBC046F47F011010800110A1
:10534000308001104880011064800110F0B5D6460D
:105350004F464646C0B584B004000D0000281CD05E
:10536000037D012B1DD00A2B1ED0026D9046426A90
:105370009146902286580769002B47D1C38A9A46E6
:10538000002B4DD02E4B1B68834215D0002B19D01B
:10539000DA68A24214D01300F8E72A480EF0E0F9C8
:1053A0002EE029480CF024FB01002848FFF77CFF81
:1053B0002000FFF755FD23E0DA68214B1A6001E079
:1053C000E268DA600023E3609A460025206F002837
:1053D00001D0FFF78EFEE06E002801D0FFF789FEB6
:1053E000606F002801D0FFF784FE002D1AD1200045
:1053F000FFF736FD002E03D00D2149423800B0479B
:1054000004B0E0BCBA46B146A846F0BDC38A9A468D
:1054100001000F48FFF748FF0E4B01221A70D5E735
:105420000025D3E7231D228B02925246019200935E
:1054300023004A464146200003F05CF9D7E7C04606
:10544000F4DA00207C8001109880011004DB002039
:10545000F0DA002059DB002010B50121FFF776FFBC
:1054600010BD000010B5081E04D0FFF7F5FF0D2099
:10547000404210BD01480CF0BBFAC046CC80011080
:1054800010B50B4B1B680021002000E0DB68002BEF
:1054900008D0084A12681C6A121B8A42F6D311000F
:1054A0001800F3E7002801D0FFF7D6FF10BDC04673
:1054B00004DB002000DB002070B543B2002B02DBD0
:1054C000002801D11FE07F200138C2B20E4B1B68BB
:1054D0000024002006E00D4A14681A6AA41A0A0083
:1054E0001800DB68002B0AD0597D9142F3D3F8D124
:1054F000064D2D681E6AAD1BA542F2D3EBE70028CE
:1055000001D0FFF7A9FF70BDF0DA002000DB00201A
:1055100070B504000800002C06D108480CF068FAA9
:10552000C568FFF799FF2800002805D003682268A6
:105530009342F5D0C068F7E770BDC046EC8001101B
:1055400070B504000D00002802D00368002B00D1C4
:1055500070BD0D4B1968FFF7DBFF0C4B196820007D
:10556000FFF7D6FF002DF3D02B68002BF0D0084BAF
:105570001B6800E0DB68002BEAD01A6821688A42C9
:10558000F8D12A681A60F5E7F0DA0020F4DA002092
:10559000FCDA002070B501000300083BDBB2012BF0
:1055A00004D80E4B1B680024002003E00C480CF0CC
:1055B0001FFADB68002B0BD01A7D8A42F9D1094A09
:1055C00012681D6A521BA242F3D314001800F0E7C0
:1055D000002802D00021FFF7B9FE70BDF0DA0020EC
:1055E0002081011000DB002070B505000220FEF7CD
:1055F000C5FC041E30D0002C2CD0A4220021200099
:105600000DF050FF6575254B6422A35263852385F9
:105610009B32E2721A32FF326286062240216252C7
:10562000E287073A228649323F39A1521C4A126862
:1056300022621C4A1278A2774A22A35284231A4A71
:10564000E2501033194AE2500433194AE25004334D
:105650000922E250200070BDFFF7DEFBFFF710FFCC
:105660000220FEF78BFC041EC5D10920FFF792FF34
:105670000220FEF783FC041EBDD10820FFF78AFF3D
:105680000220FEF77BFC041EB5D12800FFF714FFB3
:105690000220FEF773FC0400ADE7C046A02D000019
:1056A00000DB00205BDB00202958001000DD6D00CE
:1056B000F824010010B54020FFF796FF10BD000050
:1056C00010B584B0041E13D0002904D0037D042B30
:1056D00011D0072B0FD0237D012B00D166E0022BC8
:1056E00000D16FE0002B46D02000FFF761FB3DE0CA
:1056F0003A480CF07DF9A36F002B1CD0638BDB06BE
:105700001ED5231D228B0292E28A01920093230070
:10571000626A216D200002F0EDFF2000FFF798FD86
:105720002F4B1B68A3420ED0002B12D0DA68A24286
:105730000DD01300F8E7228D2A4B9A42DED1CAE73A
:1057400029480CF055F9DA68254B1A6001E0E26847
:10575000DA600023E360254B01221A70244B1B689A
:10576000A34205D02000FFF77BFB002004B010BD52
:1057700002F06EF8F9E7E38A002B12D01D4B1B688C
:10578000A34206D0002B0AD0DA68A24205D013004B
:10579000F8E7DA68174B1A6001E0E268DA60002384
:1057A000E3602000FFF75CFB0020DFE72000FFF74D
:1057B000D1FA21001048FFF777FD2000FFF7EAFA41
:1057C0000020D3E721000648FFF76EFD074B0122BA
:1057D0001A702000FFF744FB0020C7E7308101105A
:1057E000F0DA0020A02D00005081011059DB0020CC
:1057F000F8DA0020F4DA0020FCDA002010B50028E6
:105800000AD0037D012B03D0438B10221343438323
:105810000121FFF755FF10BD02480DF0A1FF102038
:105820004042F8E76C81011010B50800140000290F
:1058300009D0002A0DD01189FFF71EFC2000FEF7C9
:1058400089FE002010BD06480DF08AFF102040425E
:10585000F8E7002B01D00020F4E7FFF7CFFFF1E7D6
:1058600084810110F8B5041E25D0866F777B002354
:1058700083678433C558002D23D0002332000100F4
:105880000069A8470500002D23D1BB0627D5238D2D
:10589000144A934201D0013323858423E658002E15
:1058A0001DD02069002300222100B04703000D33E2
:1058B00015D1050013E00C480DF052FF10256D4284
:1058C0000DE00023320001000020FFF7ADFF0500CE
:1058D000D9E72B000D3302D0A66705256D422800BD
:1058E000F8BDC046A02D0000A081011070B51C4A73
:1058F0001378013313701B4B1C6813E0022213430F
:105900006383200002F05EFF638B03229343638373
:1059100013E00822934363832000FFF749FA0FE066
:10592000E5682C00002C19D0A27F0D4B1B789A4201
:10593000F6D0A377638BDA07E0D4638B1A07E8D439
:10594000E568A36F002BECD0074E002333702000D6
:10595000FFF788FF3378002BE3D0CCE770BDC0465B
:105960005BDB0020F0DA002059DB0020F0B5CE46EA
:10597000474680B585B0BA4A136801331360B94A07
:10598000137801331370B84B1C68002686E1B748C2
:105990000CF02EF8B6480CF02BF8B6480CF028F8AE
:1059A0002600E4687AE14033E35C052B00D88BE104
:1059B00001256FE0B0480CF01BF8B0480CF018F867
:1059C000200002F0FDFB00280CD0A0230022E254AE
:1059D0000133E35C062B00D9A3E00133A132A354C9
:1059E000002557E0200002F0EDFE0028EDD1002553
:1059F00050E0238EA24A934201D8013323863023FC
:105A0000E25E4023E35E9A4244DB200002F096FD12
:105A1000002805D0236F002B3CD1E36E002B39D03A
:105A2000237D022B15D04223E25C131C0C2A00D9E3
:105A30000C23DAB23C21635EDB103E20215E5B1852
:105A400090498A5C93408E4A934220DC1BB24022EC
:105A5000A352002323866033E25A183BE15A131CF9
:105A60008A4200D90B1C9BB25B084A22A352618E6A
:105A70004A0092B2934201D24A23E2524823E152B1
:105A800022330022E252200003F038F802E07E4B7D
:105A9000DDE70125217D062945D0637A082217001C
:105AA0001F401A4204D0042949D0072947D00027B3
:105AB000636F002B0AD06A4B1A68236AD21A4023FC
:105AC000E15E4B005B185B009A426AD2237D032B98
:105AD0006BD0092B72D0002D79D1E568237F01337B
