:020000041000EA
:1000000000B5324B212058609868022188439860DF
:10001000D860186158612E4B002199600221596106
:100020000121F02299502B49196001219960352056
:1000300000F044F80222904214D00621196600F024
:1000400034F8196E01211966002018661A6600F04E
:100050002CF8196E196E196E052000F02FF8012189
:100060000842F9D1002199601B49196000215960AB
:100070001A491B48016001219960EB211966A021F2
:10008000196600F012F800219960164914480160C1
:100090000121996001BC002800D000471248134993
:1000A000086003C880F30888084703B5996A0420EC
:1000B0000142FBD001200142F8D103BD02B5186610
:1000C0001866FFF7F2FF186E186E02BD00000240BE
:1000D000000000180000070000035F00212200005C
:1000E000F4000018222000A00001001008ED00E03C
:1000F00000000000000000000000000074B24E7A12
:1001000000200420F7010010C3010010C5010010F9
:10011000C1010010C1010010C1010010C101001097
:10012000C1010010C1010010C1010010C701001081
:10013000C1010010C1010010C9010010CB01001065
:10014000CD010010CD010010CD010010CD01001037
:10015000CD010010CD010010CD010010CD01001027
:10016000CD010010CD010010CD010010CD01001017
:10017000CD010010CD010010CD010010CD01001007
:10018000CD010010CD010010CD010010CD010010F7
:10019000CD010010CD010010CD010010CD010010E7
:1001A000CD010010CD010010CD010010CD010010D7
:1001B000CD010010CD010010CD010010CD010010C7
:1001C00000BE00BE00BE00BE00BE00BEEFF3058054
:1001D000103800BEF2EB8871AC160610CC16061073
:1001E0003402001090A31AE700201F49086006C8D7
:1001F00081F3088810471D48006800282FD10DA4FE
:100200000ECC002902D000F012F8F9E71849194A7B
:10021000002000E001C19142FCD1174988471749ED
:1002200088471749884700BEFDE701C901C29A42C5
:10023000FBD37047CC160610C0000020E829002030
:100240001440061000000420000004201440061092
:10025000001004200010042000000000704709482E
:1002600001F0E0FE0047000008ED00E0000000D0D3
:10027000082A002014FE0020E5240110550D00106E
:10028000A32401105756000006005250ABB3605330
:1002900014F0051006005250861C030224F00510CD
:1002A000060052505422A29D38F00510050052500D
:1002B000DE65F46814400610F8B5C04610B5064C6B
:1002C0002378002B07D1054B002B02D0044800E017
:1002D00000BF0123237010BD602B00200000000030
:1002E00050120210044B10B5002B03D003490448F0
:1002F00000E000BF10BDC04600000000642B0020DD
:1003000050120210F0B5C64600B59EB007008846F0
:100310001600314B1B78BFF35B8FDB0728D506AD8A
:100320007B00DB195B012D49C9186022280013F0FE
:10033000A5FE642013F06CFE04005D23EB5C002B33
:1003400044D1099B1C9A059202920B9A0592019244
:100350000A9A0092224A64211FF07CF822003100A0
:10036000404613F001FA80B21EB080BCB846F0BD22
:10037000194816F02BFB0028D1D00F22174B0FE0A5
:1003800000241C70642159609C60DC601C615C610D
:100390009C6508395C540131012058546033013A9E
:1003A000002AEDDA0F220F4B05E000245C709C70F0
:1003B000DC701833013A002AF7DA084AF023DB0030
:1003C0000021D154044816F01DFBA8E7064A642119
:1003D0001FF040F8C2E7C0467C2B00209C2B002079
:1003E000501202109C310020A0120210F0B5CE462F
:1003F000474680B58DB01C001968594814F01AF8AA
:1004000020681DF0CFFF05006168564814F012F80F
:1004100060681DF0C7FF8046A168534814F00AF8D1
:10042000A0681DF0BFFF0700E168504814F002F813
:10043000E0681DF0B7FF06004D4920691FF0ACF8D9
:10044000002854D14B4813F0F5FF01239946606909
:1004500047491FF0A1F800284FD1474813F0EAFFA1
:10046000012106AB00225A709A70DA70404608905B
:1004700009970A964846187559751A711E00404624
:1004800001F0CAFF01242300B2689340D0273F0641
:10049000BB6200220121B06801F012FF7B68B268E4
:1004A000D3401C4063425C413470344B1B78BFF333
:1004B0005B8FDB0726D5182206A9684613F0DEFD00
:1004C00068004019C000C023DB009C4660442C4CEF
:1004D00000191622694613F0D1FDF023DB0001223A
:1004E000E25428480DB0C0BCB946B046F0BD26481D
:1004F00013F0A0FF00239946A9E7244813F09AFFC0
:100500000021AEE71D4816F061FA0028D3D00F2174
:100510001B4B0FE000221A70642058609A60DA606A
:100520001A615A619A6508381A545D325B389854DA
:10053000603301390029EDDA0F21154B05E0002267
:100540005A709A70DA70183301390029F7DA0C4AB8
:10055000F023DB000021D154084816F053FAAAE733
:10056000B4120210C0120210D8120210E4120210CB
:10057000B0190210F0120210081302107C2B002098
:100580009C2B002034130210FC12021020130210C6
:100590009C310020F0B5DE4657464E464546E0B554
:1005A000B3B000AF90461D001968914813F042FFA8
:1005B00028681DF0F7FE814669688E4813F03AFFFF
:1005C00068681DF0EFFE8246A9688B4813F032FF81
:1005D000A8681DF0E7FE7860E968884813F02AFFF4
:1005E000E8681DF0DFFE38602969854813F022FFB6
:1005F000844928691EF0D0FF00280ED101239B46B4
:1006000000240F2C11DC631D9B00E8587E491EF06E
:10061000C3FF002804D00134F3E700239B46EFE733
:1006200021007A4813F006FF00E00024631EA200B8
:100630000732D208D20069468A1A95466E46002BC8
:1006400003DB002102C2013BF9E70025AC4209DDD2
:100650006B1D9B004246D0581DF0A4FEAB00F0502D
:100660000135F3E721006A4813F0E4FE694813F00E
:10067000E1FE0025AC4206DDAB009959664813F057
:10068000D9FE0135F6E70A2013F03EFE602308226A
:100690009B18DB1900221A70642159609A60514638
:1006A000D96079681961396859619A659C65002338
:1006B0009C420ADD9A0090599A1D920060210825FB
:1006C0004919C91950500133F2E7602308229B18D9
:1006D000DB195432594699540132002199540026AD
:1006E000B82308229B18DB191B68B3420FDD602377
:1006F0009B18DD19B41DA400605901F08DFE6259EC
:1007000001239340D022120653620136E8E76023AA
:1007100008229B18DD19E86801F07EFE0124230001
:10072000EA689340D0263606B36200220121E868C9
:1007300001F0C6FD7368EA68D3401C4063425C4127
:10074000AC70364B1B78BFF35B8FDB0721D5602283
:10075000602308255B19D919781913F08FFC4B46D3
:100760005800484440012E4C00195E22791913F0BC
:1007700085FCF023DB000122E2542A4813F05AFEE4
:100780002948BD4633B0F0BCBB46B246A946A04698
:10079000F0BD224816F01AF90028D8D00F21204BBE
:1007A000002910DB00221A70642058609A60DA6019
:1007B0001A615A619A6508381A545D325B38985448
:1007C00060330139ECE70F21184B002906DB0022CA
:1007D0005A709A70DA7018330139F6E7104AF0232C
:1007E000DB000021D1540D4816F00CF9AFE7C046EC
:1007F000B4120210441302105013021060130210BE
:100800006C130210B01902107C1302108C1302102A
:10081000A8130210C4130210D81302107C2B00205E
:100820009C2B0020DC130210341302109C3100209A
:10083000F0B5C64600B504009846069D079808AE78
:1008400037780026267064236360A660E160226129
:1008500043466361A665A065002305E09A005159EF
:100860009A1D9200115101338342F7DB5C23E75458
:1008700001330022E2540026A36DB3420CDDB51D06
:10088000AD00285901F0C8FD2A5901239340D02218
:10089000120653620136EFE7E06801F0BDFD012565
:1008A0002B00E2689340D0263606B3620022012175
:1008B000E06801F005FD7368E268D3401D406B42BB
:1008C0005D41A570200080BCB846F0BD10B50400A5
:1008D0000A22094913F0D2FB96218901074811F039
:1008E0007DFD0221082001F0D3FC0221092001F046
:1008F000CFFC200010BDC04610160210008003403F
:1009000070B504000379002B00D070BD806801F041
:1009100083FD01252B00A2689340D0263606B362E2
:1009200000220121A06801F0CBFC7368A268D340CB
:100930001D406B425D412570E7E7000010B51B4B81
:100940001B78BFF35B8FDB0701D5194810BD174833
:1009500016F03CF80028F8D00F21154B0FE00022CC
:100960001A70642058609A60DA601A615A619A6558
:1009700008381A545D325B389854603301390029C5
:10098000EDDA0F210B4B05E000225A709A70DA70F5
:10099000183301390029F7DA054AF023DB0000217A
:1009A000D154024816F02EF8CFE7C0467C2B002029
:1009B0009C2B00209C31002010B515F0EDFF094B59
:1009C00002221A60084B1A688023DB015340E022A0
:1009D000D2011340054A136020220549054811F051
:1009E00033FC10BD00E0044000C0044000D00440CF
:1009F000601E00200503001010B50221014811F00F
:100A000047FC10BD78160210F0B5DE4657464E463C
:100A10004546E0B5C3B000AF05008A4693467B600B
:100A20000268D30F9B185B109422520008215218C1
:100A3000D21912685A44904653439B000733DB088F
:100A4000DB006A46D31A9D466C46894813F0C2FC07
:100A500000239C4617E002001232920013515C23DF
:100A6000CB5C002B2FD0030013339B0001221A51C3
:100A70005D23CB5C002B2CD014308000012303516C
:100A800001239946CC44DC4528DA634658015900D5
:100A9000614449015144DB01CA681A51431C9B005F
:100AA0000A691A51831C9B004A691A5100228B6DF6
:100AB0009342D0DDD31C1B18961DB60076589B00C0
:100AC0001E510132F3E7030013339B0000221A5139
:100AD000CEE71430800000230351D1E700210EE05F
:100AE000D81C80000026065131E0181D8000002629
:100AF000065133E005339B0000221A510131942343
:100B00005B0008229B18DB191B6899422EDA4A0108
:100B10002868C30F181840105B46584313184A0042
:100B20005218D2007868844662449800966806514C
:100B3000581C8000D6680651981C80001669065122
:100B4000107D0028CCD0D81C800001260651507D95
:100B50000028CAD0181D8000012606511279002AEB
:100B6000C8D005339B0001221A51C7E72B684246C3
:100B700053430733DB08DB006A46D31A9D466E46B3
:100B800000232A6841464A4393420DDA98000259ED
:100B9000121291465A00924601324946B154025906
:100BA000514672540133ECE7E968324813F042FCD5
:100BB000EFF3108472B680214901E86820F0D0FA82
:100BC00084F310882C4813F005FC2C4813F002FC29
:100BD000EFF3108472B62A6843465A433100E8683E
:100BE00020F076FA84F31088254813F0F3FB2D6883
:100BF00043465D43002400260FE00A2013F084FBE7
:100C000006E07C2013F080FB02E07C2013F07CFBEC
:100C10001F2323401F2B14D00134A54217D9630092
:100C2000184AD15A184813F005FC07232340072B14
:100C3000E3D0112CE5D0022CE7D0202013F064FB88
:100C4000E6E701363100114813F0F4FBE4E7002336
:100C500004E0002208217918CA540133FF2BF8D987
:100C6000BD4643B0F0BCBB46B246A946A046F0BD67
:100C7000E8130210F81302101814021020140210C6
:100C80004014021000F01F1048140210B455021056
:100C900070B588B001A9074B0C330A0070CB70C245
:100CA00070CB70C21B68136001388000405808B0D8
:100CB00070BDC0461016021010B590B00400064971
:100CC00040222831684613F0D9F9013CA4006B4654
:100CD000E05810B010BDC0461016021001230020CD
:100CE00004E0CA5C101800B20133DBB2062BF8D95D
:100CF000404200B270470000F8B505000F00160032
:100D000004000A340A220100200013F0B7F96F73BF
:100D1000330AEB732E7421002800FFF7DFFF031264
:100D20006B74A8740022092A09D8054B9B699B069D
:100D3000FBD42178024B196001320134F3E7F8BD8E
:100D40000080034010B51F220A400621FFF7D4FFA0
:100D500010BD0000F0B5DE4657464E464546E0B5AC
:100D6000D64CA54413F072FBD54802F06FFC0F215E
:100D7000D44B02AA94466344002910DB00221A7067
:100D8000642058609A60DA601A615A619A6508387E
:100D90001A545D325B38985460330139ECE70F2107
:100DA000C94B02AA94466344002906DB00225A700C
:100DB0009A70DA7018330139F6E7FFF7BFFD059036
:100DC000C24B02AA9446634440221A60C04C5C6045
:100DD0009C60F0221206A218DA602100BD4813F0D0
:100DE00029FB2200BC492FA812F0AAFC02238793FA
:100DF00080220021A8A813F03BF980220021C8A876
:100E000013F036F9802212010021E8A813F030F91E
:100E100020220021B14802AB9C46604413F028F91F
:100E200013F014FB0CF052FB0CF01EFAA44BAC4A6E
:100E3000AC49AD480CF0E2FA051E03D0AB4813F004
:100E4000C9FAF3E7AA4813F0C5FA11F0EDF9A94879
:100E500013F0C0FAFFF7B0FDA74813F0BBFAFFF795
:100E6000CBFDA64813F0B6FA2C002EE00B0013338E
:100E70005B00974AD35A012B50D0002617AB0022B3
:100E80001A706427189719921A921B921C922D922D
:100E9000083FDA555D3291465C3A92464A465746DB
:100EA0009F54143149008A4B5B5A012B38D16000A2
:100EB00000194001834B02AA944663449C46604457
:100EC0005E2217A913F0DAF801340F2C00DD8EE052
:100ED0007E4B02AA944663441B68D90FC918491077
:100EE00061434A007A4B9A5A90464A1C52009A5AD9
:100EF00093468A1C52009A5A94460A0012325200B3
:100F0000985A2A009042B1DDD31CCB185B00704E7A
:100F1000F75A960007ABF7500132F3E70126ADE729
:100F20002FAB002119700732309231914246329234
:100F30005A463392624634924591459029000EE01C
:100F40008B006F4A9B1802AA944663446D4A9446EC
:100F500063441A688B1D9B002FAFDA510131884220
:100F6000EEDC5C2302AAB4215218D65401330022CD
:100F700002A84118CA542E00459BB34214DDB71D88
:100F8000BF0002AAB423D218D2590492100001F073
:100F900043FA02AAB423D318DA5901239340D0228A
:100FA000120653620136E7E72FAB9846329801F0FC
:100FB00033FA012742463B00D2689340D022120602
:100FC00091469362002201214346D86801F078F9E6
:100FD0004B465B684246D268D3401F407B425F412C
:100FE00043469F702100484813F024FA5FE72C0025
:100FF0000F2C12DC630019194901324A02A88446F9
:101000006244944661441B195801059B9C46604408
:101010005E2213F033F80134EAE72C0027E00126C2
:1010200043E0012105335B00294AD35A002B6FD0DE
:101030002FAB00225A709A70DA70344902AA944693
:1010400061440A0043CB43C243CB43C26000001952
:10105000C0001D4B02AA944663449C46604416227D
:101060002A4902AB9C46614413F008F801340F2C66
:1010700000DD87E06301154A02A98C4662441168CD
:10108000CA0F5218521012019B185900104A515A97
:101090008C46591C4900575A991C4900505AD91C72
:1010A0004900525A012ABAD000261A1D5200084996
:1010B0008A5A012AB5D00021B4E7C0467CECFFFF74
:1010C00088130000480D0000C80B0000B80B00009A
:1010D00000F01F105014021068140210980B00004A
:1010E0000400400078140210841402108C140210C2
:1010F000A8140210B4140210CC140210E41402104C
:10110000781300009CECFFFFFC1402104813000051
:101110002FAB002290465A709A70DA706246319274
:10112000329733901E75597542461A7198469868E1
:1011300001F072F9012742463B0092689340D022A9
:10114000120691469362002201214346986801F0FD
:10115000B7F84B465B6842469268D3401F407B42DB
:101160005F4143461F702100C84813F063F9C84926
:1011700002AB9C46614443460A0043CB43C243CB87
:1011800043C263E72C000F2C16DC63001919C90059
:10119000C04A02A884466244944661441B19D800A0
:1011A000C023DB009C466044059B9C46604416229D
:1011B00012F064FF0134E6E7F023DB00059AD35C0C
:1011C000002B03D1642002F041FAF5E7B24813F096
:1011D00031F92F000F2F17DC7C00E1194901059B25
:1011E0009C46614460222FA812F048FFE419600178
:1011F000AA4B02AA944663449C4660445E222FA9EF
:1012000012F03CFF0137E5E72C000F2C22DC9B217C
:10121000490102AB9C466144630098461B19DB0000
:10122000059884466344C020C00084466344080097
:10123000C4CBC4C0C4CBC4C043461A19D000954B1C
:1012400002AA944663449C466044162212F016FF9C
:101250000134DAE70220FFF72FFD84900120FFF729
:101260002BFD85900320FFF727FD86900420FFF7D4
:1012700023FD83900120FFF70BFD04000023984617
:1012800002930333019384AB0093002302220100F5
:101290006BA8FFF7CDFA0220FFF7FAFC010001234B
:1012A00099460293019383AB00930023032253A832
:1012B000FFF7BEFA5E226BA9784802AB9C466044F9
:1012C00012F0DCFE5E2253A9754802AB9C466044D6
:1012D00012F0D4FE4DAF43467B70BB70FB704F9451
:1012E0004B46509351933B7543467B753B71380099
:1012F000FFF706FB0520FFF7CBFC47AC43466370C6
:10130000A370E370499005334A934B934B46237582
:101310004346637523712000FFF7F2FA5D4A02AB82
:101320009C466244130007CF07C306CF06C33A8822
:101330001A80C4231B01634407CC07C306CC06C331
:1013400022881A80F023DB00059AD35C002B04D19D
:101350000A2002F07BF92E0020E0102200924D4B73
:1013600063444E4961444F486044FFF74DFBEFE74B
:10137000D0231B065A68E368DA40012313405A421F
:101380005341237032E02369590012F01FFA010023
:10139000380012F01BFA002947D001360F2E72DCFC
:1013A0007400A41964013D4B02AA944663449C4610
:1013B00064445D23E35C002BEFD15C33E35C002BE2
:1013C000D6D0D0231B065A68E368DA4001231340C5
:1013D0005A425341DBB26370002B06D0A278002A38
:1013E00003D1227801214A402270A3702378002B78
:1013F00035D0A7687B1CA360626960680100514317
:101400008B42C0DB002ABED08B42C6D127001837E2
:10141000A06D2B009842C0DD9A00D15901228A406C
:10142000D02109068A610133F4E720001830A46D49
:1014300005E001239340D0221206536101318C4212
:10144000ABDD8B001A58D0231B065B68D340DB074B
:10145000EFD501239340D02212069361EEE7A368F3
:10146000002B9AD00023A36027001837A06D2B0013
:10147000984292DD9A00D15901228A40D021090672
:101480008A610133F4E72E001CE0C04618150210F3
:1014900048130000C80B000034150210480D00006E
:1014A000A80D0000B80B00002370A378002B02D019
:1014B000E378002B38D0A378002B02D1E378002BFF
:1014C0005BD101360F2E00DD42E77400A419E40061
:1014D000304B02AA944663449C4664442379002B13
:1014E000EFD1637D002B14D0D0231B065A68A3686C
:1014F000DA40012313405A425341DBB26370002BA0
:10150000D2D02278002ACFD1A27801214A40A270FD
:10151000CAE7D0231B065A68A368DA4001231340A8
:101520005A425341A370C0E72FA8FFF7CFF90F210C
:101530002FA8FFF707FC642002F088F8A2890F218A
:101540002FA8FFF7D9FB642002F080F8228A03213C
:101550002FA8FFF7D1FB642002F078F8237D002B41
:1015600002D10123E370A6E7228A08212FA8FFF702
:10157000C3FB642002F06AF8F3E72FA8FFF7A6F98F
:1015800000212FA8FFF7DEFB642002F05FF80023A4
:10159000E37096E7C80B000010B5064B8B4202D1F2
:1015A00008F09AFA10BD044B044A1821044810F0C0
:1015B0007BFFC046F01E002088160210A8170210FC
:1015C000A8160210F8B50400204B994212D101234D
:1015D0000B7208F0ABFA0500431C11D11C4B1868C4
:1015E00059681C4B9860D96023685B6919492000D1
:1015F0009847F8BD184B194A1D21194810F054FF9F
:1016000002F0D8F806000F1E10DBFA229200002329
:101610002800002112F098FC36184F41002F0BDBF8
:10162000002F0DDB0B4B9E60DF60DDE70D4B0E4A9C
:101630003F210E4810F038FF012676420C4FEFE7AD
:10164000084B094A3F21094810F02EFFE01E0020F8
:1016500050250210F01E0020F4160210C0170210D0
:10166000A81602102417021090170210401702103B
:10167000FFFFFF7F10B50400094B1B78002B08D03B
:10168000084901230B722368DB6920009847012079
:1016900010BD02F0E5FC024B01221A70F0E7C046D3
:1016A00003FE0020E01E002010B5040003689B69C3
:1016B0000349984723681B6A02492000984710BDD8
:1016C000F01E0020E01E0020002070477047000040
:1016D00010B502F06FF8002906DB0BD0FA22920059
:1016E000002312F0D9F810BD054B064A3F210648E9
:1016F00010F0DAFEFA21890012F090F8F3E7C04604
:10170000241702109017021040170210083000E052
:1017100018000368002B03D08B42F9D1002002E0AF
:1017200001600B6001207047083000E0180003687A
:10173000002B05D08B42F9D10B680360012000E03B
:1017400000207047043000E018000368002B03D02D
:101750008B42F9D1002002E001600B60012070474C
:10176000043000E018000368002B05D08B42F9D14B
:101770000B680360012000E000207047F8B5060008
:101780008068002833D002F015F8002906DB040039
:101790000D0008239C46B44400220CE0154B164A69
:1017A0003F21164810F080FE154B164A422116487C
:1017B00010F07AFE9C4663461B68002B12D0200076
:1017C00029009E68DF68801BB9410029F2DB3400E4
:1017D0003D000E490A684968724079400A43E3D0E7
:1017E0006246E7E7002A03D0106803681360F8BD7B
:1017F0001000FCE7241702105418021040170210C2
:10180000D41702106C180210F8170210502502109D
:10181000F0B583B0104B5C681B680093019483683B
:1018200004E0DC689B68009301940B00002B0CD053
:101830001968009C019D9E68DF68A41BBD41002DB6
:10184000EFDCF2D1002CECD1EFE7009B019C0361AF
:10185000446103B0F0BDC0465025021070B50600CB
:101860000D0002E04B68280098472800FFF786FF2C
:10187000011EF7D16C6800E02468002C09D0237A9F
:10188000002BF9D0002323722100280063689847B9
:10189000F2E72800FFF7BCFF2B696C6933607460C6
:1018A000300070BD034B1B6802201840431E984156
:1018B000C0B2704700C0064010B5104A104B121855
:1018C0004B419900900F0843990F504059400D4AE1
:1018D0000D4B12F039FB03004A01C00E1043CA0E33
:1018E00058405140094A0A4B12F02EFB03004A00AF
:1018F000C00F1043CA0F5840514010BD157C4A7F9D
:10190000B979379EB9E5E41C6D4758BFEB11311327
:10191000BB49D094F0B5C64600B584B002000B00B8
:1019200013498C461BE0614601C900908C4600219A
:101930000191910E9F010F43960100980199801922
:10194000794102900391110C1D040D431404029877
:10195000039900196941801A994102000B00054959
:101960008C45E0D91000190004B080BCB846F0BD29
:10197000001C0420FF1F0420F0B5CE46474680B56A
:1019800083B0804603684468009301940300806834
:10199000D96801E001F00EFF009C019D23002B435C
:1019A00002D103000B43F5D0009C019DA60FAB00B4
:1019B0003343A2002E002500AD185E416B0E994600
:1019C000F3019C464B46624613431F00730EEA0127
:1019D00013431E005B0F9C46FB0064462343F2004A
:1019E00092197B41009C019D60406940260A2F06A8
:1019F0003E432D0A009C24062C43444035004D40B4
:101A0000070C0E043E4307047C4075404646346094
:101A100075604C01C50E2C434001C90E0843B460EB
:101A2000F0601000190003B0C0BCB946B046F0BD6C
:101A3000F0B5DE4657464E464546E0B583B00190C8
:101A4000574B9B69DB0410D5564BDA6BE0231340F0
:101A5000402B0AD0EFF305839846019B002B0AD058
:101A600000239946002400258AE04F4B4F4A8121EC
:101A70004F4810F019FD4F4B4C4A86214C4810F04E
:101A800013FD4D4B1868596801F036FDEFF31086D1
:101A900072B64A4B1B68002BFBD0BFF35F8F464BDF
:101AA00019685A688A4516D0BFF35F8F434B0022EE
:101AB0001A6086F310885B46002B5ED13E4B1A6895
:101AC00092465F684346002BDBD03B4B1868596851
:101AD00001F07CFEDAE7BA42E6D1200029000019C5
:101AE00069412F4BDA690123134003431C000D00A9
:101AF00001F060FE02000B1E23DB0A2000211218F9
:101B00004B41002B23DB002B25DB2B490A604B606C
:101B100001994B1E4B452DD1294A20235B42CB18FE
:101B20001FD4116899400B00126801998A40224322
:101B30002B4314001D00224B1C605D6001239B465B
:101B4000B2E7204B204A3F21204810F0ADFC012293
:101B500052421F4BD7E71B4B1B4A3F211B4810F03B
:101B6000A3FC202301981B1A1168D94053688340B5
:101B70000B43D9E701239B4696E701239C46E144AA
:101B8000019B994502D200239B4697E7200029003C
:101B900003B0F0BCBB46B246A946A046F0BDC04665
:101BA00000000640008000409C180210CC19021072
:101BB0006419021064400210582B0020300100D03C
:101BC000002A002024170210B41902104017021036
:101BD000FFFFFF7F10B588B03B4C20686168FFF7BE
:101BE00099FE20606160FFF767FE049B5840059BEB
:101BF000019359400490059102A800F011F9029850
:101C00000399FFF759FE069B01935840079B0193E8
:101C10005940069007914020FFF70AFFFFF74CFE5E
:101C2000049B5840059B019359400490059101F095
:101C3000C1FDFFF741FE069B01935840079B0193AE
:101C4000594006900791EFF3108472B61F4B1B6842
:101C5000002BFBD0BFF35F8F1D4B1B78002B24D1D3
:101C6000032B09D85A1CD2001A498C466244526888
:101C70001F2A03D00133F3E701235B425A1C1DD016
:101C8000DBB2154A13700133DB00124A94466344F9
:101C900005225A6004A8FFF76FFE102204A90F481E
:101CA00012F0ECF90A4B01221A70BFF35F8F074B59
:101CB00000221A6084F3108808B010BD084B094A4E
:101CC000E921094810F0F0FBE8290020300100D09C
:101CD0000DFE002000000340FEFD0020F029002042
:101CE000A8190210EC1902106419021070B586B020
:101CF0003E4B1B78002B00D16EE010223C4902A81D
:101D000012F0BCF93B4B1C78E4B201F053FDFFF735
:101D1000D3FD029B5840039B0193594002900391CD
:101D20000120FFF785FEFFF7C7FD049B0193584094
:101D3000059B01935940049005912F4B1A78531C31
:101D4000DB002E4958582E4B984248D00021FFF70F
:101D5000B3FD029B5840039B0193594002900391AD
:101D6000EFF3108672B6274B1B68002BFBD0BFF336
:101D70005F8F204B1B78DBB2A34213D01C4B029920
:101D80001A685140039A01925868424002910392A6
:101D90009A68DB68049901914A40059901914B408A
:101DA0000492059302A8FFF7E7FD05000C0010223E
:101DB00002A90F4812F062F90E4A13780133DBB220
:101DC0001370BFF35F8F0F4B00221A6086F31088E9
:101DD0002800210006B070BDFFF7FCFE8DE7013240
:101DE000D2000B000021D150B0E7C0460DFE00200C
:101DF000F0290020FFFD0020FEFD00200000034030
:101E0000FFFFFF00300100D010B5FFF76FFF10BDDE
:101E100010B5024800F03CF810BDC04678FB002029
:101E200010B50822014912F029F910BD78FB0020F5
:101E300010B5002901D000230AE0114B114A1F31CF
:101E4000114810F031FB00240DE03732C254013349
:101E50004A1E9A420FD90F2B0DD85A080B4CA25C80
:101E6000DC07F0D40424224114000F222240092A66
:101E7000EBDC3032EAE7C0180023037010BDC04627
:101E8000FC190210541A0210041A021078FB0020E8
:101E900070B588B0040004AD002604960922002124
:101EA00005A812F0E5F800960922002101A812F019
:101EB000DFF84B232B700D22694628001FF0D0F865
:101EC000002304E05A1D69468A5CE2540133072B63
:101ED000F8DD08B070BD0000EFF3108072B6034B60
:101EE0001B68002BFBD0BFF35F8F70472C0100D025
:101EF000BFF35F8F024B00221A6080F31088704797
:101F00002C0100D0F8B506000C001500FFF7E4FF27
:101F1000E308F718F15C07222240012393400B42AB
:101F200005D1DBB20B433B70FFF7E2FFF8BD2100A8
:101F3000280010F053FBF0B583B0060001911400A7
:101F40001F00FFF7C9FF00E00134BC420CD8E308D2
:101F5000F518F35C0721214001228A401A42F3D18F
:101F6000D2B21A432A7001E001246442FFF7C0FF95
:101F7000002C02DB200003B0F0BD019B002BF9D048
:101F8000089810F02BFB000070B505000C00FFF75F
:101F9000A3FFE308EE18EA5C07210C400123A340ED
:101FA000134204D09A433270FFF7A2FF70BD034B77
:101FB000034A2C31034810F077FAC046101C021077
:101FC0007C1C0210301C0210002307E0054A9A18FE
:101FD0009200BFF35F8F0021116001331F2BF5D9F1
:101FE0007047C04640000034054A1078431CDBB2FD
:101FF0001370172B02D9130010221A707047C046B5
:10200000081F002000B583B00100044B00931F237C
:1020100018220348FFF78FFF03B000BD8C1C02108D
:10202000E039002010B5010018231B881422108805
:10203000984710BD10B5010018231B881622108880
:10204000984710BDF0B5C64600B507000E00002544
:102050000123984600E00135B5420AD2AC003C1994
:102060002068FFF7DFFF20600028F4D100239846A6
:10207000F1E7404680BCB846F0BD0000F8B5DE464A
:1020800057464E464546E0B505000F0092460A9A6F
:10209000934250D31A0E91461E020A9A0023300032
:1020A000494611F0F9FB80466C006419A400304BDE
:1020B0009C4664446368834200D260602B1FDBB29D
:1020C0009B46012B3DD9C0239B0123438022120153
:1020D0001A60AB00274A9958002907D0506911F0BF
:1020E0009DFB431C5800C0180338FDD253465A01CB
:1020F00023685A40E0231A4080235B0123431A607F
:102100005A46012A28D980239B01234380221201A9
:102110001A6043466360424600233000494611F08E
:10212000BBFBAD00134B58510120F0BCBB46B2467F
:10213000A946A046F8BD104B104A3321104810F0B4
:10214000B3F9012FBFD1C0239B01234303221A609F
:10215000A368DB07FCD5C9E72168794003220A4060
:102160001A60A2680123BB401342FAD0CBE7C046F5
:1021700000800040E4390020A81C0210081D021055
:10218000BC1C021030B583B00C2001F0E3FEFFF759
:1021900089FB00280DD0002304E099002D4A2E4829
:1021A00088500133092BF8D92A4B2C4A5A6203B0C4
:1021B00030BD2B4B00229A6701F03EFF294B0122D4
:1021C0001A60274B5B6C012BFBD1274B03221A6053
:1021D000234B9B6B012BFBD1013300930433234A28
:1021E0000121234801F026FE05230093214A012105
:1021F000214801F01FFE214B009300220221042000
:10220000FFF73CFF1E4D00952B0000220121052009
:10221000FFF734FF104C0094230000220021072018
:10222000FFF72CFF00942300002200210820FFF775
:1022300025FF0A4B00932300002200210920FFF70D
:102240001DFF00952B00002200210620FFF716FF3E
:10225000ADE7C046E4390020006CDC021BB700008B
:10226000008000403CB0004030B00040002F685972
:1022700000800240008C864700C00240001BB7006F
:10228000405973078000014BC0587047E439002063
:1022900010B58300084A944663441C68402262409B
:1022A000C02414408022520113431C60C000034B21
:1022B0009C466044416010BD04C0014000400140A4
:1022C00080000B4B9C46604400290DD00823002A57
:1022D0000CD004221343026853400C221340802286
:1022E00052011043036070470023F0E70022F1E73A
:1022F00004C00140002909D08000094B9C4660447D
:1023000080239B0118430223036070478000044B25
:102310009C466044C0239B01184302230360F4E7FA
:1023200004C0014070B5D0231B061B689D00094CFA
:102330002C59204207D19B002043064C18510D20F8
:1023400000F042F970BD044B044ACC21044810F05F
:10235000ABF8C04664FB0020181D0210DC1D021003
:10236000441D021010B50400D0231B061B689B00FF
:102370000A4A9B5818420BD00D2000F03FFAD02398
:102380001B061B6805499B005A58A2435A5010BDB2
:10239000034B044AD621044810F086F864FB002061
:1023A0008C1D0210B81D0210441D021007230340AB
:1023B0009B00C00899403C308000014BC1507047E1
:1023C00000400140F8B507000C0016001D00FFF7A3
:1023D000EDFFFB089B00ED1807203840800084408B
:1023E000002E04D080239B011D432C60F8BDC02328
:1023F0009B011D432C60F9E710B5D0231B061B6819
:10240000002B03D0024BFFF7DDFF10BD014BFAE7B5
:10241000304101400041014010B501238340D022EA
:102420001206936293610521FFF732FF10BD000091
:10243000074B9B68103080001950BFF35F8FBFF3CC
:102440005F8F044B0021196082F310887047C046EB
:1024500000ED00E0240100D01F23181A704700008F
:1024600010B5091A081F0A4B9C466144094A91425B
:1024700008D8C30706D440104005400D064B18434A
:1024800080B210BD054B064AA321064810F00CF897
:10249000FC070000FE0F000000E0FFFF101E02100E
:1024A00088200210401E021010B5091A04394C0889
:1024B000090B08D14905490D064A11430180064B15
:1024C0002343438010BD054B054AAB2105480FF05F
:1024D000EBFFC04600F0FFFF00F8FFFF881E021070
:1024E0005C200210401E021001238340034A106842
:1024F0001840431E9841C0B27047C04600E100E05A
:10250000002904D0034B1860034B18607047034B3D
:102510001860FBE780E200E000E100E080E100E01D
:1025200010B5012383401800FFF7EAFF10BD00003B
:1025300001238340014A13607047C04600E200E077
:10254000024B9B6810308000C058704700ED00E0DF
:1025500010B5FFF7F5FF002805D0054BC01A2F284E
:1025600003D8012010BD0020FCE70020FAE7C04698
:102570000C1F002070B504000D00EFF3108672B63A
:102580000C4B1B68002BFBD0BFF35F8F2000FFF7C5
:10259000D7FF094B984201D0A84205D1320029004B
:1025A0002000FFF745FF70BD044B054A8621054812
:1025B0000FF07AFF240100D0CD010010981E021008
:1025C000BC200210401E0210F0B5DE4657464E46B3
:1025D0004546E0B589B0814601911500EFF3108AB8
:1025E00072B6744B1B68002BFBD0BFF35F8F724B2E
:1025F0000027DF57002F40DB7C00E419A4006F4860
:1026000024180622A2566C4B1A706D4B9A684B46E2
:1026100010339B00D35898461E001B1A2F2B38D915
:10262000684B98452FD105AE674B33807B009B46A6
:10263000D8198000614B9846404402306349FFF747
:102640000FFF7080624BB380FF23B371F571019B64
:1026500007935F44BF0047440ECE0EC701231C43BF
:10266000A046524641464846FFF7E2FE09B0F0BC9C
:10267000BB46B246A946A046F0BD564B564AD721A6
:1026800056480FF011FF564B534ADE2153480FF0C6
:102690000BFFC04340440C2111F0C0F8002912D1B7
:1026A00001239E43B34633000026DA79AA4211D9AA
:1026B0000621595600290CDB4A00521892001E00D0
:1026C0003E4B9B18F1E7474B434AEA2143480FF042
:1026D000EBFE1E00002E3AD005AB434A1A80813A29
:1026E0005A800623F3560293002B17DA3F4805ABB6
:1026F0009B469880029A9A71DD71019A0792301D6B
:102700002100FFF7ADFEB080B7717B00DB199B00A5
:102710002A4FFF185B4607CB07C7A2E77800C0190E
:102720008000264BC0180430321DB388D90A1C29FA
:1027300007D15B055915023149005118FFF790FE8A
:10274000D5E72B4B2B4AB12124480FF0ADFE05AE47
:102750001D4B33807B000293D8198000174A9046A6
:10276000020042440392901C1849FFF779FE7080E2
:10277000039A101D5946FFF773FEB0801E4B5A4650
:102780004146521A524153431B0DB371F571019AE0
:102790000792029B9C466744BF0047440ECE0EC77B
:1027A000114B5A461380813B538001231C43A046A2
:1027B00057E7C046240100D006FE00200C1F002071
:1027C00000ED00E0CD01001000A1FFFF3C1F002044
:1027D00001BDFFFFD01E0210A4200210401E0210F7
:1027E000F81E0210201F02100148000001BD000069
:1027F000941F021094200210AAAA0000F0B5CE4641
:10280000474680B583B006000D00EFF3108872B61E
:10281000564B1B68002BFBD0BFF35F8F544B9A685D
:1028200034001034A300D758524B9F4207D0AF4218
:1028300000D198E00197504BFB1A2F2B09D9424643
:1028400039003000FFF7F4FD03B0C0BCB946B04614
:10285000F0BD3000FFF748FE814600213000FFF751
:102860005FFEBFF35F8FEFF30581002901D08C423B
:1028700011D10123019C9C430022A368AB4212D0DA
:102880000622A256002A0DDB53009B189B00220053
:10289000394CE418F1E73621384B394AFF313948D1
:1028A0000FF002FE2200AB4256D106256557002DDF
:1028B00038DB6B005B199A002F4B9B189A68A2605B
:1028C000DA79E27106229A56A2719B795BB2002BEB
:1028D0000FDA2D48A0806B005B199B00264AD318A5
:1028E0002A4A11789971157049463000FFF718FE91
:1028F000A5E7201D6B005B199B001F4A9B181A1D42
:102900009B88D90A1C2907D15B055B150233590046
:102910005118FFF7A5FDDDE71D4B1E4AB1211948EF
:102920000FF0C2FD002912D1002A0ED0FF239371AF
:10293000194B9380154A1378A371184B0E49641AEA
:10294000644163431B0D1370CEE70A4FF2E7201D6D
:102950001349FFF7A9FDC7E76A21124B084AFF3167
:1029600008480FF0A1FD034F69E7C046240100D0DD
:1029700000ED00E0CD0100100C1F0020AC1F021084
:1029800074200210401E021001BD000006FE00204F
:10299000941F02109420021001BDFFFFAAAA00009C
:1029A000461F0020E01F021010B5032304009C43C3
:1029B000064A9446644422681840C000FC338340B1
:1029C0009A43130081400B43236010BD00E400E0F4
:1029D00070B5012101432E4BCB1A2F2B28D8EFF3D2
:1029E0000583002B2BD0EFF3108C72B6294A1268A6
:1029F000002AFBD0BFF35F8F274A0400244D641BDD
:102A000064416243120D54B2244A92689B00D2582A
:102A10008A421BD00022032A32D853009B189B0005
:102A20001B49CB189B795BB2A3421FD00132F2E75E
:102A3000C7211B4B1B4A49001B480FF035FD922153
:102A40001A4B184AFF3118480FF02EFD134A9268AE
:102A50001749D150174B1A7882711C70BFF35F8FE2
:102A60000C4B00221A608CF3108870BD0D005300CF
:102A7000991889006918FF268E710F4A8A80E9E744
:102A8000D1210E4B074A490007480FF00DFDC04603
:102A90000C1F0020240100D0AAAA000000ED00E0D5
:102AA000E81F021040200210401E021010200210E9
:102AB000CD01001006FE002001BDFFFF1C2002100A
:102AC0000022044B02E0044902C30132072AFAD96A
:102AD0007047C04600E400E08080808010B5FFF7BA
:102AE000BBFC01000148FFF74FFA10BD12FE0020A9
:102AF00000B583B00100064B009305230022054872
:102B0000FFF719FA002801DB1F23181A03B000BDD4
:102B10002420021012FE002070B504000E001500E3
:102B2000FFF762FA0100200000F006F8A680E580B9
:102B3000BFF35F8F70BD0000024B9C46614489006B
:102B4000016070474000003410B50400FFF74CFAF4
:102B500001002000FFF7F0FFFF232371BFF35F8F19
:102B600010BD10B50400FFF73FFA01002000FFF789
:102B7000E3FFFF23237100236371BFF35F8F10BD59
:102B8000034B9C46614489000160BFF35F8F70472F
:102B90004000003410B504000120FFF733FA0100B3
:102BA0002000FFF7EDFF10BD70B505000C00080018
:102BB00000F000FF0949200000F040FEFFF714FA82
:102BC000074B9C466044800068602C75D0231B0630
:102BD0001B786B75A400034BE55070BDED2E001003
:102BE0004000003498EB00200A4B1A68EFF3108184
:102BF00072B61368002BFCD0BFF35F8F054B1B68C8
:102C0000BFF35F8F00221A6081F3108840BF00205D
:102C10000021704788FD002010B5002922D00368EC
:102C20001B7B99421ED8174B9C466144090183685F
:102C30009C4661440C684968002A19D003681B7BD4
:102C40009A4215D883680F488446624412019A1844
:102C500010685368020001208B4201D80ED000207A
:102C6000C0B210BD084B094A3C2109480FF01CFCBA
:102C7000054B064A3C2106480FF016FCA242EFD84D
:102C8000EDE7C046FFFFFF0F54220210C0240210E0
:102C90001422021010B500291ED0037B99421BD8C4
:102CA0004B005B18033B0468A4466344002919D019
:102CB000002A1DD0914221D0002A25D0047BA242B7
:102CC00022D80468500080180338201881701978C1
:102CD00000291FD11A7010BD104B114A68211148EC
:102CE0000FF0E2FB104B114A6F310E480FF0DCFB86
:102CF0000F4B0E4A70210B480FF0D6FB0D4B0B4AC1
:102D0000712108480FF0D0FB044B054A68210548A3
:102D10000FF0CAFB41701A70DDE7C046782202103E
:102D20002C25021094220210E8220210082502101D
:102D3000F42202100023021070B506000D001400EA
:102D4000002914D0002A14D080687368984700289E
:102D500006D0220029003000FFF79CFF280007E082
:102D60002A0021003000FFF795FF200000E010004E
:102D700070BD0800FCE70000F0B583B005000092CC
:102D800001930AAB1C780BAB1F78002C26D003688C
:102D90005A7B944207D10123002B19D1002C3BD13F
:102DA000200003B0F0BD002C0CD01A7B944209D84F
:102DB0001A6863001B19033BD3189B78002BEBD0D8
:102DC0000123E9E73E4B3F4A68213F480FF06CFB87
:102DD0003E4B3F4A67213F480FF066FB03689C7BF0
:102DE000002CDBD012D01A7B94420FD8620012194B
:102DF000033A19688C46624451789973002900D1CE
:102E0000D9730023937053701370C7E72C4B2D4A6E
:102E100068212D480FF048FB002C3AD02B681B7B13
:102E20009C4236D82C4BE3181B01AA689446634495
:102E3000009A1A60019A5A60089A9A60099ADA60B0
:102E40002E68002C2BD030D0337B9C422DD86300D1
:102E50001B19033B32689446634400229A705A70EF
:102E60001A70717B22003000FFF766FF7073844296
:102E700000D095E7287D009A019B00F027FD061EF3
:102E800001D0002F17D00C9B002B00D188E71E70BB
:102E900086E7124B124A3C210E480FF005FB114BFE
:102EA000114AA52108480FF0FFFA054B054A682191
:102EB00005480FF0F9FA2868210000F03FFFE2E72B
:102EC000782202102C2502109422021018230210DE
:102ED0003825021014220210FFFFFF0F54220210A7
:102EE000C0240210102202101C250210F0B5DE468C
:102EF00057464E464546E0B58BB0099000230893EF
:102F00008200B54BD658370052E0B44BB44A3F214B
:102F1000B4480FF0C9FAB44BB44A3C21B4480FF09E
:102F2000C3FA002901D1002869D10021404600F0F0
:102F3000FBFEA04219D12A686B6806920793AB6822
:102F40009846EB689A464346002B14D0002C18D0C4
:102F50003B681B7B9C4214D8631EFA68D35C0893C1
:102F60001B0218433861002015E0A24BA24A8E21B3
:102F70009F480FF099FAA14B9F4A92219C480FF06D
:102F800093FA994B9E4A412199480FF08DFA0023FC
:102F90009A46984600207B68BFF35F8F00221A6034
:102FA00086F310884346002B32D1002800D10CE173
:102FB00000F000FC02000B1EA7DB002000210690A1
:102FC00007917868EFF3108672B601680029FCD08B
:102FD000BFF35F8F396888464C7B002CD7D09AD0DE
:102FE000097B8C4297D8874965182D01B9688C46B2
:102FF000654428686968801A9941002991DD2A682A
:103000006B68099800F062FC00239A469846C2E774
:10301000089B1B022343994651461800C0470500F0
:103020000E007A68EFF3108B72B6136859424B4169
:10303000D9B2002BF9D1BFF35F8F002E1EDB002E1B
:1030400046DD3B69002B47D04B456DD100F0B2FB0C
:1030500002000B1E6EDB52197341002B70DB002B3C
:1030600072DB0021049101310391029451460191D8
:10307000414600913800FFF77FFE4CE03B69002B92
:10308000DDD04B4514D1069A079B521BB341002B50
:1030900014DB002B16DB0021049101310391029413
:1030A00051460191414600913800FFF765FE32E03C
:1030B000554B514AA1214E480FF0F6F901225242D8
:1030C000524BE6E7454B464A3F2146480FF0ECF9A4
:1030D000002E01D1002DB4D13B68002C50D05A7B7A
:1030E000944237D1012100294AD1DA7B002A4DD1FF
:1030F0009A7B002A03D1DA7B002A5AD19C73DC73B5
:10310000002C5CD03B681B7B9C4258D8FA68013C81
:10311000135D0133135500233B617A68BFF35F8F62
:1031200013608BF3108843E7374B334AA4213048B0
:103130000FF0BAF9294B2A4A3F212A480FF0B4F977
:1031400001225242314B8AE7244B254A3F21254830
:103150000FF0AAF9002C0DD01A7B94420AD8620015
:103160001219033A1868844662449278002ABAD049
:103170000121B8E7264B274A682127480FF094F928
:10318000264B274AF62124480FF08EF9002A0AD050
:10319000197B8A4207D851008A18033A19688C466D
:1031A00062445470A4E71A4B1A4A68211A480FF077
:1031B0007BF91C4B1A4AFB2117480FF075F90A4B93
:1031C0000F4A41210A480FF06FF90BB0F0BCBB4623
:1031D000B246A946A046F0BD98EB00202417021085
:1031E0008C2402104017021054220210C024021036
:1031F0001422021040230210A424021058230210AB
:10320000E4240210FFFFFF0F64230210FFFFFF7F83
:10321000782202102C25021094220210A023021002
:10322000F8240210C423021010B50C4B5B68002B6D
:1032300004D00A210A48FFF77FFC10BD074C230089
:10324000084A1021206800F07FFC032000F0A6FA55
:1032500003212000FFF7A8FCEBE7C046541F002025
:1032600088FD0020192C001010B5064B5B68002B60
:1032700001D0044810BD044B044A5E2104480FF0FD
:1032800013F9C046541F0020D8230210CC2402108A
:1032900014220210F0B5DE4657464E464546E0B5CC
:1032A0008BB0804616001F00149B9A46159B9946CA
:1032B00016AB1B789B461F2302AA94466344002248
:1032C0001A702BE0002809D042461268127B904207
:1032D00004D8421E4146C9688A5C41E0404B414ADD
:1032E000412141480FF0E0F807984CE0361BAF4110
:1032F000002F07DB002F11DA3C4B3D4A3F213D48B0
:103300000FF0D2F8012676423B4FF3E7374B384AAD
:103310003F2138480FF0C8F8002F4FDB43465A686A
:10332000EFF3108472B6136859424B41D9B207913A
:10333000002BF8D1BFF35F8F1F3302AA944663447A
:1033400004930023039302934B4601935346009347
:1033500032003B004046FFF70FFD031EB2D10200D2
:1033600041464968BFF35F8F00250D6084F31088E4
:10337000002B29D01F2302A98C4663441B78002B05
:10338000B2D112021043002B20D05B46002B1DD07F
:103390004946D04704000D0003000B431DD000290F
:1033A000A4DB00F007FA06000F1EAFDB36196F41F1
:1033B000002FB1DA012676420F4FADE70B4B0C4AD6
:1033C0003F210C480FF070F8012040420BB0F0BCD8
:1033D000BB46B246A946A046F0BD0798F6E7C046F0
:1033E00054220210E42402101422021024170210A6
:1033F0008C24021040170210FFFFFF7FF8B5040075
:10340000002900D162E04268EFF3108572B61368BC
:1034100058424341D8B2002BF9D1BFF35F8FCBB2F2
:103420002268567BB3421BD10120002848D0206976
:1034300088422BD0090AC9B2002B2ED02068007B0D
:1034400083422AD8581EE668305C88422BD0002080
:103450006368BFF35F8F00221A6085F31088F8BDA0
:10346000002B0DD0167BB3420AD85E00F618033E3F
:103470001768BC466644B678002ED6D00120D4E743
:10348000134B144A682114480FF00EF82C21134BEB
:10349000134AFF3113480FF007F8134B134A412129
:1034A00010480FF001F81900100000F047FC002848
:1034B000CED199210E4B0A4A49000A480EF0F4FF7A
:1034C00023698B42C4D100232361C1E70020C6E7F2
:1034D000782202102C25021094220210FC230210E4
:1034E000742402101422021054220210E424021048
:1034F00020240210407D7047F0B587B006000F0011
:10350000EFF30583002B1FD106246442E517A419AD
:103510007D418D4202D803D1844201D90024002587
:10352000002D14DB0494059500F044F902000B1EF5
:1035300013DBA41A9D41002D17DC14D03000390094
:1035400000F044F907B0F0BD23480FF047F8234BD3
:10355000234A3F2123480EF0A7FF204B204A3F215A
:1035600020480EF0A1FF002CE8D0FFF77DFE0023DD
:10357000029301931C4B0093049A059BFFF78AFE6C
:10358000002818DADAE7002300E00023002BD5D169
:10359000164B1A68EFF3108172B61368002BFCD03B
:1035A000BFF35F8F114B1B68BFF35F8F00221A6060
:1035B00081F3108820BF0499059A0D4B5B6A9A42EB
:1035C000E3D80B48806A884203D29A42DBD00123B9
:1035D000DCE70123DAE7C046242402102417021096
:1035E0008C24021040170210E92B001088FD0020E7
:1035F0000040054070B504000D0000F0DBF802004B
:103600000B1E0ADB200029008018594100290ADB23
:1036100000290CDBFFF770FF70BD084B084A3F2103
:1036200008480EF041FF012040420749F0E7034BF4
:10363000034A3F2103480EF037FFC046241702100B
:103640008C24021040170210FFFFFF7F10B5FA22F2
:1036500092000023002110F077FCFFF7CBFF10BD94
:1036600070B584B005000C00EFF30583002B1ED16C
:10367000FFF7FAFD002302930193224B00932A00E7
:103680002300FFF707FE061E23DD20BFFFF7ECFD3A
:103690003100FFF7B3FE1C4B5B6A9C422DD81A4ADF
:1036A000926AAA422CD29C4225D0012026E0164BD9
:1036B0005B6A994209D8144A926A824207D29942B7
:1036C00001D001201AE0002018E0002016E00120BF
:1036D00014E00D4B5B6A9C4209D80B4A926AAA42DD
:1036E00007D29C4201D0012008E0002006E0002023
:1036F00004E0012002E0002000E0002004B070BDE2
:103700000120FBE7E92B00100040054070B5EFF306
:1037100005801038EFF3108C72B61A4B1B68002B23
:10372000FBD0BFF35F8F01221300834016494B6328
:1037300016490B60164909780C00C440224214D087
:10374000114A546A8200134D5259944206D38200A2
:10375000114C125999430E4B197007E00A4A031D88
:103760009B0099589950002200E00022BFF35F8F20
:10377000044B002119608CF31088002A00D0904778
:1037800070BDC046280100D0004005403C70054097
:1037900011FE002094FD0020B037002010B501007C
:1037A000024A0348FEF7AEFB10BDC0465825021082
:1037B00000FE0020044B5B6A034A906A1900536ABA
:1037C0009942F9D17047C04600400540084B5B6AFA
:1037D00001E0074B5B6A8B42FBD301E0044B5B6A61
:1037E0008B4203D1024B9B6A8342F7D37047C0469A
:1037F0000040054070B504000D00FFF7DBFF02003C
:103800000B0020002900801859418B4202D804D1B6
:10381000824202D901204042C117002902DBFFF792
:10382000D5FF70BD024B034A3F2103480EF03CFE1A
:1038300024170210082602104017021070B5040069
:103840000D00EFF3108672B61B4B1B68002BFBD0EC
:10385000BFF35F8F002D1CD02000FEF771FE174BC9
:1038600083420BD019002000FEF784FE01212000C6
:10387000FEF756FE0123A340114A1360A400114B2A
:10388000E550BFF35F8F0C4B00221A6086F310885F
:1038900070BDA2000B4B0021D1500122A2400A4969
:1038A0000B7893430B7005492000FEF7A7FF00211A
:1038B0002000FEF735FEE4E7280100D00D370010A8
:1038C00038600540B037002011FE0020F0B5DE461C
:1038D00000B584B00400150001921E000293FFF7AA
:1038E00069FF03958E4202D84ED185424CD9EFF341
:1038F000108B72B6274B1B68002BFBD0BFF35F8F7A
:10390000254A17780125A540EBB23B431370234BA2
:103910005D63221D92000199D150A20020490298B6
:1039200050501B6A2B4212D11C4B1B6C2B4208D0EF
:103930000020BFF35F8F174B00221A608BF31088B3
:1039400023E0184B184AC52118480EF0ADFDFFF7CB
:1039500031FF8E4214D802D1039B834210D80E4B04
:103960001B78BB420ED00D4B1D625D631F200440CF
:103970000123A3400E4A1360074B1F701E38D8E77F
:103980000020D6E70120D4E7012004B080BCBB466C
:10399000F0BDC046280100D011FE002000400540C7
:1039A00094FD00207C250210EC250210A0250210B9
:1039B00080E200E0EFF3108C72B60B4B1B68002B1B
:1039C000FBD0BFF35F8F01238340084A136208498D
:1039D0000A789A430A70BFF35F8F034B00221A6084
:1039E0008CF310887047C046280100D00040054085
:1039F00011FE002010B500291ED0037B99421BD870
:103A00004B005B18033B0468A4466344002919D0AB
:103A1000002A1DD0914221D0002A25D0047BA24249
:103A200022D8046850008018033820188170197853
:103A300000291FD11A7010BD104B114A682111487E
:103A40000EF032FD104B114A6F310E480EF02CFD76
:103A50000F4B0E4A70210B480EF026FD0D4B0B4A02
:103A6000712108480EF020FD044B054A68210548E5
:103A70000EF01AFD41701A70DDE7C0467822021080
:103A80001827021094220210E822021004270210C4
:103A9000F42202100023021070B506000D0014007D
:103AA000002914D0002A14D0806873689847002831
:103AB00006D0220029003000FFF79CFF280007E015
:103AC0002A0021003000FFF795FF200000E01000E1
:103AD00070BD0800FCE7000010B5002343730133FC
:103AE0008373037BC3730123027B9A4214D9002B97
:103AF0000CD0027B934209D85A00D218033A0168CD
:103B00008C4662440133DBB25370EDE70B4B0C4A39
:103B100068210C480EF0C8FC002A09D0924207D850
:103B2000016853009A18033A8A180023537010BD95
:103B3000024B034A682103480EF0B6FC78220210BB
:103B4000182702109422021010B50173426083609E
:103B5000FFF7C2FF10BD000070B50400081E00D1C1
:103B600070BD002934D0237B994231D84B005B18BB
:103B7000033B2268944663445A78002AF0D02DD043
:103B8000237B9A422AD853009B18033B21688C461A
:103B900063445D7800215970002825D0237B98422A
:103BA00022D843001B18033B21688C466344002144
:103BB000597001002000FFF76FFF06002900200068
:103BC000FFF7CAFF020031002000FFF765FFC7E7DB
:103BD000084B094A682109480EF066FC054B064A65
:103BE000682106480EF060FC024B034A6821034836
:103BF0000EF05AFC782202101827021094220210AC
:103C000070B505000C00160000292FD034D0037BBE
:103C1000994231D84B005B18033B026894466344D9
:103C20005A78002A2ED19A78002A31D11978FFF7D4
:103C300093FF0300002E0AD0EA7B002A2ED1AA7B34
:103C4000002A03D1EA7B002A3BD1AC73EC73002B32
:103C50003DD1002C4FD02B7B9C424CD82B6861006F
:103C60000C19033C1C190023637070BD254B264AB8
:103C7000382126480EF018FC254B264A6821264894
:103C80000EF012FC254B204A3A2120480EF00CFC85
:103C9000234B1D4A3B211D480EF006FC002A0AD08A
:103CA000297B8A4207D851008A18033A29688C4632
:103CB00062445470C3E7164B164A682116480EF04A
:103CC000F3FB184B104A422110480EF0EDFB002B7D
:103CD0000BD02A7B934208D843001B18033B2A6869
:103CE0009446634400229A70B3E7094B094A68215D
:103CF00009480EF0D9FB064B064A682106480EF02B
:103D0000D3FBC04620260210F026021028260210FF
:103D10007822021018270210942202106C2602103A
:103D200094260210C423021070B504000A00457BDB
:103D30002900FFF765FF6073280070BD70B50400AF
:103D4000002967D0437B8B420ED0002911D0037B22
:103D500099420ED84B005B18033B0268D018837859
:103D6000002B0CD1002056E00121FFF7DDFF0120E0
:103D700051E0294B294A682129480EF095FB002B78
:103D800020D0227B93421DD85A00D318033B2268CF
:103D9000D2182568EB5C8B421AD0002B1BD0227BFB
:103DA000934218D85A00D318033B2268D21853788C
:103DB0008B4216D0002BF0D11A4B1B4A6B211B48AB
:103DC0000EF072FB144B154A682115480EF06CFB7F
:103DD0004378137007E0104B104A682110480EF02A
:103DE00063FB4378537000238370437001222000EB
:103DF000FFF706FF0200617B814205D02000FFF73C
:103E00004BFE6073012006E0094B074A7121074809
:103E10000EF04AFB002070BD782202101827021015
:103E2000942202101C200210D8260210282602100C
:103E3000B8260210F0B5C64600B504000E00170003
:103E40001D0037480FF0EAFC8046364BFA18364B17
:103E50009A4239D8010038000FF0E0FC0200103A15
:103E600098235B009A4235D86B1E062B38D8069BE8
:103E7000013B062B34D83F09474537D32D04069B19
:103E80001A0315432368002B36DB284B9C4244D091
:103E900080225201264B1A60264B1A60264B9B68E3
:103EA00011009943FAD12660A060231DC02292011F
:103EB0001A43212313602368002BFCDAE5600823F2
:103EC000136080BCB846F0BD1C4B1D4A11211D4833
:103ED0000EF0EAFA1C4B1A4A19211A480EF0E4FABD
:103EE0001A4B174A1C2117480EF0DEFA184B144AD9
:103EF000232114480EF0D8FA22683F231340B3421E
:103F0000C3D1A3681B051B0D8342BED1E368EE221B
:103F1000D2021340AB42B8D1D3E780229201B9E775
:103F2000001BB70080E84BD380F8A93200C00240E4
:103F300000E0004000F0004000C0004024270210D4
:103F40005028021084270210CC270210E827021004
:103F50003428021080239B000343014AD362704738
:103F600000800540024B1A68024B5A607047C046F9
:103F7000805100200080054010B50200164B8020C3
:103F8000C0051860154B1648186000290AD0154B5B
:103F9000E021C9041960002A09D1124B80221206BF
:103FA0001A6010BD0C4BE021C9041960F3E75301FE
:103FB0009B1A9800801800010B4B186080235B044B
:103FC000984202D3084B094A1A60FFF7CBFF054B12
:103FD0008022D2051A60E4E700B0054008200140C5
:103FE000FCFF010000A0054080510020FFFFFF0002
:103FF00010B5030010000C4A8024E4051460002B67
:104000000DD001221343094A094CD461094C5C408C
:104010001462516293620021FFF7AEFF10BD034BA3
:104020000022DA61F7E7C04600B005400080054095
:10403000D3C007B02D3FF84F064BAA2212011A60D9
:104040002F22DA60044B054A1A60024B5B68002B92
:10405000FBDA7047004002400060024000B0FA0006
:1040600010B501F09BFC00F00DFC00F0E5FD00F048
:1040700089FE05F0E7FD01F051FD00F060FA05F062
:1040800019FD10BD0302000A184380B270470306F1
:104090000202FF2109040A401343020AFF21090218
:1040A0000A401343000E18437047F8B5CE46474602
:1040B00080B580460F00914608001BF0B1FA061E3D
:1040C00017D0444600E001342578002D17D0A319FD
:1040D00042464A4493420AD83B78AB42F3D132007D
:1040E000390020001BF0CAFA0028ECD102E00024BD
:1040F00000E044462000C0BCB946B046F8BD0024EC
:10410000F8E730B501E0002C14D0047801300B78CA
:1041100001319C42F7D020222243D2B21500613DEA
:10412000EDB2192D08D820252B43DBB29A42EAD0F4
:10413000012000E0002030BD0120FCE700280AD06B
:10414000C07A002809D1431C9B00054A9B58002BCC
:1041500004D0012002E0002000E000207047C046AB
:104160009C44002010B5FDF74FFE80B2002301E013
:104170000133DBB2032B0FD81A01D2181201074901
:104180008A18927A022AF3D11A01D21812018A18D7
:1041900012898242ECD1E6E710BDC046A44400205B
:1041A000F0B5D6464F464646C0B5060088460024C0
:1041B00001E00134E4B2032C23D8250063001B196D
:1041C0009B00314A9F58002FF3D063001B199B00BE
:1041D000D3181B7AB342ECD13001801900011030A2
:1041E0002A4BC0189246630099461B199B00534402
:1041F0005A684146B8474D44AD0000235246AB5083
:10420000D7E7002301E00133DBB2032B1BD8B34215
:10421000F9D01A01D21812011C498A18927A022A7E
:10422000F1D11A01D21812018A18D07B32019219E9
:1042300012018A18D27B9042E5D133019B191B01F0
:10424000CB180422DA7333019B191B010F4AD318D0
:10425000DB7B032B04D9E0BCBA46B146A846F0BDCF
:104260000B4C9B00185905F0EBFF084A30018319ED
:104270001B01D318DB7B9B00002119518019000121
:1042800010180423C373E6E76C440020A444002004
:104290005C440020F0B5D6464F464646C0B584B0D3
:1042A0008046030143441B01534AD318DB7A012B98
:1042B00034D89B00514A9B58002B32D0040144440F
:1042C000240110344C4BE41820001BF0A9F9A02263
:1042D000123081B29200362000F0E8FF81460028BB
:1042E00000D185E001AD0C22002128000FF0C0FEB6
:1042F00043461B0143441B013F4AD3181889FFF76B
:10430000C1FE28800123AB70FF33AB800C22290053
:10431000484601F0F3F9661E0C2737E038480EF0E6
:104320005DF90021FFF73CFF4346180140440701B7
:10433000314BDF190023BB720024200004B0E0BC25
:10434000BA46B146A846F0BD0134E4B2013633782E
:104350002E2B01D0002BF7D1731B9BB29A463B1931
:10436000284A934216DC22003900484601F060FAE0
:104370007B1C9BB252462900484601F00BFA3C19BF
:10438000A5B26F1CBFB23378002B09D001363500BF
:104390000024DCE7484600F04BFF06246442CCE7EB
:1043A00000223900484601F043FA0235ABB28022C0
:1043B000520069460A804A80FC3A484601F0EAF910
:1043C0000D4943461B0142469A1812018A18D07BB8
:1043D000D37A9B00094AD21880000B4940583523F4
:1043E000494605F0A5FE0400484600F021FFA4E779
:1043F00001246442A1E7C046A44400209C4400205C
:104400005C280210FEFF00005C44002070B5040030
:10441000000100190001414BC018032C20D82301D2
:104420001B191B013D4AD3189B7A022B34D01AD892
:10443000002B14D0012B00D06CE0FFF793FE37491E
:10444000220113191B01CB18188102209872002039
:10445000D87201251D7358732000FFF71BFF70BD34
:104460002F480EF0BBF8032B54D123011B191B015D
:104470002A4A9B58002B07D0013B22011219120136
:1044800026495350002BEAD1200104192401234866
:1044900004190023A372E2E723011B191B011F4A21
:1044A000D218137B013BDBB21373002BD7D123014E
:1044B0001B191B01194AD218537B0133DBB253730A
:1044C000042B09D022011219120114498A181373FE
:1044D0002000FFF7DFFEC2E7FFF730FE00280DD017
:1044E0000E49220113191B01CB18D87A0130D8725A
:1044F000012018731A0000235373E9E700212000FC
:10450000FFF74EFE200104192401044B1C1900235F
:10451000A372A4E703480EF061F8C046A44400204B
:10452000742802109028021010B5002404E0200026
:10453000FFF76CFF0134E4B2032CF8D910BD7047CB
:10454000012800D97047002904D080000A68044B74
:10455000C250F7E78000034B1A68014BC250F1E7E5
:104560009C440020884F021010B5FFF7DDFF10BDFE
:1045700030B583B06B460022DA8001231D00054070
:10458000184206D0002904DD02786B46DA71013941
:104590000130032213000340104209D0012903DD3A
:1045A00003880239023003E0002301E008392000CB
:1045B00007290CDD0268D218934200D901320400A9
:1045C000083443689B189A42F0D90133EEE71A0C7D
:1045D0001B041B0CD31803E002889B18023902301D
:1045E0000129F9DC002902DD01786A4691716A46E9
:1045F00006321288D318180C1B041B0CC318180C95
:104600001B041B0CC018002D05D003061B0C020A4E
:10461000FF201040184380B203B030BDF0B583B026
:104620000600019115001C00002700E03668002EEE
:1046300015D071897068FFF79BFF0019040C000406
:10464000000C24187389DB07F0D57B425F41FFB271
:104650002206120C230AFF241C401443E6E7002F15
:1046600005D02206120C230AFF241C4014436B467B
:104670009888FFF707FD24182800FFF703FD20188E
:10468000030C0004000C1818030C0004000C18188C
:10469000C04380B203B0F0BD70B51C6825042D0C7A
:1046A000230C5B19049C246825042D0CED18230CA5
:1046B0005B191C0C1B041B0CE3181C0C1B041B0CAF
:1046C000E318FFF7ABFF70BD10B582B0049C0094F7
:1046D000FFF7E2FF02B010BD10B5FFF749FFC0437E
:1046E00080B210BD70B505000026002400E02D68E2
:1046F000002D15D069896868FFF73AFF0019040C8E
:104700000004000C24186B89DB07F0D573425E416E
:10471000F6B223061B0C240AFF2004401C43E6E7E4
:10472000002E05D023061B0C240AFF2004401C4346
:10473000E04380B270BD0000014B1B681818704741
:10474000A8EB0020024B1B68C01A80B27047C0461D
:10475000A8EB0020F8B50400FFF7F4FF0500278858
:104760003800FFF7E9FF060064882000FFF7E4FF48
:10477000FA231B019F420FD89C420FD8AC4202D0B3
:104780000388AB420CD1094B1B68B3420AD0738833
:10479000AB4209D1012000E00020F8BD0020FCE779
:1047A0000020FAE70120F8E70020F6E7ACEB002054
:1047B00070B504002C4B1B68834242D82B4B1D68FC
:1047C000854241D90379002B41D10088FA231B018E
:1047D00098423FD8FFF7B0FF844216D00379002BF0
:1047E00013D1854211D0224B1B68834235D00388F8
:1047F00023800088FA231B01984206D0FFF79CFF14
:1048000005002000FFF79EFF68806088FFF794FF97
:104810000500844214D00379002B11D1144B1B687E
:10482000A3421DD023882B802088FA231B019842A5
:1048300006D0FFF781FF04002800FFF783FF6080A8
:1048400070BD0C480DF0CAFE0B480DF0C7FE0B48BA
:104850000DF0C4FE0A480DF0C1FE054B1C60C6E712
:10486000034B1860DEE7C046A8EB0020ACEB00204D
:104870007C510020B0280210C8280210E428021041
:104880000029021070B50C4C033403239C430B4BDE
:104890001C60FA252D0125800023638023712800E8
:1048A000FFF74AFF064B186001230371058045801E
:1048B000044B1C6070BDC046B0EB0020A8EB00208C
:1048C000ACEB00207C51002070B5041E23D0830780
:1048D00022D10500083D164B1B68AB421FD80300D0
:1048E0000C33144A1268934219D80300083B1B7911
:1048F000002B17D02800FFF72DFF002815D0083C0B
:10490000002323710C4B1B68AB4201D90A4B1D607D
:104910002800FFF74DFF70BD08480DF05FFE084806
:104920000DF05CFE07480DF059FE07480DF056FEED
:10493000A8EB0020ACEB00207C5100202C290210B9
:10494000502902106C29021094290210F0B5C646B5
:1049500000B50500CC1CA4B203239C430B2C05D945
:10496000FA231B019C4202D900253FE00C248C4213
:1049700000D277E03C4B1B68AB423BD83B4B1B68FB
:10498000AB4237D92F00083F3800FFF7DBFE0600A7
:104990003F883B1A9BB2083B9BB298469C422CD85E
:1049A00024D03800FFF7C8FE0379002B31D1FA2359
:1049B0001B019F4224D00788A419A4B20834A4B2D2
:1049C0002B4B1B6883421ED02000FFF7B5FE00234F
:1049D0000371078046802B00083B1C800088FA2367
:1049E0001B01984202D0FFF7A7FE4480280080BC3C
:1049F000B846F0BD1F480DF0F1FD1F480DF0EEFD6B
:104A00001E480DF0EBFD2000FFF796FE184B1860D6
:104A1000DAE7230014334345E8D8A419A4B20834D4
:104A2000A4B2FA231B019F4219D02000FFF784FE95
:104A30000F4B1B68834201D90D4B18600023037193
:104A40002B00083B1A88028046801C800088FA23CD
:104A50001B019842CAD0FFF76FFE4480C6E70748A3
:104A60000DF0BCFD0025C1E7A8EB0020ACEB002059
:104A70007C510020C8290210E0290210002A0210EF
:104A8000F0B5CE4600B582B0002800D182E0C51C4A
:104A9000ADB2032295430B2D05D9FA231B019D428C
:104AA00002D9002072E00C25854200D274E03B4B15
:104AB0001B6899461800FFF745FE070032E03848AA
:104AC0000DF08CFD01230371A14510D0019BE51869
:104AD0000835344B1B689D421DD8A3071ED120000A
:104AE000083053E04B461888FFF726FE81464B46B8
:104AF0001B79002B03D02B4A12684A45F2D1274A72
:104B000049461160274A12684A45DFD0002BDDD0A4
:104B100025480DF063FD25480DF060FD24480DF09B
:104B20005DFD27883E000195FA231B015B1B9F4218
:104B30002BD23800FFF700FE04000379002BF0D1E0
:104B400003889E1B083E019B9E42EAD314339E427B
:104B5000B8D37E19B6B20836B6B2FA231B019E420C
:104B6000ADD03000FFF7E8FD0023037123880380F8
:104B700047802680012323710088FA231B01984275
:104B8000A2D0FFF7D9FD46809EE7002002B080BC8E
:104B9000B946F0BD0020F9E70020F7E77C5100207E
:104BA000002A0210ACEB0020142A0210302A021056
:104BB000602A021010B50400FCF786FDE3681C684B
:104BC000002C0AD022681A60A30703D1FCF77EFDEF
:104BD000200010BD02480DF001FDFCF777FDF7E75E
:104BE000902A021070B505000C008B0709D1FCF764
:104BF0006BFDEB681B682360EB681C60FCF766FDCF
:104C000070BD01480DF0EAFCB42A0210C36800220E
:104C10001A608368033303329343002207E0C168BC
:104C200009681960C1680B6081885B180132C1880E
:104C30009142F4DC7047000010B5002406E0A200A9
:104C4000044BD058FFF7E2FF0134A4B2082CF6D988
:104C500010BDC046042C021010B5082805D88000ED
:104C6000044BC058FFF7A6FF10BD03480FF0E2FB4E
:104C70000020F9E7042C0210D42A021010B50828ED
:104C800007D8002904D08000044BC058FFF7AAFFC2
:104C900010BD03480FF0CEFBFAE7C046042C02100B
:104CA000F42A02100B688268934206D0002902D0D1
:104CB0008360012070470023FAE70020FAE70B68C1
:104CC000C268934206D0002902D0C3600120704719
:104CD0000023FAE70020FAE70C204042704770B545
:104CE00004000D0001F09AFA2900200005F0D8FA1E
:104CF0002900200000F036FE70BD000010B500282D
:104D00000DD03923C25C343B1340052B06D1CB07B1
:104D100004D54368002B01D0130703D410BD03480A
:104D20000DF05CFC011D06F0A3FEF7E7282C021035
:104D300030B583B005000C001000002908D0002A0F
:104D400009D06B680A689A4208D1002003B030BDD0
:104D50000B480DF043FC0A480DF040FC0192036043
:104D600001A9FFF7BCFF23686B6001212800FFF752
:104D7000C5FFEB69002B01D0280098470120E5E72B
:104D80004C2C021070470000F0B5C64600B582B04A
:104D900005000C0017001E00002920D0002F20D095
:104DA000002E20D0002C02D02368002B1DD101AA98
:104DB00021002800FFF7BCFF01239846002239009C
:104DC0002800FFF76FFF002231002800FFF777FF70
:104DD0004346002B0CD002B080BCB846F0BD074C57
:104DE000DCE7064FDCE7054EDCE700239846E5E705
:104DF00001AA21002800FFF79BFFECE7884F021073
:104E0000F0B5C64600B504000E001700984600280D
:104E100032D0079B002B34D0002937D0002F37D059
:104E20004346002B36D000256560A560E560354B14
:104E30006361258600223923E254200028300422B1
:104E400000210FF015F9E5612562069B63622E4B88
:104E50001A783C23E254089B236143463A00310010
:104E60002000FFF791FF2000079B9847002823D0E0
:104E7000002080BCB846F0BD24480FF0DBFA2000CB
:104E8000F7E723480FF0D6FA0020F2E7214EC5E7F6
:104E9000204FC5E71F4B9846C5E7C33B0022E254AD
:104EA0000EE01D480DF09AFB1C480DF097FB0131F8
:104EB0003C22A154002B15D03C23E35CFF2BECD00B
:104EC000174B1D682B000022002BF3D09C42E8D02A
:104ED0000132FF2AE8DC3C21585C615C8842E6D064
:104EE0001B68F1E73C33E35CFE2B07D00133064A35
:104EF000137025600A4B1C602000BAE7024B0022A9
:104F00001A70F6E7D94C001009FE00205C2C021044
:104F1000782C0210884F02109C2C0210B02C02102A
:104F200084EB0020014B18607047C04680EB0020E6
:104F300010B5041E10D03923C35CDA070BD401224C
:104F4000134339228354C369002B00D098470321AF
:104F50002000FFF7D3FE10BD01480FF06BFAFAE70F
:104F6000E02C021010B5041E0FD03923C35CDA0701
:104F70000AD501229343383283541B0709D4E369CD
:104F8000002B01D02000984710BD03480FF052FAC3
:104F9000FAE706F0BFFCF2E7FC2C021010B5041E85
:104FA00028D04368002B12D13923E35CDB0713D4EC
:104FB000114B1B68A34213D0104B1B68A34213D0A4
:104FC000002B17D01A68A24212D01300F8E7043061
:104FD0000021FFF784FEE7E72000FFF7C3FFE7E7C4
:104FE0000020FFF79FFFE7E72268044B1A6001E00B
:104FF00022681A6010BDC04680EB002084EB0020C0
:1050000010B5041E04D03923C35C5A0704D510BD63
:1050100009480FF00FFAFAE70422134339228354A8
:1050200006F082F803212000FFF768FE236A002BB8
:10503000EDD020009847EAE71C2D021010B500289B
:105040000CD03923C35C5A0707D504229343353269
:105050008354036A002B00D0984710BD01480FF01D
:10506000E9F9FAE7402D0210021E0BD0064B186832
:10507000002808D03C23C35C0133DBB2934202D04A
:105080000068F5E70020704784EB002030B504ACE1
:1050900025780024046041600281438103AB1B78C2
:1050A0000373457301238373C47330BD02E0C91ACF
:1050B00089B20068002802D043898B42F7D9002AC0
:1050C00000D011807047000010B5FCF7FDFA034BCB
:1050D00001221A70FCF7FAFA10BDC0460BFE002040
:1050E00070B500281AD080235B02994221D2002992
:1050F00021D08CB203891B199BB2A3421DD30C256E
:105100004557002D0DDB002A19D04268511A416025
:10511000428914194481038100200BE009480DF0F5
:105120005DFA4268511A020010328A42EFD901201A
:1051300000E0012070BD0020FCE70120FAE701201B
:10514000F8E7C046E048021010B5FCF7BDFA084B7E
:1051500000221A70FCF7BAFA064B186800E0C06823
:10516000002804D0436F002BF9D000F0D5FE10BD0D
:105170000BFE0020A4FD0020F0B583B007000E0058
:105180001500412A01D0012A0FD10720FFF764FD45
:10519000041E07D00023019300953300320039002C
:1051A000FFF774FF200003B0F0BD01480DF016FAC0
:1051B000642D021010B50022FFF792FF10BD000011
:1051C00010B5002814D080235B02994218D2002920
:1051D00018D08AB2438993420DD34468A4466144EF
:1051E00041609B1A438103899A1A0281002010BDF5
:1051F00005480DF0F3F905480FF01CF90120F6E71A
:105200000120F4E70020F2E7E0480210782D0210B8
:1052100010B5002902DBFFF763FF10BD4942FFF71D
:10522000CFFFFAE710B50122FFF7F2FF10BD000033
:1052300070B5051E01D000260CE019480DF0CEF91E
:1052400018480DF0CBF929000820FFF717FD0136AB
:10525000F6B22500002D21D0FCF736FAAC7B002CED
:10526000EED0013CE4B2AC73FCF730FA002C15D15F
:105270002C682A7B0F231340022BE4D0012B05D08E
:10528000002B08D12800FFF71FFBE0E729000720CB
:10529000FFF7F4FCDBE704480DF0A0F9300070BD27
:1052A000E0480210982D0210B02D0210F0B5D6463D
:1052B0004F464646C0B582B005000F00904684B206
:1052C000C1235B009A4241D011D8012A02D0412A61
:1052D00000D07DE0424639000020FFF74DFF8146B7
:1052E000484602B0E0BCBA46B146A846F0BDA0238D
:1052F0009B009A426CD1E31C03218B439BB2FA1CA6
:1053000094B28C431B199BB21800103080B28A43B0
:10531000934260D3824261D8FFF7B2FB81460028F6
:10532000DED029001031494403310324A143002376
:105330000193434600933B003A00FFF7A7FE4B461C
:105340005B682342CCD027480DF048F900250023A4
:10535000994626E0FFF7B8FE4B46002B02D04846A0
:10536000FFF766FFA946BBE7B6B221001031691806
:1053700003310324A14300230193434600933300E8
:105380003A002800FFF782FE6B6823421BD14B4690
:10539000002B1BD053461D60BF1BBFB20024002F43
:1053A0009ED0AA460820FFF757FC051ED2D0E31C6A
:1053B000032293439AB20C4B9B1A9BB21E1CBB4216
:1053C000D2D93E1CD0E709480DF008F9A946E3E719
:1053D00007480DF003F90023994681E70023994619
:1053E0007EE7C046282E0210EC050000C42D0210F6
:1053F000542E021070B5041E12D00089884220D9A4
:105400000D006389AB420ED2ED1AADB223890A1AA0
:105410009B1823812468002CF3D113480DF0DEF88B
:1054200012480DF0DBF8227B120701D1AB4209D103
:10543000658125812068002801D0FFF7F9FE00234F
:10544000236070BD6368191B691889B22000FFF7DB
:105450007DFA002804D08442EAD005480DF0BEF859
:1054600004480DF0BBF8C046882E0210702E0210C2
:10547000BC2E0210A02E02100300002002E001301A
:1054800080B21B68002BFAD17047000010B5041ED3
:1054900009D0FCF719F9A37B0133A373FCF716F9C4
:1054A000A37B002B00D010BD01480DF097F8C0463B
:1054B000D82E021010B5002801D0002908D10C48C0
:1054C0000EF0B8FF0FE003890C891B19038110004F
:1054D0000268002AF7D103894289934204D10A89DC
:1054E0009B180381016010BD02480DF077F8C0469B
:1054F000EC2E0210242F021010B50C00FFF7DAFF7B
:105500002000FFF7C3FF10BDF8B5CE46474680B573
:1055100006000D1E914698460AD00A894A4507D3CF
:1055200000280BD002894B449A4207DB002726E073
:105530003D480EF07FFF1020404270E03B480EF0E7
:1055400079FF102040426AE039480DF047F83948A9
:105550000DF044F84B46002B36D10027424539D098
:10556000002D03D06A892B899A4245D0002E03D0A2
:10557000728933899A4248D04B46002B4ED07389AA
:1055800042469B1A6A89D21B934200D313004C46B1
:10559000994500D91C00706840446B68D9192200F5
:1055A0000EF06CFDA0443F194B461C1BA3B299465C
:1055B00072894245C8D36B89BB42C8D3CED82D6807
:1055C000002DC7D00027C9E71B480EF033FF10207D
:1055D000404224E03668002E02D000239846BFE700
:1055E0004B46002B02D100239846B9E713480EF032
:1055F00021FF1020404212E02B68002BB6D010484B
:105600000EF018FF0620404209E03368002BB3D0AB
:105610000B480EF00FFF0620404200E00020C0BC07
:10562000B946B046F8BDC046542F0210882F02106C
:10563000B82F0210D02F0210EC2F0210FC2F0210F6
:105640000C30021010B5002904D00A890023FFF79E
:105650005BFF10BD02480EF0EDFE10204042F8E75F
:1056600044300210F8B5CE46474680B5050088465E
:1056700091461900002805D04346002B0BD0002787
:10568000002625E019480EF0D5FE00273800C0BCE2
:10569000B946B046F8BD16480EF0CCFE0027F5E737
:1056A0006C89641AA4B2A14500D24C4643469819AD
:1056B0006B689C46614422000EF0E0FCE719BFB223
:1056C0003619B6B24B461C1BA3B2994600212D6871
:1056D0004B46002BDAD0002DD8D00029E0D06B89C2
:1056E0008B42DDD8C91A89B2F1E7C046603002109A
:1056F0008030021010B5FFF7D9FC10BDF8B5CE46CA
:10570000474680B50500884616009146002806D019
:1057100000290AD0038993420DD300271DE01848C1
:105720000EF088FE1020404223E016480EF082FE64
:10573000102040421DE014480EF07CFE0120404243
:1057400017E012480CF04AFF4346D9192200686856
:105750000EF094FC361B3F192D68002E06D0002D4C
:10576000EFD06C89B442EFD33400EDE74F4504D15C
:105770000020C0BCB946B046F8BD05480CF02EFF6D
:10578000A4300210BC300210D8300210F8300210E1
:1057900010310210F0B583B00F00140019006B46F1
:1057A0009A1DFFF7A7FF061E24D002896B46D888F2
:1057B00003199A4221DB7389984212D21A1A944231
:1057C00012DD95B273689C4660442A0039000EF0E1
:1057D00055FC621B92B27919002A07D1002003B050
:1057E000F0BD07480CF0FAFE2500EBE73068FFF744
:1057F00085FFF4E701204042F1E701204042EEE757
:105800002831021070B50B00150011891A00FFF73E
:105810004DFD041E04D02900FFF714FF002801D11C
:10582000200070BD01480CF0D9FEC0464031021086
:1058300010B582B014006B469A1DFFF75BFF00287D
:1058400007D042896B4606331B889A4201D94268C9
:10585000D45402B010BD000010B5027A002A07D05F
:10586000134B5C683C23E35C0133DBB29A4213D1F7
:10587000002906D0002811D00368002B10D000208A
:105880000BE000280ED00368002B0DD0084A5269A7
:1058900093420BD0080000E0002010BD0120FCE77F
:1058A0000120FAE70120F8E70120F6E70120F4E7FC
:1058B00064510020F0B5D6464F4680B583B0050050
:1058C000244B1968586907F0A8FB07006B685E7ADB
:1058D000214B1C6800239946019313E063699A46A3
:1058E000002B0DD06B6899461C4B2A002100A06943
:1058F000D04700281AD16B684B4528D1022399461E
:105900000194E468002C1CD0237C9E42F8D139001D
:105910002000FFF7A1FF0028F2D0637CDB07DDD574
:105920000C4B1B6962689A42EAD1D7E7019B002BB6
:1059300005D0E268DA60084B1A68E2601C60012357
:105940009946484603B0C0BCBA46B146F0BD0448CB
:105950000CF044FE645100206CFB002074510020C8
:105960005431021010B5002814D00368002B11D058
:1059700000290FD00B68002B0CD0074B1B6800E0F0
:10598000DB68002B06D01A680468A242F8D10A68C6
:105990001A60F5E710BDC0466CFB002070470000A0
:1059A00010B5002409E0154B154A1A800DE00134AA
:1059B000A4B28023DB019C421DD2104A138801331C
:1059C0009BB213800F4A9342EDD0002003280FD8DA
:1059D00083000D4A9B581B68002B06D0D98A074AC2
:1059E00012889142E3D0DB68F6E70130C0B2EDE700
:1059F000024B188810BD0020FCE7C046801F002025
:105A000000C0FFFFFFFF00003838021010B500296A
:105A100003D106480CF0E2FDC068002805D0C36F32
:105A20008B42F9D10023C367F6E710BDA031021005
:105A300070B5051E04D0037D012B04D101240DE0B7
:105A400008480CF0CBFD08480CF0C8FDA200074B3D
:105A5000D35818682900FFF7D9FF0134032CF5D972
:105A600070BDC046C8310210D4310210383802105F
:105A700010B50100037D012B03D00320FFF7FEF8D2
:105A800010BD01480CF0AAFDEC31021070B5041EE7
:105A900009D0037D042B19D0072B1ED0032B05D072
:105AA0000025280070BD12480CF098FD03F080FB23
:105AB000051E01D105232375002D15D06B1CF0D1D7
:105AC000638B0822134363830025EAE703F070FB2E
:105AD000051EF1D105232375EEE703F069FB051ED2
