:020000041000EA
:1000000000B5324B212058609868022188439860DF
:10001000D860186158612E4B002199600221596106
:100020000121F02299502B49196001219960352056
:1000300000F044F80222904214D00621196600F024
:1000400034F8196E01211966002018661A6600F04E
:100050002CF8196E196E196E052000F02FF8012189
:100060000842F9D1002199601B49196000215960AB
:100070001A491B48016001219960EB211966A021F2
:10008000196600F012F800219960164914480160C1
:100090000121996001BC002800D000471248134993
:1000A000086003C880F30888084703B5996A0420EC
:1000B0000142FBD001200142F8D103BD02B5186610
:1000C0001866FFF7F2FF186E186E02BD00000240BE
:1000D000000000180000070000035F00212200005C
:1000E000F4000018222000A00001001008ED00E03C
:1000F00000000000000000000000000074B24E7A12
:1001000000200420F7010010C3010010C5010010F9
:10011000C1010010C1010010C1010010C101001097
:10012000C1010010C1010010C1010010C701001081
:10013000C1010010C1010010C9010010CB01001065
:10014000CD010010CD010010CD010010CD01001037
:10015000CD010010CD010010CD010010CD01001027
:10016000CD010010CD010010CD010010CD01001017
:10017000CD010010CD010010CD010010CD01001007
:10018000CD010010CD010010CD010010CD010010F7
:10019000CD010010CD010010CD010010CD010010E7
:1001A000CD010010CD010010CD010010CD010010D7
:1001B000CD010010CD010010CD010010CD010010C7
:1001C00000BE00BE00BE00BE00BE00BEEFF3058054
:1001D000103800BEF2EB8871103A0510303A051065
:1001E0003402001090A31AE700201F49086006C8D7
:1001F00081F3088810471D48006800282FD10DA4FE
:100200000ECC002902D000F012F8F9E71849194A7B
:10021000002000E001C19142FCD1174988471749ED
:1002200088471749884700BEFDE701C901C29A42C5
:10023000FBD37047303A0510C0000020C0140020E6
:10024000504E05100000042000000420504E051000
:10025000001004200010042000000000704709482E
:1002600001F066F90047000008ED00E0000000D052
:10027000E0140020FCE0002089180110E5070010C0
:10028000451801105756000006005250ABB360539A
:100290007834051006005250861C0302883405107D
:1002A000060052505422A29D9C3405100500525065
:1002B000DE65F468504E0510F8B5C04610B5064C22
:1002C0002378002B07D1054B002B02D0044800E017
:1002D00000BF0123237010BD38160020000000006D
:1002E000B8620110044B10B5002B03D00349044839
:1002F00000E000BF10BDC046000000003C1600201A
:10030000B862011030B583B00D001400012825D06B
:1003100002284BD0002803D0002080B203B030BDAB
:100320002B4B04221A602B4B1B68DB05FBD5294B9A
:1003300058680004000C13F017F8274913F00DF863
:10034000E621890513F009F813F030F800900191C7
:10035000224A2100280012F0D9FBDEE71C4B0422C0
:100360001A601C4B1B68DB05FBD51A4B5868000450
:10037000000C12F0F9FF184912F0EFFFE621890591
:1003800012F0EBFF164912F0CEFF164912F0D1FF22
:10039000011C154812F0C7FF13F008F800900191F6
:1003A0000E4A2100280012F0B1FBB6E700200CF045
:1003B000DDF9002805D00D4A2100280012F0A6FB27
:1003C000ABE70B4A2100280012F0A0FBA5E7C046CE
:1003D00000E0044000C0044033335340B8620110D1
:1003E0006ABC343F2D93E13A0000D841BC62011051
:1003F000C0620110F0B5DE4657464E464546E0B5B0
:100400009BB000AF90461D001968614813F092F947
:10041000286815F05BFC814669685E4813F08AF92C
:10042000686815F053FC7860A9685B4813F082F99E
:100430005A49A86815F030FD002816D101239B46C3
:10044000E968574813F076F9E86815F03FFC8246F2
:1004500000240F2C11DC231D9B00E858514915F096
:100460001BFD002804D00134F3E700239B46E7E797
:1004700021004D4813F05EF900E00024631EA20045
:100480000732D208D20069468A1A95466E46002B7A
:1004900003DB002102C2013BF9E70025AC4209DD84
:1004A0002B1D9B004246D05815F010FCAB00F050BD
:1004B0000135F3E73D4813F03DF90025AC4206DD78
:1004C000AB0099593A4813F035F90135F6E70A209F
:1004D00013F0CCF800233B726422FA603B61524671
:1004E0007A614A46BA617A68FA613B663C669C4228
:1004F00008DD9A0091599A1D920008203818815001
:100500000133F4E75C235A4608217818C2540133BA
:100510000022C25400253B6EAB4211DDAC1DA4008D
:100520000826BB191B597B60180001F0FBF9BB19A9
:100530001A5901239340D022120653620135EAE78B
:100540007B697B60180001F0EDF97B697B60012419
:1005500023007A689340D0252D06AB627B697B60CF
:1005600000220121180001F031F97B697B606B6882
:100570007A68D3401C4063425C41BC720D48BD4662
:100580001BB0F0BCBB46B246A946A046F0BDC04673
:10059000C4620110D4620110E062011070670110A2
:1005A000F0620110FC6201100C630110286301105D
:1005B0003C63011040630110F0B5C64600B504006D
:1005C0009846069D079808AE377800262670642363
:1005D0006360A660E160226143466361A665A06531
:1005E000002305E09A0051599A1D920011510133E0
:1005F0008342F7DB5C23E75401330022E2540026F8
:10060000A36DB3420CDDB51DAD00285901F08AF988
:100610002A5901239340D022120653620136EFE794
:10062000E06801F07FF901252B00E2689340D026B5
:100630003606B36200220121E06801F0C7F8736852
:10064000E268D3401D406B425D41A570200080BC34
:10065000B846F0BD10B515F01FFB094B02221A6019
:10066000084B1A688023DB015340E022D20113407B
:10067000054A136003220549054811F0A5F810BD8D
:1006800000E0044000C0044000D00440280F0020D7
:100690000503001010B50121014811F0B9F810BD93
:1006A00068640110F0B5D6464F464646C0B5C0B0A6
:1006B00000AF824688469146D3016A46D31A9D46CA
:1006C0006E46002415E02A001232920093515C23FA
:1006D000C35C002B2CD02B0013339B0001229A51BA
:1006E0005D23C35C002B29D01435AD000123AB5131
:1006F00001344C4527DA650160000019400140448F
:10070000E301C2689A516B1C9B0002699A51AB1CB1
:100710009B0042699A510022836D9342D3DDD31C22
:100720005B19911D890009589B0099510132F3E72B
:100730002B0013339B0000229A51D1E71435AD00F2
:100740000023AB51D4E74B469B0199466B464A4682
:100750009B1A9D466D460023994509DD98008259F4
:10076000121259004C1C2A5582596A540133F3E77E
:1007700053469968174812F0DDFFEFF3108672B602
:10078000802149015346986815F036FD86F310889C
:10079000114812F09FFF114812F09CFFEFF31086F2
:1007A00072B6534698684A46290015F0FDFC86F358
:1007B00010880B4812F08EFF002302E00022FA544A
:1007C0000133FF2BFAD9BD4640B0E0BCBA46B14672
:1007D000A846F0BD506301107063011078630110EA
:1007E00098630110F0B5A04CA54412F0AFFF0223AE
:1007F0009E4A6A44136080220021912000016844CF
:1008000012F02CFE8022002199200001684412F091
:1008100025FE802212010021A1200001684412F06F
:100820001DFE202200219248684412F017FE12F0AB
:100830008DFF0CF0BDF80BF079FF8E4B8E4A8F497F
:100840008F480CF04DF8051E03D08E4812F042FF81
:10085000F3E78D4812F03EFF10F0A6FF8B4812F030
:1008600039FFFFF7F7FE8A4812F034FFFFF712FF57
:10087000884812F02FFF0F21A3AB002910DB0022C4
:100880001A70642058609A60DA601A615A619A6539
:1008900008381A545D325B38985460330139ECE7FC
:1008A0000223A2930133A193002302930124019414
:1008B000A2AB009300230222102189A8FFF77CFE3F
:1008C00002940194A1AB0093002303220F2171A88D
:1008D000FFF772FE5E2289A9A3A812F0C5FD5E2271
:1008E00071A9BBA812F0C0FD0F23002B01DB013B57
:1008F000FBE71CAB11221D92103A1E921F921A7434
:1009000000225A7421AA13CB13C211001A680A607C
:100910009B888B80604C19941A94F0231B06E31873
:100920001B9321005D4812F005FF22005C4905A8D9
:1009300012F0D8F81022A3A919A8FFF7B3FE0A20D5
:1009400002F00AF92E0015E0D0231B065A68E3686E
:10095000DA40012313405A42534123702FE02369A8
:10096000590012F005F90100380012F001F90029D0
:1009700044D001360F2E70DC7400A4196401A3ABBF
:100980009C4664445D23E35C002BF2D15C33E35C62
:10099000002BD9D0D0231B065A68E368DA40012324
:1009A00013405A425341DBB26370002B06D0A27849
:1009B000002A03D1227801214A402270A3702378B3
:1009C000002B35D0A7687B1CA360626960680100BA
:1009D00051438B42C3DB002AC1D08B42C9D12700CF
:1009E0001837A06D2B009842C3DD9A00D15901221F
:1009F0008A40D02109068A610133F4E720001830CB
:100A0000A46D05E001239340D02212065361013109
:100A10008C42AEDD8B001A58D0231B065B68D34096
:100A2000DB07EFD501239340D02212069361EEE756
:100A3000A368002B9DD00023A36027001837A06D6A
:100A40002B0007E09A00D15901228A40D0210906E3
:100A50008A6101339842F5DC8BE72B000F2B00DD18
:100A60006DE70133FAE7C046CCEDFFFF8C080000CC
:100A7000101200008813000004004000A063011061
:100A8000AC630110B4630110D0630110DC6301108A
:100A9000F46301100C64011000F01F1024640110B5
:100AA0003C64011010B5064B8B4202D108F076FA77
:100AB00010BD044B044A1821044810F0C7FEC0467C
:100AC000480F0020706401107865011090640110D7
:100AD000F8B50400204B994212D101230B7208F0A3
:100AE00087FA0500431C11D11C4B186859681C4B30
:100AF0009860D96023685B69194920009847F8BD60
:100B0000184B194A1D21194810F0A0FE02F0D8F820
:100B100006000F1E10DBFA2292000023280000219D
:100B200012F0E4FB36184F41002F0BDB002F0DDBDA
:100B30000B4B9E60DF60DDE70D4B0E4A3F210E48F8
:100B400010F084FE012676420C4FEFE7084B094A6D
:100B50003F21094810F07AFE340F0020B8720110CE
:100B6000480F0020D06401109065011090640110BE
:100B700000650110606501101C650110FFFFFF7F1B
:100B800010B50400094B1B78002B08D0084901233D
:100B90000B722368DB6920009847012010BD02F02A
:100BA000C1FC024B01221A70F0E7C046EAE00020C7
:100BB000340F002010B5040003689B69034998476F
:100BC00023681B6A02492000984710BD480F002087
:100BD000340F0020002070477047000010B502F06D
:100BE0006FF8002906DB0BD0FA229200002312F0E6
:100BF00025F810BD054B064A3F21064810F026FE99
:100C0000FA21890011F0DCFFF3E7C046006501100E
:100C1000606501101C650110083000E018000368D1
:100C2000002B03D08B42F9D1002002E001600B6061
:100C300001207047083000E018000368002B05D041
:100C40008B42F9D10B680360012000E0002070475F
:100C5000043000E018000368002B03D08B42F9D168
:100C6000002002E001600B6001207047043000E0CA
:100C700018000368002B05D08B42F9D10B68036084
:100C8000012000E000207047F8B5060080680028C9
:100C900033D002F015F8002906DB04000D0008230C
:100CA0009C46B44400220CE0154B164A3F211648DE
:100CB00010F0CCFD154B164A4221164810F0C6FD27
:100CC0009C4663461B68002B12D0200029009E68BA
:100CD000DF68801BB9410029F2DB34003D000E497A
:100CE0000A684968724079400A43E3D06246E7E700
:100CF000002A03D0106803681360F8BD1000FCE7F9
:100D0000006501101C6601101C650110A46501102E
:100D100034660110C8650110B8720110F0B583B0D7
:100D2000104B5C681B6800930194836804E0DC68E6
:100D30009B68009301940B00002B0CD01968009C59
:100D4000019D9E68DF68A41BBD41002DEFDCF2D140
:100D5000002CECD1EFE7009B019C0361446103B0E0
:100D6000F0BDC046B872011070B506000D0002E07B
:100D70004B68280098472800FFF786FF011EF7D12F
:100D80006C6800E02468002C09D0237A002BF9D08D
:100D9000002323722100280063689847F2E72800A7
:100DA000FFF7BCFF2B696C6933607460300070BD65
:100DB000034B1B6802201840431E9841C0B2704785
:100DC00000C0064010B5104A104B12184B41990054
:100DD000900F0843990F504059400D4A0D4B12F0A7
:100DE00085FA03004A01C00E1043CA0E5840514014
:100DF000094A0A4B12F07AFA03004A00C00F104366
:100E0000CA0F5840514010BD157C4A7FB979379EB2
:100E1000B9E5E41C6D4758BFEB113113BB49D094C1
:100E2000F0B5C64600B584B002000B0013498C46ED
:100E30001BE0614601C900908C4600210191910E92
:100E40009F010F4396010098019980197941029002
:100E50000391110C1D040D43140402980399001909
:100E60006941801A994102000B0005498C45E0D97F
:100E70001000190004B080BCB846F0BD001C04206E
:100E8000FF1F0420F0B5CE46474680B583B08046AC
:100E9000036844680093019403008068D96801E006
:100EA00001F00EFF009C019D23002B4302D10300A3
:100EB0000B43F5D0009C019DA60FAB003343A2006D
:100EC0002E002500AD185E416B0E9946F3019C463D
:100ED0004B46624613431F00730EEA0113431E0084
:100EE0005B0F9C46FB0064462343F20092197B4152
:100EF000009C019D60406940260A2F063E432D0A52
:100F0000009C24062C43444035004D40070C0E0441
:100F10003E4307047C4075404646346075604C0192
:100F2000C50E2C434001C90E0843B460F0601000A8
:100F3000190003B0C0BCB946B046F0BDF0B5DE46FE
:100F400057464E464546E0B583B00190574B9B69E6
:100F5000DB0410D5564BDA6BE0231340402B0AD04C
:100F6000EFF305839846019B002B0AD00023994696
:100F7000002400258AE04F4B4F4A81214F4810F052
:100F800065FC4F4B4C4A86214C4810F05FFC4D4BA2
:100F90001868596801F036FDEFF3108672B64A4BB7
:100FA0001B68002BFBD0BFF35F8F464B19685A6854
:100FB0008A4516D0BFF35F8F434B00221A6086F339
:100FC00010885B46002B5ED13E4B1A6892465F68E4
:100FD0004346002BDBD03B4B1868596801F07CFE80
:100FE000DAE7BA42E6D120002900001969412F4B07
:100FF000DA690123134003431C000D0001F060FE79
:1010000002000B1E23DB0A20002112184B41002B8B
:1010100023DB002B25DB2B490A604B6001994B1E1B
:101020004B452DD1294A20235B42CB181FD4116890
:1010300099400B00126801998A4022432B43140007
:101040001D00224B1C605D6001239B46B2E7204BD4
:10105000204A3F21204810F0F9FB012252421F4B49
:10106000D7E71B4B1B4A3F211B4810F0EFFB202307
:1010700001981B1A1168D940536883400B43D9E784
:1010800001239B4696E701239C46E144019B994539
:1010900002D200239B4697E72000290003B0F0BC52
:1010A000BB46B246A946A046F0BDC0460000064079
:1010B00000800040646601108C6701102C670110ED
:1010C000908D011030160020300100D0D81400207F
:1010D00000650110746701101C650110FFFFFF7FA0
:1010E00010B588B03B4C20686168FFF799FE20601E
:1010F0006160FFF767FE049B5840059B01935940D0
:101100000490059102A800F011F902980399FFF7E5
:1011100059FE069B01935840079B01935940069046
:1011200007914020FFF70AFFFFF74CFE049B584051
:10113000059B019359400490059101F0C1FDFFF713
:1011400041FE069B01935840079B0193594006902E
:101150000791EFF3108472B61F4B1B68002BFBD076
:10116000BFF35F8F1D4B1B78002B24D1032B09D8B5
:101170005A1CD2001A498C46624452681F2A03D076
:101180000133F3E701235B425A1C1DD0DBB2154A41
:1011900013700133DB00124A9446634405225A60FF
:1011A00004A8FFF76FFE102204A90F4812F05CF9A3
:1011B0000A4B01221A70BFF35F8F074B00221A609F
:1011C00084F3108808B010BD084B094AE92109488A
:1011D00010F03CFBC0140020300100D0F4E00020EF
:1011E00000000340E5E00020C814002068670110FB
:1011F000AC6701102C67011070B586B03E4B1B78B0
:10120000002B00D16EE010223C4902A812F02CF90C
:101210003B4B1C78E4B201F053FDFFF7D3FD029B7A
:101220005840039B01935940029003910120FFF71E
:1012300085FEFFF7C7FD049B01935840059B019372
:101240005940049005912F4B1A78531CDB002E490E
:1012500058582E4B984248D00021FFF7B3FD029B0F
:101260005840039B0193594002900391EFF310867D
:1012700072B6274B1B68002BFBD0BFF35F8F204B50
:101280001B78DBB2A34213D01C4B02991A68514061
:10129000039A019258684240029103929A68DB686F
:1012A000049901914A40059901914B40049205939C
:1012B00002A8FFF7E7FD05000C00102202A90F4865
:1012C00012F0D2F80E4A13780133DBB21370BFF379
:1012D0005F8F0F4B00221A6086F3108828002100D0
:1012E00006B070BDFFF7FCFE8DE70132D2000B00A7
:1012F0000021D150B0E7C046F4E00020C81400201F
:10130000E6E00020E5E0002000000340FFFFFF00D2
:10131000300100D010B5FFF76FFF10BD10B50248C7
:1013200000F03CF810BDC04664DE002010B5082275
:10133000014912F099F810BD64DE002010B50029B3
:1013400001D000230AE0114B114A1F31114810F05F
:101350007DFA00240DE03732C25401334A1E9A420E
:101360000FD90F2B0DD85A080B4CA25CDC07F0D418
:101370000424224114000F222240092AEBDC3032DF
:10138000EAE7C0180023037010BDC046BC67011017
:1013900008680110C467011064DE002070B588B0D1
:1013A000040004AD002604960922002105A812F0CD
:1013B00055F800960922002101A812F04FF84B239E
:1013C0002B700D226946280014F0D6FE002304E09D
:1013D0005A1D69468A5CE2540133072BF8DD08B0D8
:1013E00070BD0000EFF3108072B6034B1B68002B3A
:1013F000FBD0BFF35F8F70472C0100D0BFF35F8F2E
:10140000024B00221A6080F3108870472C0100D034
:10141000F8B506000C001500FFF7E4FFE308F71825
:10142000F15C07222240012393400B4205D1DBB23D
:101430000B433B70FFF7E2FFF8BD2100280010F0DE
:101440009FFAF0B583B00600019114001F00FFF76A
:10145000C9FF00E00134BC420CD8E308F518F35C86
:101460000721214001228A401A42F3D1D2B21A4305
:101470002A7001E001246442FFF7C0FF002C02DB68
:10148000200003B0F0BD019B002BF9D0089810F0AC
:1014900077FA000070B505000C00FFF7A3FFE30822
:1014A000EE18EA5C07210C400123A340134204D04C
:1014B0009A433270FFF7A2FF70BD034B034A2C31F1
:1014C000034810F0C3F9C046B8690110186A01104A
:1014D000D8690110002307E0054A9A189200BFF36B
:1014E0005F8F0021116001331F2BF5D97047C04673
:1014F00040000034054A1078431CDBB21370172BF0
:1015000002D9130010221A707047C046600F0020E5
:1015100000B583B00100044B00931F231822034839
:10152000FFF78FFF03B000BD286A0110D41C002014
:1015300010B5010018231B8814221088984710BD8D
:1015400010B5010018231B8816221088984710BD7B
:10155000F0B5C64600B507000E00002501239846E9
:1015600000E00135B5420AD2AC003C192068FFF713
:10157000DFFF20600028F4D100239846F1E74046C1
:1015800080BCB846F0BD0000F8B5DE4657464E4672
:101590004546E0B505000F0092460A9A934250D3A3
:1015A0001A0E91461E020A9A00233000494611F095
:1015B00045FB80466C006419A400304B9C46644493
:1015C0006368834200D260602B1FDBB29B46012B15
:1015D0003DD9C0239B012343802212011A60AB0036
:1015E000274A9958002907D0506911F0E9FA431C9D
:1015F0005800C0180338FDD253465A0123685A4098
:10160000E0231A4080235B0123431A605A46012AD3
:1016100028D980239B012343802212011A6043466C
:101620006360424600233000494611F007FBAD00DD
:10163000134B58510120F0BCBB46B246A946A04608
:10164000F8BD104B104A3321104810F0FFF8012F5D
:10165000BFD1C0239B01234303221A60A368DB0789
:10166000FCD5C9E72168794003220A401A60A268C4
:101670000123BB401342FAD0CBE7C04600800040B4
:10168000D81C0020446A01109C6A0110586A01109D
:1016900030B583B00C2001F0BFFEFFF789FB0028B6
:1016A0000DD0002304E099002D4A2E4888500133C4
:1016B000092BF8D92A4B2C4A5A6203B030BD2B4B68
:1016C00000229A6701F01AFF294B01221A60274B6A
:1016D0005B6C012BFBD1274B03221A60234B9B6BC6
:1016E000012BFBD1013300930433234A012123480A
:1016F00001F002FE05230093214A0121214801F057
:10170000FBFD214B0093002202210420FFF73CFF48
:101710001E4D00952B00002201210520FFF734FF0C
:10172000104C00942300002200210720FFF72CFF1B
:1017300000942300002200210820FFF725FF0A4B18
:1017400000932300002200210920FFF71DFF0095D0
:101750002B00002200210620FFF716FFADE7C04650
:10176000D81C0020006CDC021BB700000080004089
:101770003CB0004030B00040002F6859008002406B
:10178000008C864700C00240001BB7004059730719
:101790008000014BC0587047D81C002010B5830052
:1017A000084A944663441C6840226240C0241440A6
:1017B0008022520113431C60C000034B9C466044CE
:1017C000416010BD04C001400040014080000B4B4F
:1017D0009C46604400290DD00823002A0CD0042226
:1017E0001343026853400C221340802252011043DD
:1017F000036070470023F0E70022F1E704C00140D6
:10180000002909D08000094B9C46604480239B013D
:1018100018430223036070478000044B9C466044D9
:10182000C0239B01184302230360F4E704C0014076
:1018300070B5D0231B061B689D00094C2C59204213
:1018400007D19B002043064C18510D2000F042F9AF
:1018500070BD044B044ACC2104480FF0F7FFC0468A
:1018600050DE0020AC6A0110686B0110D86A0110CC
:1018700010B50400D0231B061B689B000A4A9B5826
:1018800018420BD00D2000F03FFAD0231B061B6836
:1018900005499B005A58A2435A5010BD034B044AB5
:1018A000D62104480FF0D2FF50DE0020186B011043
:1018B000446B0110D86A0110072303409B00C00845
:1018C00099403C308000014BC150704700400140BE
:1018D000F8B507000C0016001D00FFF7EDFFFB0830
:1018E0009B00ED180720384080008440002E04D073
:1018F00080239B011D432C60F8BDC0239B011D4329
:101900002C60F9E710B5D0231B061B68002B03D011
:10191000024BFFF7DDFF10BD014BFAE730410140FC
:101920000041014010B501238340D022120693628A
:1019300093610521FFF732FF10BD0000074B9B6844
:10194000103080001950BFF35F8FBFF35F8F044BDF
:101950000021196082F310887047C04600ED00E056
:10196000240100D01F23181A7047000010B5091A6F
:10197000081F0A4B9C466144094A914208D8C30794
:1019800006D440104005400D064B184380B210BDF0
:10199000054B064AA32106480FF058FFFC0700003C
:1019A000FE0F000000E0FFFF9C6B0110086E0110AD
:1019B000CC6B011010B5091A04394C08090B08D179
:1019C0004905490D064A11430180064B23434380D4
:1019D00010BD054B054AAB2105480FF037FFC04647
:1019E00000F0FFFF00F8FFFF086C0110DC6D011034
:1019F000CC6B011001238340034A10681840431E3A
:101A00009841C0B27047C04600E100E0002904D010
:101A1000034B1860034B18607047034B1860FBE7DB
:101A200080E200E000E100E080E100E010B5012389
:101A300083401800FFF7EAFF10BD00000123834038
:101A4000014A13607047C04600E200E0024B9B6809
:101A500010308000C058704700ED00E010B5FFF76F
:101A6000F5FF002805D0054BC01A2F2803D8012008
:101A700010BD0020FCE70020FAE7C046640F0020FC
:101A800070B504000D00EFF3108672B60C4B1B68A6
:101A9000002BFBD0BFF35F8F2000FFF7D7FF094B70
:101AA000984201D0A84205D1320029002000FFF75A
:101AB00045FF70BD044B054A862105480FF0C6FE60
:101AC000240100D0CD010010186C01103C6E0110F3
:101AD000CC6B0110F0B5DE4657464E464546E0B5A4
:101AE00089B0814601911500EFF3108A72B6744BEC
:101AF0001B68002BFBD0BFF35F8F724B0027DF57B3
:101B0000002F40DB7C00E419A4006F482418062253
:101B1000A2566C4B1A706D4B9A684B4610339B0063
:101B2000D35898461E001B1A2F2B38D9684B98455E
:101B30002FD105AE674B33807B009B46D8198000C0
:101B4000614B9846404402306349FFF70FFF7080B5
:101B5000624BB380FF23B371F571019B07935F4420
:101B6000BF0047440ECE0EC701231C43A046524679
:101B700041464846FFF7E2FE09B0F0BCBB46B2461C
:101B8000A946A046F0BD564B564AD72156480FF0FD
:101B90005DFE564B534ADE2153480FF057FEC043BB
:101BA00040440C2111F00CF8002912D101239E436E
:101BB000B34633000026DA79AA4211D906215956D4
:101BC00000290CDB4A00521892001E003E4B9B1865
:101BD000F1E7474B434AEA2143480FF037FE1E0026
:101BE000002E3AD005AB434A1A80813A5A80062328
:101BF000F3560293002B17DA3F4805AB9B469880BB
:101C0000029A9A71DD71019A0792301D2100FFF747
:101C1000ADFEB080B7717B00DB199B002A4FFF1827
:101C20005B4607CB07C7A2E77800C0198000264BA8
:101C3000C0180430321DB388D90A1C2907D15B05AE
:101C40005915023149005118FFF790FED5E72B4B8B
:101C50002B4AB12124480FF0F9FD05AE1D4B33800E
:101C60007B000293D8198000174A90460200424434
:101C70000392901C1849FFF779FE7080039A101D9B
:101C80005946FFF773FEB0801E4B5A464146521A22
:101C9000524153431B0DB371F571019A0792029B98
:101CA0009C466744BF0047440ECE0EC7114B5A46B0
:101CB0001380813B538001231C43A04657E7C04655
:101CC000240100D0EDE00020640F002000ED00E0D2
:101CD000CD01001000A1FFFF940F002001BDFFFF08
:101CE000506C0110246E0110CC6B0110786C011047
:101CF000A06C01100148000001BD0000146D01102E
:101D0000146E0110AAAA0000F0B5CE46474680B571
:101D100083B006000D00EFF3108872B6564B1B68B7
:101D2000002BFBD0BFF35F8F544B9A683400103404
:101D3000A300D758524B9F4207D0AF4200D198E042
:101D40000197504BFB1A2F2B09D94246390030001E
:101D5000FFF7F4FD03B0C0BCB946B046F0BD30009B
:101D6000FFF748FE814600213000FFF75FFEBFF31A
:101D70005F8FEFF30581002901D08C4211D101233F
:101D8000019C9C430022A368AB4212D00622A256BB
:101D9000002A0DDB53009B189B002200394CE418ED
:101DA000F1E73621384B394AFF3139480FF04EFD03
:101DB0002200AB4256D106256557002D38DB6B005B
:101DC0005B199A002F4B9B189A68A260DA79E2712E
:101DD00006229A56A2719B795BB2002B0FDA2D482E
:101DE000A0806B005B199B00264AD3182A4A117801
:101DF0009971157049463000FFF718FEA5E7201DC0
:101E00006B005B199B001F4A9B181A1D9B88D90AFF
:101E10001C2907D15B055B15023359005118FFF7E8
:101E2000A5FDDDE71D4B1E4AB12119480FF00EFD3F
:101E3000002912D1002A0ED0FF239371194B9380F1
:101E4000154A1378A371184B0E49641A6441634311
:101E50001B0D1370CEE70A4FF2E7201D1349FFF761
:101E6000A9FDC7E76A21124B084AFF3108480FF065
:101E7000EDFC034F69E7C046240100D000ED00E00F
:101E8000CD010010640F00202C6D0110F46D0110C5
:101E9000CC6B011001BD0000EDE00020146D0110BD
:101EA000146E011001BDFFFFAAAA00009E0F0020C2
:101EB000606D011010B5032304009C43064A94464C
:101EC000644422681840C000FC3383409A431300E6
:101ED00081400B43236010BD00E400E070B5012198
:101EE00001432E4BCB1A2F2B28D8EFF30583002B61
:101EF0002BD0EFF3108C72B6294A1268002AFBD05F
:101F0000BFF35F8F274A0400244D641B6441624382
:101F1000120D54B2244A92689B00D2588A421BD0B8
:101F20000022032A32D853009B189B001B49CB1870
:101F30009B795BB2A3421FD00132F2E7C7211B4B52
:101F40001B4A49001B480FF081FC92211A4B184A8A
:101F5000FF3118480FF07AFC134A92681749D150A4
:101F6000174B1A7882711C70BFF35F8F0C4B0022E5
:101F70001A608CF3108870BD0D0053009918890009
:101F80006918FF268E710F4A8A80E9E7D1210E4B2E
:101F9000074A490007480FF059FCC046640F00206B
:101FA000240100D0AAAA000000ED00E0686D011035
:101FB000C06D0110CC6B0110906D0110CD010010AF
:101FC000EDE0002001BDFFFF9C6D01100022044BDD
:101FD00002E0044902C30132072AFAD97047C04619
:101FE00000E400E08080808010B5FFF7BBFC0100BA
:101FF0000148FFF74FFA10BDF9E0002000B583B0AB
:102000000100064B0093052300220548FFF719FA4B
:10201000002801DB1F23181A03B000BDA46D0110B6
:10202000F9E0002070B504000E001500FFF762FA19
:102030000100200000F006F8A680E580BFF35F8F66
:1020400070BD0000024B9C466144890001607047EE
:102050004000003410B50400FFF74CFA01002000E6
:10206000FFF7F0FFFF232371BFF35F8F10BD10B5A3
:102070000400FFF73FFA01002000FFF7E3FFFF2312
:10208000237100236371BFF35F8F10BD034B9C4628
:10209000614489000160BFF35F8F704740000034E6
:1020A00010B504000120FFF733FA01002000FFF70C
:1020B000EDFF10BD70B505000C00080000F0DCFE5F
:1020C0000949200000F01CFEFFF714FA074B9C465C
:1020D0006044800068602C75D0231B061B786B75EC
:1020E000A400034BE55070BDF923001040000034FC
:1020F00084CE00200A4B1A68EFF3108172B6136881
:10210000002BFCD0BFF35F8F054B1B68BFF35F8FC5
:1021100000221A6081F3108840BF00200021704720
:1021200074E0002010B5002922D003681B7B99427F
:102130001ED8174B9C466144090183689C46614444
:102140000C684968002A19D003681B7B9A4215D88D
:1021500083680F488446624412019A1810685368D5
:10216000020001208B4201D80ED00020C0B210BD69
:10217000084B094A3C2109480FF068FB054B064A09
:102180003C2106480FF062FBA242EFD8EDE7C046C3
:10219000FFFFFF0FC06F011024720110886F011044
:1021A00010B500291ED0037B99421BD84B005B1849
:1021B000033B0468A4466344002919D0002A1DD0BB
:1021C000914221D0002A25D0047BA24222D8046863
:1021D00050008018033820188170197800291FD109
:1021E0001A7010BD104B114A682111480FF02EFBD8
:1021F000104B114A6F310E480FF028FB0F4B0E4A5F
:1022000070210B480FF022FB0D4B0B4A712108483F
:102210000FF01CFB044B054A682105480FF016FB24
:1022200041701A70DDE7C046E46F01109072011032
:10223000007001104C7001106C7201105870011088
:102240006470011070B506000D001400002914D050
:10225000002A14D0806873689847002806D02200AE
:1022600029003000FFF79CFF280007E02A0021002A
:102270003000FFF795FF200000E0100070BD08005F
:10228000FCE70000F0B583B00500009201930AABB3
:102290001C780BAB1F78002C26D003685A7B944225
:1022A00007D10123002B19D1002C3BD1200003B012
:1022B000F0BD002C0CD01A7B944209D81A68630038
:1022C0001B19033BD3189B78002BEBD00123E9E7C4
:1022D0003E4B3F4A68213F480FF0B8FA3E4B3F4A19
:1022E00067213F480FF0B2FA03689C7B002CDBD0DB
:1022F00012D01A7B94420FD862001219033A19685F
:102300008C46624451789973002900D1D973002317
:10231000937053701370C7E72C4B2D4A68212D48DA
:102320000FF094FA002C3AD02B681B7B9C4236D8D5
:102330002C4BE3181B01AA6894466344009A1A6068
:10234000019A5A60089A9A60099ADA602E68002CFD
:102350002BD030D0337B9C422DD863001B19033B1C
:1023600032689446634400229A705A701A70717BE6
:1023700022003000FFF766FF7073844200D095E7BB
:10238000287D009A019B00F003FD061E01D0002F5E
:1023900017D00C9B002B00D188E71E7086E7124BEC
:1023A000124A3C210E480FF051FA114B114AA52157
:1023B00008480FF04BFA054B054A682105480FF015
:1023C00045FA2868210000F01BFFE2E7E46F0110E6
:1023D00090720110007001107C7001109C7201104D
:1023E000886F0110FFFFFF0FC06F011024720110F2
:1023F000846F011080720110F0B5DE4657464E46DC
:102400004546E0B58BB00990002308938200B54B98
:10241000D658370052E0B44BB44A3F21B4480FF0CD
:1024200015FAB44BB44A3C21B4480FF00FFA002916
:1024300001D1002869D10021404600F0D7FEA0421A
:1024400019D12A686B6806920793AB689846EB68C7
:102450009A464346002B14D0002C18D03B681B7BB7
:102460009C4214D8631EFA68D35C08931B0218437D
:102470003861002015E0A24BA24A8E219F480FF040
:10248000E5F9A14B9F4A92219C480FF0DFF9994B47
:102490009E4A412199480FF0D9F900239A4698465F
:1024A00000207B68BFF35F8F00221A6086F31088DC
:1024B0004346002B32D1002800D10CE100F000FC93
:1024C00002000B1EA7DB0020002106900791786810
:1024D000EFF3108672B601680029FCD0BFF35F8F5E
:1024E000396888464C7B002CD7D09AD0097B8C4227
:1024F00097D8874965182D01B9688C4665442868C6
:102500006968801A9941002991DD2A686B680998E9
:1025100000F03EFC00239A469846C2E7089B1B0247
:102520002343994651461800C04705000E007A68BB
:10253000EFF3108B72B6136859424B41D9B2002B9E
:10254000F9D1BFF35F8F002E1EDB002E46DD3B6905
:10255000002B47D04B456DD100F0B2FB02000B1EA3
:102560006EDB52197341002B70DB002B72DB0021F4
:102570000491013103910294514601914146009129
:102580003800FFF77FFE4CE03B69002BDDD04B4568
:1025900014D1069A079B521BB341002B14DB002B6E
:1025A00016DB0021049101310391029451460191FF
:1025B000414600913800FFF765FE32E0554B514A25
:1025C000A1214E480FF042F901225242524BE6E758
:1025D000454B464A3F2146480FF038F9002E01D1BD
:1025E000002DB4D13B68002C50D05A7B944237D197
:1025F000012100294AD1DA7B002A4DD19A7B002A99
:1026000003D1DA7B002A5AD19C73DC73002C5CD096
:102610003B681B7B9C4258D8FA68013C135D013330
:10262000135500233B617A68BFF35F8F13608BF310
:10263000108843E7374B334AA42130480FF006F99E
:10264000294B2A4A3F212A480FF000F90122524221
:10265000314B8AE7244B254A3F2125480FF0F6F8F5
:10266000002C0DD01A7B94420AD862001219033A4A
:102670001868844662449278002ABAD00121B8E7EB
:10268000264B274A682127480FF0E0F8264B274AB7
:10269000F62124480FF0DAF8002A0AD0197B8A4282
:1026A00007D851008A18033A19688C46624454705E
:1026B000A4E71A4B1A4A68211A480FF0C7F81C4BB6
:1026C0001A4AFB2117480FF0C1F80A4B0F4A412163
:1026D0000A480FF0BBF80BB0F0BCBB46B246A946A7
:1026E000A046F0BD84CE002000650110F0710110FD
:1026F0001C650110C06F011024720110886F011059
:10270000A470011008720110BC7001104872011011
:10271000FFFFFF0FC8700110FFFFFF7FE46F011084
:102720009072011000700110047101105C720110B0
:102730002871011010B50C4B5B68002B04D00A21E6
:102740000A48FFF77FFC10BD074C2300084A102100
:10275000206800F05BFC032000F0A6FA03212000B3
:10276000FFF7A8FCEBE7C046AC0F002074E00020A8
:102770002521001010B5064B5B68002B01D00448E2
:1027800010BD044B044A5E2104480FF05FF8C046B8
:10279000AC0F00203C71011030720110886F0110E5
:1027A000F0B5DE4657464E464546E0B58BB080460E
:1027B00016001F00149B9A46159B994616AB1B7872
:1027C0009B461F2302AA9446634400221A702BE002
:1027D000002809D042461268127B904204D8421E5B
:1027E0004146C9688A5C41E0404B414A4121414829
:1027F0000FF02CF807984CE0361BAF41002F07DB99
:10280000002F11DA3C4B3D4A3F213D480FF01EF8A6
:10281000012676423B4FF3E7374B384A3F21384891
:102820000FF014F8002F4FDB43465A68EFF3108483
:1028300072B6136859424B41D9B20791002BF8D1B7
:10284000BFF35F8F1F3302AA9446634404930023AF
:10285000039302934B4601935346009332003B008F
:102860004046FFF70FFD031EB2D102004146496802
:10287000BFF35F8F00250D6084F31088002B29D0F3
:102880001F2302A98C4663441B78002BB2D112028D
:102890001043002B20D05B46002B1DD04946D0476B
:1028A00004000D0003000B431DD00029A4DB00F041
:1028B00007FA06000F1EAFDB36196F41002FB1DAA1
:1028C000012676420F4FADE70B4B0C4A3F210C48D7
:1028D0000EF0BCFF012040420BB0F0BCBB46B2463C
:1028E000A946A046F0BD0798F6E7C046C06F0110A4
:1028F00048720110886F011000650110F07101101D
:102900001C650110FFFFFF7FF8B50400002900D10E
:1029100062E04268EFF3108572B613685842434193
:10292000D8B2002BF9D1BFF35F8FCBB22268567BB0
:10293000B3421BD10120002848D0206988422BD007
:10294000090AC9B2002B2ED02068007B83422AD806
:10295000581EE668305C88422BD000206368BFF3C5
:102960005F8F00221A6085F31088F8BD002B0DD010
:10297000167BB3420AD85E00F618033E1768BC46C1
:102980006644B678002ED6D00120D4E7134B144A03
:10299000682114480EF05AFF2C21134B134AFF31C3
:1029A00013480EF053FF134B134A412110480EF009
:1029B0004DFF1900100000F023FC0028CED1992112
:1029C0000E4B0A4A49000A480EF040FF23698B4229
:1029D000C4D100232361C1E70020C6E7E46F0110E2
:1029E000907201100070011060710110D871011017
:1029F000886F0110C06F01104872011084710110BE
:102A0000407D7047F0B587B006000F00EFF30583F7
:102A1000002B1FD106246442E517A4197D418D4285
:102A200002D803D1844201D900240025002D14DBF3
:102A30000494059500F044F902000B1E13DBA41A60
:102A40009D41002D17DC14D03000390000F044F90E
:102A500007B0F0BD23480EF093FF234B234A3F21DC
:102A600023480EF0F3FE204B204A3F2120480EF071
:102A7000EDFE002CE8D0FFF77DFE002302930193CA
:102A80001C4B0093049A059BFFF78AFE002818DA76
:102A9000DAE7002300E00023002BD5D1164B1A689B
:102AA000EFF3108172B61368002BFCD0BFF35F8F79
:102AB000114B1B68BFF35F8F00221A6081F31088EF
:102AC00020BF0499059A0D4B5B6A9A42E3D80B48E4
:102AD000806A884203D29A42DBD00123DCE70123DB
:102AE000DAE7C0468871011000650110F07101102D
:102AF0001C650110F520001074E000200040054026
:102B000070B504000D0000F0DBF802000B1E0ADBBC
:102B1000200029008018594100290ADB00290CDB1C
:102B2000FFF770FF70BD084B084A3F2108480EF0C0
:102B30008DFE012040420749F0E7034B034A3F2145
:102B400003480EF083FEC04600650110F0710110CD
:102B50001C650110FFFFFF7F10B5FA2292000023D1
:102B6000002110F0C3FBFFF7CBFF10BD70B584B0A0
:102B700005000C00EFF30583002B1ED1FFF7FAFDD3
:102B8000002302930193224B00932A002300FFF7B6
:102B900007FE061E23DD20BFFFF7ECFD3100FFF727
:102BA000B3FE1C4B5B6A9C422DD81A4A926AAA4219
:102BB0002CD29C4225D0012026E0164B5B6A99421C
:102BC00009D8144A926A824207D2994201D0012060
:102BD0001AE0002018E0002016E0012014E00D4B60
:102BE0005B6A9C4209D80B4A926AAA4207D29C426D
:102BF00001D0012008E0002006E0002004E00120D0
:102C000002E0002000E0002004B070BD0120FBE7DE
:102C1000F52000100040054070B5EFF30580103836
:102C2000EFF3108C72B61A4B1B68002BFBD0BFF36E
:102C30005F8F01221300834016494B6316490B60D6
:102C4000164909780C00C440224214D0114A546A33
:102C50008200134D5259944206D38200114C1259EE
:102C600099430E4B197007E00A4A031D9B009958BF
:102C70009950002200E00022BFF35F8F044B002137
:102C800019608CF31088002A00D0904770BDC046B0
:102C9000280100D0004005403C700540F8E00020CD
:102CA00080E00020A41A002010B50100024A034869
:102CB000FEF7AEFB10BDC046C0720110E7E0002079
:102CC000044B5B6A034A906A1900536A9942F9D12E
:102CD0007047C04600400540084B5B6A01E0074B67
:102CE0005B6A8B42FBD301E0044B5B6A8B4203D1EE
:102CF000024B9B6A8342F7D37047C04600400540B1
:102D000070B504000D00EFF3108672B61B4B1B6804
:102D1000002BFBD0BFF35F8F002D1CD02000FEF7EF
:102D200095FE174B83420BD019002000FEF7A8FE3A
:102D300001212000FEF77AFE0123A340114A13600F
:102D4000A400114BE550BFF35F8F0C4B00221A60BB
:102D500086F3108870BDA2000B4B0021D1500122D8
:102D6000A2400A490B7893430B7005492000FEF7F7
:102D7000CBFF00212000FEF759FEE4E7280100D038
:102D8000192C001038600540A41A0020F8E000203B
:102D9000F0B5DE4600B584B00400150001921E00B7
:102DA0000293FFF78DFF03958E4202D84ED18542E4
:102DB0004CD9EFF3108B72B6274B1B68002BFBD05E
:102DC000BFF35F8F254A17780125A540EBB23B433F
:102DD0001370234B5D63221D92000199D150A20014
:102DE0002049029850501B6A2B4212D11C4B1B6C7D
:102DF0002B4208D00020BFF35F8F174B00221A60D0
:102E00008BF3108823E0184B184AC52118480EF0A0
:102E10001DFDFFF755FF8E4214D802D1039B83425C
:102E200010D80E4B1B78BB420ED00D4B1D625D635C
:102E30001F2004400123A3400E4A1360074B1F705C
:102E40001E38D8E70020D6E70120D4E7012004B0DF
:102E500080BCBB46F0BDC046280100D0F8E0002091
:102E60000040054080E00020E4720110487301102A
:102E70000873011080E200E0EFF3108C72B60B4B88
:102E80001B68002BFBD0BFF35F8F01238340084AF0
:102E9000136208490A789A430A70BFF35F8F034BA5
:102EA00000221A608CF310887047C046280100D0B9
:102EB00000400540F8E0002010B500291ED0037B3B
:102EC00099421BD84B005B18033B0468A44663443B
:102ED000002919D0002A1DD0914221D0002A25D0E6
:102EE000047BA24222D804685000801803382018BE
:102EF0008170197800291FD11A7010BD104B114A2A
:102F0000682111480EF0A2FC104B114A6F310E4897
:102F10000EF09CFC0F4B0E4A70210B480EF096FCF5
:102F20000D4B0B4A712108480EF090FC044B054AEA
:102F3000682105480EF08AFC41701A70DDE7C04632
:102F4000E46F011050740110007001104C700110FA
:102F50003C740110587001106470011070B50600C7
:102F60000D001400002914D0002A14D08068736862
:102F70009847002806D0220029003000FFF79CFF68
:102F8000280007E02A0021003000FFF795FF20000D
:102F900000E0100070BD0800FCE7000010B5002341
:102FA000437301338373037BC3730123027B9A4210
:102FB00014D9002B0CD0027B934209D85A00D218A6
:102FC000033A01688C4662440133DBB25370EDE78B
:102FD0000B4B0C4A68210C480EF038FC002A09D033
:102FE000924207D8016853009A18033A8A180023BE
:102FF000537010BD024B034A682103480EF026FCB3
:10300000E46F0110507401100070011010B50173CD
:1030100042608360FFF7C2FF10BD000070B504007E
:10302000081E00D170BD002934D0237B994231D8CD
:103030004B005B18033B2268944663445A78002A8D
:10304000F0D02DD0237B9A422AD853009B18033B03
:1030500021688C4663445D7800215970002825D092
:10306000237B984222D843001B18033B21688C46DF
:1030700063440021597001002000FFF76FFF060034
:1030800029002000FFF7CAFF020031002000FFF7EF
:1030900065FFC7E7084B094A682109480EF0D6FBCF
:1030A000054B064A682106480EF0D0FB024B034A46
:1030B000682103480EF0CAFBE46F01105074011040
:1030C0000070011070B505000C00160000292FD00B
:1030D00034D0037B994231D84B005B18033B026824
:1030E000944663445A78002A2ED19A78002A31D126
:1030F0001978FFF793FF0300002E0AD0EA7B002A1D
:103100002ED1AA7B002A03D1EA7B002A3BD1AC73E3
:10311000EC73002B3DD1002C4FD02B7B9C424CD824
:103120002B6861000C19033C1C190023637070BDEF
:10313000254B264A382126480EF088FB254B264A87
:10314000682126480EF082FB254B204A3A21204870
:103150000EF07CFB234B1D4A3B211D480EF076FBF5
:10316000002A0AD0297B8A4207D851008A18033ADC
:1031700029688C4662445470C3E7164B164A68218E
:1031800016480EF063FB184B104A422110480EF00F
:103190005DFB002B0BD02A7B934208D843001B1801
:1031A000033B2A689446634400229A70B3E7094BB4
:1031B000094A682109480EF049FB064B064A682176
:1031C00006480EF043FBC0466473011028740110DA
:1031D0006C730110E46F0110507401100070011045
:1031E000A4730110CC7301102871011070B5040094
:1031F0000A00457B2900FFF765FF6073280070BD5A
:1032000070B50400002967D0437B8B420ED00029A3
:1032100011D0037B99420ED84B005B18033B026828
:10322000D0188378002B0CD1002056E00121FFF745
:10323000DDFF012051E0294B294A682129480EF081
:1032400005FB002B20D0227B93421DD85A00D318B7
:10325000033B2268D2182568EB5C8B421AD0002B06
:103260001BD0227B934218D85A00D318033B226804
:10327000D21853788B4216D0002BF0D11A4B1B4A30
:103280006B211B480EF0E2FA144B154A68211548D1
:103290000EF0DCFA4378137007E0104B104A6821F7
:1032A00010480EF0D3FA43785370002383704370B4
:1032B00001222000FFF706FF0200617B814205D05A
:1032C0002000FFF74BFE6073012006E0094B074A20
:1032D000712107480EF0BAFA002070BDE46F0110AA
:1032E00050740110007001109C6D011010740110D9
:1032F0006C730110F0730110F0B5C64600B5040000
:103300000E0017001D0037480FF05AFC8046364B60
:10331000FA18364B9A4239D8010038000FF050FCA9
:103320000200103A98235B009A4235D86B1E062B98
:1033300038D8069B013B062B34D83F09474537D385
:103340002D04069B1A0315432368002B36DB284BFC
:103350009C4244D080225201264B1A60264B1A60B0
:10336000264B9B6811009943FAD12660A060231D6B
:10337000C02292011A43212313602368002BFCDA38
:10338000E5600823136080BCB846F0BD1C4B1D4AA5
:1033900011211D480EF05AFA1C4B1A4A19211A48DD
:1033A0000EF054FA1A4B174A1C2117480EF04EFA29
:1033B000184B144A232114480EF048FA22683F2380
:1033C0001340B342C3D1A3681B051B0D8342BED17A
:1033D000E368EE22D2021340AB42B8D1D3E7802299
:1033E0009201B9E7001BB70080E84BD380F8A932FF
:1033F00000C0024000E0004000F0004000C000407B
:103400005C7401107C750110BC740110F87401101B
:10341000147501106075011080239B000343014A5D
:10342000D362704700800540024B1A68024B5A6015
:103430007047C0466C3400200080054010B5020083
:10344000164B8020C0051860154B164818600029DF
:103450000AD0154BE021C9041960002A09D1124B8A
:10346000802212061A6010BD0C4BE021C9041960BD
:10347000F3E753019B1A9800801800010B4B18606A
:1034800080235B04984202D3084B094A1A60FFF775
:10349000CBFF054B8022D2051A60E4E700B005405F
:1034A00008200140FCFF010000A005406C34002012
:1034B000FFFFFF0010B5030010000C4A8024E40554
:1034C0001460002B0DD001221343094A094CD4612A
:1034D000094C5C401462516293620021FFF7AEFF19
:1034E00010BD034B0022DA61F7E7C04600B005408B
:1034F00000800540D3C007B02D3FF84F064BAA22ED
:1035000012011A602F22DA60044B054A1A60024B3E
:103510005B68002BFBDA704700400240006002400D
:1035200000B0FA0010B501F09BFC00F00DFC00F0BB
:10353000E5FD00F089FE05F0E7FD01F051FD00F02A
:1035400060FA05F019FD10BD0302000A184380B2AD
:10355000704703060202FF2109040A401343020ACE
:10356000FF2109020A401343000E18437047F8B5C3
:10357000CE46474680B580460F009146080012F0BF
:10358000CFFC061E17D0444600E001342578002DFC
:1035900017D0A31942464A4493420AD83B78AB421B
:1035A000F3D132003900200012F0E8FC0028ECD101
:1035B00002E0002400E044462000C0BCB946B0460A
:1035C000F8BD0024F8E730B501E0002C14D00478F1
:1035D00001300B7801319C42F7D020222243D2B235
:1035E0001500613DEDB2192D08D820252B43DBB223
:1035F0009A42EAD0012000E0002030BD0120FCE723
:1036000000280AD0C07A002809D1431C9B00054A33
:103610009B58002B04D0012002E0002000E0002095
:103620007047C0469027002010B5FDF773FE80B2AA
:10363000002301E00133DBB2032B0FD81A01D218AB
:10364000120107498A18927A022AF3D11A01D21874
:1036500012018A1812898242ECD1E6E710BDC046F9
:1036600098270020F0B5D6464F464646C0B506001E
:103670008846002401E00134E4B2032C23D825005D
:1036800063001B199B00314A9F58002FF3D0630041
:103690001B199B00D3181B7AB342ECD1300180195F
:1036A000000110302A4BC0189246630099461B193E
:1036B0009B0053445A684146B8474D44AD0000232F
:1036C0005246AB50D7E7002301E00133DBB2032BB6
:1036D0001BD8B342F9D01A01D21812011C498A181A
:1036E000927A022AF1D11A01D21812018A18D07BDB
:1036F0003201921912018A18D27B9042E5D133012E
:103700009B191B01CB180422DA7333019B191B018F
:103710000F4AD318DB7B032B04D9E0BCBA46B14671
:10372000A846F0BD0B4C9B00185905F0EBFF084A6A
:10373000300183191B01D318DB7B9B000021195139
:103740008019000110180423C373E6E760270020E6
:103750009827002050270020F0B5D6464F46464611
:10376000C0B584B08046030143441B01534AD318BB
:10377000DB7A012B34D89B00514A9B58002B32D066
:1037800004014444240110344C4BE418200012F08E
:10379000C7FBA022123081B29200362000F0E8FF71
:1037A0008146002800D185E001AD0C2200212800CF
:1037B0000FF054FE43461B0143441B013F4AD318FC
:1037C0001889FFF7C1FE28800123AB70FF33AB805F
:1037D0000C222900484601F0F3F9661E0C2737E059
:1037E00038480EF0CDF80021FFF73CFF43461801A2
:1037F00040440701314BDF190023BB720024200035
:1038000004B0E0BCBA46B146A846F0BD0134E4B20B
:10381000013633782E2B01D0002BF7D1731B9BB2CE
:103820009A463B19284A934216DC22003900484642
:1038300001F060FA7B1C9BB252462900484601F019
:103840000BFA3C19A5B26F1CBFB23378002B09D01C
:10385000013635000024DCE7484600F04BFF062423
:103860006442CCE700223900484601F043FA0235B1
:10387000ABB28022520069460A804A80FC3A484630
:1038800001F0EAF90D4943461B0142469A1812011C
:103890008A18D07BD37A9B00094AD21880000B4942
:1038A00040583523494605F0A5FE0400484600F07F
:1038B00021FFA4E701246442A1E7C0469827002025
:1038C0009027002088750110FEFF0000502700207F
:1038D00070B50400000100190001414BC018032C11
:1038E00020D823011B191B013D4AD3189B7A022BB8
:1038F00034D01AD8002B14D0012B00D06CE0FFF785
:1039000093FE3749220113191B01CB18188102209D
:1039100098720020D87201251D7358732000FFF79C
:103920001BFF70BD2F480EF02BF8032B54D1230141
:103930001B191B012A4A9B58002B07D0013B22016F
:103940001219120126495350002BEAD12001041903
:103950002401234804190023A372E2E723011B1961
:103960001B011F4AD218137B013BDBB21373002BE0
:10397000D7D123011B191B01194AD218537B0133DC
:10398000DBB25373042B09D022011219120114491E
:103990008A1813732000FFF7DFFEC2E7FFF730FE3F
:1039A00000280DD00E49220113191B01CB18D87A1B
:1039B0000130D872012018731A0000235373E9E70D
:1039C00000212000FFF74EFE200104192401044BC2
:1039D0001C190023A372A4E703480DF0D1FFC046D1
:1039E00098270020A0750110BC75011010B50024A7
:1039F00004E02000FFF76CFF0134E4B2032CF8D997
:103A000010BD7047012800D97047002904D08000FC
:103A10000A68044BC250F7E78000034B1A68014B59
:103A2000C250F1E790270020B49C011010B5FFF7B9
:103A3000DDFF10BD30B583B06B460022DA80012374
:103A40001D000540184206D0002904DD02786B46AF
:103A5000DA7101390130032213000340104209D00A
:103A6000012903DD03880239023003E0002301E06D
:103A70000839200007290CDD0268D218934200D9CA
:103A800001320400083443689B189A42F0D901338C
:103A9000EEE71A0C1B041B0CD31803E002889B18DA
:103AA000023902300129F9DC002902DD01786A4679
:103AB00091716A4606321288D318180C1B041B0C2D
:103AC000C318180C1B041B0CC018002D05D00306CE
:103AD0001B0C020AFF201040184380B203B030BD17
:103AE000F0B583B00600019115001C00002700E02E
:103AF0003668002E15D071897068FFF79BFF00199A
:103B0000040C0004000C24187389DB07F0D57B42F9
:103B10005F41FFB22206120C230AFF241C4014430B
:103B2000E6E7002F05D02206120C230AFF241C40D2
:103B300014436B469888FFF707FD24182800FFF709
:103B400003FD2018030C0004000C1818030C0004DB
:103B5000000C1818C04380B203B0F0BD70B51C68EB
:103B600025042D0C230C5B19049C246825042D0CC2
:103B7000ED18230C5B191C0C1B041B0CE3181C0C0C
:103B80001B041B0CE318FFF7ABFF70BD10B582B030
:103B9000049C0094FFF7E2FF02B010BD10B5FFF7E0
:103BA00049FFC04380B210BD70B505000026002457
:103BB00000E02D68002D15D069896868FFF73AFF8D
:103BC0000019040C0004000C24186B89DB07F0D5E5
:103BD00073425E41F6B223061B0C240AFF20044008
:103BE0001C43E6E7002E05D023061B0C240AFF2009
:103BF00004401C43E04380B270BD0000014B1B68D1
:103C00001818704794CE0020024B1B68C01A80B26F
:103C10007047C04694CE0020F8B50400FFF7F4FFCB
:103C2000050027883800FFF7E9FF060064882000B8
:103C3000FFF7E4FFFA231B019F420FD89C420FD8E5
:103C4000AC4202D00388AB420CD1094B1B68B34293
:103C50000AD07388AB4209D1012000E00020F8BDF2
:103C60000020FCE70020FAE70120F8E70020F6E753
:103C700098CE002070B504002C4B1B68834242D8BC
:103C80002B4B1D68854241D90379002B41D1008817
:103C9000FA231B0198423FD8FFF7B0FF844216D0A9
:103CA0000379002B13D1854211D0224B1B6883422C
:103CB00035D0038823800088FA231B01984206D060
:103CC000FFF79CFF05002000FFF79EFF68806088DB
:103CD000FFF794FF0500844214D00379002B11D123
:103CE000144B1B68A3421DD023882B802088FA2305
:103CF0001B01984206D0FFF781FF04002800FFF760
:103D000083FF608070BD0C480DF03AFE0B480DF04B
:103D100037FE0B480DF034FE0A480DF031FE054B1E
:103D20001C60C6E7034B1860DEE7C04694CE002057
:103D300098CE002068340020DC750110F475011065
:103D4000107601102C76011070B50C4C033403234F
:103D50009C430B4B1C60FA252D01258000236380BA
:103D600023712800FFF74AFF064B186001230371F7
:103D700005804580044B1C6070BDC0469CCE002071
:103D800094CE002098CE00206834002070B5041E28
:103D900023D0830722D10500083D164B1B68AB4298
:103DA0001FD803000C33144A1268934219D8030039
:103DB000083B1B79002B17D02800FFF72DFF0028A8
:103DC00015D0083C002323710C4B1B68AB4201D972
:103DD0000A4B1D602800FFF74DFF70BD08480DF02D
:103DE000CFFD08480DF0CCFD07480DF0C9FD074890
:103DF0000DF0C6FD94CE002098CE0020683400203F
:103E0000587601107C76011098760110C07601106A
:103E1000F0B5C64600B50500CC1CA4B203239C43F4
:103E20000B2C05D9FA231B019C4202D900253FE047
:103E30000C248C4200D277E03C4B1B68AB423BD851
:103E40003B4B1B68AB4237D92F00083F3800FFF7C8
:103E5000DBFE06003F883B1A9BB2083B9BB29846AC
:103E60009C422CD824D03800FFF7C8FE0379002BE1
:103E700031D1FA231B019F4224D00788A419A4B290
:103E80000834A4B22B4B1B6883421ED02000FFF7DE
:103E9000B5FE00230371078046802B00083B1C8081
:103EA0000088FA231B01984202D0FFF7A7FE448046
:103EB000280080BCB846F0BD1F480DF061FD1F48CA
:103EC0000DF05EFD1E480DF05BFD2000FFF796FE35
:103ED000184B1860DAE7230014334345E8D8A419D7
:103EE000A4B20834A4B2FA231B019F4219D02000C7
:103EF000FFF784FE0F4B1B68834201D90D4B1860FE
:103F0000002303712B00083B1A88028046801C8026
:103F10000088FA231B019842CAD0FFF76FFE448045
:103F2000C6E707480DF02CFD0025C1E794CE002020
:103F300098CE002068340020F47601100C77011030
:103F40002C770110F0B5CE4600B582B0002800D124
:103F500082E0C51CADB2032295430B2D05D9FA238F
:103F60001B019D4202D9002072E00C25854200D23F
:103F700074E03B4B1B6899461800FFF745FE0700AD
:103F800032E038480DF0FCFC01230371A14510D04C
:103F9000019BE5180835344B1B689D421DD8A307CB
:103FA0001ED12000083053E04B461888FFF726FE4C
:103FB00081464B461B79002B03D02B4A12684A4599
:103FC000F2D1274A49461160274A12684A45DFD094
:103FD000002BDDD025480DF0D3FC25480DF0D0FC9A
:103FE00024480DF0CDFC27883E000195FA231B01E3
:103FF0005B1B9F422BD23800FFF700FE04000379C1
:10400000002BF0D103889E1B083E019B9E42EAD301
:1040100014339E42B8D37E19B6B20836B6B2FA232C
:104020001B019E42ADD03000FFF7E8FD0023037175
:104030002388038047802680012323710088FA2388
:104040001B019842A2D0FFF7D9FD46809EE70020D1
:1040500002B080BCB946F0BD0020F9E70020F7E7C8
:10406000683400202C77011098CE00204077011092
:104070005C7701108C77011010B50400FCF7AAFDE5
:10408000E3681C68002C0AD022681A60A30703D1D9
:10409000FCF7A2FD200010BD02480DF071FCFCF7FA
:1040A0009BFDF7E7BC77011070B505000C008B078E
:1040B00009D1FCF78FFDEB681B682360EB681C607F
:1040C000FCF78AFD70BD01480DF05AFCE077011045
:1040D000C36800221A6083680333033293430022CB
:1040E00007E0C16809681960C1680B6081885B18C6
:1040F0000132C1889142F4DC7047000010B5002401
:1041000006E0A200044BD058FFF7E2FF0134A4B24E
:10411000082CF6D910BDC0463079011010B508281A
:1041200005D88000044BC058FFF7A6FF10BD034818
:104130000FF000FB0020F9E7307901100078011042
:1041400010B5082807D8002904D08000044BC058B7
:10415000FFF7AAFF10BD03480FF0ECFAFAE7C046DC
:1041600030790110207801100B688268934206D0E4
:10417000002902D08360012070470023FAE7002065
:10418000FAE70B68C268934206D0002902D0C360E8
:10419000012070470023FAE70020FAE70C20404294
:1041A000704770B504000D0001F09AFA2900200054
:1041B00005F0D8FA2900200000F036FE70BD00009E
:1041C00010B500280DD03923C25C343B1340052BB9
:1041D00006D1CB0704D54368002B01D0130703D4C5
:1041E00010BD03480DF0CCFB011D06F0A3FEF7E760
:1041F0005479011030B583B005000C00100000297F
:1042000008D0002A09D06B680A689A4208D10020B9
:1042100003B030BD0B480DF0B3FB0A480DF0B0FB06
:104220000192036001A9FFF7BCFF23686B600121C5
:104230002800FFF7C5FFEB69002B01D02800984745
:104240000120E5E77879011070470000F0B5C64617
:1042500000B582B005000C0017001E00002920D018
:10426000002F20D0002E20D0002C02D02368002B5D
:104270001DD101AA21002800FFF7BCFF01239846A9
:10428000002239002800FFF76FFF002231002800CC
:10429000FFF777FF4346002B0CD002B080BCB84636
:1042A000F0BD074CDCE7064FDCE7054EDCE70023FA
:1042B0009846E5E701AA21002800FFF79BFFECE7FD
:1042C000B49C0110F0B5C64600B504000E001700FE
:1042D0009846002832D0079B002B34D0002937D0D5
:1042E000002F37D04346002B36D000256560A560EF
:1042F000E560354B6361258600223923E2542000B6
:104300002830042200210FF0A9F8E5612562069B00
:1043100063622E4B1A783C23E254089B2361434688
:104320003A0031002000FFF791FF2000079B9847DB
:10433000002823D0002080BCB846F0BD24480FF0F0
:10434000F9F92000F7E723480FF0F4F90020F2E72D
:10435000214EC5E7204FC5E71F4B9846C5E7C33B35
:104360000022E2540EE01D480DF00AFB1C480DF03F
:1043700007FB01313C22A154002B15D03C23E35C08
:10438000FF2BECD0174B1D682B000022002BF3D025
:104390009C42E8D00132FF2AE8DC3C21585C615C99
:1043A0008842E6D01B68F1E73C33E35CFE2B07D084
:1043B0000133064A137025600A4B1C602000BAE7DF
:1043C000024B00221A70F6E79D410010F0E0002039
:1043D00088790110A4790110B49C0110C8790110EA
:1043E000DC79011070CE0020014B18607047C04688
:1043F0006CCE002010B5041E10D03923C35CDA0740
:104400000BD40122134339228354C369002B00D0FB
:10441000984703212000FFF7D3FE10BD01480FF09D
:1044200089F9FAE70C7A011010B5041E0FD0392370
:10443000C35CDA070AD501229343383283541B0741
:1044400009D4E369002B01D02000984710BD034830
:104450000FF070F9FAE706F0BFFCF2E7287A0110D6
:1044600010B5041E28D04368002B12D13923E35C19
:10447000DB0713D4114B1B68A34213D0104B1B68EE
:10448000A34213D0002B17D01A68A24212D01300F7
:10449000F8E704300021FFF784FEE7E72000FFF78C
:1044A000C3FFE7E70020FFF79FFFE7E72268044B21
:1044B0001A6001E022681A6010BDC0466CCE002070
:1044C00070CE002010B5041E04D03923C35C5A07F7
:1044D00004D510BD09480FF02DF9FAE70422134363
:1044E0003922835406F082F803212000FFF768FE8A
:1044F000236A002BEDD020009847EAE7487A0110A4
:1045000010B500280CD03923C35C5A0707D5042204
:10451000934335328354036A002B00D0984710BD73
:1045200001480FF007F9FAE76C7A0110021E0BD070
:10453000064B1868002808D03C23C35C0133DBB26B
:10454000934202D00068F5E70020704770CE00204B
:1045500030B504AC257800240460416002814381B9
:1045600003AB1B780373457301238373C47330BD9E
:1045700002E0C91A89B20068002802D043898B4240
:10458000F7D9002A00D011807047000010B5FCF761
:1045900021FB034B01221A70FCF71EFB10BDC04625
:1045A000F2E0002070B500281AD080235B02994207
:1045B00021D2002921D08CB203891B199BB2A342BE
:1045C0001DD30C254557002D0DDB002A19D042685C
:1045D000511A4160428914194481038100200BE083
:1045E00009480DF0CDF94268511A020010328A4292
:1045F000EFD9012000E0012070BD0020FCE7012080
:10460000FAE70120F8E7C0460C96011010B5FCF758
:10461000E1FA084B00221A70FCF7DEFA064B186824
:1046200000E0C068002804D0436F002BF9D000F0F0
:10463000D5FE10BDF2E0002090E00020F0B583B080
:1046400007000E001500412A01D0012A0FD10720D2
:10465000FFF764FD041E07D000230193009533008B
:1046600032003900FFF774FF200003B0F0BD0148AD
:104670000DF086F9907A011010B50022FFF792FF35
:1046800010BD000010B5002814D080235B029942B1
:1046900018D2002918D08AB2438993420DD34468B6
:1046A000A446614441609B1A438103899A1A02819E
:1046B000002010BD05480DF063F905480FF03AF8E9
:1046C0000120F6E70120F4E70020F2E70C96011044
:1046D000A47A011010B5002902DBFFF763FF10BDBB
:1046E0004942FFF7CFFFFAE710B50122FFF7F2FFCB
:1046F00010BD000070B5051E01D000260CE0194861
:104700000DF03EF918480DF03BF929000820FFF79D
:1047100017FD0136F6B22500002D21D0FCF75AFA1C
:10472000AC7B002CEED0013CE4B2AC73FCF754FA45
:10473000002C15D12C682A7B0F231340022BE4D0C8
:10474000012B05D0002B08D12800FFF71FFBE0E765
:1047500029000720FFF7F4FCDBE704480DF010F90F
:10476000300070BD0C960110C47A0110DC7A011083
:10477000F0B5D6464F464646C0B582B005000F009C
:10478000904684B2C1235B009A4241D011D8012ADD
:1047900002D0412A00D07DE0424639000020FFF7D8
:1047A0004DFF8146484602B0E0BCBA46B146A84635
:1047B000F0BDA0239B009A426CD1E31C03218B43E4
:1047C0009BB2FA1C94B28C431B199BB21800103098
:1047D00080B28A43934260D3824261D8FFF7B2FB32
:1047E00081460028DED029001031494403310324DA
:1047F000A14300230193434600933B003A00FFF797
:10480000A7FE4B465B682342CCD027480DF0B8F892
:1048100000250023994626E0FFF7B8FE4B46002B03
:1048200002D04846FFF766FFA946BBE7B6B22100B3
:104830001031691803310324A14300230193434637
:10484000009333003A002800FFF782FE6B68234292
:104850001BD14B46002B1BD053461D60BF1BBFB264
:104860000024002F9ED0AA460820FFF757FC051E03
:10487000D2D0E31C032293439AB20C4B9B1A9BB2F7
:104880001E1CBB42D2D93E1CD0E709480DF078F877
:10489000A946E3E707480DF073F80023994681E73E
:1048A000002399467EE7C046547B0110EC050000CA
:1048B000F07A0110807B011070B5041E12D00089BF
:1048C000884220D90D006389AB420ED2ED1AADB2F9
:1048D00023890A1A9B1823812468002CF3D11348DA
:1048E0000DF04EF812480DF04BF8227B120701D163
:1048F000AB4209D1658125812068002801D0FFF7EE
:10490000F9FE0023236070BD6368191B691889B222
:104910002000FFF77DFA002804D08442EAD0054841
:104920000DF02EF804480DF02BF8C046B47B0110B2
:104930009C7B0110E87B0110CC7B01100300002060
:1049400002E0013080B21B68002BFAD170470000F2
:1049500010B5041E09D0FCF73DF9A37B0133A37306
:10496000FCF73AF9A37B002B00D010BD01480DF0F5
:1049700007F8C046047C011010B5002801D00029BA
:1049800008D10C480EF0D6FE0FE003890C891B19E4
:10499000038110000268002AF7D1038942899342FB
:1049A00004D10A899B180381016010BD02480CF0F4
:1049B000E7FFC046187C0110507C011010B50C00B8
:1049C000FFF7DAFF2000FFF7C3FF10BDF8B5CE46B2
:1049D000474680B506000D1E914698460AD00A89C2
:1049E0004A4507D300280BD002894B449A4207DB83
:1049F000002726E03D480EF09DFE1020404270E06A
:104A00003B480EF097FE102040426AE039480CF017
:104A1000B7FF39480CF0B4FF4B46002B36D10027C6
:104A2000424539D0002D03D06A892B899A4245D05E
:104A3000002E03D0728933899A4248D04B46002B0E
:104A40004ED0738942469B1A6A89D21B934200D387
:104A500013004C46994500D91C00706840446B68AF
:104A6000D91922000EF000FDA0443F194B461C1B33
:104A7000A3B2994672894245C8D36B89BB42C8D359
:104A8000CED82D68002DC7D00027C9E71B480EF0EF
:104A900051FE1020404224E03668002E02D0002350
:104AA0009846BFE74B46002B02D100239846B9E752
:104AB00013480EF03FFE1020404212E02B68002BFE
:104AC000B6D010480EF036FE0620404209E03368AA
:104AD000002BB3D00B480EF02DFE0620404200E024
:104AE0000020C0BCB946B046F8BDC046807C01106D
:104AF000B47C0110E47C0110FC7C0110187D0110D5
:104B0000287D0110387D011010B5002904D00A89D4
:104B10000023FFF75BFF10BD02480EF00BFE1020D4
:104B20004042F8E7707D0110F8B5CE46474680B5A3
:104B30000500884691461900002805D04346002B01
:104B40000BD00027002625E019480EF0F3FD0027C2
:104B50003800C0BCB946B046F8BD16480EF0EAFDB4
:104B60000027F5E76C89641AA4B2A14500D24C462F
:104B7000434698196B689C46614422000EF074FC11
:104B8000E719BFB23619B6B24B461C1BA3B2994601
:104B900000212D684B46002BDAD0002DD8D00029FB
:104BA000E0D06B898B42DDD8C91A89B2F1E7C046E3
:104BB0008C7D0110AC7D011010B5FFF7D9FC10BD44
:104BC000F8B5CE46474680B50500884616009146A2
:104BD000002806D000290AD0038993420DD300276C
:104BE0001DE018480EF0A6FD1020404223E01648B4
:104BF0000EF0A0FD102040421DE014480EF09AFD7A
:104C00000120404217E012480CF0BAFE4346D91981
:104C1000220068680EF028FC361B3F192D68002E14
:104C200006D0002DEFD06C89B442EFD33400EDE70D
:104C30004F4504D10020C0BCB946B046F8BD054878
:104C40000CF09EFED07D0110E87D0110047E011065
:104C5000247E01103C7E0110F0B583B00F001400DB
:104C600019006B469A1DFFF7A7FF061E24D0028984
:104C70006B46D88803199A4221DB7389984212D275
:104C80001A1A944212DD95B273689C4660442A0059
:104C900039000EF0E9FB621B92B27919002A07D1A4
:104CA000002003B0F0BD07480CF06AFE2500EBE7DA
:104CB0003068FFF785FFF4E701204042F1E701206B
:104CC0004042EEE7547E011070B50B0015001189CB
:104CD0001A00FFF74DFD041E04D02900FFF714FF52
:104CE000002801D1200070BD01480CF049FEC046EB
:104CF0006C7E011010B582B014006B469A1DFFF750
:104D00005BFF002807D042896B4606331B889A4216
:104D100001D94268D45402B010BD000010B5027A27
:104D2000002A07D0134B5C683C23E35C0133DBB201
:104D30009A4213D1002906D0002811D00368002B15
:104D400010D000200BE000280ED00368002B0DD0FF
:104D5000084A526993420BD0080000E0002010BDC1
:104D60000120FCE70120FAE70120F8E70120F6E73F
:104D70000120F4E750340020F0B5D6464F4680B508
:104D800083B00500244B1968586907F0A8FB070099
:104D90006B685E7A214B1C6800239946019313E0EF
:104DA00063699A46002B0DD06B6899461C4B2A000C
:104DB0002100A069D04700281AD16B684B4528D143
:104DC000022399460194E468002C1CD0237C9E4267
:104DD000F8D139002000FFF7A1FF0028F2D0637C52
:104DE000DB07DDD50C4B1B6962689A42EAD1D7E735
:104DF000019B002B05D0E268DA60084B1A68E2607C
:104E00001C6001239946484603B0C0BCBA46B1466F
:104E1000F0BD04480CF0B4FD5034002058DE0020F2
:104E200060340020807E011010B5002814D0036883
:104E3000002B11D000290FD00B68002B0CD0074B92
:104E40001B6800E0DB68002B06D01A680468A242E9
:104E5000F8D10A681A60F5E710BDC04658DE002098
:104E60007047000010B5002409E0154B154A1A8060
:104E70000DE00134A4B28023DB019C421DD2104A14
:104E8000138801339BB213800F4A9342EDD0002068
:104E900003280FD883000D4A9B581B68002B06D0AF
:104EA000D98A074A12889142E3D0DB68F6E70130DD
:104EB000C0B2EDE7024B188810BD0020FCE7C046E9
:104EC000D80F002000C0FFFFFFFF00006485011025
:104ED00010B5002903D106480CF052FDC068002827
:104EE00005D0C36F8B42F9D10023C367F6E710BD2D
:104EF000CC7E011070B5051E04D0037D012B04D1BA
:104F000001240DE008480CF03BFD08480CF038FD8A
:104F1000A200074BD35818682900FFF7D9FF0134C6
:104F2000032CF5D970BDC046F47E0110007F01103E
:104F30006485011010B50100037D012B03D003200F
:104F4000FFF7FEF810BD01480CF01AFD187F0110A4
:104F500070B5041E09D0037D042B19D0072B1ED079
:104F6000032B05D00025280070BD12480CF008FD69
:104F700003F080FB051E01D105232375002D15D0FC
:104F80006B1CF0D1638B0822134363830025EAE78F
:104F900003F070FB051EF1D105232375EEE703F046
:104FA00069FB051EEAD109232375E7E7200003F01A
:104FB000D9FCD8E7F47E011010B5084B186800E062
:104FC0002000002809D0C468438B1A07F8D50822AE
:104FD00093434383FFF7BCFFF2E710BD90E000204E
:104FE00010B5FCF797F98004800C034B9C46604495
:104FF000024B188010BDC04600C0FFFFD80F002034
:1050000010B50100037D012B03D00220FFF798F8B3
:1050100010BD01480CF0B4FC347F011070B50600DF
:105020000D1E0ED0002E0ED0337D002B11D1002A84
:1050300015D00020032816DC830025495B581B6827
:1050400021E0244DEEE724480EF074FB102040428E
:1050500017E022480EF06EFB0620404211E0FFF7F9
:1050600001FF021E25D0002D03D02B68002B00D09D
:105070003360F2821A4B1A68F2601E6003F03EFF42
:10508000002070BDDB68002B11D0DC8A9442F9D17E
:10509000002B11D01968002911D0002D12D02C68D6
:1050A000002C12D0A142EDD108204042E9E70130A6
:1050B000C0E702204042E4E708204042E1E7082040
:1050C0004042DEE708204042DBE708204042D8E7C4
:1050D00064850110B49C0110487F0110607F0110AD
:1050E00094E0002070B504001600002829D0037D4C
:1050F000002B2DD1012B4BD00320FFF70FF8051EFD
:105100004AD023690361E38AC38201230375637D67
:105110004375637A4372237A0372E37AC372A37A84
:10512000837223680360E38A002B20D01C4B1B682A
:10513000A34214D0002B18D0D968A14213D00B0081
:10514000F8E718480EF0F6FA250010235B421AE043
:1051500015480EF0EFFA0F235B42002513E0DA68E2
:105160000F4B1A6001E0E268DA600023E360200080
:10517000FFF746FF0D4BAB610D4B1A68EA601D60EF
:1051800003F0BCFE0023002E00D03370280070BD59
:10519000050009235B42F6E701235B42F3E7C046C3
:1051A00094E00020887F0110B87F011005560010A0
:1051B0009CE0002010B50022FFF794FF10BD000016
:1051C000F8B5002816D0456A068DA919C26A448E22
:1051D000231C0E4FBC4200D93B1C9BB2D318CB1AE8
:1051E0000BD5521B0CD480235B029A420BD2428512
:1051F0000020F8BD06480CF0C3FB4685881AF8E786
:1052000000234385F4E703480CF0BAFBD0160000F6
:10521000F07F01101480011010B5041E13D0037D1F
:10522000012B14D0038D591889B20F4A914201D82D
:105230008B420FD90C4B23852000FFF7C1FF0B4B8E
:10524000984209D810BD0A480EF074FAFAE70948E6
:105250000CF096FB0185EFE7638B02221343638317
:10526000200003F07FFBEDE7A02D0000670B00009E
:10527000308001104880011010B5041E08D040682D
:10528000002801D0FFF736FA21000420FEF758FF6E
:1052900010BD10B503E00468FFF7EEFF2000002802
:1052A000F9D110BD10B5002801D0417510BD0248DC
:1052B0000EF040FAFAE7C0467080011070B5051E86
:1052C0000DD00420FEF72AFF041E06D01422290068
:1052D0000EF0CAF86068FFF73BFB200070BD014884
:1052E0000CF04EFB8C800110002800D0016170474B
:1052F00010B5002804D0037D012B02D08423C150B7
:1053000010BD01480CF03CFBA880011010B500282E
:1053100004D0037D012B02D08023C15010BD014871
:105320000CF02EFBD080011010B5002804D0037DB6
:10533000012B02D09023C15010BD01480CF020FB7E
:10534000F8800110002802D0037D012B00D07047A7
:105350008161FCE710B5002806D0037D012B07D042
:105360008C23C150427710BD03480EF0E3F9FAE7F1
:1053700002480CF005FBC046208101103881011065
:1053800010B5002807D0054B054A10681A689446E6
:105390006044186010BD03480CF0F2FAD40F0020EE
:1053A000A0E000205881011010B5002A0ED000297D
:1053B0000BD00B8E002B08D0282B0AD9283B9BB290
:1053C0001A1C834200D9021C90B210BD02480CF096
:1053D000D7FA0023F4E7C0467481011010B5040029
:1053E000406F002803D0FFF754FF0023636710BD10
:1053F00010B5041E22D0037D002B1ED00A2B1CD01A
:10540000012B1AD0806F002803D0FFF773F9002317
:10541000A367636F002B02D02000FFF7DFFF01239B
:105420005B422386E06EFFF734FF206FFFF731FF0A
:105430000023E36623676822A35210BD01480EF0E3
:1054400079F9FAE79C81011010B50C1E0BD00028E9
:105450000CD003688B420CD0002B0FD0DA68A2422C
:105460000AD01300F8E71C480CF08AFA1B480CF02D
:1054700087FADB68036001E0E268DA600023E3603A
:105480002000FFF7B5FF237D0A2B04D0012B02D0AB
:10549000638BDA070FD4237D012B08D0E36E002B3A
:1054A00010D1236F002B10D1636F002B10D100237C
:1054B0002375E38210BD022213436383200003F0AF
:1054C00051FAE8E706480CF05BFA06480CF058FA87
:1054D00005480CF055FAC046B8810110D48101107E
:1054E000F48101100C82011028820110F0B5D6461B
:1054F0004F464646C0B584B004000D0000281CD0BD
:10550000037D012B1DD00A2B1ED0026D9046426AEE
:105510009146902286580769002B47D1C38A9A4644
:10552000002B4DD02E4B1B68834215D0002B19D079
:10553000DA68A24214D01300F8E72A480EF0FAF80D
:105540002EE029480CF01CFA01002848FFF77CFFE8
:105550002000FFF755FD23E0DA68214B1A6001E0D7
:10556000E268DA600023E3609A460025206F002895
:1055700001D0FFF78EFEE06E002801D0FFF789FE14
:10558000606F002801D0FFF784FE002D1AD12000A3
:10559000FFF736FD002E03D00D2149423800B047F9
:1055A00004B0E0BCBA46B146A846F0BDC38A9A46EC
:1055B00001000F48FFF748FF0E4B01221A70D5E794
:1055C0000025D3E7231D228B0292524601920093BD
:1055D00023004A464146200003F05CF9D7E7C04665
:1055E00094E00020408201105C820110A4E00020C1
:1055F00090E00020F5E0002010B50121FFF776FFD4
:1056000010BD000010B5081E04D0FFF7F5FF0D20F7
:10561000404210BD01480CF0B3F9C0469082011021
:1056200010B50B4B1B680021002000E0DB68002B4D
:1056300008D0084A12681C6A121B8A42F6D311006D
:105640001800F3E7002801D0FFF7D6FF10BDC046D1
:10565000A4E00020A0E0002070B543B2002B02DBE4
:10566000002801D11FE07F200138C2B20E4B1B6819
:105670000024002006E00D4A14681A6AA41A0A00E1
:105680001800DB68002B0AD0597D9142F3D3F8D182
:10569000064D2D681E6AAD1BA542F2D3EBE700282C
:1056A00001D0FFF7A9FF70BD90E00020A0E000202E
:1056B00070B504000800002C06D108480CF060F911
:1056C000C568FFF799FF2800002805D00368226805
:1056D0009342F5D0C068F7E770BDC046B0820110B4
:1056E00070B504000D00002802D00368002B00D123
:1056F00070BD0D4B1968FFF7DBFF0C4B19682000DC
:10570000FFF7D6FF002DF3D02B68002BF0D0084B0D
:105710001B6800E0DB68002BEAD01A6821688A4227
:10572000F8D12A681A60F5E790E0002094E00020A4
:105730009CE0002070B501000300083BDBB2012BA8
:1057400004D80E4B1B680024002003E00C480CF02A
:1057500017F9DB68002B0BD01A7D8A42F9D1094A70
:1057600012681D6A521BA242F3D314001800F0E71E
:10577000002802D00021FFF7B9FE70BD90E00020A4
:10578000E4820110A0E0002070B505000220FEF7C1
:10579000C5FC041E30D0002C2CD0A42200212000F7
:1057A0000DF05CFE6575254B6422A352638523854D
:1057B0009B32E2721A32FF32628606224021625226
:1057C000E287073A228649323F39A1521C4A1268C1
:1057D00022621C4A1278A2774A22A35284231A4AD0
:1057E000E2501033194AE2500433194AE2500433AC
:1057F0000922E250200070BDFFF7DEFBFFF710FF2B
:105800000220FEF78BFC041EC5D10920FFF792FF92
:105810000220FEF783FC041EBDD10820FFF78AFF9B
:105820000220FEF77BFC041EB5D12800FFF714FF11
:105830000220FEF773FC0400ADE7C046A02D000077
:10584000A0E00020F7E00020C959001000DD6D0045
:10585000F824010010B54020FFF796FF10BD0000AE
:1058600010B584B0041E13D0002904D0037D042B8E
:1058700011D0072B0FD0237D012B00D166E0022B26
:1058800000D16FE0002B46D02000FFF761FB3DE028
:105890003A480CF075F8A36F002B1CD0638BDB0625
:1058A0001ED5231D228B0292E28A019200932300CF
:1058B000626A216D200002F0EDFF2000FFF798FDE5
:1058C0002F4B1B68A3420ED0002B12D0DA68A242E5
:1058D0000DD01300F8E7228D2A4B9A42DED1CAE799
:1058E00029480CF04DF8DA68254B1A6001E0E268AF
:1058F000DA600023E360254B01221A70244B1B68F9
:10590000A34205D02000FFF77BFB002004B010BDB0
:1059100002F06EF8F9E7E38A002B12D01D4B1B68EA
:10592000A34206D0002B0AD0DA68A24205D01300A9
:10593000F8E7DA68174B1A6001E0E268DA600023E2
:10594000E3602000FFF75CFB0020DFE72000FFF7AB
:10595000D1FA21001048FFF777FD2000FFF7EAFA9F
:105960000020D3E721000648FFF76EFD074B012218
:105970001A702000FFF744FB0020C7E7F4820110F3
:1059800090E00020A02D000014830110F5E000201D
:1059900098E0002094E000209CE0002010B5002852
:1059A0000AD0037D012B03D0438B10221343438382
:1059B0000121FFF755FF10BD02480DF0BBFE10207E
:1059C0004042F8E73083011010B5080014000029A8
:1059D00009D0002A0DD01189FFF71EFC2000FEF728
:1059E00089FE002010BD06480DF0A4FE10204042A4
:1059F000F8E7002B01D00020F4E7FFF7CFFFF1E735
:105A000048830110F8B5041E25D0866F777B0023EC
:105A100083678433C558002D23D000233200010052
:105A20000069A8470500002D23D1BB0627D5238D8B
:105A3000144A934201D0013323858423E658002E73
:105A40001DD02069002300222100B04703000D3340
:105A500015D1050013E00C480DF06CFE10256D42C9
:105A60000DE00023320001000020FFF7ADFF05002C
:105A7000D9E72B000D3302D0A66705256D4228001B
:105A8000F8BDC046A02D00006483011070B51C4A0B
:105A90001378013313701B4B1C6813E0022213436D
:105AA0006383200002F05EFF638B032293436383D2
:105AB00013E00822934363832000FFF749FA0FE0C5
:105AC000E5682C00002C19D0A27F0D4B1B789A4260
:105AD000F6D0A377638BDA07E0D4638B1A07E8D498
