:020000041000EA
:1000000000B5324B212058609868022188439860DF
:10001000D860186158612E4B002199600221596106
:100020000121F02299502B49196001219960352056
:1000300000F044F80222904214D00621196600F024
:1000400034F8196E01211966002018661A6600F04E
:100050002CF8196E196E196E052000F02FF8012189
:100060000842F9D1002199601B49196000215960AB
:100070001A491B48016001219960EB211966A021F2
:10008000196600F012F800219960164914480160C1
:100090000121996001BC002800D000471248134993
:1000A000086003C880F30888084703B5996A0420EC
:1000B0000142FBD001200142F8D103BD02B5186610
:1000C0001866FFF7F2FF186E186E02BD00000240BE
:1000D000000000180000070000035F00212200005C
:1000E000F4000018222000A00001001008ED00E03C
:1000F00000000000000000000000000074B24E7A12
:1001000000200420F7010010C3010010C5010010F9
:10011000C1010010C1010010C1010010C101001097
:10012000C1010010C1010010C1010010C701001081
:10013000C1010010C1010010C9010010CB01001065
:10014000CD010010CD010010CD010010CD01001037
:10015000CD010010CD010010CD010010CD01001027
:10016000CD010010CD010010CD010010CD01001017
:10017000CD010010CD010010CD010010CD01001007
:10018000CD010010CD010010CD010010CD010010F7
:10019000CD010010CD010010CD010010CD010010E7
:1001A000CD010010CD010010CD010010CD010010D7
:1001B000CD010010CD010010CD010010CD010010C7
:1001C00000BE00BE00BE00BE00BE00BEEFF3058054
:1001D000103800BEF2EB88716824061088240610DF
:1001E0003402001090A31AE700201F49086006C8D7
:1001F00081F3088810471D48006800282FD10DA4FE
:100200000ECC002902D000F012F8F9E71849194A7B
:10021000002000E001C19142FCD1174988471749ED
:1002200088471749884700BEFDE701C901C29A42C5
:10023000FBD3704788240610C0000020E829002066
:10024000D04D06100000042000000420D04D061000
:10025000001004200010042000000000704709482E
:1002600001F0BEFF0047000008ED00E0000000D0F4
:10027000082A002094FE0020A1260110BD120010C3
:100280005F2601105756000006005250ABB3605372
:10029000CCFD051006005250861C0302DCFD051043
:1002A000060052505422A29DF0FD05100500525048
:1002B000DE65F468D04D0610F8B5C04610B5064CA2
:1002C0002378002B07D1054B002B02D0044800E017
:1002D00000BF0123237010BD602B00200000000030
:1002E00068140210044B10B5002B03D003490448D6
:1002F00000E000BF10BDC04600000000642B0020DD
:100300006814021010B5214814F042F9204B1B78F4
:10031000BFF35B8FDB0706D51E4A80231B0101213B
:10032000D1541D4810BD1A4816F02EFC0028F3D0F9
:100330000F21184B0FE000221A70642058609A6059
:10034000DA601A615A619A6508381A545D325B386E
:100350009854603301390029EDDA0F210F4B0AE080
:1003600000225A709A70DA705A601A725A729A722F
:10037000DA72203301390029F2DA064A80231B01A0
:100380000021D154024816F01BFCC5E76814021086
:100390007C2B00209C2B0020701402109C3100202C
:1003A000F0B5C64600B59EB006000C001500594BCE
:1003B0001B78BFF35B8FDB070CD50F2E3DD93300C5
:1003C000103B0F2B00D878E0002080B21EB080BC1C
:1003D000B846F0BD4F4816F0D7FB0028EDD00F21EE
:1003E0004D4B0FE000221A70642058609A60DA606A
:1003F0001A615A619A6508381A545D325B3898540C
:10040000603301390029EDDA0F21444B0AE0002264
:100410005A709A70DA705A601A725A729A72DA7254
:10042000203301390029F2DA3B4A80231B010021E5
:10043000D154384816F0C4FBBFE706AB98467100AC
:1004400089194901344E71186022180013F0F4FE26
:10045000822013F0BBFE07005D234246D35C002BD5
:1004600021D15C33D15CD368906D039002915169C6
:100470000191126900922A4A822138001FF0C8F8BF
:1004800000261C9BB34212DDB31D9B0006AA9B589D
:10049000244A042105A81FF0BBF805A938001FF065
:1004A000F9F80136EDE7204A82211FF0B1F83A0051
:1004B0002900200013F036FA87E706AF20367601D0
:1004C000154886193B0007CE07C307CE07C306CEE3
:1004D00006C3782013F07AFE06003B7B002B13D175
:1004E000397F787F3B6903900291B96901917A69FC
:1004F00000920E4A782130001FF08AF8320029005D
:10050000200013F00FFA60E7074A78211FF080F807
:10051000F4E7C0467C2B00209C2B00209C3100205F
:100520008014021054150210F81402100C15021059
:1005300070B504005D23C35C002B00D08CE05C33FD
:10054000C35C002B33D0D0231B065A68C368DA4043
:10055000012313405A425341DBB24370002B06D0B3
:100560008278002A03D1027801214A400270A370E8
:100570002378002B5DD0A5686B1CA360626960685E
:10058000010051438B4201DB002A41D1216900293E
:1005900018D125001835A06D88425DDD8B005A59B1
:1005A00001239340D022120693610131F4E7D02356
:1005B0001B065A68C368DA40012313405A4253416C
:1005C0000370D5E7830018184000490013F0DCF9E8
:1005D0000100280013F0D8F900293DD12500183575
:1005E000A06D05E001239340D02212065361013132
:1005F000884231DD8B005A59D0231B065B68D340FB
:10060000DB07EFD501239340D02212069361EEE77A
:100610008B4221D125001835A06D002398421BDDA7
:100620009A00515901228A40D02109064A610133BA
:10063000F4E7A368002B0FD00023A3602500183532
:10064000A06D07E09A00515901228A40D021090685
:100650004A6101339842F5DC70BD000010B504001A
:100660000A22094913F0E8FD96218901074811F093
:1006700093FF0221082001F0E9FE0221092001F088
:10068000E5FE200010BDC0466C190210008003403A
:1006900010B51D4B1B78BFF35B8FDB0701D51B48E3
:1006A00010BD194816F070FA0028F8D00F21174B2A
:1006B0000FE000221A70642058609A60DA601A61B4
:1006C0005A619A6508381A545D325B389854603321
:1006D00001390029EDDA0F210D4B0AE000225A7092
:1006E0009A70DA705A601A725A729A72DA722033F9
:1006F00001390029F2DA054A80231B010021D15477
:10070000014816F05DFACAE77C2B00209C2B0020E4
:100710009C31002010B516F01DFA094B02221A6018
:10072000084B1A688023DB015340E022D2011340BA
:10073000054A136020220549054811F063FE10BDEB
:1007400000E0044000C0044000D00440601E0020CF
:10075000A103001010B50321014811F077FE10BD70
:10076000D419021070B50D00002400260FE00A20F5
:1007700013F0A8FE06E07C2013F0A4FE02E07C202B
:1007800013F0A0FE1F2323401F2B14D00134A542D9
:1007900017D963000B4AD15A0B4813F029FF0723DE
:1007A0002340072BE3D0112CE5D0022CE7D02020EA
:1007B00013F088FEE6E701363100044813F018FF15
:1007C000E4E770BD00F01F10581502101C5902100C
:1007D000F0B5DE4657464E464546E0B583B000AF1D
:1007E00005008A4693467B600268D30F9B185B1016
:1007F0003A6B5A44904653439B000733DB08DB00B7
:100800006A46D31A9D466C46814813F0C1FE002308
:100810009C4622E0D31C1B18961DB60076589B0000
:100820001E5101328B6D9342F4DC020012329200B1
:1008300013515C23CB5C002B24D0030013339B00AB
:1008400001221A515D23CB5C002B21D01430800093
:100850000123035101239946CC44DC451DDA63464C
:1008600058015900614449015144DB01CA681A51D9
:10087000431C9B000A691A51831C9B004A691A5148
:100880000022CFE7030013339B0000221A51D9E75F
:100890001430800000230351DCE700210EE0D81C57
:1008A00080000026065129E0181D80000026065110
:1008B0002BE005339B0000221A5101313B6B99421A
:1008C0002BDA4A012868C30F1B185B1058464343B4
:1008D000D318786884466244980016690651581CFB
:1008E000800056690651981C800096690651107F59
:1008F0000028D4D0D81C800001260651507F002843
:10090000D2D0181D800001260651127B002AD0D0BB
:1009100005339B0001221A51CFE72B68424653430F
:100920000733DB08DB006A46D31A9D466E4600217A
:100930002A6843465A43D30F9B185B10994209DA41
:100940008A004B001059F054125912120133F2541C
:100950000131EDE7E9682F4813F04AFEEFF3108408
:1009600072B680214901E86820F006FD84F3108802
:10097000294813F00DFE294813F00AFEEFF3108406
:1009800072B62A6843465A433100E86820F0A4FC56
:1009900084F31088224813F0FBFD2B684246534332
:1009A000DD0FED186D10002400260FE00A2013F073
:1009B00089FD06E07C2013F085FD02E0202013F085
:1009C00081FD1F2323401F2B14D00134A54217D9CA
:1009D0006300144AD15A144813F00AFE0723234037
:1009E000072BE3D0112CE5D0022CE7D17C2013F0AB
:1009F00069FDE6E7013631000C4813F0F9FDE4E744
:100A0000BD4603B0F0BCBB46B246A946A046F0BD09
:100A10006015021070150210901502109815021042
:100A2000B815021000F01F10581502101C590210C2
:100A3000F0B5DE4657464E464546E0B5C3B0050024
:100A400093460B68DC0FE4186410544362005F4B5C
:100A50009A5A9446621C52009F5AA21C52009A5AFB
:100A60009246210012314900585A002108E0CB1C5F
:100A70001B195B00554AD25A8E0032ABF25001313D
:100A80008142F4DB230013335B005049CB5A012B26
:100A900026D000261AAB0021197064221B921C91EB
:100AA0001D911E911F913091083A99540132904640
:100AB0005C3A914642464946995414346400434B8B
:100AC0001B5B012B0ED103321AA9280013F0B4FBD3
:100AD000280043B0F0BCBB46B246A946A046F0BDD4
:100AE0000126D7E7002302AA137064240394049319
:100AF0006246059206975246079218931890002274
:100B00000BE093000133FF3302A98C466344403B62
:100B10001C68931D9B005C5001329042F1DC5C2309
:100B200002AAD6540133002202A9CA5400270FE0BA
:100B3000BC1DA40002ABE3580193180001F04AFD6C
:100B400002ABE25801239340D022120653620137D0
:100B50001899B942ECDC00220DE093000133FF3319
:100B600002A884466344E83B186801238340D020F0
:100B70000006436101329142EFDC059B01931800AE
:100B800001F028FD059B019301242300019A934065
:100B9000D0273F06BB62059B01930022012118006C
:100BA00001F06CFC059B01937B68019AD3401C40CB
:100BB00063425C4102AB9C705946054813F018FD36
:100BC000602202A9280013F037FB81E700F01F1014
:100BD000C0150210F0B5D6464F464646C0B590B097
:100BE0000400150050010968CA0F521852105343EF
:100BF000C31859003E4A515A8A46591C4900515A55
:100C00008946991C4900515A8846D91C4900525AB4
:100C1000012A2BD000271A1D520035498A5A012A71
:100C200026D0002605335B00314AD15A002921D055
:100C30002900304813F0DCFC6B4600225A709A7091
:100C4000DA705A601A725A729A72DA7201321A7330
:100C5000220023CB23C223CB23C203CB03C2200019
:100C600010B0E0BCBA46B146A846F0BD0127D2E7B5
:100C70000126D7E72A00204813F0BAFC08AB00226F
:100C80005A709A70DA7009921A725A729A72DA72FB
:100C900051460C9149460D9141460E911F775E7762
:100CA0001A731F00504601F095FC012633003A6983
:100CB0009340D022120690469362002201213869A7
:100CC00001F0DCFB43465B683A69D3401E40734247
:100CD0005E413E702900094813F08AFC3B00220067
:100CE00023CB23C223CB23C203CB03C2B7E7C04627
:100CF00000F01F10DC150210F4150210101602107F
:100D000070B588B001A9074B0C330A0070CB70C2D4
:100D100070CB70C21B68136001388000405808B067
:100D200070BDC0466C190210F0B595B01F0019686F
:100D30006D4813F05DFC38681DF012FC461E7968A2
:100D40006A4813F055FC78681DF00AFCFFF7D8FFDD
:100D50000190B968664813F04BFCB8681DF000FCC0
:100D60000290F968634813F043FCF8681DF0F8FB43
:100D70000390614938691EF013FD002834D15F48A3
:100D800013F036FC01255C4978691EF009FD002846
:100D90002FD15B4813F02CFC01245A4B1B78BFF376
:100DA0005B8FDB072AD5B86953491EF0F9FC002890
:100DB00057D1002304AA53709370D3700593137214
:100DC00053729372D372202204A90CA813F034FA40
:100DD0003000303040014C4BC0181E220CA913F0DB
:100DE0002BFA4A4815B0F0BD494813F001FC002524
:100DF000C9E7484813F0FCFB0024CEE7414815F052
:100E0000C3FE0028CFD00F213F4A0FE0002313700C
:100E1000642050609360D360136153619365083818
:100E200013545D335B38D054603201390029EDDA58
:100E30000F21394B0AE000225A709A70DA705A601A
:100E40001A725A729A72DA72203301390029F2DA70
:100E50002D4A80231B010021D1542A4815F0B0FEF1
:100E6000A1E7002304AA53709370D3700593137203
:100E700053729372D372019A0892029A0992039A5A
:100E80000A9204AA157754771373089B01931800EC
:100E900001F0A0FB089B019301242300019A9340D9
:100EA000D0252D06AB62089B01930022012118007A
:100EB00001F0E4FA089B01936B68019AD3401C404F
:100EC00063425C4104AB1C70202219000CA813F093
:100ED000B3F93000303040010B4BC0181E220CA972
:100EE00013F0AAF97DE7C0462C160210381602103E
:100EF000501602105C160210141D02106816021023
:100F0000801602107C2B00209C2B002070140210F5
:100F100074160210981602109C31002010B590B083
:100F20000400064940222831684613F085F9013C47
:100F3000A4006B46E05810B010BDC0466C190210FA
:100F4000F0B5DE464F464646C0B5B4B000AF914658
:100F50001D001968AB4813F04BFB28681DF000FB1F
:100F6000431E98466968A84813F042FB68681DF064
:100F7000F7FAFFF7C5FEF860A968A44813F038FB3C
:100F8000A8681DF0EDFAB860E968A14813F030FBDD
:100F9000E8681DF0E5FA786029699E4813F028FB9F
:100FA0009D4928691EF0FCFB00280ED101239B46B9
:100FB00000240F2C11DC631D9B00E85897491EF09C
:100FC000EFFB002804D00134F3E700239B46EFE752
:100FD0002100934813F00CFB00E00024631EA200E4
:100FE0000732D208D20069468A1A95466E46002B0F
:100FF00003DB002102C2013BF9E70025AC420BDD17
:101000006B1D9B004A46D0581DF0AAFAFFF786FFD9
:10101000AB00F0500135F1E72100824813F0E8FA07
:10102000814813F0E5FA0025AC4206DDAB00995982
:101030007E4813F0DDFA0135F6E70A2013F042FA94
:101040007B4B1B78BFF35B8FDB072DD5002C5ED16C
:1010500000233B7464227A61BB61FB613B627B626B
:10106000BB66083A102579198B545D335B3ACA5434
:101070005F3260346319D81913F0DEF84346580024
:10108000404440016B4BC0185E226319D91913F01C
:10109000D3F8694813F0ACFA6848BD4634B0E0BCF8
:1010A000BB46B146A846F0BD614815F06DFD00286D
:1010B000CCD00F215F4B002910DB00221A70642076
:1010C00058609A60DA601A615A619A6508381A5451
:1010D0005D325B38985460330139ECE70F21584B8F
:1010E00000290BDB00225A709A70DA705A601A726B
:1010F0005A729A72DA7220330139F1E74D4A80232D
:101100001B010021D1544A4815F05AFD9EE70023E7
:101110003B7464227A61BB61FA68FA61BA683A6228
:101120007A687A62BB66BC669C4208DD9A00915977
:101130009A1D92001020381881500133F4E75C2387
:101140005A4610217818C25401330022C254002597
:10115000B96EA94211DDAC1DA4001026BB191B59A4
:10116000FB60180001F036FABB191A5901239340AD
:10117000D022120653620135EAE7002291420FDDC8
:101180009300C0201B18B0388446BC446344A83B7D
:10119000186801238340D020000643610132EDE747
:1011A000FB69FB60180001F015FAFB69FB60012484
:1011B0002300FA689340D0252D06AB62FB69FB60E3
:1011C00000220121180001F059F9FB69FB606B68EE
:1011D000FA68D3401C4063425C41BC746022102515
:1011E000791960246319D81913F026F8434658007A
:1011F000404440010F4BC0185E226319D91913F007
:101200001BF846E72C160210AC160210B816021096
:10121000C8160210D4160210141D0210E416021093
:10122000F4160210101702102C17021040170210AB
:101230007C2B00209C2B00204417021070140210FD
:101240009C3100200123002004E0CA5C101800B289
:101250000133DBB2062BF8D9404200B270470000E0
:10126000F8B505000F00160004000A340A22010038
:10127000200012F0E1FF6F73330AEB732E7421002C
:101280002800FFF7DFFF03126B74A8740022092AFD
:1012900009D8054B9B699B06FBD42178024B19604A
:1012A00001320134F3E7F8BD0080034010B51F227E
:1012B0000A400621FFF7D4FF10BD0000F0B5C64676
:1012C00000B5C64CA54413F09FF9C54802F09CFA3E
:1012D0000F21A0AB002910DB00221A706420586097
:1012E0009A60DA601A615A619A6508381A545D3258
:1012F0005B38985460330139ECE70F2120AB0029AB
:101300000BDB00225A709A70DA705A601A725A72A5
:101310009A72DA7220330139F1E7FFF7B9F9060062
:1013200040231C93AF4C1D941E94F0231B06E3181E
:101330001F932100AC4813F05BF92200AB4904A8CD
:1013400012F0DCFA8021C9001CA8FFF70BFA002478
:101350000F2C10DC22001CA904A8FFF769FB600019
:1013600000194001A0AB9C4660445E2204A912F023
:1013700063FF0134ECE700240F2C0DDC6300191926
:101380004901A0AA944661441B19580130185E22F5
:1013900012F052FF0134EFE7002508E0944A78216B
:1013A0001EF036F93900934813F022F901350F2D5C
:1013B00023DC10232A001CA904A8FFF70BFC6C01F6
:1013C00020AB9C4664441E2204A9200012F034FF86
:1013D000782012F0FBFE0700237B002BDED1227F5A
:1013E000617F236903910292A2690192626900926E
:1013F000814A78211EF00CF9D4E700240F2C0CDC74
:10140000610120AB9C46614420003030400130181F
:101410001E2212F011FF0134F0E713F0F5F80CF082
:1014200033F90BF0FFFF754813F0B2F8744B754AAF
:10143000754976480CF0C0F8431E9841C4B20028A4
:101440001ED1734813F0A4F810F0CCFF714813F0CC
:101450009FF8FFF75FF9704813F09AF8FFF77AF9F1
:101460006E4813F095F801235C40002C10D08023C7
:101470001B01F35C002B0BD1642002F0C5F9F6E7E9
:10148000614A6249664813F0B3F801235C40ECE717
:10149000644813F07DF8002398460AE0544A8221FC
:1014A0001EF0B6F83900604813F0A2F801239C46FC
:1014B000E04443460F2B39DC5D00E91849017118FF
:1014C000602204A812F0B8FE45446D01A0AB9C4612
:1014D00065445E2204A9280012F0AEFE822012F0BC
:1014E00075FE07005D23EB5C002BD7D15C33EB5C12
:1014F000AA6D039202936B6901932B690093EB68C9
:101500004A4A82211EF084F80024AB6DA342C9DD53
:10151000A31D9B005B59464A042104A81EF078F8DD
:1015200004A938001EF0B6F80134EEE7002508E003
:101530002F4A78211EF06CF839003E4813F058F815
:1015400001350F2D28DC04A92B0030335B01F31883
:101550000A0091CB91C291CB91C211CB11C26C0107
:1015600020AB9C4664441E22200012F065FE7820C9
:1015700012F02CFE0700237B002BD9D1227F617F44
:10158000236903910292A2690192626900921A4A48
:1015900078211EF03DF8CFE780231B01F35C002B80
:1015A00012D1254813F024F80A2002F02DF9002466
:1015B0000F2C11DC600000194001A0AB9C46604478
:1015C000FEF7B6FF0134F3E71022009220ABA0A98A
:1015D0001CA8FFF7FDF8E4E7002540E080F7FFFFD7
:1015E0008813000000F01F10501702106817021037
:1015F000F8140210781702100C1502108C17021044
:101600001027000004004000A8170210B4170210B1
:10161000BC170210C8170210E0170210F8170210CA
:1016200010180210441802105418021080140210EE
:1016300054150210681802107C1802102370A37849
:10164000002B05D0636801336360E378002B32D050
:10165000A378002B02D1E378002B70D101350F2D38
:10166000A2DC6C0120AB9C466444237B002BF5D1AB
:10167000637F002B14D0D0231B065A682369DA40FD
:10168000012313405A425341DBB26370002BD5D083
:101690002278002AD2D1A27801214A40A270CDE757
:1016A000D0231B065A682369DA40012313405A42AB
:1016B0005341A370C3E704A8FEF7D0FF6368581E28
:1016C0000A2112F061F90029C2D1A37A002B0ED0B1
:1016D000237A002B12D0637A002B17D0E37A002BE9
:1016E00024D1237F002B19D10123E372B0E70F31FE
:1016F00004A8FFF7DBFD0123A372A9E7A28A0F214B
:1017000004A8FFF7ADFD01232372A1E7228B03217B
:1017100004A8FFF7A5FD0123637299E7228B082136
:1017200004A8FFF79DFD0123E37291E70023A37254
:1017300023726372E3720122E270636088E704A897
:10174000FEF78CFF002104A8FFF7B0FD0023E37033
:1017500084E7C04610B5064B8B4202D108F09AFAD6
:1017600010BD044B044A1821044810F07BFFC0460A
:10177000F01E0020EC1902100C1B02100C1A0210B3
:10178000F8B50400204B994212D101230B7208F0E6
:10179000ABFA0500431C11D11C4B186859681C4B4F
:1017A0009860D96023685B69194920009847F8BDA3
:1017B000184B194A1D21194810F054FF02F0D8F8AF
:1017C00006000F1E10DBFA229200002328000021E1
:1017D00012F098FC36184F41002F0BDB002F0DDB69
:1017E0000B4B9E60DF60DDE70D4B0E4A3F210E483C
:1017F00010F038FF012676420C4FEFE7084B094AFC
:101800003F21094810F02EFFE01E0020B8280210EA
:10181000F01E0020581A0210241B02100C1A02108D
:10182000881A0210F41A0210A41A0210FFFFFF7F98
:1018300010B50400094B1B78002B08D00849012380
:101840000B722368DB6920009847012010BD02F06D
:10185000E5FC024B01221A70F0E7C04683FE00202F
:10186000E01E002010B5040003689B6903499847F7
:1018700023681B6A02492000984710BDF01E002013
:10188000E01E0020002070477047000010B502F0F5
:101890006FF8002906DB0BD0FA229200002312F029
:1018A000D9F810BD054B064A3F21064810F0DAFE74
:1018B000FA21890012F090F8F3E7C046881A021066
:1018C000F41A0210A41A0210083000E0180003688D
:1018D000002B03D08B42F9D1002002E001600B60A5
:1018E00001207047083000E018000368002B05D085
:1018F0008B42F9D10B680360012000E000207047A3
:10190000043000E018000368002B03D08B42F9D1AB
:10191000002002E001600B6001207047043000E00D
:1019200018000368002B05D08B42F9D10B680360C7
:10193000012000E000207047F8B50600806800280C
:1019400033D002F015F8002906DB04000D0008234F
:101950009C46B44400220CE0154B164A3F21164821
:1019600010F080FE154B164A4221164810F07AFE00
:101970009C4663461B68002B12D0200029009E68FD
:10198000DF68801BB9410029F2DB34003D000E49BD
:101990000A684968724079400A43E3D06246E7E743
:1019A000002A03D0106803681360F8BD1000FCE73C
:1019B000881A0210B81B0210A41A0210381B021059
:1019C000D01B02105C1B0210B8280210F0B583B0C7
:1019D000104B5C681B6800930194836804E0DC682A
:1019E0009B68009301940B00002B0CD01968009C9D
:1019F000019D9E68DF68A41BBD41002DEFDCF2D184
:101A0000002CECD1EFE7009B019C0361446103B023
:101A1000F0BDC046B828021070B506000D0002E007
:101A20004B68280098472800FFF786FF011EF7D172
:101A30006C6800E02468002C09D0237A002BF9D0D0
:101A4000002323722100280063689847F2E72800EA
:101A5000FFF7BCFF2B696C6933607460300070BDA8
:101A6000034B1B6802201840431E9841C0B27047C8
:101A700000C0064010B5104A104B12184B41990097
:101A8000900F0843990F504059400D4A0D4B12F0EA
:101A900039FB03004A01C00E1043CA0E58405140A2
:101AA000094A0A4B12F02EFB03004A00C00F1043F4
:101AB000CA0F5840514010BD157C4A7FB979379EF6
:101AC000B9E5E41C6D4758BFEB113113BB49D09405
:101AD000F0B5C64600B584B002000B0013498C4631
:101AE0001BE0614601C900908C4600210191910ED6
:101AF0009F010F4396010098019980197941029046
:101B00000391110C1D040D4314040298039900194C
:101B10006941801A994102000B0005498C45E0D9C2
:101B20001000190004B080BCB846F0BD001C0420B1
:101B3000FF1F0420F0B5CE46474680B583B08046EF
:101B4000036844680093019403008068D96801E049
:101B500001F00EFF009C019D23002B4302D10300E6
:101B60000B43F5D0009C019DA60FAB003343A200B0
:101B70002E002500AD185E416B0E9946F3019C4680
:101B80004B46624613431F00730EEA0113431E00C7
:101B90005B0F9C46FB0064462343F20092197B4195
:101BA000009C019D60406940260A2F063E432D0A95
:101BB000009C24062C43444035004D40070C0E0485
:101BC0003E4307047C4075404646346075604C01D6
:101BD000C50E2C434001C90E0843B460F0601000EC
:101BE000190003B0C0BCB946B046F0BDF0B5DE4642
:101BF00057464E464546E0B583B00190574B9B692A
:101C0000DB0410D5564BDA6BE0231340402B0AD08F
:101C1000EFF305839846019B002B0AD000239946D9
:101C2000002400258AE04F4B4F4A81214F4810F095
:101C300019FD4F4B4C4A86214C4810F013FD4D4B7B
:101C40001868596801F036FDEFF3108672B64A4BFA
:101C50001B68002BFBD0BFF35F8F464B19685A6897
:101C60008A4516D0BFF35F8F434B00221A6086F37C
:101C700010885B46002B5ED13E4B1A6892465F6827
:101C80004346002BDBD03B4B1868596801F07CFEC3
:101C9000DAE7BA42E6D120002900001969412F4B4A
:101CA000DA690123134003431C000D0001F060FEBC
:101CB00002000B1E23DB0A20002112184B41002BCF
:101CC00023DB002B25DB2B490A604B6001994B1E5F
:101CD0004B452DD1294A20235B42CB181FD41168D4
:101CE00099400B00126801998A4022432B4314004B
:101CF0001D00224B1C605D6001239B46B2E7204B18
:101D0000204A3F21204810F0ADFC012252421F4BD7
:101D1000D7E71B4B1B4A3F211B4810F0A3FC202395
:101D200001981B1A1168D940536883400B43D9E7C7
:101D300001239B4696E701239C46E144019B99457C
:101D400002D200239B4697E72000290003B0F0BC95
:101D5000BB46B246A946A046F0BDC04600000640BC
:101D600000800040001C0210301D0210C81C021030
:101D7000CC430210582B0020300100D0002A002054
:101D8000881A0210181D0210A41A0210FFFFFF7F0C
:101D900010B588B03B4C20686168FFF799FE206061
:101DA0006160FFF767FE049B5840059B0193594013
:101DB0000490059102A800F011F902980399FFF729
:101DC00059FE069B01935840079B0193594006908A
:101DD00007914020FFF70AFFFFF74CFE049B584095
:101DE000059B019359400490059101F0C1FDFFF757
:101DF00041FE069B01935840079B01935940069072
:101E00000791EFF3108472B61F4B1B68002BFBD0B9
:101E1000BFF35F8F1D4B1B78002B24D1032B09D8F8
:101E20005A1CD2001A498C46624452681F2A03D0B9
:101E30000133F3E701235B425A1C1DD0DBB2154A84
:101E400013700133DB00124A9446634405225A6042
:101E500004A8FFF76FFE102204A90F4812F0ECF956
:101E60000A4B01221A70BFF35F8F074B00221A60E2
:101E700084F3108808B010BD084B094AE9210948CD
:101E800010F0F0FBE8290020300100D08DFE00208A
:101E9000000003407EFE0020F02900200C1D0210EF
:101EA000501D0210C81C021070B586B03E4B1B7846
:101EB000002B00D16EE010223C4902A812F0BCF9C0
:101EC0003B4B1C78E4B201F053FDFFF7D3FD029BBE
:101ED0005840039B01935940029003910120FFF762
:101EE00085FEFFF7C7FD049B01935840059B0193B6
:101EF0005940049005912F4B1A78531CDB002E4952
:101F000058582E4B984248D00021FFF7B3FD029B52
:101F10005840039B0193594002900391EFF31086C0
:101F200072B6274B1B68002BFBD0BFF35F8F204B93
:101F30001B78DBB2A34213D01C4B02991A685140A4
:101F4000039A019258684240029103929A68DB68B2
:101F5000049901914A40059901914B4004920593DF
:101F600002A8FFF7E7FD05000C00102202A90F48A8
:101F700012F062F90E4A13780133DBB21370BFF32B
:101F80005F8F0F4B00221A6086F310882800210013
:101F900006B070BDFFF7FCFE8DE70132D2000B00EA
:101FA0000021D150B0E7C0468DFE0020F02900206E
:101FB0007FFE00207EFE002000000340FFFFFF00A8
:101FC000300100D010B5FFF76FFF10BD10B502480B
:101FD00000F03CF810BDC046F8FB002010B5082208
:101FE000014912F029F910BDF8FB002010B50029B5
:101FF00001D000230AE0114B114A1F31114810F0A3
:1020000031FB00240DE03732C25401334A1E9A429C
:102010000FD90F2B0DD85A080B4CA25CDC07F0D45B
:102020000424224114000F222240092AEBDC303222
:10203000EAE7C0180023037010BDC046601D0210FF
:10204000B81D0210681D0210F8FB002070B588B0A2
:10205000040004AD002604960922002105A812F010
:10206000E5F800960922002101A812F0DFF84B23C1
:102070002B700D22694628001FF0FEF8002304E0B3
:102080005A1D69468A5CE2540133072BF8DD08B01B
:1020900070BD0000EFF3108072B6034B1B68002B7D
:1020A000FBD0BFF35F8F70472C0100D0BFF35F8F71
:1020B000024B00221A6080F3108870472C0100D078
:1020C000F8B506000C001500FFF7E4FFE308F71869
:1020D000F15C07222240012393400B4205D1DBB281
:1020E0000B433B70FFF7E2FFF8BD2100280010F022
:1020F00053FBF0B583B00600019114001F00FFF7F9
:10210000C9FF00E00134BC420CD8E308F518F35CC9
:102110000721214001228A401A42F3D1D2B21A4348
:102120002A7001E001246442FFF7C0FF002C02DBAB
:10213000200003B0F0BD019B002BF9D0089810F0EF
:102140002BFB000070B505000C00FFF7A3FFE308B0
:10215000EE18EA5C07210C400123A340134204D08F
:102160009A433270FFF7A2FF70BD034B034A2C3134
:10217000034810F077FAC046741F0210E01F0210E7
:10218000941F0210002307E0054A9A189200BFF33B
:102190005F8F0021116001331F2BF5D97047C046B6
:1021A00040000034054A1078431CDBB21370172B33
:1021B00002D9130010221A707047C046081F002071
:1021C00000B583B00100044B00931F23182203487D
:1021D000FFF78FFF03B000BDF01F0210603A002030
:1021E00010B5010018231B8814221088984710BDD1
:1021F00010B5010018231B8816221088984710BDBF
:10220000F0B5C64600B507000E000025012398462C
:1022100000E00135B5420AD2AC003C192068FFF756
:10222000DFFF20600028F4D100239846F1E7404604
:1022300080BCB846F0BD0000F8B5DE4657464E46B5
:102240004546E0B505000F0092460A9A934250D3E6
:102250001A0E91461E020A9A00233000494611F0D8
:10226000F9FB80466C006419A400304B9C46644422
:102270006368834200D260602B1FDBB29B46012B58
:102280003DD9C0239B012343802212011A60AB0079
:10229000274A9958002907D0506911F09DFB431C2B
:1022A0005800C0180338FDD253465A0123685A40DB
:1022B000E0231A4080235B0123431A605A46012A17
:1022C00028D980239B012343802212011A604346B0
:1022D0006360424600233000494611F0BBFBAD006D
:1022E000134B58510120F0BCBB46B246A946A0464C
:1022F000F8BD104B104A3321104810F0B3F9012FEC
:10230000BFD1C0239B01234303221A60A368DB07CC
:10231000FCD5C9E72168794003220A401A60A26807
:102320000123BB401342FAD0CBE7C04600800040F7
:10233000643A00200C2002106C20021020200210B1
:1023400030B583B00C2001F0E3FEFFF789FB0028D5
:102350000DD0002304E099002D4A2E488850013307
:10236000092BF8D92A4B2C4A5A6203B030BD2B4BAB
:1023700000229A6701F03EFF294B01221A60274B89
:102380005B6C012BFBD1274B03221A60234B9B6B09
:10239000012BFBD1013300930433234A012123484D
:1023A00001F026FE05230093214A0121214801F076
:1023B0001FFE214B0093002202210420FFF73CFF67
:1023C0001E4D00952B00002201210520FFF734FF50
:1023D000104C00942300002200210720FFF72CFF5F
:1023E00000942300002200210820FFF725FF0A4B5C
:1023F00000932300002200210920FFF71DFF009514
:102400002B00002200210620FFF716FFADE7C04693
:10241000643A0020006CDC021BB700000080004022
:102420003CB0004030B00040002F685900800240AE
:10243000008C864700C00240001BB700405973075C
:102440008000014BC0587047643A002010B58300EB
:10245000084A944663441C6840226240C0241440E9
:102460008022520113431C60C000034B9C46604411
:10247000416010BD04C001400040014080000B4B92
:102480009C46604400290DD00823002A0CD0042269
:102490001343026853400C22134080225201104320
:1024A000036070470023F0E70022F1E704C0014019
:1024B000002909D08000094B9C46604480239B0181
:1024C00018430223036070478000044B9C4660441D
:1024D000C0239B01184302230360F4E704C00140BA
:1024E00070B5D0231B061B689D00094C2C59204257
:1024F00007D19B002043064C18510D2000F042F9F3
:1025000070BD044B044ACC21044810F0ABF8C0461F
:10251000E4FB00207C20021040210210A8200210C1
:1025200010B50400D0231B061B689B000A4A9B5869
:1025300018420BD00D2000F03FFAD0231B061B6879
:1025400005499B005A58A2435A5010BD034B044AF8
:10255000D621044810F086F8E4FB0020F020021099
:102560001C210210A8200210072303409B00C00872
:1025700099403C308000014BC15070470040014001
:10258000F8B507000C0016001D00FFF7EDFFFB0873
:102590009B00ED180720384080008440002E04D0B6
:1025A00080239B011D432C60F8BDC0239B011D436C
:1025B0002C60F9E710B5D0231B061B68002B03D055
:1025C000024BFFF7DDFF10BD014BFAE73041014040
:1025D0000041014010B501238340D02212069362CE
:1025E00093610521FFF732FF10BD0000074B9B6888
:1025F000103080001950BFF35F8FBFF35F8F044B23
:102600000021196082F310887047C04600ED00E099
:10261000240100D01F23181A7047000010B5091AB2
:10262000081F0A4B9C466144094A914208D8C307D7
:1026300006D440104005400D064B184380B210BD33
:10264000054B064AA321064810F00CF8FC070000D1
:10265000FE0F000000E0FFFF74210210EC230210C7
:10266000A421021010B5091A04394C08090B08D12D
:102670004905490D064A11430180064B2343438017
:1026800010BD054B054AAB2105480FF0EBFFC046D6
:1026900000F0FFFF00F8FFFFEC210210C023021042
:1026A000A421021001238340034A10681840431EEE
:1026B0009841C0B27047C04600E100E0002904D054
:1026C000034B1860034B18607047034B1860FBE71F
:1026D00080E200E000E100E080E100E010B50123CD
:1026E00083401800FFF7EAFF10BD0000012383407C
:1026F000014A13607047C04600E200E0024B9B684D
:1027000010308000C058704700ED00E010B5FFF7B2
:10271000F5FF002805D0054BC01A2F2803D801204B
:1027200010BD0020FCE70020FAE7C0460C1F002087
:1027300070B504000D00EFF3108672B60C4B1B68E9
:10274000002BFBD0BFF35F8F2000FFF7D7FF094BB3
:10275000984201D0A84205D1320029002000FFF79D
:1027600045FF70BD044B054A862105480FF07AFFEE
:10277000240100D0CD010010FC2102102024021001
:10278000A4210210F0B5DE4657464E464546E0B558
:1027900089B0814601911500EFF3108A72B6744B2F
:1027A0001B68002BFBD0BFF35F8F724B0027DF57F6
:1027B000002F40DB7C00E419A4006F482418062297
:1027C000A2566C4B1A706D4B9A684B4610339B00A7
:1027D000D35898461E001B1A2F2B38D9684B9845A2
:1027E0002FD105AE674B33807B009B46D819800004
:1027F000614B9846404402306349FFF70FFF7080F9
:10280000624BB380FF23B371F571019B07935F4463
:10281000BF0047440ECE0EC701231C43A0465246BC
:1028200041464846FFF7E2FE09B0F0BCBB46B2465F
:10283000A946A046F0BD564B564AD72156480FF040
:1028400011FF564B534ADE2153480FF00BFFC04394
:1028500040440C2111F0C0F8002912D101239E43FD
:10286000B34633000026DA79AA4211D90621595617
:1028700000290CDB4A00521892001E003E4B9B18A8
:10288000F1E7474B434AEA2143480FF0EBFE1E00B5
:10289000002E3AD005AB434A1A80813A5A8006236B
:1028A000F3560293002B17DA3F4805AB9B469880FE
:1028B000029A9A71DD71019A0792301D2100FFF78B
:1028C000ADFEB080B7717B00DB199B002A4FFF186B
:1028D0005B4607CB07C7A2E77800C0198000264BEC
:1028E000C0180430321DB388D90A1C2907D15B05F2
:1028F0005915023149005118FFF790FED5E72B4BCF
:102900002B4AB12124480FF0ADFE05AE1D4B33809C
:102910007B000293D8198000174A90460200424477
:102920000392901C1849FFF779FE7080039A101DDE
:102930005946FFF773FEB0801E4B5A464146521A65
:10294000524153431B0DB371F571019A0792029BDB
:102950009C466744BF0047440ECE0EC7114B5A46F3
:102960001380813B538001231C43A04657E7C04698
:10297000240100D086FE00200C1F002000ED00E0A6
:10298000CD01001000A1FFFF3C1F002001BDFFFF93
:102990003422021008240210A42102105C2202102A
:1029A000842202100148000001BD0000F82202103C
:1029B000F8230210AAAA0000F0B5CE46474680B51B
:1029C00083B006000D00EFF3108872B6564B1B68FB
:1029D000002BFBD0BFF35F8F544B9A683400103448
:1029E000A300D758524B9F4207D0AF4200D198E086
:1029F0000197504BFB1A2F2B09D942463900300062
:102A0000FFF7F4FD03B0C0BCB946B046F0BD3000DE
:102A1000FFF748FE814600213000FFF75FFEBFF35D
:102A20005F8FEFF30581002901D08C4211D1012382
:102A3000019C9C430022A368AB4212D00622A256FE
:102A4000002A0DDB53009B189B002200394CE41830
:102A5000F1E73621384B394AFF3139480FF002FE91
:102A60002200AB4256D106256557002D38DB6B009E
:102A70005B199A002F4B9B189A68A260DA79E27171
:102A800006229A56A2719B795BB2002B0FDA2D4871
:102A9000A0806B005B199B00264AD3182A4A117844
:102AA0009971157049463000FFF718FEA5E7201D03
:102AB0006B005B199B001F4A9B181A1D9B88D90A43
:102AC0001C2907D15B055B15023359005118FFF72C
:102AD000A5FDDDE71D4B1E4AB12119480FF0C2FDCF
:102AE000002912D1002A0ED0FF239371194B938035
:102AF000154A1378A371184B0E49641A6441634355
:102B00001B0D1370CEE70A4FF2E7201D1349FFF7A4
:102B1000A9FDC7E76A21124B084AFF3108480FF0A8
:102B2000A1FD034F69E7C046240100D000ED00E09D
:102B3000CD0100100C1F002010230210D82302101A
:102B4000A421021001BD000086FE0020F822021020
:102B5000F823021001BDFFFFAAAA0000461F0020B3
:102B60004423021010B5032304009C43064A9446F4
:102B7000644422681840C000FC3383409A43130029
:102B800081400B43236010BD00E400E070B50121DB
:102B900001432E4BCB1A2F2B28D8EFF30583002BA4
:102BA0002BD0EFF3108C72B6294A1268002AFBD0A2
:102BB000BFF35F8F274A0400244D641B64416243C6
:102BC000120D54B2244A92689B00D2588A421BD0FC
:102BD0000022032A32D853009B189B001B49CB18B4
:102BE0009B795BB2A3421FD00132F2E7C7211B4B96
:102BF0001B4A49001B480FF035FD92211A4B184A19
:102C0000FF3118480FF02EFD134A92681749D15032
:102C1000174B1A7882711C70BFF35F8F0C4B002228
:102C20001A608CF3108870BD0D005300991889004C
:102C30006918FF268E710F4A8A80E9E7D1210E4B71
:102C4000074A490007480FF00DFDC0460C1F002041
:102C5000240100D0AAAA000000ED00E04C230210DD
:102C6000A4230210A421021074230210CD0100102D
:102C700086FE002001BDFFFF802302100022044BCE
:102C800002E0044902C30132072AFAD97047C0465C
:102C900000E400E08080808010B5FFF7BBFC0100FD
:102CA0000148FFF74FFA10BD92FE002000B583B037
:102CB0000100064B0093052300220548FFF719FA8F
:102CC000002801DB1F23181A03B000BD882302105F
:102CD00092FE002070B504000E001500FFF762FAA6
:102CE0000100200000F006F8A680E580BFF35F8FAA
:102CF00070BD0000024B9C46614489000160704732
:102D00004000003410B50400FFF74CFA0100200029
:102D1000FFF7F0FFFF232371BFF35F8F10BD10B5E6
:102D20000400FFF73FFA01002000FFF7E3FFFF2355
:102D3000237100236371BFF35F8F10BD034B9C466B
:102D4000614489000160BFF35F8F70474000003429
:102D500010B504000120FFF733FA01002000FFF74F
:102D6000EDFF10BD70B505000C00080000F000FF7D
:102D70000949200000F040FEFFF714FA074B9C467B
:102D80006044800068602C75D0231B061B786B752F
:102D9000A400034BE55070BDA93000104000003482
:102DA00018EC00200A4B1A68EFF3108172B6136812
:102DB000002BFCD0BFF35F8F054B1B68BFF35F8F09
:102DC00000221A6081F3108840BF00200021704764
:102DD00008FE002010B5002922D003681B7B994211
:102DE0001ED8174B9C466144090183689C46614488
:102DF0000C684968002A19D003681B7B9A4215D8D1
:102E000083680F488446624412019A181068536818
:102E1000020001208B4201D80ED00020C0B210BDAC
:102E2000084B094A3C2109480FF01CFC054B064A97
:102E30003C2106480FF016FCA242EFD8EDE7C04651
:102E4000FFFFFF0FB825021024280210782502107A
:102E500010B500291ED0037B99421BD84B005B188C
:102E6000033B0468A4466344002919D0002A1DD0FE
:102E7000914221D0002A25D0047BA24222D80468A6
:102E800050008018033820188170197800291FD14C
:102E90001A7010BD104B114A682111480FF0E2FB67
:102EA000104B114A6F310E480FF0DCFB0F4B0E4AEE
:102EB00070210B480FF0D6FB0D4B0B4A71210848CF
:102EC0000FF0D0FB044B054A682105480FF0CAFB00
:102ED00041701A70DDE7C046DC2502109028021010
:102EE000F82502104C2602106C28021058260210F9
:102EF0006426021070B506000D001400002914D0DD
:102F0000002A14D0806873689847002806D02200F1
:102F100029003000FFF79CFF280007E02A0021006D
:102F20003000FFF795FF200000E0100070BD0800A2
:102F3000FCE70000F0B583B00500009201930AABF6
:102F40001C780BAB1F78002C26D003685A7B944268
:102F500007D10123002B19D1002C3BD1200003B055
:102F6000F0BD002C0CD01A7B944209D81A6863007B
:102F70001B19033BD3189B78002BEBD00123E9E707
:102F80003E4B3F4A68213F480FF06CFB3E4B3F4AA7
:102F900067213F480FF066FB03689C7B002CDBD069
:102FA00012D01A7B94420FD862001219033A1968A2
:102FB0008C46624451789973002900D1D97300235B
:102FC000937053701370C7E72C4B2D4A68212D481E
:102FD0000FF048FB002C3AD02B681B7B9C4236D864
:102FE0002C4BE3181B01AA6894466344009A1A60AC
:102FF000019A5A60089A9A60099ADA602E68002C41
:103000002BD030D0337B9C422DD863001B19033B5F
:1030100032689446634400229A705A701A70717B29
:1030200022003000FFF766FF7073844200D095E7FE
:10303000287D009A019B00F027FD061E01D0002F7D
:1030400017D00C9B002B00D188E71E7086E7124B2F
:10305000124A3C210E480FF005FB114B114AA521E5
:1030600008480FF0FFFA054B054A682105480FF0A4
:10307000F9FA2868210000F03FFFE2E7DC250210A2
:1030800090280210F82502107C2602109C280210BD
:1030900078250210FFFFFF0FB82502102428021028
:1030A0007425021080280210F0B5DE4657464E46C1
:1030B0004546E0B58BB00990002308938200B54BDC
:1030C000D658370052E0B44BB44A3F21B4480FF011
:1030D000C9FAB44BB44A3C21B4480FF0C3FA0029F2
:1030E00001D1002869D10021404600F0FBFEA0423A
:1030F00019D12A686B6806920793AB689846EB680B
:103100009A464346002B14D0002C18D03B681B7BFA
:103110009C4214D8631EFA68D35C08931B021843C0
:103120003861002015E0A24BA24A8E219F480FF083
:1031300099FAA14B9F4A92219C480FF093FA994B20
:103140009E4A412199480FF08DFA00239A469846ED
:1031500000207B68BFF35F8F00221A6086F310881F
:103160004346002B32D1002800D10CE100F000FCD6
:1031700002000B1EA7DB0020002106900791786853
:10318000EFF3108672B601680029FCD0BFF35F8FA1
:10319000396888464C7B002CD7D09AD0097B8C426A
:1031A00097D8874965182D01B9688C466544286809
:1031B0006968801A9941002991DD2A686B6809982D
:1031C00000F062FC00239A469846C2E7089B1B0267
:1031D0002343994651461800C04705000E007A68FF
:1031E000EFF3108B72B6136859424B41D9B2002BE2
:1031F000F9D1BFF35F8F002E1EDB002E46DD3B6949
:10320000002B47D04B456DD100F0B2FB02000B1EE6
:103210006EDB52197341002B70DB002B72DB002137
:10322000049101310391029451460191414600916C
:103230003800FFF77FFE4CE03B69002BDDD04B45AB
:1032400014D1069A079B521BB341002B14DB002BB1
:1032500016DB002104910131039102945146019142
:10326000414600913800FFF765FE32E0554B514A68
:10327000A1214E480FF0F6F901225242524BE6E7E7
:10328000454B464A3F2146480FF0ECF9002E01D14C
:10329000002DB4D13B68002C50D05A7B944237D1DA
:1032A000012100294AD1DA7B002A4DD19A7B002ADC
:1032B00003D1DA7B002A5AD19C73DC73002C5CD0DA
:1032C0003B681B7B9C4258D8FA68013C135D013374
:1032D000135500233B617A68BFF35F8F13608BF354
:1032E000108843E7374B334AA42130480FF0BAF92E
:1032F000294B2A4A3F212A480FF0B4F901225242B1
:10330000314B8AE7244B254A3F2125480FF0AAF983
:10331000002C0DD01A7B94420AD862001219033A8D
:103320001868844662449278002ABAD00121B8E72E
:10333000264B274A682127480FF094F9264B274A45
:10334000F62124480FF08EF9002A0AD0197B8A4210
:1033500007D851008A18033A19688C4662445470A1
:10336000A4E71A4B1A4A68211A480FF07BF91C4B44
:103370001A4AFB2117480FF075F90A4B0F4A4121F1
:103380000A480FF06FF90BB0F0BCBB46B246A94635
:10339000A046F0BD18EC0020881A0210F027021099
:1033A000A41A0210B8250210242802107825021051
:1033B000A426021008280210BC2602104828021079
:1033C000FFFFFF0FC8260210FFFFFF7FDC25021062
:1033D00090280210F8250210042702105C28021021
:1033E0002827021010B50C4B5B68002B04D00A2173
:1033F0000A48FFF77FFC10BD074C2300084A102144
:10340000206800F07FFC032000F0A6FA03212000D2
:10341000FFF7A8FCEBE7C046541F002008FE002081
:10342000D52D001010B5064B5B68002B01D0044869
:1034300010BD044B044A5E2104480FF013F9C04646
:10344000541F00203C27021030280210782502105B
:10345000F0B5DE4657464E464546E0B58BB0804651
:1034600016001F00149B9A46159B994616AB1B78B5
:103470009B461F2302AA9446634400221A702BE045
:10348000002809D042461268127B904204D8421E9E
:103490004146C9688A5C41E0404B414A412141486C
:1034A0000FF0E0F807984CE0361BAF41002F07DB28
:1034B000002F11DA3C4B3D4A3F213D480FF0D2F836
:1034C000012676423B4FF3E7374B384A3F213848D5
:1034D0000FF0C8F8002F4FDB43465A68EFF3108413
:1034E00072B6136859424B41D9B20791002BF8D1FB
:1034F000BFF35F8F1F3302AA9446634404930023F3
:10350000039302934B4601935346009332003B00D2
:103510004046FFF70FFD031EB2D102004146496845
:10352000BFF35F8F00250D6084F31088002B29D036
:103530001F2302A98C4663441B78002BB2D11202D0
:103540001043002B20D05B46002B1DD04946D047AE
:1035500004000D0003000B431DD00029A4DB00F084
:1035600007FA06000F1EAFDB36196F41002FB1DAE4
:10357000012676420F4FADE70B4B0C4A3F210C481A
:103580000FF070F8012040420BB0F0BCBB46B246D1
:10359000A946A046F0BD0798F6E7C046B825021038
:1035A0004828021078250210881A0210F02702100D
:1035B000A41A0210FFFFFF7FF8B50400002900D114
:1035C00062E04268EFF3108572B6136858424341D7
:1035D000D8B2002BF9D1BFF35F8FCBB22268567BF4
:1035E000B3421BD10120002848D0206988422BD04B
:1035F000090AC9B2002B2ED02068007B83422AD84A
:10360000581EE668305C88422BD000206368BFF308
:103610005F8F00221A6085F31088F8BD002B0DD053
:10362000167BB3420AD85E00F618033E1768BC4604
:103630006644B678002ED6D00120D4E7134B144A46
:10364000682114480FF00EF82C21134B134AFF3158
:1036500013480FF007F8134B134A412110480FF09D
:1036600001F81900100000F047FC0028CED1992184
:103670000E4B0A4A49000A480EF0F4FF23698B42B8
:10368000C4D100232361C1E70020C6E7DC25021076
:1036900090280210F825021060270210D827021087
:1036A00078250210B825021048280210842702103D
:1036B000407D7047F0B587B006000F00EFF305833B
:1036C000002B1FD106246442E517A4197D418D42C9
:1036D00002D803D1844201D900240025002D14DB37
:1036E0000494059500F044F902000B1E13DBA41AA4
:1036F0009D41002D17DC14D03000390000F044F952
:1037000007B0F0BD23480FF047F8234B234A3F2171
:1037100023480EF0A7FF204B204A3F2120480EF0FF
:10372000A1FF002CE8D0FFF77DFE00230293019358
:103730001C4B0093049A059BFFF78AFE002818DAB9
:10374000DAE7002300E00023002BD5D1164B1A68DE
:10375000EFF3108172B61368002BFCD0BFF35F8FBC
:10376000114B1B68BFF35F8F00221A6081F3108832
:1037700020BF0499059A0D4B5B6A9A42E3D80B4827
:10378000806A884203D29A42DBD00123DCE701231E
:10379000DAE7C04688270210881A0210F0270210C4
:1037A000A41A0210A52D001008FE002000400540BC
:1037B00070B504000D0000F0DBF802000B1E0ADB00
:1037C000200029008018594100290ADB00290CDB60
:1037D000FFF770FF70BD084B084A3F2108480EF004
:1037E00041FF012040420749F0E7034B034A3F21D4
:1037F00003480EF037FFC046881A0210F027021067
:10380000A41A0210FFFFFF7F10B5FA2292000023D6
:10381000002110F077FCFFF7CBFF10BD70B584B02E
:1038200005000C00EFF30583002B1ED1FFF7FAFD16
:10383000002302930193224B00932A002300FFF7F9
:1038400007FE061E23DD20BFFFF7ECFD3100FFF76A
:10385000B3FE1C4B5B6A9C422DD81A4A926AAA425C
:103860002CD29C4225D0012026E0164B5B6A99425F
:1038700009D8144A926A824207D2994201D00120A3
:103880001AE0002018E0002016E0012014E00D4BA3
:103890005B6A9C4209D80B4A926AAA4207D29C42B0
:1038A00001D0012008E0002006E0002004E0012013
:1038B00002E0002000E0002004B070BD0120FBE722
:1038C000A52D00100040054070B5EFF305801038BD
:1038D000EFF3108C72B61A4B1B68002BFBD0BFF3B2
:1038E0005F8F01221300834016494B6316490B601A
:1038F000164909780C00C440224214D0114A546A77
:103900008200134D5259944206D38200114C125931
:1039100099430E4B197007E00A4A031D9B00995802
:103920009950002200E00022BFF35F8F044B00217A
:1039300019608CF31088002A00D0904770BDC046F3
:10394000280100D0004005403C70054091FE002059
:1039500014FE00203038002010B50100024A034850
:10396000FEF7AEFB10BDC046C028021080FE00204E
:10397000044B5B6A034A906A1900536A9942F9D171
:103980007047C04600400540084B5B6A01E0074BAA
:103990005B6A8B42FBD301E0044B5B6A8B4203D131
:1039A000024B9B6A8342F7D37047C04600400540F4
:1039B00070B504000D00FFF7DBFF02000B002000D4
:1039C0002900801859418B4202D804D1824202D981
:1039D00001204042C117002902DBFFF7D5FF70BD6F
:1039E000024B034A3F2103480EF03CFE881A0210A6
:1039F00070290210A41A021070B504000D00EFF334
:103A0000108672B61B4B1B68002BFBD0BFF35F8F79
:103A1000002D1CD02000FEF771FE174B83420BD007
:103A200019002000FEF784FE01212000FEF756FE5B
:103A30000123A340114A1360A400114BE550BFF3CA
:103A40005F8F0C4B00221A6086F3108870BDA200B5
:103A50000B4B0021D1500122A2400A490B7893431D
:103A60000B7005492000FEF7A7FF00212000FEF79C
:103A700035FEE4E7280100D0C93800103860054061
:103A80003038002091FE0020F0B5DE4600B584B04D
:103A90000400150001921E000293FFF769FF0395D1
:103AA0008E4202D84ED185424CD9EFF3108B72B6BC
:103AB000274B1B68002BFBD0BFF35F8F254A17787D
:103AC0000125A540EBB23B431370234B5D63221DE0
:103AD00092000199D150A2002049029850501B6ACF
:103AE0002B4212D11C4B1B6C2B4208D00020BFF381
:103AF0005F8F174B00221A608BF3108823E0184B5E
:103B0000184AC52118480EF0ADFDFFF731FF8E426F
:103B100014D802D1039B834210D80E4B1B78BB42B2
:103B20000ED00D4B1D625D631F2004400123A34096
:103B30000E4A1360074B1F701E38D8E70020D6E7E7
:103B40000120D4E7012004B080BCBB46F0BDC046D4
:103B5000280100D091FE00200040054014FE002006
:103B6000E4280210542902100829021080E200E023
:103B7000EFF3108C72B60B4B1B68002BFBD0BFF31E
:103B80005F8F01238340084A136208490A789A43E9
:103B90000A70BFF35F8F034B00221A608CF310880A
:103BA0007047C046280100D00040054091FE00202B
:103BB00010B500291ED0037B99421BD84B005B181F
:103BC000033B0468A4466344002919D0002A1DD091
:103BD000914221D0002A25D0047BA24222D8046839
:103BE00050008018033820188170197800291FD1DF
:103BF0001A7010BD104B114A682111480EF032FDA9
:103C0000104B114A6F310E480EF02CFD0F4B0E4A2F
:103C100070210B480EF026FD0D4B0B4A7121084810
:103C20000EF020FD044B054A682105480EF01AFDF0
:103C300041701A70DDE7C046DC250210802A0210B0
:103C4000F82502104C2602106C2A02105826021089
:103C50006426021070B506000D001400002914D06F
:103C6000002A14D0806873689847002806D0220084
:103C700029003000FFF79CFF280007E02A00210000
:103C80003000FFF795FF200000E0100070BD080035
:103C9000FCE7000010B50023437301338373037BFB
:103CA000C3730123027B9A4214D9002B0CD0027BF0
:103CB000934209D85A00D218033A01688C466244EC
:103CC0000133DBB25370EDE70B4B0C4A68210C4813
:103CD0000EF0C8FC002A09D0924207D801685300B0
:103CE0009A18033A8A180023537010BD024B034AF6
:103CF000682103480EF0B6FCDC250210802A021071
:103D0000F825021010B5017342608360FFF7C2FF0F
:103D100010BD000070B50400081E00D170BD002960
:103D200034D0237B994231D84B005B18033B226887
:103D3000944663445A78002AF0D02DD0237B9A42CF
:103D40002AD853009B18033B21688C4663445D7856
:103D500000215970002825D0237B984222D84300A7
:103D60001B18033B21688C466344002159700100F5
:103D70002000FFF76FFF060029002000FFF7CAFFB1
:103D8000020031002000FFF765FFC7E7084B094A32
:103D9000682109480EF066FC054B064A6821064872
:103DA0000EF060FC024B034A682103480EF05AFCF7
:103DB000DC250210802A0210F825021070B50500DB
:103DC0000C00160000292FD034D0037B994231D843
:103DD0004B005B18033B0268944663445A78002A00
:103DE0002ED19A78002A31D11978FFF793FF03007A
:103DF000002E0AD0EA7B002A2ED1AA7B002A03D10A
:103E0000EA7B002A3BD1AC73EC73002B3DD1002C34
:103E10004FD02B7B9C424CD82B6861000C19033C83
:103E20001C190023637070BD254B264A3821264893
:103E30000EF018FC254B264A682126480EF012FC8D
:103E4000254B204A3A2120480EF00CFC234B1D4AFA
:103E50003B211D480EF006FC002A0AD0297B8A422D
:103E600007D851008A18033A29688C466244547076
:103E7000C3E7164B164A682116480EF0F3FB184BA1
:103E8000104A422110480EF0EDFB002B0BD02A7B8C
:103E9000934208D843001B18033B2A6894466344A6
:103EA00000229A70B3E7094B094A682109480EF0CD
:103EB000D9FB064B064A682106480EF0D3FBC046E4
:103EC00088290210582A021090290210DC250210BD
:103ED000802A0210F8250210D4290210FC290210B1
:103EE0002827021070B504000A00457B2900FFF75F
:103EF00065FF6073280070BD70B50400002967D0AD
:103F0000437B8B420ED0002911D0037B99420ED8FF
:103F10004B005B18033B0268D0188378002B0CD150
:103F2000002056E00121FFF7DDFF012051E0294B81
:103F3000294A682129480EF095FB002B20D0227BCE
:103F400093421DD85A00D318033B2268D218256823
:103F5000EB5C8B421AD0002B1BD0227B934218D8EB
:103F60005A00D318033B2268D21853788B4216D0DC
:103F7000002BF0D11A4B1B4A6B211B480EF072FB31
:103F8000144B154A682115480EF06CFB43781370EA
:103F900007E0104B104A682110480EF063FB43788D
:103FA000537000238370437001222000FFF706FF47
:103FB0000200617B814205D02000FFF74BFE607359
:103FC000012006E0094B074A712107480EF04AFB21
:103FD000002070BDDC250210802A0210F825021096
:103FE00080230210402A021090290210202A021079
:103FF000F0B5C64600B504000E0017001D00374896
:104000000FF0EAFC8046364BFA18364B9A4239D804
:10401000010038000FF0E0FC0200103A98235B002A
:104020009A4235D86B1E062B38D8069B013B062BCF
:1040300034D83F09474537D32D04069B1A0315434F
:104040002368002B36DB284B9C4244D0802252014F
:10405000264B1A60264B1A60264B9B681100994329
:10406000FAD12660A060231DC02292011A432123A9
:1040700013602368002BFCDAE5600823136080BC22
:10408000B846F0BD1C4B1D4A11211D480EF0EAFA3E
:104090001C4B1A4A19211A480EF0E4FA1A4B174A17
:1040A0001C2117480EF0DEFA184B144A232114483D
:1040B0000EF0D8FA22683F231340B342C3D1A3685D
:1040C0001B051B0D8342BED1E368EE22D2021340D2
:1040D000AB42B8D1D3E780229201B9E7001BB70009
:1040E00080E84BD380F8A93200C0024000E00040D5
:1040F00000F0004000C000408C2A0210B82B0210D3
:10410000EC2A0210342B0210502B02109C2B0210B0
:1041100080239B000343014AD3627047008005401F
:10412000024B1A68024B5A607047C046005200208A
:104130000080054010B50200164B8020C0051860B5
:10414000154B1648186000290AD0154BE021C90408
:104150001960002A09D1124B802212061A6010BD84
:104160000C4BE021C9041960F3E753019B1A980036
:10417000801800010B4B186080235B04984202D327
:10418000084B094A1A60FFF7CBFF054B8022D20586
:104190001A60E4E700B0054008200140FCFF010080
:1041A00000A0054000520020FFFFFF0010B50300F3
:1041B00010000C4A8024E4051460002B0DD001226D
:1041C0001343094A094CD461094C5C4014625162A2
:1041D00093620021FFF7AEFF10BD034B0022DA61AE
:1041E000F7E7C04600B0054000800540D3C007B0E7
:1041F0002D3FF84F064BAA2212011A602F22DA60D7
:10420000044B054A1A60024B5B68002BFBDA7047CF
:10421000004002400060024000B0FA0010B501F01A
:104220009BFC00F00DFC00F0E5FD00F089FE05F0C0
:10423000E7FD01F051FD00F060FA05F019FD10BD39
:104240000302000A184380B2704703060202FF21EE
:1042500009040A401343020AFF2109020A401343DA
:10426000000E18437047F8B5CE46474680B58046E5
:104270000F00914608001BF0DFFA061E17D04446D7
:1042800000E001342578002D17D0A31942464A4496
:1042900093420AD83B78AB42F3D132003900200078
:1042A0001BF0F8FA0028ECD102E0002400E04446BC
:1042B0002000C0BCB946B046F8BD0024F8E730B5D0
:1042C00001E0002C14D0047801300B7801319C42BD
:1042D000F7D020222243D2B21500613DEDB2192D54
:1042E00008D820252B43DBB29A42EAD0012000E017
:1042F000002030BD0120FCE700280AD0C07A002849
:1043000009D1431C9B00054A9B58002B04D0012077
:1043100002E0002000E000207047C0461C4500205D
:1043200010B5FDF74FFE80B2002301E00133DBB290
:10433000032B0FD81A01D218120107498A18927A52
:10434000022AF3D11A01D21812018A181289824264
:10435000ECD1E6E710BDC04624450020F0B5D646B6
:104360004F464646C0B506008846002401E00134A9
:10437000E4B2032C23D8250063001B199B00314AAB
:104380009F58002FF3D063001B199B00D3181B7A92
:10439000B342ECD130018019000110302A4BC01813
:1043A0009246630099461B199B0053445A68414644
:1043B000B8474D44AD0000235246AB50D7E7002329
:1043C00001E00133DBB2032B1BD8B342F9D01A0151
:1043D000D21812011C498A18927A022AF1D11A01C4
:1043E000D21812018A18D07B3201921912018A1850
:1043F000D27B9042E5D133019B191B01CB180422DB
:10440000DA7333019B191B010F4AD318DB7B032B93
:1044100004D9E0BCBA46B146A846F0BD0B4C9B009F
:10442000185905F0EBFF084A300183191B01D31816
:10443000DB7B9B0000211951801900011018042317
:10444000C373E6E7EC44002024450020DC44002050
:10445000F0B5D6464F464646C0B584B08046030107
:1044600043441B01534AD318DB7A012B34D89B00F9
:10447000514A9B58002B32D004014444240110348B
:104480004C4BE41820001BF0D7F9A022123081B267
:104490009200362000F0E8FF8146002800D185E038
:1044A00001AD0C22002128000FF0C0FE43461B0185
:1044B00043441B013F4AD3181889FFF7C1FE2880E7
:1044C0000123AB70FF33AB800C222900484601F07A
:1044D000F3F9661E0C2737E038480EF05DF900212D
:1044E000FFF73CFF4346180140440701314BDF19F9
:1044F0000023BB720024200004B0E0BCBA46B146E1
:10450000A846F0BD0134E4B2013633782E2B01D039
:10451000002BF7D1731B9BB29A463B19284A934252
:1045200016DC22003900484601F060FA7B1C9BB281
:1045300052462900484601F00BFA3C19A5B26F1CFF
:10454000BFB23378002B09D0013635000024DCE7F8
:10455000484600F04BFF06246442CCE700223900B5
:10456000484601F043FA0235ABB280225200694658
:104570000A804A80FC3A484601F0EAF90D49434670
:104580001B0142469A1812018A18D07BD37A9B00ED
:10459000094AD21880000B4940583523494605F096
:1045A000A5FE0400484600F021FFA4E70124644270
:1045B000A1E7C046244500201C450020C42B021062
:1045C000FEFF0000DC44002070B50400000100196B
:1045D0000001414BC018032C20D823011B191B01DB
:1045E0003D4AD3189B7A022B34D01AD8002B14D012
:1045F000012B00D06CE0FFF793FE3749220113191D
:104600001B01CB181881022098720020D872012556
:104610001D7358732000FFF71BFF70BD2F480EF06D
:10462000BBF8032B54D123011B191B012A4A9B58A9
:10463000002B07D0013B22011219120126495350C9
:10464000002BEAD120010419240123480419002376
:10465000A372E2E723011B191B011F4AD218137B27
:10466000013BDBB21373002BD7D123011B191B01B4
:10467000194AD218537B0133DBB25373042B09D090
:1046800022011219120114498A1813732000FFF72E
:10469000DFFEC2E7FFF730FE00280DD00E492201F1
:1046A00013191B01CB18D87A0130D8720120187366
:1046B0001A0000235373E9E700212000FFF74EFEA4
:1046C000200104192401044B1C190023A372A4E740
:1046D00003480EF061F8C04624450020DC2B021090
:1046E000F82B021010B5002404E02000FFF76CFF47
:1046F0000134E4B2032CF8D910BD7047012800D969
:104700007047002904D080000A68044BC250F7E7C4
:104710008000034B1A68014BC250F1E71C45002092
:10472000F052021010B5FFF7DDFF10BD30B583B0B9
:104730006B460022DA8001231D000540184206D096
:10474000002904DD02786B46DA7101390130032259
:1047500013000340104209D0012903DD0388023908
:10476000023003E0002301E00839200007290CDDB6
:104770000268D218934200D9013204000834436819
:104780009B189A42F0D90133EEE71A0C1B041B0C5C
:10479000D31803E002889B18023902300129F9DCA2
:1047A000002902DD01786A4691716A460632128854
:1047B000D318180C1B041B0CC318180C1B041B0C5F
:1047C000C018002D05D003061B0C020AFF20104064
:1047D000184380B203B030BDF0B583B0060001913C
:1047E00015001C00002700E03668002E15D07189E6
:1047F0007068FFF79BFF0019040C0004000C2418DC
:104800007389DB07F0D57B425F41FFB22206120CB1
:10481000230AFF241C401443E6E7002F05D022069C
:10482000120C230AFF241C4014436B469888FFF7A0
:1048300007FD24182800FFF703FD2018030C0004CF
:10484000000C1818030C0004000C1818C04380B2A8
:1048500003B0F0BD70B51C6825042D0C230C5B194A
:10486000049C246825042D0CED18230C5B191C0CEA
:104870001B041B0CE3181C0C1B041B0CE318FFF798
:10488000ABFF70BD10B582B0049C0094FFF7E2FF4F
:1048900002B010BD10B5FFF749FFC04380B210BD94
:1048A00070B505000026002400E02D68002D15D00D
:1048B00069896868FFF73AFF0019040C0004000CCE
:1048C00024186B89DB07F0D573425E41F6B22306EC
:1048D0001B0C240AFF2004401C43E6E7002E05D0F1
:1048E00023061B0C240AFF2004401C43E04380B233
:1048F00070BD0000014B1B681818704728EC0020A1
:10490000024B1B68C01A80B27047C04628EC0020DA
:10491000F8B50400FFF7F4FF050027883800FFF71B
:10492000E9FF060064882000FFF7E4FFFA231B017B
:104930009F420FD89C420FD8AC4202D00388AB42B2
:104940000CD1094B1B68B3420AD07388AB4209D122
:10495000012000E00020F8BD0020FCE70020FAE77D
:104960000120F8E70020F6E72CEC002070B50400E9
:104970002C4B1B68834242D82B4B1D68854241D982
:104980000379002B41D10088FA231B0198423FD8BC
:10499000FFF7B0FF844216D00379002B13D1854274
:1049A00011D0224B1B68834235D0038823800088B6
:1049B000FA231B01984206D0FFF79CFF0500200058
:1049C000FFF79EFF68806088FFF794FF0500844230
:1049D00014D00379002B11D1144B1B68A3421DD0B6
:1049E00023882B802088FA231B01984206D0FFF7EA
:1049F00081FF04002800FFF783FF608070BD0C4832
:104A00000DF0CAFE0B480DF0C7FE0B480DF0C4FEBA
:104A10000A480DF0C1FE054B1C60C6E7034B186049
:104A2000DEE7C04628EC00202CEC0020FC510020E2
:104A3000182C0210302C02104C2C0210682C021082
:104A400070B50C4C033403239C430B4B1C60FA25BC
:104A50002D0125800023638023712800FFF74AFF82
:104A6000064B18600123037105804580044B1C60D0
:104A700070BDC04630EC002028EC00202CEC00205B
:104A8000FC51002070B5041E23D0830722D10500FD
:104A9000083D164B1B68AB421FD803000C33144A69
:104AA0001268934219D80300083B1B79002B17D0DA
:104AB0002800FFF72DFF002815D0083C00232371A4
:104AC0000C4B1B68AB4201D90A4B1D602800FFF755
:104AD0004DFF70BD08480DF05FFE08480DF05CFE0C
:104AE00007480DF059FE07480DF056FE28EC00204F
:104AF0002CEC0020FC510020942C0210B82C021049
:104B0000D42C0210FC2C0210F0B5C64600B50500EE
:104B1000CC1CA4B203239C430B2C05D9FA231B0104
:104B20009C4202D900253FE00C248C4200D277E061
:104B30003C4B1B68AB423BD83B4B1B68AB4237D965
:104B40002F00083F3800FFF7DBFE06003F883B1AC6
:104B50009BB2083B9BB298469C422CD824D038008C
:104B6000FFF7C8FE0379002B31D1FA231B019F42C6
:104B700024D00788A419A4B20834A4B22B4B1B6814
:104B800083421ED02000FFF7B5FE0023037107808B
:104B900046802B00083B1C800088FA231B019842AA
:104BA00002D0FFF7A7FE4480280080BCB846F0BDC5
:104BB0001F480DF0F1FD1F480DF0EEFD1E480DF0F1
:104BC000EBFD2000FFF796FE184B1860DAE7230094
:104BD00014334345E8D8A419A4B20834A4B2FA2384
:104BE0001B019F4219D02000FFF784FE0F4B1B686A
:104BF000834201D90D4B1860002303712B00083B41
:104C00001A88028046801C800088FA231B01984283
:104C1000CAD0FFF76FFE4480C6E707480DF0BCFD21
:104C20000025C1E728EC00202CEC0020FC510020DE
:104C3000302D0210482D0210682D0210F0B5CE461E
:104C400000B582B0002800D182E0C51CADB20322BD
:104C500095430B2D05D9FA231B019D4202D9002053
:104C600072E00C25854200D274E03B4B1B689946EC
:104C70001800FFF745FE070032E038480DF08CFDC4
:104C800001230371A14510D0019BE5180835344B71
:104C90001B689D421DD8A3071ED12000083053E099
:104CA0004B461888FFF726FE81464B461B79002BA2
:104CB00003D02B4A12684A45F2D1274A494611606F
:104CC000274A12684A45DFD0002BDDD025480DF079
:104CD00063FD25480DF060FD24480DF05DFD27883B
:104CE0003E000195FA231B015B1B9F422BD238002B
:104CF000FFF700FE04000379002BF0D103889E1B10
:104D0000083E019B9E42EAD314339E42B8D37E19DB
:104D1000B6B20836B6B2FA231B019E42ADD03000BF
:104D2000FFF7E8FD00230371238803804780268076
:104D3000012323710088FA231B019842A2D0FFF7B8
:104D4000D9FD46809EE7002002B080BCB946F0BD88
:104D50000020F9E70020F7E7FC510020682D021041
:104D60002CEC00207C2D0210982D0210C82D021072
:104D700010B50400FCF786FDE3681C68002C0AD01F
:104D800022681A60A30703D1FCF77EFD200010BD46
:104D900002480DF001FDFCF777FDF7E7F82D021052
:104DA00070B505000C008B0709D1FCF76BFDEB68B3
:104DB0001B682360EB681C60FCF766FD70BD014852
:104DC0000DF0EAFC1C2E0210C36800221A608368F2
:104DD000033303329343002207E0C1680968196076
:104DE000C1680B6081885B180132C1889142F4DC94
:104DF0007047000010B5002406E0A200044BD05814
:104E0000FFF7E2FF0134A4B2082CF6D910BDC0466A
:104E10006C2F021010B5082805D88000044BC0582C
:104E2000FFF7A6FF10BD03480FF0E2FB0020F9E7F3
:104E30006C2F02103C2E021010B5082807D800294C
:104E400004D08000044BC058FFF7AAFF10BD0348F0
:104E50000FF0CEFBFAE7C0466C2F02105C2E02105A
:104E60000B688268934206D0002902D0836001203B
:104E700070470023FAE70020FAE70B68C268934204
:104E800006D0002902D0C360012070470023FAE752
:104E90000020FAE70C204042704770B504000D0076
:104EA00001F09AFA2900200005F0D8FA2900200024
:104EB00000F036FE70BD000010B500280DD039237B
:104EC000C25C343B1340052B06D1CB0704D54368A5
:104ED000002B01D0130703D410BD03480DF05CFC78
:104EE000011D06F0A3FEF7E7902F021030B583B046
:104EF00005000C001000002908D0002A09D06B68BA
:104F00000A689A4208D1002003B030BD0B480DF06A
:104F100043FC0A480DF040FC0192036001A9FFF731
:104F2000BCFF23686B6001212800FFF7C5FFEB6918
:104F3000002B01D0280098470120E5E7B42F02108C
:104F400070470000F0B5C64600B582B005000C0001
:104F500017001E00002920D0002F20D0002E20D0C6
:104F6000002C02D02368002B1DD101AA21002800AB
:104F7000FFF7BCFF01239846002239002800FFF705
:104F80006FFF002231002800FFF777FF4346002B18
:104F90000CD002B080BCB846F0BD074CDCE7064F31
:104FA000DCE7054EDCE700239846E5E701AA21008F
:104FB0002800FFF79BFFECE7F0520210F0B5C64661
:104FC00000B504000E0017009846002832D0079B59
:104FD000002B34D0002937D0002F37D04346002B88
:104FE00036D000256560A560E560354B6361258698
:104FF00000223923E25420002830042200210FF03F
:1050000015F9E5612562069B63622E4B1A783C23F5
:10501000E254089B236143463A0031002000FFF729
:1050200091FF2000079B9847002823D0002080BCD8
:10503000B846F0BD24480FF0DBFA2000F7E723481C
:105040000FF0D6FA0020F2E7214EC5E7204FC5E762
:105050001F4B9846C5E7C33B0022E2540EE01D48B3
:105060000DF09AFB1C480DF097FB01313C22A15436
:10507000002B15D03C23E35CFF2BECD0174B1D68B5
:105080002B000022002BF3D09C42E8D00132FF2AF3
:10509000E8DC3C21585C615C8842E6D01B68F1E7A3
:1050A0003C33E35CFE2B07D00133064A13702560C6
:1050B0000A4B1C602000BAE7024B00221A70F6E788
:1050C000954E001089FE0020C42F0210E02F021020
:1050D000F0520210043002101830021004EC0020CC
:1050E000014B18607047C04600EC002010B5041E4C
:1050F00010D03923C35CDA070BD4012213433922C1
:105100008354C369002B00D0984703212000FFF788
:10511000D3FE10BD01480FF06BFAFAE748300210D9
:1051200010B5041E0FD03923C35CDA070AD501225B
:105130009343383283541B0709D4E369002B01D011
:105140002000984710BD03480FF052FAFAE706F026
:10515000BFFCF2E76430021010B5041E28D043688B
:10516000002B12D13923E35CDB0713D4114B1B68EE
:10517000A34213D0104B1B68A34213D0002B17D0AF
:105180001A68A24212D01300F8E704300021FFF79A
:1051900084FEE7E72000FFF7C3FFE7E70020FFF703
:1051A0009FFFE7E72268044B1A6001E022681A605B
:1051B00010BDC04600EC002004EC002010B5041E19
:1051C00004D03923C35C5A0704D510BD09480FF039
:1051D0000FFAFAE7042213433922835406F082F8C7
:1051E00003212000FFF768FE236A002BEDD020008A
:1051F0009847EAE78430021010B500280CD0392314
:10520000C35C5A0707D50422934335328354036A9B
:10521000002B00D0984710BD01480FF0E9F9FAE7DC
:10522000A8300210021E0BD0064B1868002808D0C8
:105230003C23C35C0133DBB2934202D00068F5E744
:105240000020704704EC002030B504AC2578002421
:10525000046041600281438103AB1B780373457393
:1052600001238373C47330BD02E0C91A89B2006898
:10527000002802D043898B42F7D9002A00D0118040
:105280007047000010B5FCF7FDFA034B01221A70BD
:10529000FCF7FAFA10BDC0468BFE002070B500285E
:1052A0001AD080235B02994221D2002921D08CB2EE
:1052B00003891B199BB2A3421DD30C254557002D12
:1052C0000DDB002A19D04268511A41604289141935
:1052D0004481038100200BE009480DF05DFA42682B
:1052E000511A020010328A42EFD9012000E0012059
:1052F00070BD0020FCE70120FAE70120F8E7C04676
:10530000484C021010B5FCF7BDFA084B00221A7089
:10531000FCF7BAFA064B186800E0C068002804D011
:10532000436F002BF9D000F0D5FE10BD8BFE00209E
:1053300024FE0020F0B583B007000E001500412ABE
:1053400001D0012A0FD10720FFF764FD041E07D00A
:10535000002301930095330032003900FFF774FFFA
:10536000200003B0F0BD01480DF016FACC30021059
:1053700010B50022FFF792FF10BD000010B5002805
:1053800014D080235B02994218D2002918D08AB227
:10539000438993420DD34468A446614441609B1AFB
:1053A000438103899A1A0281002010BD05480DF03F
:1053B000F3F905480FF01CF90120F6E70120F4E7A6
:1053C0000020F2E7484C0210E030021010B500292E
:1053D00002DBFFF763FF10BD4942FFF7CFFFFAE79B
:1053E00010B50122FFF7F2FF10BD000070B5051ED9
:1053F00001D000260CE019480DF0CEF918480DF048
:10540000CBF929000820FFF717FD0136F6B2250079
:10541000002D21D0FCF736FAAC7B002CEED0013CFD
:10542000E4B2AC73FCF730FA002C15D12C682A7B5F
:105430000F231340022BE4D0012B05D0002B08D101
:105440002800FFF71FFBE0E729000720FFF7F4FC27
:10545000DBE704480DF0A0F9300070BD484C0210A5
:105460000031021018310210F0B5D6464F464646BC
:10547000C0B582B005000F00904684B2C1235B0026
:105480009A4241D011D8012A02D0412A00D07DE0B1
:10549000424639000020FFF74DFF8146484602B0E2
:1054A000E0BCBA46B146A846F0BDA0239B009A4294
:1054B0006CD1E31C03218B439BB2FA1C94B28C4346
:1054C0001B199BB21800103080B28A43934260D3FC
:1054D000824261D8FFF7B2FB81460028DED0290066
:1054E0001031494403310324A1430023019343466F
:1054F00000933B003A00FFF7A7FE4B465B68234250
:10550000CCD027480DF048F900250023994626E025
:10551000FFF7B8FE4B46002B02D04846FFF766FF68
:10552000A946BBE7B6B22100103169180331032444
:10553000A143002301934346009333003A0028001F
:10554000FFF782FE6B6823421BD14B46002B1BD01A
:1055500053461D60BF1BBFB20024002F9ED0AA4639
:105560000820FFF757FC051ED2D0E31C032293430B
:105570009AB20C4B9B1A9BB21E1CBB42D2D93E1C4A
:10558000D0E709480DF008F9A946E3E707480DF010
:1055900003F90023994681E7002399467EE7C04638
:1055A00090310210EC0500002C310210BC310210C9
:1055B00070B5041E12D00089884220D90D0063897D
:1055C000AB420ED2ED1AADB223890A1A9B18238181
:1055D0002468002CF3D113480DF0DEF812480DF0CA
:1055E000DBF8227B120701D1AB4209D1658125810D
:1055F0002068002801D0FFF7F9FE0023236070BD6A
:105600006368191B691889B22000FFF77DFA00282A
:1056100004D08442EAD005480DF0BEF804480DF0ED
:10562000BBF8C046F0310210D8310210243202100B
:10563000083202100300002002E0013080B21B6833
:10564000002BFAD17047000010B5041E09D0FCF7FA
:1056500019F9A37B0133A373FCF716F9A37B002B85
:1056600000D010BD01480DF097F8C046403202103E
:1056700010B5002801D0002908D10C480EF0B8FF61
:105680000FE003890C891B19038110000268002AAE
:10569000F7D103894289934204D10A899B18038177
:1056A000016010BD02480DF077F8C0465432021078
:1056B0008C32021010B50C00FFF7DAFF2000FFF764
:1056C000C3FF10BDF8B5CE46474680B506000D1E97
:1056D000914698460AD00A894A4507D300280BD03C
:1056E00002894B449A4207DB002726E03D480EF032
:1056F0007FFF1020404270E03B480EF079FF102001
:1057000040426AE039480DF047F839480DF044F856
:105710004B46002B36D10027424539D0002D03D00F
:105720006A892B899A4245D0002E03D07289338929
:105730009A4248D04B46002B4ED0738942469B1A62
:105740006A89D21B934200D313004C46994500D975
:105750001C00706840446B68D91922000EF06CFD83
:10576000A0443F194B461C1BA3B29946728942457F
:10577000C8D36B89BB42C8D3CED82D68002DC7D003
:105780000027C9E71B480EF033FF1020404224E0F9
:105790003668002E02D000239846BFE74B46002B08
:1057A00002D100239846B9E713480EF021FF1020DC
:1057B000404212E02B68002BB6D010480EF018FFC4
:1057C0000620404209E03368002BB3D00B480EF0AE
:1057D0000FFF0620404200E00020C0BCB946B046A2
:1057E000F8BDC046BC320210F03202102033021065
:1057F0003833021054330210643302107433021031
:1058000010B5002904D00A890023FFF75BFF10BD03
:1058100002480EF0EDFE10204042F8E7AC330210D3
:10582000F8B5CE46474680B5050088469146190032
:10583000002805D04346002B0BD00027002625E08A
:1058400019480EF0D5FE00273800C0BCB946B04656
:10585000F8BD16480EF0CCFE0027F5E76C89641AF7
:10586000A4B2A14500D24C46434698196B689C46A9
:10587000614422000EF0E0FCE719BFB23619B6B25F
:105880004B461C1BA3B2994600212D684B46002BAA
:10589000DAD0002DD8D00029E0D06B898B42DDD83A
:1058A000C91A89B2F1E7C046C8330210E8330210C2
:1058B00010B5FFF7D9FC10BDF8B5CE46474680B508
:1058C0000500884616009146002806D000290AD017
:1058D000038993420DD300271DE018480EF088FE7F
:1058E0001020404223E016480EF082FE1020404275
:1058F0001DE014480EF07CFE0120404217E01248E3
:105900000CF04AFF4346D919220068680EF094FC57
:10591000361B3F192D68002E06D0002DEFD06C8964
:10592000B442EFD33400EDE74F4504D10020C0BCB2
:10593000B946B046F8BD05480CF02EFF0C340210F5
:105940002434021040340210603402107834021003
:10595000F0B583B00F00140019006B469A1DFFF7D5
:10596000A7FF061E24D002896B46D88803199A42E5
:1059700021DB7389984212D21A1A944212DD95B231
:1059800073689C4660442A0039000EF055FC621B87
:1059900092B27919002A07D1002003B0F0BD074860
:1059A0000CF0FAFE2500EBE73068FFF785FFF4E71F
:1059B00001204042F1E701204042EEE7903402101E
:1059C00070B50B00150011891A00FFF74DFD041E7C
:1059D00004D02900FFF714FF002801D1200070BD7A
:1059E00001480CF0D9FEC046A834021010B582B0B0
:1059F00014006B469A1DFFF75BFF002807D0428911
:105A00006B4606331B889A4201D94268D45402B0CF
:105A100010BD000010B5027A002A07D0134B5C6855
:105A20003C23E35C0133DBB29A4213D1002906D058
:105A3000002811D00368002B10D000200BE00028B4
:105A40000ED00368002B0DD0084A526993420BD048
:105A5000080000E0002010BD0120FCE70120FAE76B
:105A60000120F8E70120F6E70120F4E7E4510020E7
:105A7000F0B5D6464F4680B583B00500244B196873
:105A8000586907F0A8FB07006B685E7A214B1C6819
:105A900000239946019313E063699A46002B0DD0C9
:105AA0006B6899461C4B2A002100A069D04700284A
:105AB0001AD16B684B4528D1022399460194E468BA
:105AC000002C1CD0237C9E42F8D139002000FFF727
:105AD000A1FF0028F2D0637CDB07DDD50C4B1B69EE
