:020000041000EA
:1000000000B5324B212058609868022188439860DF
:10001000D860186158612E4B002199600221596106
:100020000121F02299502B49196001219960352056
:1000300000F044F80222904214D00621196600F024
:1000400034F8196E01211966002018661A6600F04E
:100050002CF8196E196E196E052000F02FF8012189
:100060000842F9D1002199601B49196000215960AB
:100070001A491B48016001219960EB211966A021F2
:10008000196600F012F800219960164914480160C1
:100090000121996001BC002800D000471248134993
:1000A000086003C880F30888084703B5996A0420EC
:1000B0000142FBD001200142F8D103BD02B5186610
:1000C0001866FFF7F2FF186E186E02BD00000240BE
:1000D000000000180000070000035F00212200005C
:1000E000F4000018222000A00001001008ED00E03C
:1000F00000000000000000000000000074B24E7A12
:1001000000200420F7010010C3010010C5010010F9
:10011000C1010010C1010010C1010010C101001097
:10012000C1010010C1010010C1010010C701001081
:10013000C1010010C1010010C9010010CB01001065
:10014000CD010010CD010010CD010010CD01001037
:10015000CD010010CD010010CD010010CD01001027
:10016000CD010010CD010010CD010010CD01001017
:10017000CD010010CD010010CD010010CD01001007
:10018000CD010010CD010010CD010010CD010010F7
:10019000CD010010CD010010CD010010CD010010E7
:1001A000CD010010CD010010CD010010CD010010D7
:1001B000CD010010CD010010CD010010CD010010C7
:1001C00000BE00BE00BE00BE00BE00BEEFF3058054
:1001D000103800BEF2EB8871BC010610DC0106107D
:1001E0003402001090A31AE700201F49086006C8D7
:1001F00081F3088810471D48006800282FD10DA4FE
:100200000ECC002902D000F012F8F9E71849194A7B
:10021000002000E001C19142FCD1174988471749ED
:1002200088471749884700BEFDE701C901C29A42C5
:10023000FBD37047DC010610C00000200C28002012
:100240004829061000000420000004204829061058
:10025000001004200010042000000000704709482E
:1002600001F04AFE0047000008ED00E0000000D069
:100270003028002038FC0020752401103D0C0010AF
:10028000332401105756000006005250ABB36053A0
:10029000E4DC051006005250861C0302F4DC051055
:1002A000060052505422A29D08DD05100500525050
:1002B000DE65F46848290610F8B5C04610B5064C4E
:1002C0002378002B07D1054B002B02D0044800E017
:1002D00000BF0123237010BD88290020000000000A
:1002E000A8040210044B10B5002B03D003490448A6
:1002F00000E000BF10BDC046000000008C290020B7
:10030000A804021030B583B00D001400012825D0D8
:1003100002284BD0002803D0002080B203B030BDAB
:100320002B4B04221A602B4B1B68DB05FBD5294B9A
:1003300058680004000C13F00DFE274913F003FE6B
:10034000E621890513F0FFFD13F026FE00900191D0
:10035000224A2100280013F0CFF9DEE71C4B0422CB
:100360001A601C4B1B68DB05FBD51A4B5868000450
:10037000000C13F0EFFD184913F0E5FDE6218905A7
:1003800013F0E1FD164913F0C4FD164913F0C7FD43
:10039000011C154813F0BDFD13F0FEFD0090019106
:1003A0000E4A2100280013F0A7F9B6E700200CF050
:1003B000E5FE002805D00D4A2100280013F09CF925
:1003C000ABE70B4A2100280013F096F9A5E7C046D9
:1003D00000E0044000C0044033335340A80402103E
:1003E0006ABC343F2D93E13A0000D841AC040210BE
:1003F000B0040210F0B5DE4657464E464546E0B51D
:100400007B4CA54400AF90461D001968794814F054
:1004100025F828681DF0DAFF82466968764814F0EE
:100420001DF868681DF0D2FF8146A968734814F072
:1004300015F8A8681DF0CAFF7860E968704814F0E4
:100440000DF87049E8681FF079F800280ED10123F3
:100450009B4600240F2C11DC231D9B00E8586A49A1
:100460001FF06CF8002804D00134F3E700239B460A
:10047000EFE72100654813F0F1FF00E00024631E60
:10048000A2000732D208D20069468A1A95466E4603
:10049000002B03DB002102C2013BF9E70025AC423F
:1004A00009DD2B1D9B004246D0581DF08FFFAB008D
:1004B000F0500135F3E7564813F0D0FF0025AC4269
:1004C00006DDAB009959534813F0C8FF0135F6E734
:1004D0000A2013F02DFFC023DB0008229B18DB1934
:1004E00000221A70642159609A605146D9604946C9
:1004F0001961796859619A659C6500239C420BDDFE
:100500009A0090599A1D9200C021C90008254919E6
:10051000C91950500133F1E7C023DB0008229B18B2
:10052000DB1954325946995401320021995400265E
:10053000CB23DB0008229B18DB191B68B34210DDBC
:10054000C023DB009B18DD19B41DA400605901F025
:10055000CDFE625901239340D02212065362013628
:10056000E6E7C023DB0008229B18DD19E86801F0EC
:10057000BDFE01242300EA689340D0263606B3620C
:1005800000220121E86801F005FE7368EA68D340A3
:100590001C4063425C41AC700F210822BB180FE085
:1005A00000221A70642058609A60DA601A615A61F9
:1005B0009A6508381A545D325B38985460330139B3
:1005C0000029EDDA5E22C023DB0008201B18D919B0
:1005D00060231B18D81913F065FD0F48BD460F4B5B
:1005E0009D44F0BCBB46B246A946A046F0BDC046FD
:1005F00094F9FFFFB4040210C0040210D0040210EA
:10060000DC040210C80A0210EC040210FC04021000
:10061000180502102C050210300502106C060000AF
:10062000F0B5C64600B5E6B01C001968344813F0B2
:1006300015FF20681DF0CAFE07006168314813F0FD
:100640000DFF60681DF0C2FE0600A1682E4813F081
:1006500005FFA0681DF0BAFE05002C49E0681EF0F9
:100660006DFF002834D12A4813F0F8FE0123984684
:10067000206926491EF062FF00282FD1254813F07B
:10068000EDFE012160AB00225A709A70DA70629719
:10069000639664954046187559751A711D003800A7
:1006A00001F024FE01242300AA689340D0263606D8
:1006B000B36200220121A86801F06CFD7368AA688A
:1006C000D3401C4063425C412C700F216B4610E00C
:1006D000114813F0C3FE00239846C9E70F4813F0F2
:1006E000BDFE0021CEE700225A709A70DA701833EE
:1006F00001390029F7DA0A4866B080BCB846F0BD77
:10070000400502105805021064050210C80A0210C4
:1007100070050210880502107C050210A005021069
:1007200030050210F0B5C64600B504009846069D97
:10073000079808AE37780026267064236360A660A9
:10074000E160226143466361A665A065002305E080
:100750009A0051599A1D9200115101338342F7DBDF
:100760005C23E75401330022E2540026A36DB34218
:100770000CDDB51DAD00285901F0B8FD2A59012343
:100780009340D022120653620136EFE7E06801F091
:10079000ADFD01252B00E2689340D0263606B362FA
:1007A00000220121E06801F0F5FC7368E268D340A3
:1007B0001D406B425D41A570200080BCB846F0BD75
:1007C00010B516F0FDF8094B02221A60084B1A68A2
:1007D0008023DB015340E022D2011340054A13601D
:1007E00003220549054811F0F7FC10BD00E0044064
:1007F00000C0044000D00440601E0020050300102B
:1008000010B504000A22094913F04CFC9621890115
:10081000074811F0ABFD0221082001F0A3FC0221E2
:10082000092001F09FFC200010BDC04628070210DF
:100830000080034070B504000379002B00D070BD28
:10084000806801F053FD01252B00A2689340D0265B
:100850003606B36200220121A06801F09BFC736898
:10086000A268D3401D406B425D412570E7E7000060
:1008700010B50221014811F0D3FC10BD9007021001
:10088000F0B5DE4657464E464546E0B5C3B000AF2C
:1008900005008A4693467B600268D30F9B185B1065
:1008A0009422520008215218D21912685A449046D4
:1008B00053439B000733DB08DB006A46D31A9D468F
:1008C0006C46894813F09AFD00239C4617E002000D
:1008D0001232920013515C23CB5C002B2FD003000B
:1008E00013339B0001221A515D23CB5C002B2CD0CB
:1008F000143080000123035101239946CC44DC4588
:1009000028DA634658015900614449015144DB012A
:10091000CA681A51431C9B000A691A51831C9B0028
:100920004A691A5100228B6D9342D0DDD31C1B18EB
:10093000961DB60076589B001E510132F3E7030066
:1009400013339B0000221A51CEE71430800000239D
:100950000351D1E700210EE0D81C8000002606518B
:1009600031E0181D80000026065133E005339B005E
:1009700000221A51013194235B0008229B18DB19D5
:100980001B6899422EDA4A012868C30F18184010D4
:100990005B46584313184A005218D20078688446C0
:1009A0006244980096680651581C8000D66806512B
:1009B000981C800016690651107D0028CCD0D81CE8
:1009C000800001260651507D0028CAD0181D8000E5
:1009D000012606511279002AC8D005339B00012256
:1009E0001A51C7E72B68424653430733DB08DB0045
:1009F0006A46D31A9D466E4600232A6841464A43FA
:100A000093420DDA98000259121291465A0092460A
:100A100001324946B1540259514672540133ECE750
:100A2000E968324813F01AFDEFF3108472B68021A2
:100A30004901E8681FF0C0FC84F310882C4813F0CB
:100A4000DDFC2C4813F0DAFCEFF3108472B62A6850
:100A500043465A433100E8681FF066FC84F310886F
:100A6000254813F0CBFC2D6843465D430024002647
:100A70000FE00A2013F05CFC06E07C2013F058FC29
:100A800002E07C2013F054FC1F2323401F2B14D0C2
:100A90000134A54217D96300184AD15A184813F0F7
:100AA000DDFC07232340072BE3D0112CE5D0022CDB
:100AB000E7D0202013F03CFCE6E701363100114876
:100AC00013F0CCFCE4E7002304E0002208217918AD
:100AD000CA540133FF2BF8D9BD4643B0F0BCBB4626
:100AE000B246A946A046F0BDB4050210C4050210E6
:100AF000E4050210EC0502100C06021000F01F10B5
:100B000014060210CC46021010B5184B1B78BFF328
:100B10005B8FDB0701D5164810BD144815F06AFF3E
:100B20000028F8D00F21124B0FE000221A70642029
:100B300058609A60DA601A615A619A6508381A54E6
:100B40005D325B389854603301390029EDDA0F21AA
:100B5000084B05E000225A709A70DA701833013998
:100B60000029F7DA014815F061FFD4E7A429002035
:100B7000C4290020C42F002070B588B001A9074BFC
:100B80000C330A0070CB70C270CB70C21B6813604C
:100B900001388000405808B070BDC04628070210D8
:100BA00010B590B00400064940222831684613F081
:100BB00079FA013CA4006B46E05810B010BDC04665
:100BC000280702100123002004E0CA5C101800B2BC
:100BD0000133DBB2062BF8D9404200B27047000067
:100BE000F8B505000F00160004000A340A220100BF
:100BF000200013F057FA6F73330AEB732E74210041
:100C00002800FFF7DFFF03126B74A8740022092A83
:100C100009D8054B9B699B06FBD42178024B1960D0
:100C200001320134F3E7F8BD0080034010B51F2204
:100C30000A400621FFF7D4FF10BD0000F0B5DE46E4
:100C400057464E464546E0B5DC4CA54413F012FC31
:100C5000DB4802F065FC0F21DA4B02AA944663449C
:100C6000002910DB00221A70642058609A60DA6054
:100C70001A615A619A6508381A545D325B38985483
:100C800060330139ECE70F21CF4B02AA944663444D
:100C9000002906DB00225A709A70DA701833013985
:100CA000F6E7FFF731FF0590C84B02AA944663446C
:100CB00040221A60C64C5C609C60F0221206A218AA
:100CC000DA602100C34813F0C9FB2200C2492EA8F4
:100CD00012F0FEFC0223869380220021A7A813F0C5
:100CE000DBF980220021C7A813F0D6F98022120177
:100CF0000021E7A813F0D0F920220021B74802AB69
:100D00009C46604413F0C8F986AAB54B0021D15423
:100D100013F0B0FB0CF054FB0CF010FAA84BB14AE6
:100D2000B149B2480CF0E4FA051E03D0B04813F004
:100D300065FBF3E7AF4813F061FB11F03DFAAE48F5
:100D400013F05CFBFFF73CFDAC4813F057FBFFF7DB
:100D50008FFDAB4813F052FB2C002EE00B00133339
:100D60005B009B4AD35A012B50D0002616AB0022C1
:100D70001A7064271797189219921A921B922C9244
:100D8000083FDA555D3291465C3A92464A465746EC
:100D90009F54143149008E4B5B5A012B38D16000AF
:100DA00000194001874B02AA944663449C46604464
:100DB0005E2216A913F076F901340F2C00DD8EE0C7
:100DC000824B02AA944663441B68D90FC918491084
:100DD00061434A007E4B9A5A90464A1C52009A5AE6
:100DE00093468A1C52009A5A94460A0012325200C4
:100DF000985A2A009042B1DDD31CCB185B00744E88
:100E0000F75A960006ABF7500132F3E70126ADE73B
:100E10002EAB0021197007322F9230914246319249
:100E20005A463292624633924491449029000EE031
:100E30008B00744A9B1802AA94466344724A9446F3
:100E400063441A688B1D9B002EAFDA510131884232
:100E5000EEDC5C2302AAB0215218D65401330022E2
:100E600002A84118CA542E00449BB34214DDB71D9A
:100E7000BF0002AAB023D218D2590492100001F088
:100E800035FA02AAB023D318DA5901239340D022AD
:100E9000120653620136E7E72EAB9846319801F00F
:100EA00025FA012742463B00D2689340D022120621
:100EB00091469362002201214346D86801F06AF905
:100EC0004B465B684246D268D3401F407B425F413D
:100ED00043469F7021004D4813F0C0FA5FE72C0095
:100EE0000F2C12DC630019194901364A02A8844606
:100EF0006244944661441B195801059B9C4660441A
:100F00005E2213F0CFF80134EAE72C002FE001262F
:100F10004BE0012105335B002D4AD35A002B00D151
:100F200078E0002302AAB1215218137002AA0131FD
:100F30005218137002AA01315218137018222EA9E8
:100F4000334802AB9C46604413F0ACF860000019D3
:100F5000C0001D4B02AA944663449C46604416227E
:100F60002B4902AB9C46614413F09CF801340F2CD2
:100F700000DD87E06301154A02A98C4662441168CE
:100F8000CA0F5218521012019B185900104A515A98
:100F90008C46591C4900575A991C4900505AD91C73
:100FA0004900525A012AB2D000261A1D520008499F
:100FB0008A5A012AADD00021ACE7C0467CECFFFF85
:100FC00088130000480D0000C80B0000B80B00009B
:100FD00000F01F101C06021034060210940B0000D3
:100FE000A40900000400400044060210500602104C
:100FF00058060210740602108006021098060210AD
:10100000B00602107813000098ECFFFFC80602102B
:10101000481300002EAB002290465A709A70DA7086
:1010200062463092319732901E75597542461A7158
:101030009846986801F05AF9012742463B009268A9
:101040009340D0221206914693620022012143462A
:10105000986801F09FF84B465B6842469268D3401F
:101060001F407B425F4143461F702100D74813F069
:10107000F5F918224146D64802AB9C46604413F06D
:1010800011F863E72C000F2C16DC63001919C90056
:10109000D04A02A884466244944661441B19D80091
:1010A000C023DB009C466044059B9C46604416229E
:1010B00012F0F8FF0134E6E72F000F2F17DC7C0059
:1010C000E1194901059B9C46614460222EA812F05B
:1010D000E9FFE4196001C04B02AA944663449C46B0
:1010E00060445E222EA912F0DDFF0137E5E72C00F7
:1010F0000F2C22DC9B21490102AB9C46614463001A
:1011000098461B19DB00059884466344C020C00044
:10111000844663440800C4CBC4C0C4CBC4C04346A7
:101120001A19D000AB4B02AA944663449C46604413
:10113000162212F0B7FF0134DAE70220FFF730FD84
:1011400083900120FFF72CFD84900320FFF728FDFA
:1011500085900420FFF724FD82900120FFF70CFD0D
:101160000600002402940323019383AB0093002321
:10117000022201006AA8FFF7D5FA0220FFF7FCFC63
:101180000100012398460293019382AB0093002350
:10119000032252A8FFF7C6FA5E226AA98E4802AB64
:1011A0009C46604412F07EFF5E2252A98B4802AB3F
:1011B0009C46604412F076FF4CAF7C70BC70FC70B3
:1011C0004E9643464F9350933B757C753C71380067
:1011D000FFF730FB0520FFF7CFFC46AE7470B4700C
:1011E000F4704890052349934A93434633757475C8
:1011F00034713000FFF71EFB16223900754802AB30
:101200009C46604412F04EFF16223100C4200001BB
:1012100002AB9C46604412F045FF86AA704BD35C3B
:10122000002B04D10A2002F07BF92E0022E01022CC
:101230000092684B02A98C4663446749614469483F
:101240006044FFF71DFBEDE7D0231B065A68E368F7
:10125000DA40012313405A425341237032E023699C
:10126000590012F07BFA0100380012F077FA0029D9
:1012700047D001360F2E72DC7400A4196401564B5E
:1012800002AA944663449C4664445D23E35C002BBD
:10129000EFD15C33E35C002BD6D0D0231B065A6819
:1012A000E368DA40012313405A425341DBB26370D2
:1012B000002B06D0A278002A03D1227801214A40CF
:1012C0002270A3702378002B35D0A7687B1CA36005
:1012D00062696068010051438B42C0DB002ABED0C6
:1012E0008B42C6D127001837A06D2B009842C0DD75
:1012F0009A00D15901228A40D02109068A6101331E
:10130000F4E720001830A46D05E001239340D022BB
:101310001206536101318C42ABDD8B001A58D02389
:101320001B065B68D340DB07EFD501239340D02237
:1013300012069361EEE7A368002B9AD00023A36006
:1013400027001837A06D2B00984292DD9A00D159E2
:1013500001228A40D02109068A610133F4E72E0078
:101360000DE02370A378002B02D0E378002B46D049
:10137000A378002B02D1E378002B69D101360F2E20
:1013800000DD4FE77400A419E400124B02AA944652
:1013900063449C4664442379002BEFD1637D002B8A
:1013A00022D0D0231B065A68A368DA4001231340D9
:1013B0005A425341DBB26370002BD2D02278002A0C
:1013C000CFD1A27801214A40A270CAE7E4060210F8
:1013D00048130000C80B0000480D0000A80D0000D5
:1013E000A4090000B80B0000D0231B065A68A368AC
:1013F000DA40012313405A425341A370B2E72EA8AA
:10140000FFF7FEF90F212EA8FFF710FC642002F071
:1014100087F8A2890F212EA8FFF7E2FB642002F0D3
:101420007FF8228A03212EA8FFF7DAFB642002F05E
:1014300077F8237D002B02D10123E37098E7228AFD
:1014400008212EA8FFF7CCFB642002F069F8F3E72F
:101450002EA8FFF7D5F900212EA8FFF7E7FB64209F
:1014600002F05EF80023E37088E7C04610B5064B33
:101470008B4202D108F09AFA10BD044B044A18219D
:10148000044810F0D9FFC046801E0020A0070210BB
:10149000C0080210C0070210F8B50400204B9942A2
:1014A00012D101230B7208F0ABFA0500431C11D1D5
:1014B0001C4B186859681C4B9860D96023685B699D
:1014C000194920009847F8BD184B194A1D211948A1
:1014D00010F0B2FF02F0D8F806000F1E10DBFA225F
:1014E000920000232800002112F0F6FC36184F412C
:1014F000002F0BDB002F0DDB0B4B9E60DF60DDE769
:101500000D4B0E4A3F210E4810F096FF0126764201
:101510000C4FEFE7084B094A3F21094810F08CFFB8
:101520006C1E002068160210801E00200C0802109D
:10153000D8080210C00702103C080210A8080210C8
:1015400058080210FFFFFF7F10B50400094B1B78FD
:10155000002B08D0084901230B722368DB692000A7
:101560009847012010BD02F0E5FC024B01221A70E1
:10157000F0E7C04627FC00206C1E002010B50400D8
:1015800003689B690349984723681B6A0249200046
:10159000984710BD801E00206C1E00200020704760
:1015A0007047000010B502F06FF8002906DB0BD081
:1015B000FA229200002312F037F910BD054B064ABB
:1015C0003F21064810F038FFFA21890012F0EEF8AA
:1015D000F3E7C0463C080210A808021058080210A1
:1015E000083000E018000368002B03D08B42F9D1CB
:1015F000002002E001600B6001207047083000E02D
:1016000018000368002B05D08B42F9D10B680360EA
:10161000012000E000207047043000E0180003685B
:10162000002B03D08B42F9D1002002E001600B6057
:1016300001207047043000E018000368002B05D03B
:101640008B42F9D10B680360012000E00020704755
:10165000F8B506008068002833D002F015F800299C
:1016600006DB04000D0008239C46B44400220CE075
:10167000154B164A3F21164810F0DEFE154B164A50
:101680004221164810F0D8FE9C4663461B68002B8A
:1016900012D0200029009E68DF68801BB941002914
:1016A000F2DB34003D000E490A6849687240794017
:1016B0000A43E3D06246E7E7002A03D010680368D4
:1016C0001360F8BD1000FCE73C0802106C09021022
:1016D00058080210EC0802108409021010090210C8
:1016E00068160210F0B583B0104B5C681B6800935D
:1016F0000194836804E0DC689B68009301940B000C
:10170000002B0CD01968009C019D9E68DF68A41B0B
:10171000BD41002DEFDCF2D1002CECD1EFE7009BB6
:10172000019C0361446103B0F0BDC046681602101D
:1017300070B506000D0002E04B68280098472800AD
:10174000FFF786FF011EF7D16C6800E02468002CCB
:1017500009D0237A002BF9D000232372210028001E
:1017600063689847F2E72800FFF7BCFF2B696C69B4
:1017700033607460300070BD034B1B68022018405A
:10178000431E9841C0B2704700C0064010B5104AD1
:10179000104B12184B419900900F0843990F50407D
:1017A00059400D4A0D4B12F097FB03004A01C00E41
:1017B0001043CA0E58405140094A0A4B12F08CFBA4
:1017C00003004A00C00F1043CA0F5840514010BDDB
:1017D000157C4A7FB979379EB9E5E41C6D4758BF3F
:1017E000EB113113BB49D094F0B5C64600B584B0B7
:1017F00002000B0013498C461BE0614601C90090B2
:101800008C4600210191910E9F010F439601009893
:1018100001998019794102900391110C1D040D4327
:1018200014040298039900196941801A9941020031
:101830000B0005498C45E0D91000190004B080BCAC
:10184000B846F0BD001C0420FF1F0420F0B5CE46B2
:10185000474680B583B0804603684468009301948E
:1018600003008068D96801E001F00EFF009C019D33
:1018700023002B4302D103000B43F5D0009C019DB4
:10188000A60FAB003343A2002E002500AD185E4129
:101890006B0E9946F3019C464B46624613431F006C
:1018A000730EEA0113431E005B0F9C46FB00644667
:1018B0002343F20092197B41009C019D60406940E6
:1018C000260A2F063E432D0A009C24062C43444042
:1018D00035004D40070C0E043E4307047C40754024
:1018E0004646346075604C01C50E2C434001C90E5C
:1018F0000843B460F0601000190003B0C0BCB946E2
:10190000B046F0BDF0B5DE4657464E464546E0B51A
:1019100083B00190574B9B69DB0410D5564BDA6BB3
:10192000E0231340402B0AD0EFF305839846019B38
:10193000002B0AD000239946002400258AE04F4B53
:101940004F4A81214F4810F077FD4F4B4C4A86217A
:101950004C4810F071FD4D4B1868596801F036FD88
:10196000EFF3108672B64A4B1B68002BFBD0BFF317
:101970005F8F464B19685A688A4516D0BFF35F8F50
:10198000434B00221A6086F310885B46002B5ED121
:101990003E4B1A6892465F684346002BDBD03B4BB8
:1019A0001868596801F07CFEDAE7BA42E6D12000F7
:1019B0002900001969412F4BDA69012313400343C1
:1019C0001C000D0001F060FE02000B1E23DB0A204C
:1019D000002112184B41002B23DB002B25DB2B4968
:1019E0000A604B6001994B1E4B452DD1294A20239B
:1019F0005B42CB181FD4116899400B001268019903
:101A00008A4022432B4314001D00224B1C605D6062
:101A100001239B46B2E7204B204A3F21204810F08B
:101A20000BFD012252421F4BD7E71B4B1B4A3F21A4
:101A30001B4810F001FD202301981B1A1168D940A2
:101A4000536883400B43D9E701239B4696E7012364
:101A50009C46E144019B994502D200239B4697E7AF
:101A60002000290003B0F0BCBB46B246A946A04600
:101A7000F0BDC0460000064000800040B4090210DE
:101A8000E40A02107C0A02107C3102108029002036
:101A9000300100D0282800203C080210CC0A021097
:101AA00058080210FFFFFF7F10B588B03B4C20683C
:101AB0006168FFF799FE20606160FFF767FE049B95
:101AC0005840059B019359400490059102A800F0ED
:101AD00011F902980399FFF759FE069B01935840AC
:101AE000079B01935940069007914020FFF70AFF9A
:101AF000FFF74CFE049B5840059B0193594004900E
:101B0000059101F0C1FDFFF741FE069B019358408E
:101B1000079B0193594006900791EFF3108472B62A
:101B20001F4B1B68002BFBD0BFF35F8F1D4B1B7837
:101B3000002B24D1032B09D85A1CD2001A498C46F9
:101B4000624452681F2A03D00133F3E701235B424A
:101B50005A1C1DD0DBB2154A13700133DB00124A48
:101B60009446634405225A6004A8FFF76FFE1022D2
:101B700004A90F4812F096FA0A4B01221A70BFF31B
:101B80005F8F074B00221A6084F3108808B010BDE5
:101B9000084B094AE921094810F04EFC10280020A2
:101BA000300100D031FC00200000034022FC002066
:101BB00018280020C00A0210040B02107C0A021030
:101BC00070B586B03E4B1B78002B00D16EE0102222
:101BD0003C4902A812F066FA3B4B1C78E4B201F0D3
:101BE00053FDFFF7D3FD029B5840039B01935940DF
:101BF000029003910120FFF785FEFFF7C7FD049BCC
:101C000001935840059B01935940049005912F4B37
:101C10001A78531CDB002E4958582E4B984248D056
:101C20000021FFF7B3FD029B5840039B01935940ED
:101C300002900391EFF3108672B6274B1B68002BBE
:101C4000FBD0BFF35F8F204B1B78DBB2A34213D0D6
:101C50001C4B02991A685140039A019258684240FD
:101C6000029103929A68DB68049901914A400599B0
:101C700001914B400492059302A8FFF7E7FD050090
:101C80000C00102202A90F4812F00CFA0E4A137829
:101C90000133DBB21370BFF35F8F0F4B00221A606A
:101CA00086F310882800210006B070BDFFF7FCFE07
:101CB0008DE70132D2000B000021D150B0E7C046C1
:101CC00031FC00201828002023FC002022FC0020EA
:101CD00000000340FFFFFF00300100D010B5FFF708
:101CE0006FFF10BD10B5024800F03CF810BDC046B3
:101CF0009CF9002010B50822014912F0D3F910BD5B
:101D00009CF9002010B5002901D000230AE0114BF6
:101D1000114A1F31114810F08FFB00240DE03732BB
:101D2000C25401334A1E9A420FD90F2B0DD85A08BC
:101D30000B4CA25CDC07F0D40424224114000F22D7
:101D40002240092AEBDC3032EAE7C0180023037096
:101D500010BDC046140B02106C0B02101C0B0210BD
:101D60009CF9002070B588B0040004AD00260496EC
:101D70000922002105A812F08FF9009609220021FE
:101D800001A812F089F94B232B700D226946280017
:101D90001EF092FA002304E05A1D69468A5CE25460
:101DA0000133072BF8DD08B070BD0000EFF31080A1
:101DB00072B6034B1B68002BFBD0BFF35F8F7047DD
:101DC0002C0100D0BFF35F8F024B00221A6080F31A
:101DD000108870472C0100D0F8B506000C001500E3
:101DE000FFF7E4FFE308F718F15C07222240012324
:101DF00093400B4205D1DBB20B433B70FFF7E2FF90
:101E0000F8BD2100280010F0B1FBF0B583B006004A
:101E1000019114001F00FFF7C9FF00E00134BC422C
:101E20000CD8E308F518F35C0721214001228A4011
:101E30001A42F3D1D2B21A432A7001E0012464425B
:101E4000FFF7C0FF002C02DB200003B0F0BD019BB8
:101E5000002BF9D0089810F089FB000070B5050040
:101E60000C00FFF7A3FFE308EE18EA5C07210C4023
:101E70000123A340134204D09A433270FFF7A2FF1C
:101E800070BD034B034A2C31034810F0D5FAC0460D
:101E9000280D0210940D0210480D0210002307E0D7
:101EA000054A9A189200BFF35F8F00211160013339
:101EB0001F2BF5D97047C04640000034054A107802
:101EC000431CDBB21370172B02D9130010221A70B7
:101ED0007047C046981E002000B583B00100044B37
:101EE00000931F2318220348FFF78FFF03B000BDA4
:101EF000A40D02100438002010B5010018231B881F
:101F000014221088984710BD10B5010018231B88B3
:101F100016221088984710BDF0B5C64600B50700D8
:101F20000E0000250123984600E00135B5420AD293
:101F3000AC003C192068FFF7DFFF20600028F4D1D7
:101F400000239846F1E7404680BCB846F0BD00004B
:101F5000F8B5DE4657464E464546E0B505000F004B
:101F600092460A9A934250D31A0E91461E020A9A3A
:101F700000233000494611F057FC80466C0064197C
:101F8000A400304B9C4664446368834200D2606086
:101F90002B1FDBB29B46012B3DD9C0239B01234362
:101FA000802212011A60AB00274A9958002907D0F5
:101FB000506911F0FBFB431C5800C0180338FDD2D8
:101FC00053465A0123685A40E0231A4080235B019C
:101FD00023431A605A46012A28D980239B012343B0
:101FE000802212011A60434663604246002330009B
:101FF000494611F019FCAD00134B58510120F0BCBB
:10200000BB46B246A946A046F8BD104B104A332144
:10201000104810F011FA012FBFD1C0239B012343B8
:1020200003221A60A368DB07FCD5C9E72168794061
:1020300003220A401A60A2680123BB401342FAD06F
:10204000CBE7C0460080004008380020C00D0210D9
:10205000200E0210D40D021030B583B00C2001F018
:10206000E3FEFFF789FB00280DD0002304E0990070
:102070002D4A2E4888500133092BF8D92A4B2C4A77
:102080005A6203B030BD2B4B00229A6701F03EFF2D
:10209000294B01221A60274B5B6C012BFBD1274B8C
:1020A00003221A60234B9B6B012BFBD1013300935E
:1020B0000433234A0121234801F026FE052300931F
:1020C000214A0121214801F01FFE214B00930022EB
:1020D00002210420FFF73CFF1E4D00952B0000223B
:1020E00001210520FFF734FF104C0094230000224B
:1020F00000210720FFF72CFF00942300002200217D
:102100000820FFF725FF0A4B00932300002200213F
:102110000920FFF71DFF00952B000022002106205B
:10212000FFF716FFADE7C04608380020006CDC0260
:102130001BB70000008000403CB0004030B00040C1
:10214000002F685900800240008C864700C0024082
:10215000001BB700405973078000014BC0587047FF
:102160000838002010B58300084A944663441C6870
:1021700040226240C02414408022520113431C605C
:10218000C000034B9C466044416010BD04C0014048
:102190000040014080000B4B9C46604400290DD05C
:1021A0000823002A0CD004221343026853400C2257
:1021B0001340802252011043036070470023F0E770
:1021C0000022F1E704C00140002909D08000094B3A
:1021D0009C46604480239B011843022303607047A0
:1021E0008000044B9C466044C0239B01184302239B
:1021F0000360F4E704C0014070B5D0231B061B68E0
:102200009D00094C2C59204207D19B002043064CCD
:1022100018510D2000F042F970BD044B044ACC2146
:10222000044810F009F9C04688F90020300E021069
:10223000F40E02105C0E021010B50400D0231B0631
:102240001B689B000A4A9B5818420BD00D2000F0D7
:102250003FFAD0231B061B6805499B005A58A2432E
:102260005A5010BD034B044AD621044810F0E4F83C
:1022700088F90020A40E0210D00E02105C0E02108D
:10228000072303409B00C00899403C308000014B6D
:10229000C150704700400140F8B507000C0016001F
:1022A0001D00FFF7EDFFFB089B00ED1807203840ED
:1022B00080008440002E04D080239B011D432C60AD
:1022C000F8BDC0239B011D432C60F9E710B5D02356
:1022D0001B061B68002B03D0024BFFF7DDFF10BD70
:1022E000014BFAE7304101400041014010B50123A4
:1022F0008340D0221206936293610521FFF732FFDB
:1023000010BD0000074B9B68103080001950BFF3D0
:102310005F8FBFF35F8F044B0021196082F3108839
:102320007047C04600ED00E0240100D01F23181ABA
:102330007047000010B5091A081F0A4B9C466144FB
:10234000094A914208D8C30706D440104005400D01
:10235000064B184380B210BD054B064AA321064820
:1023600010F06AF8FC070000FE0F000000E0FFFF1D
:10237000280F0210A0110210580F021010B5091AF0
:1023800004394C08090B08D14905490D064A114387
:102390000180064B2343438010BD054B054AAB210A
:1023A000054810F049F8C04600F0FFFF00F8FFFFB5
:1023B000A00F021074110210580F02100123834065
:1023C000034A10681840431E9841C0B27047C04687
:1023D00000E100E0002904D0034B1860034B1860B3
:1023E0007047034B1860FBE780E200E000E100E08B
:1023F00080E100E010B5012383401800FFF7EAFFF9
:1024000010BD000001238340014A13607047C0469D
:1024100000E200E0024B9B6810308000C05870471B
:1024200000ED00E010B5FFF7F5FF002805D0054BE3
:10243000C01A2F2803D8012010BD0020FCE700207F
:10244000FAE7C0469C1E002070B504000D00EFF3B3
:10245000108672B60C4B1B68002BFBD0BFF35F8F4E
:102460002000FFF7D7FF094B984201D0A84205D1C1
:10247000320029002000FFF745FF70BD044B054ADC
:10248000862105480FF0D8FF240100D0CD010010AF
:10249000B00F0210D4110210580F0210F0B5DE4632
:1024A00057464E464546E0B589B081460191150034
:1024B000EFF3108A72B6744B1B68002BFBD0BFF38E
:1024C0005F8F724B0027DF57002F40DB7C00E41941
:1024D000A4006F4824180622A2566C4B1A706D4B4C
:1024E0009A684B4610339B00D35898461E001B1A1F
:1024F0002F2B38D9684B98452FD105AE674B3380C9
:102500007B009B46D8198000614B984640440230BE
:102510006349FFF70FFF7080624BB380FF23B371F5
:10252000F571019B07935F44BF0047440ECE0EC771
:1025300001231C43A046524641464846FFF7E2FEAF
:1025400009B0F0BCBB46B246A946A046F0BD564B0A
:10255000564AD72156480FF06FFF564B534ADE219B
:1025600053480FF069FFC04340440C2111F01EF99D
:10257000002912D101239E43B34633000026DA79A5
:10258000AA4211D90621595600290CDB4A005218DB
:1025900092001E003E4B9B18F1E7474B434AEA214D
:1025A00043480FF049FF1E00002E3AD005AB434AC6
:1025B0001A80813A5A800623F3560293002B17DAC9
:1025C0003F4805AB9B469880029A9A71DD71019A4B
:1025D0000792301D2100FFF7ADFEB080B7717B0080
:1025E000DB199B002A4FFF185B4607CB07C7A2E702
:1025F0007800C0198000264BC0180430321DB38803
:10260000D90A1C2907D15B05591502314900511817
:10261000FFF790FED5E72B4B2B4AB12124480FF052
:102620000BFF05AE1D4B33807B000293D819800051
:10263000174A9046020042440392901C1849FFF743
:1026400079FE7080039A101D5946FFF773FEB08023
:102650001E4B5A464146521A524153431B0DB37109
:10266000F571019A0792029B9C466744BF0047445C
:102670000ECE0EC7114B5A461380813B5380012367
:102680001C43A04657E7C046240100D02AFC002086
:102690009C1E002000ED00E0CD01001000A1FFFF16
:1026A000CC1E002001BDFFFFE80F0210BC1102107C
:1026B000580F0210101002103810021001480000CC
:1026C00001BD0000AC100210AC110210AAAA00005B
:1026D000F0B5CE46474680B583B006000D00EFF357
:1026E000108872B6564B1B68002BFBD0BFF35F8F70
:1026F000544B9A6834001034A300D758524B9F4271
:1027000007D0AF4200D198E00197504BFB1A2F2B16
:1027100009D9424639003000FFF7F4FD03B0C0BCD0
:10272000B946B046F0BD3000FFF748FE81460021B3
:102730003000FFF75FFEBFF35F8FEFF305810029E5
:1027400001D08C4211D10123019C9C430022A3683B
:10275000AB4212D00622A256002A0DDB53009B1872
:102760009B002200394CE418F1E73621384B394AF6
:10277000FF3139480FF060FE2200AB4256D10625EA
:102780006557002D38DB6B005B199A002F4B9B18A7
:102790009A68A260DA79E27106229A56A2719B7950
:1027A0005BB2002B0FDA2D48A0806B005B199B00F9
:1027B000264AD3182A4A1178997115704946300073
:1027C000FFF718FEA5E7201D6B005B199B001F4A51
:1027D0009B181A1D9B88D90A1C2907D15B055B151C
:1027E000023359005118FFF7A5FDDDE71D4B1E4AC6
:1027F000B12119480FF020FE002912D1002A0ED075
:10280000FF239371194B9380154A1378A371184BCA
:102810000E49641A644163431B0D1370CEE70A4FDF
:10282000F2E7201D1349FFF7A9FDC7E76A21124B04
:10283000084AFF3108480FF0FFFD034F69E7C04623
:10284000240100D000ED00E0CD0100109C1E00200E
:10285000C41002108C110210580F021001BD0000AC
:102860002AFC0020AC100210AC11021001BDFFFFC9
:10287000AAAA0000D61E0020F810021010B50323EB
:1028800004009C43064A9446644422681840C000F1
:10289000FC3383409A43130081400B43236010BDF7
:1028A00000E400E070B5012101432E4BCB1A2F2B21
:1028B00028D8EFF30583002B2BD0EFF3108C72B6E2
:1028C000294A1268002AFBD0BFF35F8F274A040011
:1028D000244D641B64416243120D54B2244A926831
:1028E0009B00D2588A421BD00022032A32D85300C0
:1028F0009B189B001B49CB189B795BB2A3421FD04E
:102900000132F2E7C7211B4B1B4A49001B480FF05D
:1029100093FD92211A4B184AFF3118480FF08CFD95
:10292000134A92681749D150174B1A7882711C705C
:10293000BFF35F8F0C4B00221A608CF3108870BDC0
:102940000D005300991889006918FF268E710F4AEF
:102950008A80E9E7D1210E4B074A490007480FF06A
:102960006BFDC0469C1E0020240100D0AAAA0000D6
:1029700000ED00E00011021058110210580F021073
:1029800028110210CD0100102AFC002001BDFFFF1C
:10299000341102100022044B02E0044902C3013248
:1029A000072AFAD97047C04600E400E080808080A2
:1029B00010B5FFF7BBFC01000148FFF74FFA10BD4F
:1029C00036FC002000B583B00100064B00930523C0
:1029D00000220548FFF719FA002801DB1F23181A07
:1029E00003B000BD3C11021036FC002070B504009D
:1029F0000E001500FFF762FA0100200000F006F853
:102A0000A680E580BFF35F8F70BD0000024B9C463F
:102A100061448900016070474000003410B5040033
:102A2000FFF74CFA01002000FFF7F0FFFF232371AE
:102A3000BFF35F8F10BD10B50400FFF73FFA010030
:102A40002000FFF7E3FFFF23237100236371BFF32F
:102A50005F8F10BD034B9C46614489000160BFF34A
:102A60005F8F70474000003410B504000120FFF76D
:102A700033FA01002000FFF7EDFF10BD70B505002F
:102A80000C00080000F000FF0949200000F040FEA3
:102A9000FFF714FA074B9C466044800068602C7571
:102AA000D0231B061B786B75A400034BE55070BD4B
:102AB000C12D001040000034BCE900200A4B1A6808
:102AC000EFF3108172B61368002BFCD0BFF35F8F59
:102AD000054B1B68BFF35F8F00221A6081F31088DB
:102AE00040BF002000217047ACFB002010B500293A
:102AF00022D003681B7B99421ED8174B9C46614429
:102B0000090183689C4661440C684968002A19D011
:102B100003681B7B9A4215D883680F488446624439
:102B200012019A1810685368020001208B4201D8E4
:102B30000ED00020C0B210BD084B094A3C21094804
:102B40000FF07AFC054B064A3C2106480FF074FC56
:102B5000A242EFD8EDE7C046FFFFFF0F6C13021053
:102B6000D81502102C13021010B500291ED0037BBB
:102B700099421BD84B005B18033B0468A44663448E
:102B8000002919D0002A1DD0914221D0002A25D039
:102B9000047BA24222D80468500080180338201811
:102BA0008170197800291FD11A7010BD104B114A7D
:102BB000682111480FF040FC104B114A6F310E484C
:102BC0000FF03AFC0F4B0E4A70210B480FF034FC0B
:102BD0000D4B0B4A712108480FF02EFC044B054A9F
:102BE000682105480FF028FC41701A70DDE7C046E7
:102BF0009013021044160210AC13021000140210BD
:102C0000201602100C1402101814021070B50600E1
:102C10000D001400002914D0002A14D080687368B5
:102C20009847002806D0220029003000FFF79CFFBB
:102C3000280007E02A0021003000FFF795FF200060
:102C400000E0100070BD0800FCE70000F0B583B0A4
:102C50000500009201930AAB1C780BAB1F78002C87
:102C600026D003685A7B944207D10123002B19D147
:102C7000002C3BD1200003B0F0BD002C0CD01A7BFF
:102C8000944209D81A6863001B19033BD3189B7838
:102C9000002BEBD00123E9E73E4B3F4A68213F4838
:102CA0000FF0CAFB3E4B3F4A67213F480FF0C4FB81
:102CB00003689C7B002CDBD012D01A7B94420FD887
:102CC00062001219033A19688C466244517899736C
:102CD000002900D1D9730023937053701370C7E794
:102CE0002C4B2D4A68212D480FF0A6FB002C3AD022
:102CF0002B681B7B9C4236D82C4BE3181B01AA681F
:102D000094466344009A1A60019A5A60089A9A603D
:102D1000099ADA602E68002C2BD030D0337B9C428D
:102D20002DD863001B19033B32689446634400228C
:102D30009A705A701A70717B22003000FFF766FF9C
:102D40007073844200D095E7287D009A019B00F0C3
:102D500027FD061E01D0002F17D00C9B002B00D1A1
:102D600088E71E7086E7124B124A3C210E480FF08E
:102D700063FB114B114AA52108480FF05DFB054B81
:102D8000054A682105480FF057FB2868210000F02C
:102D90003FFFE2E79013021044160210AC1302103A
:102DA00030140210501602102C130210FFFFFF0FF8
:102DB0006C130210D81502102813021034160210DA
:102DC000F0B5DE4657464E464546E0B58BB0099015
:102DD000002308938200B54BD658370052E0B44B1D
:102DE000B44A3F21B4480FF027FBB44BB44A3C210E
:102DF000B4480FF021FB002901D1002869D100213E
:102E0000404600F0FBFEA04219D12A686B6806928A
:102E10000793AB689846EB689A464346002B14D05C
:102E2000002C18D03B681B7B9C4214D8631EFA68A8
:102E3000D35C08931B0218433861002015E0A24BB5
:102E4000A24A8E219F480FF0F7FAA14B9F4A922188
:102E50009C480FF0F1FA994B9E4A412199480FF096
:102E6000EBFA00239A46984600207B68BFF35F8FF9
:102E700000221A6086F310884346002B32D10028C6
:102E800000D10CE100F000FC02000B1EA7DB0020CB
:102E90000021069007917868EFF3108672B60168FA
:102EA0000029FCD0BFF35F8F396888464C7B002C2B
:102EB000D7D09AD0097B8C4297D8874965182D01C5
:102EC000B9688C46654428686968801A9941002968
:102ED00091DD2A686B68099800F062FC00239A462D
:102EE0009846C2E7089B1B022343994651461800A7
:102EF000C04705000E007A68EFF3108B72B61368B6
:102F000059424B41D9B2002BF9D1BFF35F8F002E4C
:102F10001EDB002E46DD3B69002B47D04B456DD1B3
:102F200000F0B2FB02000B1E6EDB52197341002B46
:102F300070DB002B72DB00210491013103910294BC
:102F400051460191414600913800FFF77FFE4CE069
:102F50003B69002BDDD04B4514D1069A079B521BD1
:102F6000B341002B14DB002B16DB0021049101314F
:102F70000391029451460191414600913800FFF7B8
:102F800065FE32E0554B514AA1214E480FF054FAEC
:102F900001225242524BE6E7454B464A3F21464802
:102FA0000FF04AFA002E01D1002DB4D13B68002C5D
:102FB00050D05A7B944237D1012100294AD1DA7B83
:102FC000002A4DD19A7B002A03D1DA7B002A5AD1FC
:102FD0009C73DC73002C5CD03B681B7B9C4258D8F4
:102FE000FA68013C135D0133135500233B617A6895
:102FF000BFF35F8F13608BF3108843E7374B334A7F
:10300000A42130480FF018FA294B2A4A3F212A48B8
:103010000FF012FA01225242314B8AE7244B254A23
:103020003F2125480FF008FA002C0DD01A7B94425E
:103030000AD862001219033A1868844662449278EA
:10304000002ABAD00121B8E7264B274A6821274831
:103050000FF0F2F9264B274AF62124480FF0ECF93D
:10306000002A0AD0197B8A4207D851008A18033AED
:1030700019688C4662445470A4E71A4B1A4A6821B6
:103080001A480FF0D9F91C4B1A4AFB2117480FF0C8
:10309000D3F90A4B0F4A41210A480FF0CDF90BB082
:1030A000F0BCBB46B246A946A046F0BDBCE9002034
:1030B0003C080210A4150210580802106C130210EC
:1030C000D81502102C13021058140210BC1502104F
:1030D00070140210FC150210FFFFFF0F7C14021089
:1030E000FFFFFF7F9013021044160210AC13021072
:1030F000B814021010160210DC14021010B50C4B9C
:103100005B68002B04D00A210A48FFF77FFC10BD42
:10311000074C2300084A1021206800F07FFC0320A0
:1031200000F0A6FA03212000FFF7A8FCEBE7C04659
:10313000E41E0020ACFB0020ED2A001010B5064B69
:103140005B68002B01D0044810BD044B044A5E218B
:1031500004480FF071F9C046E41E0020F01402107C
:10316000E41502102C130210F0B5DE4657464E4609
:103170004546E0B58BB0804616001F00149B9A466A
:10318000159B994616AB1B789B461F2302AA9446B3
:10319000634400221A702BE0002809D042461268CE
:1031A000127B904204D8421E4146C9688A5C41E0C5
:1031B000404B414A412141480FF03EF907984CE00D
:1031C000361BAF41002F07DB002F11DA3C4B3D4A85
:1031D0003F213D480FF030F9012676423B4FF3E79F
:1031E000374B384A3F2138480FF026F9002F4FDB84
:1031F00043465A68EFF3108472B6136859424B4144
:10320000D9B20791002BF8D1BFF35F8F1F3302AA09
:103210009446634404930023039302934B46019323
:103220005346009332003B004046FFF70FFD031E5C
:10323000B2D1020041464968BFF35F8F00250D609F
:1032400084F31088002B29D01F2302A98C466344E5
:103250001B78002BB2D112021043002B20D05B460A
:10326000002B1DD04946D04704000D0003000B433E
:103270001DD00029A4DB00F007FA06000F1EAFDB0B
:1032800036196F41002FB1DA012676420F4FADE7B4
:103290000B4B0C4A3F210C480FF0CEF80120404266
:1032A0000BB0F0BCBB46B246A946A046F0BD07989D
:1032B000F6E7C0466C130210FC1502102C13021026
:1032C0003C080210A415021058080210FFFFFF7FEF
:1032D000F8B50400002900D162E04268EFF31085E0
:1032E00072B6136858424341D8B2002BF9D1BFF3EC
:1032F0005F8FCBB22268567BB3421BD101200028DE
:1033000048D0206988422BD0090AC9B2002B2ED0A0
:103310002068007B83422AD8581EE668305C8842C9
:103320002BD000206368BFF35F8F00221A6085F303
:103330001088F8BD002B0DD0167BB3420AD85E0072
:10334000F618033E1768BC466644B678002ED6D001
:103350000120D4E7134B144A682114480FF06CF88D
:103360002C21134B134AFF3113480FF065F8134B10
:10337000134A412110480FF05FF81900100000F0C7
:1033800047FC0028CED199210E4B0A4A49000A4831
:103390000FF052F823698B42C4D100232361C1E7A7
:1033A0000020C6E79013021044160210AC1302105E
:1033B000141502108C1502102C1302106C1302103D
:1033C000FC15021038150210407D7047F0B587B02B
:1033D00006000F00EFF30583002B1FD10624644283
:1033E000E517A4197D418D4202D803D1844201D949
:1033F00000240025002D14DB0494059500F044F909
:1034000002000B1E13DBA41A9D41002D17DC14D003
:103410003000390000F044F907B0F0BD23480FF048
:10342000A5F8234B234A3F2123480FF005F8204BF2
:10343000204A3F2120480EF0FFFF002CE8D0FFF784
:103440007DFE0023029301931C4B0093049A059B7D
:10345000FFF78AFE002818DADAE7002300E00023ED
:10346000002BD5D1164B1A68EFF3108172B6136892
:10347000002BFCD0BFF35F8F114B1B68BFF35F8F36
:1034800000221A6081F3108820BF0499059A0D4B21
:103490005B6A9A42E3D80B48806A884203D29A4218
:1034A000DBD00123DCE70123DAE7C0463C1502103C
:1034B0003C080210A415021058080210BD2A001082
:1034C000ACFB00200040054070B504000D0000F08A
:1034D000DBF802000B1E0ADB20002900801859418E
:1034E00000290ADB00290CDBFFF770FF70BD084BD9
:1034F000084A3F2108480EF09FFF0120404207493B
:10350000F0E7034B034A3F2103480EF095FFC04606
:103510003C080210A415021058080210FFFFFF7F9C
:1035200010B5FA2292000023002110F0D5FCFFF71D
:10353000CBFF10BD70B584B005000C00EFF3058320
:10354000002B1ED1FFF7FAFD002302930193224BBB
:1035500000932A002300FFF707FE061E23DD20BF8D
:10356000FFF7ECFD3100FFF7B3FE1C4B5B6A9C429A
:103570002DD81A4A926AAA422CD29C4225D0012008
:1035800026E0164B5B6A994209D8144A926A824235
:1035900007D2994201D001201AE0002018E0002053
:1035A00016E0012014E00D4B5B6A9C4209D80B4ADF
:1035B000926AAA4207D29C4201D0012008E0002072
:1035C00006E0002004E0012002E0002000E00020EE
:1035D00004B070BD0120FBE7BD2A0010004005408B
:1035E00070B5EFF305801038EFF3108C72B61A4BFC
:1035F0001B68002BFBD0BFF35F8F012213008340B9
:1036000016494B6316490B60164909780C00C440F3
:10361000224214D0114A546A8200134D52599442E6
:1036200006D38200114C125999430E4B197007E0D2
:103630000A4A031D9B0099589950002200E000227D
:10364000BFF35F8F044B002119608CF31088002AB0
:1036500000D0904770BDC046280100D00040054012
:103660003C70054035FC0020B8FB0020D43500201C
:1036700010B50100024A0348FEF7AEFB10BDC0467C
:103680007016021024FC0020044B5B6A034A906A07
:103690001900536A9942F9D17047C046004005406D
:1036A000084B5B6A01E0074B5B6A8B42FBD301E08E
:1036B000044B5B6A8B4203D1024B9B6A8342F7D374
:1036C0007047C0460040054070B504000D00FFF78C
:1036D000DBFF02000B0020002900801859418B42BB
:1036E00002D804D1824202D901204042C1170029E8
:1036F00002DBFFF7D5FF70BD024B034A3F210348B1
:103700000EF09AFE3C080210201702105808021012
:1037100070B504000D00EFF3108672B61B4B1B68EA
:10372000002BFBD0BFF35F8F002D1CD02000FEF7D5
:1037300071FE174B83420BD019002000FEF784FE68
:1037400001212000FEF756FE0123A340114A136019
:10375000A400114BE550BFF35F8F0C4B00221A60A1
:1037600086F3108870BDA2000B4B0021D1500122BE
:10377000A2400A490B7893430B7005492000FEF7DD
:10378000A7FF00212000FEF735FEE4E7280100D066
:10379000E135001038600540D435002035FC0020AC
:1037A000F0B5DE4600B584B00400150001921E009D
:1037B0000293FFF769FF03958E4202D84ED18542EE
:1037C0004CD9EFF3108B72B6274B1B68002BFBD044
:1037D000BFF35F8F254A17780125A540EBB23B4325
:1037E0001370234B5D63221D92000199D150A200FA
:1037F0002049029850501B6A2B4212D11C4B1B6C63
:103800002B4208D00020BFF35F8F174B00221A60B5
:103810008BF3108823E0184B184AC52118480EF086
:103820000BFEFFF731FF8E4214D802D1039B834277
:1038300010D80E4B1B78BB420ED00D4B1D625D6342
:103840001F2004400123A3400E4A1360074B1F7042
:103850001E38D8E70020D6E70120D4E7012004B0C5
:1038600080BCBB46F0BDC046280100D035FC00201E
:1038700000400540B8FB0020941602100417021007
:10388000B816021080E200E0EFF3108C72B60B4B1A
:103890001B68002BFBD0BFF35F8F01238340084AD6
:1038A000136208490A789A430A70BFF35F8F034B8B
:1038B00000221A608CF310887047C046280100D09F
:1038C0000040054035FC002010B500291ED0037BC8
:1038D00099421BD84B005B18033B0468A446634421
:1038E000002919D0002A1DD0914221D0002A25D0CC
:1038F000047BA24222D804685000801803382018A4
:103900008170197800291FD11A7010BD104B114A0F
:10391000682111480EF090FD104B114A6F310E488E
:103920000EF08AFD0F4B0E4A70210B480EF084FDFD
:103930000D4B0B4A712108480EF07EFD044B054AE1
:10394000682105480EF078FD41701A70DDE7C04629
:103950009013021030180210AC1302100014021061
:103960001C1802100C1402101814021070B5060076
:103970000D001400002914D0002A14D08068736848
:103980009847002806D0220029003000FFF79CFF4E
:10399000280007E02A0021003000FFF795FF2000F3
:1039A00000E0100070BD0800FCE7000010B5002327
:1039B000437301338373037BC3730123027B9A42F6
:1039C00014D9002B0CD0027B934209D85A00D2188C
:1039D000033A01688C4662440133DBB25370EDE771
:1039E0000B4B0C4A68210C480EF026FD002A09D02A
:1039F000924207D8016853009A18033A8A180023A4
:103A0000537010BD024B034A682103480EF014FDA9
:103A10009013021030180210AC13021010B501738D
:103A200042608360FFF7C2FF10BD000070B5040064
:103A3000081E00D170BD002934D0237B994231D8B3
:103A40004B005B18033B2268944663445A78002A73
:103A5000F0D02DD0237B9A422AD853009B18033BE9
:103A600021688C4663445D7800215970002825D078
:103A7000237B984222D843001B18033B21688C46C5
:103A800063440021597001002000FFF76FFF06001A
:103A900029002000FFF7CAFF020031002000FFF7D5
:103AA00065FFC7E7084B094A682109480EF0C4FCC6
:103AB000054B064A682106480EF0BEFC024B034A3D
:103AC000682103480EF0B8FC901302103018021061
:103AD000AC13021070B505000C00160000292FD0A1
:103AE00034D0037B994231D84B005B18033B02680A
:103AF000944663445A78002A2ED19A78002A31D10C
:103B00001978FFF793FF0300002E0AD0EA7B002A02
:103B10002ED1AA7B002A03D1EA7B002A3BD1AC73C9
:103B2000EC73002B3DD1002C4FD02B7B9C424CD80A
:103B30002B6861000C19033C1C190023637070BDD5
:103B4000254B264A382126480EF076FC254B264A7E
:103B5000682126480EF070FC254B204A3A21204867
:103B60000EF06AFC234B1D4A3B211D480EF064FCFD
:103B7000002A0AD0297B8A4207D851008A18033AC2
:103B800029688C4662445470C3E7164B164A682174
:103B900016480EF051FC184B104A422110480EF006
:103BA0004BFC002B0BD02A7B934208D843001B18F8
:103BB000033B2A689446634400229A70B3E7094B9A
:103BC000094A682109480EF037FC064B064A68216D
:103BD00006480EF031FCC0463817021008180210D3
:103BE000401702109013021030180210AC1302108C
:103BF00084170210AC170210DC14021070B5040018
:103C00000A00457B2900FFF765FF6073280070BD3F
:103C100070B50400002967D0437B8B420ED0002989
:103C200011D0037B99420ED84B005B18033B02680E
:103C3000D0188378002B0CD1002056E00121FFF72B
:103C4000DDFF012051E0294B294A682129480EF067
:103C5000F3FB002B20D0227B93421DD85A00D318AF
:103C6000033B2268D2182568EB5C8B421AD0002BEC
:103C70001BD0227B934218D85A00D318033B2268EA
:103C8000D21853788B4216D0002BF0D11A4B1B4A16
:103C90006B211B480EF0D0FB144B154A68211548C8
:103CA0000EF0CAFB4378137007E0104B104A6821EE
:103CB00010480EF0C1FB43785370002383704370AB
:103CC00001222000FFF706FF0200617B814205D040
:103CD0002000FFF74BFE6073012006E0094B074A06
:103CE000712107480EF0A8FB002070BD9013021050
:103CF00030180210AC13021034110210F017021029
:103D000040170210D0170210F0B5C64600B50400E7
:103D10000E0017001D0037480FF048FD8046364B57
:103D2000FA18364B9A4239D8010038000FF03EFDA0
:103D30000200103A98235B009A4235D86B1E062B7E
:103D400038D8069B013B062B34D83F09474537D36B
:103D50002D04069B1A0315432368002B36DB284BE2
:103D60009C4244D080225201264B1A60264B1A6096
:103D7000264B9B6811009943FAD12660A060231D51
:103D8000C02292011A43212313602368002BFCDA1E
:103D9000E5600823136080BCB846F0BD1C4B1D4A8B
:103DA00011211D480EF048FB1C4B1A4A19211A48D4
:103DB0000EF042FB1A4B174A1C2117480EF03CFB31
:103DC000184B144A232114480EF036FB22683F2377
:103DD0001340B342C3D1A3681B051B0D8342BED160
:103DE000E368EE22D2021340AB42B8D1D3E780227F
:103DF0009201B9E7001BB70080E84BD380F8A932E5
:103E000000C0024000E0004000F0004000C0004060
:103E10003C180210681902109C180210E4180210D5
:103E2000001902104C19021080239B000343014A21
:103E3000D362704700800540024B1A68024B5A60FB
:103E40007047C046A44F00200080054010B5020016
:103E5000164B8020C0051860154B164818600029C5
:103E60000AD0154BE021C9041960002A09D1124B70
:103E7000802212061A6010BD0C4BE021C9041960A3
:103E8000F3E753019B1A9800801800010B4B186050
:103E900080235B04984202D3084B094A1A60FFF75B
:103EA000CBFF054B8022D2051A60E4E700B0054045
:103EB00008200140FCFF010000A00540A44F0020A5
:103EC000FFFFFF0010B5030010000C4A8024E4053A
:103ED0001460002B0DD001221343094A094CD46110
:103EE000094C5C401462516293620021FFF7AEFFFF
:103EF00010BD034B0022DA61F7E7C04600B0054071
:103F000000800540D3C007B02D3FF84F064BAA22D2
:103F100012011A602F22DA60044B054A1A60024B24
:103F20005B68002BFBDA70470040024000600240F3
:103F300000B0FA0010B501F09BFC00F00DFC00F0A1
:103F4000E5FD00F089FE05F0E7FD01F051FD00F010
:103F500060FA05F019FD10BD0302000A184380B293
:103F6000704703060202FF2109040A401343020AB4
:103F7000FF2109020A401343000E18437047F8B5A9
:103F8000CE46474680B580460F00914608001BF09C
:103F900019FB061E17D0444600E001342578002D99
:103FA00017D0A31942464A4493420AD83B78AB4201
:103FB000F3D13200390020001BF032FB0028ECD195
:103FC00002E0002400E044462000C0BCB946B046F0
:103FD000F8BD0024F8E730B501E0002C14D00478D7
:103FE00001300B7801319C42F7D020222243D2B21B
:103FF0001500613DEDB2192D08D820252B43DBB209
:104000009A42EAD0012000E0002030BD0120FCE708
:1040100000280AD0C07A002809D1431C9B00054A19
:104020009B58002B04D0012002E0002000E000207B
:104030007047C046C042002010B5FDF74FFE80B269
:10404000002301E00133DBB2032B0FD81A01D21891
:10405000120107498A18927A022AF3D11A01D2185A
:1040600012018A1812898242ECD1E6E710BDC046DF
:10407000C8420020F0B5D6464F464646C0B50600B9
:104080008846002401E00134E4B2032C23D8250043
:1040900063001B199B00314A9F58002FF3D0630027
:1040A0001B199B00D3181B7AB342ECD13001801945
:1040B000000110302A4BC0189246630099461B1924
:1040C0009B0053445A684146B8474D44AD00002315
:1040D0005246AB50D7E7002301E00133DBB2032B9C
:1040E0001BD8B342F9D01A01D21812011C498A1800
:1040F000927A022AF1D11A01D21812018A18D07BC1
:104100003201921912018A18D27B9042E5D1330113
:104110009B191B01CB180422DA7333019B191B0175
:104120000F4AD318DB7B032B04D9E0BCBA46B14657
:10413000A846F0BD0B4C9B00185905F0EBFF084A50
:10414000300183191B01D318DB7B9B00002119511F
:104150008019000110180423C373E6E79042002081
:10416000C842002080420020F0B5D6464F46464661
:10417000C0B584B08046030143441B01534AD318A1
:10418000DB7A012B34D89B00514A9B58002B32D04C
:1041900004014444240110344C4BE41820001BF06B
:1041A00011FAA022123081B29200362000F0E8FF0E
:1041B0008146002800D185E001AD0C2200212800B5
:1041C0000FF06AFF43461B0143441B013F4AD318CB
:1041D0001889FFF7C1FE28800123AB70FF33AB8045
:1041E0000C222900484601F0F3F9661E0C2737E03F
:1041F00038480EF0BBF90021FFF73CFF4346180199
:1042000040440701314BDF190023BB72002420001A
:1042100004B0E0BCBA46B146A846F0BD0134E4B2F1
:10422000013633782E2B01D0002BF7D1731B9BB2B4
:104230009A463B19284A934216DC22003900484628
:1042400001F060FA7B1C9BB252462900484601F0FF
:104250000BFA3C19A5B26F1CBFB23378002B09D002
:10426000013635000024DCE7484600F04BFF062409
:104270006442CCE700223900484601F043FA023597
:10428000ABB28022520069460A804A80FC3A484616
:1042900001F0EAF90D4943461B0142469A18120102
:1042A0008A18D07BD37A9B00094AD21880000B4928
:1042B00040583523494605F0A5FE0400484600F065
:1042C00021FFA4E701246442A1E7C046C8420020C0
:1042D000C042002074190210FEFF0000804200203E
:1042E00070B50400000100190001414BC018032CF7
:1042F00020D823011B191B013D4AD3189B7A022B9E
:1043000034D01AD8002B14D0012B00D06CE0FFF76A
:1043100093FE3749220113191B01CB181881022083
:1043200098720020D87201251D7358732000FFF782
:104330001BFF70BD2F480EF019F9032B54D1230138
:104340001B191B012A4A9B58002B07D0013B220155
:104350001219120126495350002BEAD120010419E9
:104360002401234804190023A372E2E723011B1947
:104370001B011F4AD218137B013BDBB21373002BC6
:10438000D7D123011B191B01194AD218537B0133C2
:10439000DBB25373042B09D0220112191201144904
:1043A0008A1813732000FFF7DFFEC2E7FFF730FE25
:1043B00000280DD00E49220113191B01CB18D87A01
:1043C0000130D872012018731A0000235373E9E7F3
:1043D00000212000FFF74EFE200104192401044BA8
:1043E0001C190023A372A4E703480EF0BFF8C046CF
:1043F000C84200208C190210A819021010B5002420
:1044000004E02000FFF76CFF0134E4B2032CF8D97C
:1044100010BD7047012800D97047002904D08000E2
:104420000A68044BC250F7E78000034B1A68014B3F
:10443000C250F1E7C0420020A040021010B5FFF7C3
:10444000DDFF10BD30B583B06B460022DA8001235A
:104450001D000540184206D0002904DD02786B4695
:10446000DA7101390130032213000340104209D0F0
:10447000012903DD03880239023003E0002301E053
:104480000839200007290CDD0268D218934200D9B0
:1044900001320400083443689B189A42F0D9013372
:1044A000EEE71A0C1B041B0CD31803E002889B18C0
:1044B000023902300129F9DC002902DD01786A465F
:1044C00091716A4606321288D318180C1B041B0C13
:1044D000C318180C1B041B0CC018002D05D00306B4
:1044E0001B0C020AFF201040184380B203B030BDFD
:1044F000F0B583B00600019115001C00002700E014
:104500003668002E15D071897068FFF79BFF00197F
:10451000040C0004000C24187389DB07F0D57B42DF
:104520005F41FFB22206120C230AFF241C401443F1
:10453000E6E7002F05D02206120C230AFF241C40B8
:1045400014436B469888FFF707FD24182800FFF7EF
:1045500003FD2018030C0004000C1818030C0004C1
:10456000000C1818C04380B203B0F0BD70B51C68D1
:1045700025042D0C230C5B19049C246825042D0CA8
:10458000ED18230C5B191C0C1B041B0CE3181C0CF2
:104590001B041B0CE318FFF7ABFF70BD10B582B016
:1045A000049C0094FFF7E2FF02B010BD10B5FFF7C6
:1045B00049FFC04380B210BD70B50500002600243D
:1045C00000E02D68002D15D069896868FFF73AFF73
:1045D0000019040C0004000C24186B89DB07F0D5CB
:1045E00073425E41F6B223061B0C240AFF200440EE
:1045F0001C43E6E7002E05D023061B0C240AFF20EF
:1046000004401C43E04380B270BD0000014B1B68B6
:1046100018187047CCE90020024B1B68C01A80B202
:104620007047C046CCE90020F8B50400FFF7F4FF5E
:10463000050027883800FFF7E9FF0600648820009E
:10464000FFF7E4FFFA231B019F420FD89C420FD8CB
:10465000AC4202D00388AB420CD1094B1B68B34279
:104660000AD07388AB4209D1012000E00020F8BDD8
:104670000020FCE70020FAE70120F8E70020F6E739
:10468000D0E9002070B504002C4B1B68834242D84F
:104690002B4B1D68854241D90379002B41D10088FD
:1046A000FA231B0198423FD8FFF7B0FF844216D08F
:1046B0000379002B13D1854211D0224B1B68834212
:1046C00035D0038823800088FA231B01984206D046
:1046D000FFF79CFF05002000FFF79EFF68806088C1
:1046E000FFF794FF0500844214D00379002B11D109
:1046F000144B1B68A3421DD023882B802088FA23EB
:104700001B01984206D0FFF781FF04002800FFF745
:1047100083FF608070BD0C480DF028FF0B480DF042
:1047200025FF0B480DF022FF0A480DF01FFF054B37
:104730001C60C6E7034B1860DEE7C046CCE90020EA
:10474000D0E90020A04F0020C8190210E019021083
:10475000FC190210181A021070B50C4C0334032314
:104760009C430B4B1C60FA252D01258000236380A0
:1047700023712800FFF74AFF064B186001230371DD
:1047800005804580044B1C6070BDC046D4E9002004
:10479000CCE90020D0E90020A04F002070B5041E15
:1047A00023D0830722D10500083D164B1B68AB427E
:1047B0001FD803000C33144A1268934219D803001F
:1047C000083B1B79002B17D02800FFF72DFF00288E
:1047D00015D0083C002323710C4B1B68AB4201D958
:1047E0000A4B1D602800FFF74DFF70BD08480DF013
:1047F000BDFE08480DF0BAFE07480DF0B7FE0748A9
:104800000DF0B4FECCE90020D0E90020A04F00203C
:10481000441A0210681A0210841A0210AC1A02100C
:10482000F0B5C64600B50500CC1CA4B203239C43DA
:104830000B2C05D9FA231B019C4202D900253FE02D
:104840000C248C4200D277E03C4B1B68AB423BD837
:104850003B4B1B68AB4237D92F00083F3800FFF7AE
:10486000DBFE06003F883B1A9BB2083B9BB2984692
:104870009C422CD824D03800FFF7C8FE0379002BC7
:1048800031D1FA231B019F4224D00788A419A4B276
:104890000834A4B22B4B1B6883421ED02000FFF7C4
:1048A000B5FE00230371078046802B00083B1C8067
:1048B0000088FA231B01984202D0FFF7A7FE44802C
:1048C000280080BCB846F0BD1F480DF04FFE1F48C1
:1048D0000DF04CFE1E480DF049FE2000FFF796FE3D
:1048E000184B1860DAE7230014334345E8D8A419BD
:1048F000A4B20834A4B2FA231B019F4219D02000AD
:10490000FFF784FE0F4B1B68834201D90D4B1860E3
:10491000002303712B00083B1A88028046801C800C
:104920000088FA231B019842CAD0FFF76FFE44802B
:10493000C6E707480DF01AFE0025C1E7CCE90020C4
:10494000D0E90020A04F0020E01A0210F81A02104F
:10495000181B0210F0B5CE4600B582B0002800D179
:1049600082E0C51CADB2032295430B2D05D9FA2375
:104970001B019D4202D9002072E00C25854200D225
:1049800074E03B4B1B6899461800FFF745FE070093
:1049900032E038480DF0EAFD01230371A14510D043
:1049A000019BE5180835344B1B689D421DD8A307B1
:1049B0001ED12000083053E04B461888FFF726FE32
:1049C00081464B461B79002B03D02B4A12684A457F
:1049D000F2D1274A49461160274A12684A45DFD07A
:1049E000002BDDD025480DF0C1FD25480DF0BEFDA2
:1049F00024480DF0BBFD27883E000195FA231B01DA
:104A00005B1B9F422BD23800FFF700FE04000379A6
:104A1000002BF0D103889E1B083E019B9E42EAD3E7
:104A200014339E42B8D37E19B6B20836B6B2FA2312
:104A30001B019E42ADD03000FFF7E8FD002303715B
:104A40002388038047802680012323710088FA236E
:104A50001B019842A2D0FFF7D9FD46809EE70020B7
:104A600002B080BCB946F0BD0020F9E70020F7E7AE
:104A7000A04F0020181B0210D0E900202C1B0210B0
:104A8000481B0210781B021010B50400FCF786FDCD
:104A9000E3681C68002C0AD022681A60A30703D1BF
:104AA000FCF77EFD200010BD02480DF05FFDFCF715
:104AB00077FDF7E7A81B021070B505000C008B0707
:104AC00009D1FCF76BFDEB681B682360EB681C6089
:104AD000FCF766FD70BD01480DF048FDCC1B0210CF
:104AE000C36800221A6083680333033293430022B1
:104AF00007E0C16809681960C1680B6081885B18AC
:104B00000132C1889142F4DC7047000010B50024E6
:104B100006E0A200044BD058FFF7E2FF0134A4B234
:104B2000082CF6D910BDC0461C1D021010B508286F
:104B300005D88000044BC058FFF7A6FF10BD0348FE
:104B40000FF08CFC0020F9E71C1D0210EC1B02107A
:104B500010B5082807D8002904D08000044BC0589D
:104B6000FFF7AAFF10BD03480FF078FCFAE7C04634
:104B70001C1D02100C1C02100B688268934206D0A8
:104B8000002902D08360012070470023FAE700204B
:104B9000FAE70B68C268934206D0002902D0C360CE
:104BA000012070470023FAE70020FAE70C2040427A
:104BB000704770B504000D0001F09AFA290020003A
:104BC00005F0D8FA2900200000F036FE70BD000084
:104BD00010B500280DD03923C25C343B1340052B9F
:104BE00006D1CB0704D54368002B01D0130703D4AB
:104BF00010BD03480DF0BAFC011D06F0A3FEF7E757
:104C0000401D021030B583B005000C0010000029D3
:104C100008D0002A09D06B680A689A4208D100209F
:104C200003B030BD0B480DF0A1FC0A480DF09EFC0E
:104C30000192036001A9FFF7BCFF23686B600121AB
:104C40002800FFF7C5FFEB69002B01D0280098472B
:104C50000120E5E7641D021070470000F0B5C6466C
:104C600000B582B005000C0017001E00002920D0FE
:104C7000002F20D0002E20D0002C02D02368002B43
:104C80001DD101AA21002800FFF7BCFF012398468F
:104C9000002239002800FFF76FFF002231002800B2
:104CA000FFF777FF4346002B0CD002B080BCB8461C
:104CB000F0BD074CDCE7064FDCE7054EDCE70023E0
:104CC0009846E5E701AA21002800FFF79BFFECE7E3
:104CD000A0400210F0B5C64600B504000E00170053
:104CE0009846002832D0079B002B34D0002937D0BB
:104CF000002F37D04346002B36D000256560A560D5
:104D0000E560354B6361258600223923E25420009B
:104D10002830042200210FF0BFF9E5612562069BCF
:104D200063622E4B1A783C23E254089B236143466E
:104D30003A0031002000FFF791FF2000079B9847C1
:104D4000002823D0002080BCB846F0BD24480FF0D6
:104D500085FB2000F7E723480FF080FB0020F2E7F7
:104D6000214EC5E7204FC5E71F4B9846C5E7C33B1B
:104D70000022E2540EE01D480DF0F8FB1C480DF037
:104D8000F5FB01313C22A154002B15D03C23E35C00
:104D9000FF2BECD0174B1D682B000022002BF3D00B
:104DA0009C42E8D00132FF2AE8DC3C21585C615C7F
:104DB0008842E6D01B68F1E73C33E35CFE2B07D06A
:104DC0000133064A137025600A4B1C602000BAE7C5
:104DD000024B00221A70F6E7AD4B00102DFC0020AC
:104DE000741D0210901D0210A0400210B41D02108C
:104DF000C81D0210A8E90020014B18607047C0468A
:104E0000A4E9002010B5041E10D03923C35CDA07D2
:104E10000BD40122134339228354C369002B00D0E1
:104E2000984703212000FFF7D3FE10BD01480FF083
:104E300015FBFAE7F81D021010B5041E0FD0392338
:104E4000C35CDA070AD501229343383283541B0727
:104E500009D4E369002B01D02000984710BD034816
:104E60000FF0FCFAFAE706F0BFFCF2E7141E02109E
:104E700010B5041E28D04368002B12D13923E35CFF
:104E8000DB0713D4114B1B68A34213D0104B1B68D4
:104E9000A34213D0002B17D01A68A24212D01300DD
:104EA000F8E704300021FFF784FEE7E72000FFF772
:104EB000C3FFE7E70020FFF79FFFE7E72268044B07
:104EC0001A6001E022681A6010BDC046A4E9002003
:104ED000A8E9002010B5041E04D03923C35C5A078A
:104EE00004D510BD09480FF0B9FAFAE704221343BC
:104EF0003922835406F082F803212000FFF768FE70
:104F0000236A002BEDD020009847EAE7341E0210F8
:104F100010B500280CD03923C35C5A0707D50422EA
:104F2000934335328354036A002B00D0984710BD59
:104F300001480FF093FAFAE7581E0210021E0BD038
:104F4000064B1868002808D03C23C35C0133DBB251
:104F5000934202D00068F5E700207047A8E90020DE
:104F600030B504AC2578002404604160028143819F
:104F700003AB1B780373457301238373C47330BD84
:104F800002E0C91A89B20068002802D043898B4226
:104F9000F7D9002A00D011807047000010B5FCF747
:104FA000FDFA034B01221A70FCF7FAFA10BDC04655
:104FB0002FFC002070B500281AD080235B02994294
:104FC00021D2002921D08CB203891B199BB2A342A4
:104FD0001DD30C254557002D0DDB002A19D0426842
:104FE000511A4160428914194481038100200BE069
:104FF00009480DF0BBFA4268511A020010328A4289
:10500000EFD9012000E0012070BD0020FCE7012065
:10501000FAE70120F8E7C046F839021010B5FCF7AE
:10502000BDFA084B00221A70FCF7BAFA064B186852
:1050300000E0C068002804D0436F002BF9D000F0D6
:10504000D5FE10BD2FFC0020C8FB0020F0B583B0BA
:1050500007000E001500412A01D0012A0FD10720B8
:10506000FFF764FD041E07D0002301930095330071
:1050700032003900FFF774FF200003B0F0BD014893
:105080000DF074FA7C1E021010B50022FFF792FF9B
:1050900010BD000010B5002814D080235B02994297
:1050A00018D2002918D08AB2438993420DD344689C
:1050B000A446614441609B1A438103899A1A028184
:1050C000002010BD05480DF051FA05480FF0C6F953
:1050D0000120F6E70120F4E70020F2E7F83902109A
:1050E000901E021010B5002902DBFFF763FF10BD10
:1050F0004942FFF7CFFFFAE710B50122FFF7F2FFB1
:1051000010BD000070B5051E01D000260CE0194846
:105110000DF02CFA18480DF029FA29000820FFF7A5
:1051200017FD0136F6B22500002D21D0FCF736FA26
:10513000AC7B002CEED0013CE4B2AC73FCF730FA4F
:10514000002C15D12C682A7B0F231340022BE4D0AE
:10515000012B05D0002B08D12800FFF71FFBE0E74B
:1051600029000720FFF7F4FCDBE704480DF0FEF907
:10517000300070BDF8390210B01E0210C81E0210B7
:10518000F0B5D6464F464646C0B582B005000F0082
:10519000904684B2C1235B009A4241D011D8012AC3
:1051A00002D0412A00D07DE0424639000020FFF7BE
:1051B0004DFF8146484602B0E0BCBA46B146A8461B
:1051C000F0BDA0239B009A426CD1E31C03218B43CA
:1051D0009BB2FA1C94B28C431B199BB2180010307E
:1051E00080B28A43934260D3824261D8FFF7B2FB18
:1051F00081460028DED029001031494403310324C0
:10520000A14300230193434600933B003A00FFF77C
:10521000A7FE4B465B682342CCD027480DF0A6F989
:1052200000250023994626E0FFF7B8FE4B46002BE9
:1052300002D04846FFF766FFA946BBE7B6B2210099
:105240001031691803310324A1430023019343461D
:10525000009333003A002800FFF782FE6B68234278
:105260001BD14B46002B1BD053461D60BF1BBFB24A
:105270000024002F9ED0AA460820FFF757FC051EE9
:10528000D2D0E31C032293439AB20C4B9B1A9BB2DD
:105290001E1CBB42D2D93E1CD0E709480DF066F96E
:1052A000A946E3E707480DF061F90023994681E735
:1052B000002399467EE7C046401F0210EC0500001F
:1052C000DC1E02106C1F021070B5041E12D0008983
:1052D000884220D90D006389AB420ED2ED1AADB2DF
:1052E00023890A1A9B1823812468002CF3D11348C0
:1052F0000DF03CF912480DF039F9227B120701D16B
:10530000AB4209D1658125812068002801D0FFF7D3
:10531000F9FE0023236070BD6368191B691889B208
:105320002000FFF77DFA002804D08442EAD0054827
:105330000DF01CF904480DF019F9C046A01F021029
:10534000881F0210D41F0210B81F02100300002093
:1053500002E0013080B21B68002BFAD170470000D8
:1053600010B5041E09D0FCF719F9A37B0133A37310
:10537000FCF716F9A37B002B00D010BD01480DF0FF
:10538000F5F8C046F01F021010B5002801D0002922
:1053900008D10C480FF062F80FE003890C891B1943
:1053A000038110000268002AF7D1038942899342E1
:1053B00004D10A899B180381016010BD02480DF0D9
:1053C000D5F8C046042002103C20021010B50C0095
:1053D000FFF7DAFF2000FFF7C3FF10BDF8B5CE4698
:1053E000474680B506000D1E914698460AD00A89A8
:1053F0004A4507D300280BD002894B449A4207DB69
:10540000002726E03D480FF029F81020404270E0C8
:105410003B480FF023F8102040426AE039480DF075
:10542000A5F839480DF0A2F84B46002B36D10027DD
:10543000424539D0002D03D06A892B899A4245D044
:10544000002E03D0728933899A4248D04B46002BF4
:105450004ED0738942469B1A6A89D21B934200D36D
:1054600013004C46994500D91C00706840446B6895
:10547000D91922000EF016FEA0443F194B461C1B02
:10548000A3B2994672894245C8D36B89BB42C8D33F
:10549000CED82D68002DC7D00027C9E71B480EF0D5
:1054A000DDFF1020404224E03668002E02D00023A9
:1054B0009846BFE74B46002B02D100239846B9E738
:1054C00013480EF0CBFF1020404212E02B68002B57
:1054D000B6D010480EF0C2FF0620404209E0336803
:1054E000002BB3D00B480EF0B9FF0620404200E07D
:1054F0000020C0BCB946B046F8BDC0466C200210C2
:10550000A0200210D0200210E82002100421021076
:10551000142102102421021010B5002904D00A8998
:105520000023FFF75BFF10BD02480EF097FF10202D
:105530004042F8E75C210210F8B5CE46474680B5F8
:105540000500884691461900002805D04346002BE7
:105550000BD00027002625E019480EF07FFF00271A
:105560003800C0BCB946B046F8BD16480EF076FF0C
:105570000027F5E76C89641AA4B2A14500D24C4615
:10558000434698196B689C46614422000EF08AFDE0
:10559000E719BFB23619B6B24B461C1BA3B29946E7
:1055A00000212D684B46002BDAD0002DD8D00029E1
:1055B000E0D06B898B42DDD8C91A89B2F1E7C046C9
:1055C000782102109821021010B5FFF7D9FC10BD08
:1055D000F8B5CE46474680B5050088461600914688
:1055E000002806D000290AD0038993420DD3002752
:1055F0001DE018480EF032FF1020404223E016480C
:105600000EF02CFF102040421DE014480EF026FF43
:105610000120404217E012480CF0A8FF4346D91978
:10562000220068680EF03EFD361B3F192D68002EE3
:1056300006D0002DEFD06C89B442EFD33400EDE7F3
:105640004F4504D10020C0BCB946B046F8BD05485E
:105650000CF08CFFBC210210D4210210F0210210AA
:105660001022021028220210F0B583B00F0014009F
:1056700019006B469A1DFFF7A7FF061E24D002896A
:105680006B46D88803199A4221DB7389984212D25B
:105690001A1A944212DD95B273689C4660442A003F
:1056A00039000EF0FFFC621B92B27919002A07D173
:1056B000002003B0F0BD07480CF058FF2500EBE7D1
:1056C0003068FFF785FFF4E701204042F1E7012051
:1056D0004042EEE74022021070B50B001500118920
:1056E0001A00FFF74DFD041E04D02900FFF714FF38
:1056F000002801D1200070BD01480CF037FFC046E2
:105700005822021010B582B014006B469A1DFFF7A4
:105710005BFF002807D042896B4606331B889A42FC
:1057200001D94268D45402B010BD000010B5027A0D
:10573000002A07D0134B5C683C23E35C0133DBB2E7
:105740009A4213D1002906D0002811D00368002BFB
:1057500010D000200BE000280ED00368002B0DD0E5
:10576000084A526993420BD0080000E0002010BDA7
:105770000120FCE70120FAE70120F8E70120F6E725
:105780000120F4E7884F0020F0B5D6464F4680B59B
:1057900083B00500244B1968586907F0A8FB07007F
:1057A0006B685E7A214B1C6800239946019313E0D5
:1057B00063699A46002B0DD06B6899461C4B2A00F2
:1057C0002100A069D04700281AD16B684B4528D129
:1057D000022399460194E468002C1CD0237C9E424D
:1057E000F8D139002000FFF7A1FF0028F2D0637C38
:1057F000DB07DDD50C4B1B6962689A42EAD1D7E71B
:10580000019B002B05D0E268DA60084B1A68E26061
:105810001C6001239946484603B0C0BCBA46B14655
:10582000F0BD04480CF0A2FE884F002090F9002043
:10583000984F00206C22021010B5002814D0036885
:10584000002B11D000290FD00B68002B0CD0074B78
:105850001B6800E0DB68002B06D01A680468A242CF
:10586000F8D10A681A60F5E710BDC04690F900202B
:105870007047000010B5002409E0154B154A1A8046
:105880000DE00134A4B28023DB019C421DD2104AFA
:10589000138801339BB213800F4A9342EDD000204E
:1058A00003280FD883000D4A9B581B68002B06D095
:1058B000D98A074A12889142E3D0DB68F6E70130C3
:1058C000C0B2EDE7024B188810BD0020FCE7C046CF
:1058D000101F002000C0FFFFFFFF00005029021032
:1058E00010B5002903D106480CF040FEC06800281E
:1058F00005D0C36F8B42F9D10023C367F6E710BD13
:10590000B822021070B5051E04D0037D012B04D10E
:1059100001240DE008480CF029FE08480CF026FE92
:10592000A200074BD35818682900FFF7D9FF0134AC
:10593000032CF5D970BDC046E0220210EC22021003
:105940005029021010B50100037D012B03D0032064
:10595000FFF7FEF810BD01480CF008FE042302100A
:1059600070B5041E09D0037D042B19D0072B1ED05F
:10597000032B05D00025280070BD12480CF0F6FD61
:1059800003F080FB051E01D105232375002D15D0E2
:105990006B1CF0D1638B0822134363830025EAE775
:1059A00003F070FB051EF1D105232375EEE703F02C
:1059B00069FB051EEAD109232375E7E7200003F000
:1059C000D9FCD8E7E022021010B5084B186800E0B7
:1059D0002000002809D0C468438B1A07F8D5082294
:1059E00093434383FFF7BCFFF2E710BDC8FB0020E1
:1059F00010B5FCF773F98004800C034B9C4660449F
:105A0000024B188010BDC04600C0FFFF101F0020D1
:105A100010B50100037D012B03D00220FFF798F899
:105A200010BD01480CF0A2FD2023021070B5060045
:105A30000D1E0ED0002E0ED0337D002B11D1002A6A
:105A400015D00020032816DC830025495B581B680D
:105A500021E0244DEEE724480EF000FD10204042E6
:105A600017E022480EF0FAFC0620404211E0FFF752
:105A700001FF021E25D0002D03D02B68002B00D083
:105A80003360F2821A4B1A68F2601E6003F03EFF28
:105A9000002070BDDB68002B11D0DC8A9442F9D164
:105AA000002B11D01968002911D0002D12D02C68BC
:105AB000002C12D0A142EDD108204042E9E701308C
:105AC000C0E702204042E4E708204042E1E7082026
:105AD0004042DEE708204042DBE708204042D8E7AA
