:020000041000EA
:1000000000B5324B212058609868022188439860DF
:10001000D860186158612E4B002199600221596106
:100020000121F02299502B49196001219960352056
:1000300000F044F80222904214D00621196600F024
:1000400034F8196E01211966002018661A6600F04E
:100050002CF8196E196E196E052000F02FF8012189
:100060000842F9D1002199601B49196000215960AB
:100070001A491B48016001219960EB211966A021F2
:10008000196600F012F800219960164914480160C1
:100090000121996001BC002800D000471248134993
:1000A000086003C880F30888084703B5996A0420EC
:1000B0000142FBD001200142F8D103BD02B5186610
:1000C0001866FFF7F2FF186E186E02BD00000240BE
:1000D000000000180000070000035F00212200005C
:1000E000F4000018222000A00001001008ED00E03C
:1000F00000000000000000000000000074B24E7A12
:1001000000200420F7010010C3010010C5010010F9
:10011000C1010010C1010010C1010010C101001097
:10012000C1010010C1010010C1010010C701001081
:10013000C1010010C1010010C9010010CB01001065
:10014000CD010010CD010010CD010010CD01001037
:10015000CD010010CD010010CD010010CD01001027
:10016000CD010010CD010010CD010010CD01001017
:10017000CD010010CD010010CD010010CD01001007
:10018000CD010010CD010010CD010010CD010010F7
:10019000CD010010CD010010CD010010CD010010E7
:1001A000CD010010CD010010CD010010CD010010D7
:1001B000CD010010CD010010CD010010CD010010C7
:1001C00000BE00BE00BE00BE00BE00BEEFF3058054
:1001D000103800BEF2EB8871D0240610F02406100F
:1001E0003402001090A31AE700201F49086006C8D7
:1001F00081F3088810471D48006800282FD10DA4FE
:100200000ECC002902D000F012F8F9E71849194A7B
:10021000002000E001C19142FCD1174988471749ED
:1002200088471749884700BEFDE701C901C29A42C5
:10023000FBD37047F0240610C0000020E8290020FE
:10024000384E06100000042000000420384E06102E
:10025000001004200010042000000000704709482E
:1002600001F0DAFF0047000008ED00E0000000D0D8
:10027000082A002094FE0020DD260110CD12001077
:100280009B2601105756000006005250ABB3605336
:1002900034FE051006005250861C030244FE051071
:1002A000060052505422A29D58FE051005005250DF
:1002B000DE65F468384E0610F8B5C04610B5064C39
:1002C0002378002B07D1054B002B02D0044800E017
:1002D00000BF0123237010BD602B00200000000030
:1002E000A0140210044B10B5002B03D0034904489E
:1002F00000E000BF10BDC04600000000642B0020DD
:10030000A014021010B5214814F060F9204B1B789E
:10031000BFF35B8FDB0706D51E4A80231B0101213B
:10032000D1541D4810BD1A4816F04CFC0028F3D0DB
:100330000F21184B0FE000221A70642058609A6059
:10034000DA601A615A619A6508381A545D325B386E
:100350009854603301390029EDDA0F210F4B0AE080
:1003600000225A709A70DA705A601A725A729A722F
:10037000DA72203301390029F2DA064A80231B01A0
:100380000021D154024816F039FCC5E7A014021030
:100390007C2B00209C2B0020A81402109C310020F4
:1003A00070B504005D23C35C002B00D08CE05C338F
:1003B000C35C002B33D0D0231B065A68C368DA40D5
:1003C000012313405A425341DBB24370002B06D045
:1003D0008278002A03D1027801214A400270A3707A
:1003E0002378002B5DD0A5686B1CA36062696068F0
:1003F000010051438B4201DB002A41D121690029D0
:1004000018D125001835A06D88425DDD8B005A5942
:1004100001239340D022120693610131F4E7D023E7
:100420001B065A68C368DA40012313405A425341FD
:100430000370D5E7830018184000490013F0C2FA92
:100440000100280013F0BEFA00293DD1250018351F
:10045000A06D05E001239340D022120653610131C3
:10046000884231DD8B005A59D0231B065B68D3408C
:10047000DB07EFD501239340D02212069361EEE70C
:100480008B4221D125001835A06D002398421BDD39
:100490009A00515901228A40D02109064A6101334C
:1004A000F4E7A368002B0FD00023A36025001835C4
:1004B000A06D07E09A00515901228A40D021090617
:1004C0004A6101339842F5DC70BD000010B50400AC
:1004D0000A22094913F0CEFE96218901074812F03D
:1004E00079F80221082001F0CDFF0221092001F056
:1004F000C9FF200010BDC046D4190210008003407F
:1005000010B51D4B1B78BFF35B8FDB0701D51B4874
:1005100010BD194816F056FB0028F8D00F21174BD4
:100520000FE000221A70642058609A60DA601A6145
:100530005A619A6508381A545D325B3898546033B2
:1005400001390029EDDA0F210D4B0AE000225A7023
:100550009A70DA705A601A725A729A72DA7220338A
:1005600001390029F2DA054A80231B010021D15408
:10057000014816F043FBCAE77C2B00209C2B00208F
:100580009C31002070B588B001AC104B0C332200B8
:1005900070CB70C270CB70C21B68136000290CD086
:1005A000002300E001331B2B0CD89A0001A95258FC
:1005B0008242F7D1581C08B070BD0138800001ABF1
:1005C000C058F8E701204042F5E7C046D4190210B0
:1005D000F0B595B01F0019686D4814F027F8386819
:1005E0001DF0DCFF461E79686A4814F01FF8786831
:1005F0001DF0D4FF0021FFF7C5FF0190B9686648E0
:1006000014F014F8B8681DF0C9FF0290F968634847
:1006100014F00CF8F8681DF0C1FF039060493869C8
:100620001FF0DCF8002834D15E4813F0FFFF0125ED
:100630005B4978691FF0D2F800282FD15A4813F08F
:10064000F5FF0124594B1B78BFF35B8FDB072AD5DD
:10065000B86953491FF0C2F8002857D1002304AAF3
:1006600053709370D3700593137253729372D37255
:10067000202204A90CA813F0FDFD30003030400109
:100680004B4BC0181E220CA913F0F4FD494815B0BD
:10069000F0BD494813F0CAFF0025C9E7474813F0E9
:1006A000C5FF0024CEE7414816F08CFA0028CFD0D1
:1006B0000F213F4A0FE000231370642050609360C5
:1006C000D360136153619365083813545D335B380D
:1006D000D054603201390029EDDA0F21384B0AE09D
:1006E00000225A709A70DA705A601A725A729A72AC
:1006F000DA72203301390029F2DA2D4A80231B01F6
:100700000021D154294816F079FAA1E7002304AA60
:1007100053709370D3700593137253729372D372A4
:10072000019A0892029A0992039A0A9204AA1577EA
:1007300054771373089B0193180001F067FF089B1F
:10074000019301242300019A9340D0252D06AB622A
:10075000089B019300220121180001F0ABFE089BC9
:1007600001936B68019AD3401C4063425C4104AB27
:100770001C70202219000CA813F07CFD30003030D2
:1007800040010B4BC0181E220CA913F073FD7DE72E
:10079000B8140210C4140210DC140210E814021081
:1007A0007C1D0210F41402100C1502107C2B00208A
:1007B0009C2B0020A8140210001502102415021012
:1007C0009C31002030B591B004000D000E4940224C
:1007D0002831684613F04EFD002D0CD000203F2834
:1007E0000ED883006A469B58A34201D00130F6E739
:1007F000013011B030BD013CA4006B46E058F8E771
:1008000001204042F5E7C046D4190210F0B5C646B3
:1008100000B59EB006000C0015005F4B1B78BFF3BF
:100820005B8FDB070CD50F2E3DD93300103B0F2B10
:1008300000D881E0002080B21EB080BCB846F0BD78
:10084000554816F0BFF90028EDD00F21534B0FE0AB
:1008500000221A70642058609A60DA601A615A6146
:100860009A6508381A545D325B3898546033013900
:100870000029EDDA0F214A4B0AE000225A709A70E3
:10088000DA705A601A725A729A72DA722033013927
:100890000029F2DA414A80231B010021D1543E484D
:1008A00016F0ACF9BFE706AB98467100891949010B
:1008B0003A4E71186022180013F0DCFC822013F00D
:1008C000A3FC07005D234246D35C002B2AD1464699
:1008D0000121D068FFF756FE03005C22B25CB16DC7
:1008E0000391029272690192326900922D4A82212B
:1008F00038001EF0ABFE00261C9BB34216DDB31D74
:100900009B0006AA98580121FFF75CFF0300264AC6
:10091000042105A81EF09AFE05A938001EF0D8FE95
:100920000136E9E7214A82211EF090FE3A002900B3
:10093000200013F015F87EE706AF20367601174841
:1009400086193B0007CE07C307CE07C306CE06C3F2
:10095000782013F059FC06003B7B002B17D10121B6
:100960003869FFF70FFE03003A7F797F0391029207
:10097000BA6901927A6900920D4A782130001EF01E
:1009800065FE32002900200012F0EAFF53E7074A13
:1009900078211EF05BFEF4E77C2B00209C2B0020CE
:1009A0009C310020381502100C160210B0150210F0
:1009B000C4150210F0B5DE464F464646C0B5B4B089
:1009C00000AF91461E001968B14813F02FFE306841
:1009D0001DF0E4FD431E98467168AE4813F026FEF4
:1009E00070681DF0DBFD0021FFF7CCFDF860B168F9
:1009F000A94813F01BFEB0681DF0D0FDB860F16887
:100A0000A64813F013FEF0681DF0C8FD7860316948
:100A1000A34813F00BFEA34930691EF0DFFE002847
:100A200017D101239B460025112D1ADC6C1D2100D6
:100A30009D4813F0FBFDA400341921689B4813F076
:100A4000F5FD20689A491EF0C9FE002804D0013542
:100A5000EAE700239B46E6E72900964813F0E6FD07
:100A600000E000256B1EAA000732D208D2006946BA
:100A70008A1A95466E46002B03DB002102C2013B19
:100A8000F9E70024A5420CDD631D9B004A46D058BF
:100A90001DF084FD0021FFF795FEA300F050013406
:100AA000F0E72900844813F0C1FD844813F0BEFD2F
:100AB0000024A54206DDA3009959814813F0B6FD34
:100AC0000134F6E70A2013F01BFD7E4B1B78BFF3C1
:100AD0005B8FDB072DD5002D5ED100233B74642294
:100AE0007A61BB61FB613B627B62BB66083A103591
:100AF00079198B545D335B3ACA545F3260246319B1
:100B0000D81913F0B7FB43465800404440016E4BE0
:100B1000C0185E226319D91913F0ACFB6B4813F0AF
:100B200085FD6B48BD4634B0E0BCBB46B146A84627
:100B3000F0BD644816F046F80028CCD00F21624B77
:100B40000FE000221A70642058609A60DA601A611F
:100B50005A619A6508381A545D325B38985460338C
:100B600001390029EDDA0F215A4B0AE000225A70B0
:100B70009A70DA705A601A725A729A72DA72203364
:100B800001390029F2DA504A80231B010021D15497
:100B90004C4816F033F89EE700233B7464227A61D8
:100BA000BB61FA68FA61BA683A627A687A62BB66CF
:100BB000BD669D4208DD9A0091599A1D9200102051
:100BC000381881500133F4E75C235A461021781815
:100BD000C25401330022C2540025B96EA94211DD6E
:100BE000AC1DA4001026BB191B59FB60180001F0B6
:100BF0000DFDBB191A5901239340D02212065362EE
:100C00000135EAE7002291420FDD9300C0201B1856
:100C1000B0388446BC446344A83B18680123834031
:100C2000D020000643610132EDE7FB69FB6018004C
:100C300001F0ECFCFB69FB6001242300FA6893409F
:100C4000D0252D06AB62FB69FB6000220121180054
:100C500001F030FCFB69FB606B68FA68D3401C4014
:100C600063425C41BC7460221025791960246319C9
:100C7000D81913F0FFFA4346580040444001124B84
:100C8000C0185E226319D91913F0F4FA46E7C0467A
:100C9000B8140210101602101C1602102C160210A6
:100CA000381602107C1D0210481602106016021041
:100CB0007816021088160210A4160210C016021030
:100CC000D41602107C2B00209C2B0020D81602107A
:100CD000A81402109C31002010B515F059FF094BE3
:100CE00002221A60084B1A688023DB015340E0227D
:100CF000D2011340054A136020220549054811F02E
:100D00009FFB10BD00E0044000C0044000D0044040
:100D1000601E00200D08001010B50321014811F0DD
:100D2000B3FB10BD3C1A021070B50D000024002664
:100D30000FE00A2013F0E4FB06E07C2013F0E0FB58
:100D400002E07C2013F0DCFB1F2323401F2B14D078
:100D50000134A54217D963000B4AD15A0B4813F04E
:100D600065FC07232340072BE3D0112CE5D0022C90
:100D7000E7D0202013F0C4FBE6E701363100044839
:100D800013F054FCE4E770BD00F01F10E4160210ED
:100D900084590210F0B5DE4657464E464546E0B54A
:100DA00083B000AF05008A4693467B600268D30F8C
:100DB0009B185B103A6B5A44904653439B00073391
:100DC000DB08DB006A46D31A9D466C46684813F080
:100DD000FDFB00239C4622E0D31C1B18961DB60089
:100DE00076589B001E5101328B6D9342F4DC020059
:100DF0001232920013515C23CB5C002B24D00300F1
:100E000013339B0001221A515D23CB5C002B21D0B0
:100E1000143080000123035101239946CC44DC4562
:100E20001DDA634658015900614449015144DB0110
:100E3000CA681A51431C9B000A691A51831C9B0003
:100E40004A691A510022CFE7030013339B000022A6
:100E50001A51D9E71430800000230351DCE7002148
:100E60000EE0D81C80000026065129E0181D8000E5
:100E7000002606512BE005339B0000221A51013158
:100E80003B6B99422BDA4A012868C30F1B185B1091
:100E900058464343D31878688446624498001669DC
:100EA0000651581C800056690651981C80009669AE
:100EB0000651107F0028D4D0D81C8000012606518E
:100EC000507F0028D2D0181D800001260651127BC9
:100ED000002AD0D005339B0001221A51CFE72B689E
:100EE000424653430733DB08DB006A46D31A9D466C
:100EF0006E4600212A6843465A43D30F9B185B1065
:100F0000994209DA8A004B001059F0541259121212
:100F10000133F2540131EDE7E968164813F086FB1E
:100F2000EFF3108472B680214901E86820F038FAA6
:100F300084F31088104813F049FB104813F046FB67
:100F4000EFF3108472B642462B685A43E8683100CA
:100F500020F0DEF984F31088094813F037FBBD4612
:100F600003B0F0BCBB46B246A946A046F0BDC046A1
:100F7000EC160210FC1602101C17021024170210A7
:100F800044170210F0B5DE4657464E464546E0B5DA
:100F9000C3B0050093460B68DC0FE418641054439B
:100FA00062005F4B9A5A9446621C52009F5AA21CE0
:100FB00052009A5A9246210012314900585A002193
:100FC00008E0CB1C1B195B00554AD25A8E0032AB8D
:100FD000F25001318142F4DB230013335B005049AE
:100FE000CB5A012B26D000261AAB0021197064229F
:100FF0001B921C911D911E911F913091083A99549A
:10100000013290465C3A914642464946995414341E
:101010006400434B1B5B012B0ED103321AA928003D
:1010200013F028F9280043B0F0BCBB46B246A946ED
:10103000A046F0BD0126D7E7002302AA137064245E
:1010400003940493624605920697524607921893BA
:10105000189000220BE093000133FF3302A98C4665
:101060006344403B1C68931D9B005C5001329042DE
:10107000F1DC5C2302AAD6540133002202A9CA542F
:1010800000270FE0BC1DA40002ABE3580193180039
:1010900001F0BCFA02ABE25801239340D0221206C1
:1010A000536201371899B942ECDC00220DE093003D
:1010B0000133FF3302A884466344E83B18680123E8
:1010C0008340D0200006436101329142EFDC059B52
:1010D0000193180001F09AFA059B01930124230063
:1010E000019A9340D0273F06BB62059B01930022E3
:1010F0000121180001F0DEF9059B01937B68019A3C
:10110000D3401C4063425C4102AB9C705946054889
:1011100013F08CFA602202A9280013F0ABF881E7E3
:1011200000F01F104C170210F0B5D6464F46464649
:10113000C0B590B00400150050010968CA0F5218DC
:1011400052105343C31859003E4A515A8A46591CFB
:101150004900515A8946991C4900515A8846D91C60
:101160004900525A012A2BD000271A1D5200354936
:101170008A5A012A26D0002605335B00314AD15A0B
:10118000002921D02900304813F050FA6B46002284
:101190005A709A70DA705A601A725A729A72DA72C7
:1011A00001321A73220023CB23C223CB23C203CBE9
:1011B00003C2200010B0E0BCBA46B146A846F0BD5C
:1011C0000127D2E70126D7E72A00204813F02EFA9C
:1011D00008AB00225A709A70DA7009921A725A7229
:1011E0009A72DA7251460C9149460D9141460E9120
:1011F0001F775E771A731F00504601F007FA012629
:1012000033003A699340D02212069046936200223E
:101210000121386901F04EF943465B683A69D340D1
:101220001E4073425E413E702900094813F0FEF9EA
:101230003B00220023CB23C223CB23C203CB03C218
:10124000B7E7C04600F01F106817021080170210A1
:101250009C1702100123002004E0CA5C101800B2A1
:101260000133DBB2062BF8D9404200B270470000D0
:10127000F8B505000F00160004000A340A22010028
:10128000200012F0F7FF6F73330AEB732E74210006
:101290002800FFF7DFFF03126B74A8740022092AED
:1012A00009D8054B9B699B06FBD42178024B19603A
:1012B00001320134F3E7F8BD0080034010B51F226E
:1012C0000A400621FFF7D4FF10BD0000F0B5C64666
:1012D00000B5D04CA54413F0B5F9CF4802F0B0FAF0
:1012E0000F21A0AB002910DB00221A706420586087
:1012F0009A60DA601A615A619A6508381A545D3248
:101300005B38985460330139ECE70F2120AB00299A
:101310000BDB00225A709A70DA705A601A725A7295
:101320009A72DA7220330139F1E7FFF7E9F8050024
:1013300040231C93B94C1D941E94F0231B06E31804
:101340001F932100B64813F071F92200B54904A893
:1013500012F0F2FA8021C9001CA8FFF7E5FC002476
:101360000F2C10DC22001CA904A8FFF70BFE600064
:1013700000194001A0AB9C4660445E2204A912F013
:1013800079FF0134ECE700240F2C0DDC6300191900
:101390004901A0AA944661441B19580128185E22ED
:1013A00012F068FF0134EFE7002608E09E4A78213A
:1013B0001EF04CF939009D4813F038F901360F2E14
:1013C00028DC102332001CA904A8FFF7ADFE74012D
:1013D00020AB9C4664441E2204A9200012F04AFF60
:1013E000782012F011FF0700237B002BDED10121B2
:1013F0002069FFF7C7F80300227F617F0391029203
:10140000A269019262690092894A782138001EF02F
:101410001DF9CFE700240F2C0CDC610120AB9C46AA
:10142000614420003030400128181E2212F022FFB3
:101430000134F0E713F006F90CF042F90CF00EF865
:101440007C4813F0C3F87C4B7C4A7D497D480CF006
:10145000CFF8431E9841C4B200281ED17A4813F039
:10146000B5F810F0DDFF794813F0B0F8FFF734FC61
:10147000774813F0ABF8FFF74FFC764813F0A6F867
:1014800001235C40002C10D080231B01EB5C002B5F
:101490000BD1642002F0D4F9F6E7694A69496E4835
:1014A00013F0C4F801235C40ECE76C4813F08EF8AD
:1014B000002398460AE05C4A82211EF0C7F83900F2
:1014C000674813F0B3F801239C46E04443460F2BD2
:1014D00042DC5E00F11849016918602204A812F08C
:1014E000C9FE46447601A0AB9C4666445E2204A930
:1014F000300012F0BFFE822012F086FE07005D234E
:10150000F35C002BD7D10121F068FFF73BF8030013
:101510005C22B25CB16D03910292726901923269F0
:101520000092504A822138001EF090F80024B36DDA
:10153000A342C4DDA31D9B0098590121FFF742F986
:101540000300494A042104A81EF080F804A93800C9
:101550001EF0BEF80134EAE7002608E0324A78219E
:101560001EF074F83900414813F060F801360F2E70
:101570002DDC04A9330030335B01EB180A0091CB5A
:1015800091C291CB91C211CB11C2740120AB9C4688
:1015900064441E22200012F06DFE782012F034FE0A
:1015A0000700237B002BD9D101212069FEF7EAFF38
:1015B0000300227F617F03910292A2690192626916
:1015C00000921B4A782138001EF040F8CAE78023B9
:1015D0001B01EB5C002B12D1254813F027F80A20E1
:1015E00002F02EF900240F2C11DC600000194001DC
:1015F000A0AB9C466044FEF7D3FE0134F3E7102213
:10160000009220ABA0A91CA8FFF7C4FBE4E70025CB
:1016100041E0C04680F7FFFF8813000000F01F1074
:10162000B8170210D0170210B0150210E017021000
:10163000C4150210F4170210102700000400400027
:10164000101802101C180210241802103018021072
:10165000481802106018021078180210AC18021016
:10166000BC180210381502100C160210D018021007
:10167000E41802102370A378002B05D063680133AF
:101680006360E378002B32D0A378002B02D1E3789B
:10169000002B70D101350F2DA1DC6C0120AB9C46D5
:1016A0006444237B002BF5D1637F002B14D0D0231F
:1016B0001B065A682369DA40012313405A425341FA
:1016C000DBB26370002BD5D02278002AD2D1A27869
:1016D00001214A40A270CDE7D0231B065A68236936
:1016E000DA40012313405A425341A370C3E704A8D0
:1016F000FEF7ECFE6368581E0A2112F063F9002918
:10170000C2D1A37A002B0ED0237A002B12D0637A99
:10171000002B17D0E37A002B24D1237F002B19D183
:101720000123E372B0E70F3104A8FFF7C7FD0123DF
:10173000A372A9E7A28A0F2104A8FFF799FD01234C
:101740002372A1E7228B032104A8FFF791FD012357
:10175000637299E7228B082104A8FFF789FD012312
:10176000E37291E70023A37223726372E372012292
:10177000E270636088E704A8FEF7A8FE002104A8D1
:10178000FFF79CFD0023E37084E7C04610B5064BCD
:101790008B4202D108F09AFA10BD044B044A18217A
:1017A000044810F07DFFC046F01E0020541A0210BD
:1017B000741B0210741A0210F8B50400204B9942F1
:1017C00012D101230B7208F0ABFA0500431C11D1B2
:1017D0001C4B186859681C4B9860D96023685B697A
:1017E000194920009847F8BD184B194A1D2119487E
:1017F00010F056FF02F0D8F806000F1E10DBFA2298
:10180000920000232800002112F09AFC36184F4164
:10181000002F0BDB002F0DDB0B4B9E60DF60DDE745
:101820000D4B0E4A3F210E4810F03AFF012676423A
:101830000C4FEFE7084B094A3F21094810F030FFF1
:10184000E01E002020290210F01E0020C01A021005
:101850008C1B0210741A0210F01A02105C1B02108A
:101860000C1B0210FFFFFF7F10B50400094B1B7813
:10187000002B08D0084901230B722368DB69200084
:101880009847012010BD02F0E5FC024B01221A70BE
:10189000F0E7C04683FE0020E01E002010B50400E3
:1018A00003689B690349984723681B6A0249200023
:1018B000984710BDF01E0020E01E00200020704759
:1018C0007047000010B502F06FF8002906DB0BD05E
:1018D000FA229200002312F0DBF810BD054B064AF5
:1018E0003F21064810F0DCFEFA21890012F092F840
:1018F000F3E7C046F01A02105C1B02100C1B02102A
:10190000083000E018000368002B03D08B42F9D1A7
:10191000002002E001600B6001207047083000E009
:1019200018000368002B05D08B42F9D10B680360C7
:10193000012000E000207047043000E01800036838
:10194000002B03D08B42F9D1002002E001600B6034
:1019500001207047043000E018000368002B05D018
:101960008B42F9D10B680360012000E00020704732
:10197000F8B506008068002833D002F015F8002979
:1019800006DB04000D0008239C46B44400220CE052
:10199000154B164A3F21164810F082FE154B164A89
:1019A0004221164810F07CFE9C4663461B68002BC3
:1019B00012D0200029009E68DF68801BB9410029F1
:1019C000F2DB34003D000E490A68496872407940F4
:1019D0000A43E3D06246E7E7002A03D010680368B1
:1019E0001360F8BD1000FCE7F01A0210201C021072
:1019F0000C1B0210A01B0210381C0210C41B02108A
:101A000020290210F0B583B0104B5C681B6800936E
:101A10000194836804E0DC689B68009301940B00E8
:101A2000002B0CD01968009C019D9E68DF68A41BE8
:101A3000BD41002DEFDCF2D1002CECD1EFE7009B93
:101A4000019C0361446103B0F0BDC046202902102F
:101A500070B506000D0002E04B682800984728008A
:101A6000FFF786FF011EF7D16C6800E02468002CA8
:101A700009D0237A002BF9D00023237221002800FB
:101A800063689847F2E72800FFF7BCFF2B696C6991
:101A900033607460300070BD034B1B680220184037
:101AA000431E9841C0B2704700C0064010B5104AAE
:101AB000104B12184B419900900F0843990F50405A
:101AC00059400D4A0D4B12F03BFB03004A01C00E7A
:101AD0001043CA0E58405140094A0A4B12F030FBDD
:101AE00003004A00C00F1043CA0F5840514010BDB8
:101AF000157C4A7FB979379EB9E5E41C6D4758BF1C
:101B0000EB113113BB49D094F0B5C64600B584B093
:101B100002000B0013498C461BE0614601C900908E
:101B20008C4600210191910E9F010F439601009870
:101B300001998019794102900391110C1D040D4304
:101B400014040298039900196941801A994102000E
:101B50000B0005498C45E0D91000190004B080BC89
:101B6000B846F0BD001C0420FF1F0420F0B5CE468F
:101B7000474680B583B0804603684468009301946B
:101B800003008068D96801E001F00EFF009C019D10
:101B900023002B4302D103000B43F5D0009C019D91
:101BA000A60FAB003343A2002E002500AD185E4106
:101BB0006B0E9946F3019C464B46624613431F0049
:101BC000730EEA0113431E005B0F9C46FB00644644
:101BD0002343F20092197B41009C019D60406940C3
:101BE000260A2F063E432D0A009C24062C4344401F
:101BF00035004D40070C0E043E4307047C40754001
:101C00004646346075604C01C50E2C434001C90E38
:101C10000843B460F0601000190003B0C0BCB946BE
:101C2000B046F0BDF0B5DE4657464E464546E0B5F7
:101C300083B00190574B9B69DB0410D5564BDA6B90
:101C4000E0231340402B0AD0EFF305839846019B15
:101C5000002B0AD000239946002400258AE04F4B30
:101C60004F4A81214F4810F01BFD4F4B4C4A8621B3
:101C70004C4810F015FD4D4B1868596801F036FDC1
:101C8000EFF3108672B64A4B1B68002BFBD0BFF3F4
:101C90005F8F464B19685A688A4516D0BFF35F8F2D
:101CA000434B00221A6086F310885B46002B5ED1FE
:101CB0003E4B1A6892465F684346002BDBD03B4B95
:101CC0001868596801F07CFEDAE7BA42E6D12000D4
:101CD0002900001969412F4BDA690123134003439E
:101CE0001C000D0001F060FE02000B1E23DB0A2029
:101CF000002112184B41002B23DB002B25DB2B4945
:101D00000A604B6001994B1E4B452DD1294A202377
:101D10005B42CB181FD4116899400B0012680199DF
:101D20008A4022432B4314001D00224B1C605D603F
:101D300001239B46B2E7204B204A3F21204810F068
:101D4000AFFC012252421F4BD7E71B4B1B4A3F21DE
:101D50001B4810F0A5FC202301981B1A1168D940DC
:101D6000536883400B43D9E701239B4696E7012341
:101D70009C46E144019B994502D200239B4697E78C
:101D80002000290003B0F0BCBB46B246A946A046DD
:101D9000F0BDC0460000064000800040681C0210F4
:101DA000981D0210301D021034440210582B0020E0
:101DB000300100D0002A0020F01A0210801D02100D
:101DC0000C1B0210FFFFFF7F10B588B03B4C206852
:101DD0006168FFF799FE20606160FFF767FE049B72
:101DE0005840059B019359400490059102A800F0CA
:101DF00011F902980399FFF759FE069B0193584089
:101E0000079B01935940069007914020FFF70AFF76
:101E1000FFF74CFE049B5840059B019359400490EA
:101E2000059101F0C1FDFFF741FE069B019358406B
:101E3000079B0193594006900791EFF3108472B607
:101E40001F4B1B68002BFBD0BFF35F8F1D4B1B7814
:101E5000002B24D1032B09D85A1CD2001A498C46D6
:101E6000624452681F2A03D00133F3E701235B4227
:101E70005A1C1DD0DBB2154A13700133DB00124A25
:101E80009446634405225A6004A8FFF76FFE1022AF
:101E900004A90F4812F0EEF90A4B01221A70BFF3A1
:101EA0005F8F074B00221A6084F3108808B010BDC2
:101EB000084B094AE921094810F0F2FBE829002003
:101EC000300100D08DFE0020000003407EFE002087
:101ED000F0290020741D0210B81D0210301D0210E0
:101EE00070B586B03E4B1B78002B00D16EE01022FF
:101EF0003C4902A812F0BEF93B4B1C78E4B201F059
:101F000053FDFFF7D3FD029B5840039B01935940BB
:101F1000029003910120FFF785FEFFF7C7FD049BA8
:101F200001935840059B01935940049005912F4B14
:101F30001A78531CDB002E4958582E4B984248D033
:101F40000021FFF7B3FD029B5840039B01935940CA
:101F500002900391EFF3108672B6274B1B68002B9B
:101F6000FBD0BFF35F8F204B1B78DBB2A34213D0B3
:101F70001C4B02991A685140039A019258684240DA
:101F8000029103929A68DB68049901914A4005998D
:101F900001914B400492059302A8FFF7E7FD05006D
:101FA0000C00102202A90F4812F064F90E4A1378AF
:101FB0000133DBB21370BFF35F8F0F4B00221A6047
:101FC00086F310882800210006B070BDFFF7FCFEE4
:101FD0008DE70132D2000B000021D150B0E7C0469E
:101FE0008DFE0020F02900207FFE00207EFE0020D4
:101FF00000000340FFFFFF00300100D010B5FFF7E5
:102000006FFF10BD10B5024800F03CF810BDC0468F
:10201000F8FB002010B50822014912F02BF910BD81
:10202000F8FB002010B5002901D000230AE0114B75
:10203000114A1F31114810F033FB00240DE03732F4
:10204000C25401334A1E9A420FD90F2B0DD85A0899
:102050000B4CA25CDC07F0D40424224114000F22B4
:102060002240092AEBDC3032EAE7C0180023037073
:1020700010BDC046C81D0210201E0210D01D021047
:10208000F8FB002070B588B0040004AD002604966B
:102090000922002105A812F0E7F800960922002184
:1020A00001A812F0E1F84B232B700D22694628009D
:1020B0001FF006F9002304E05A1D69468A5CE254C9
:1020C0000133072BF8DD08B070BD0000EFF310807E
:1020D00072B6034B1B68002BFBD0BFF35F8F7047BA
:1020E0002C0100D0BFF35F8F024B00221A6080F3F7
:1020F000108870472C0100D0F8B506000C001500C0
:10210000FFF7E4FFE308F718F15C07222240012300
:1021100093400B4205D1DBB20B433B70FFF7E2FF6C
:10212000F8BD2100280010F055FBF0B583B0060083
:10213000019114001F00FFF7C9FF00E00134BC4209
:102140000CD8E308F518F35C0721214001228A40EE
:102150001A42F3D1D2B21A432A7001E00124644238
:10216000FFF7C0FF002C02DB200003B0F0BD019B95
:10217000002BF9D0089810F02DFB000070B5050079
:102180000C00FFF7A3FFE308EE18EA5C07210C4000
:102190000123A340134204D09A433270FFF7A2FFF9
:1021A00070BD034B034A2C31034810F079FAC04646
:1021B000DC1F021048200210FC1F0210002307E061
:1021C000054A9A189200BFF35F8F00211160013316
:1021D0001F2BF5D97047C04640000034054A1078DF
:1021E000431CDBB21370172B02D9130010221A7094
:1021F0007047C046081F002000B583B00100044BA3
:1022000000931F2318220348FFF78FFF03B000BD80
:1022100058200210603A002010B5010018231B88D6
:1022200014221088984710BD10B5010018231B8890
:1022300016221088984710BDF0B5C64600B50700B5
:102240000E0000250123984600E00135B5420AD270
:10225000AC003C192068FFF7DFFF20600028F4D1B4
:1022600000239846F1E7404680BCB846F0BD000028
:10227000F8B5DE4657464E464546E0B505000F0028
:1022800092460A9A934250D31A0E91461E020A9A17
:1022900000233000494611F0FBFB80466C006419B6
:1022A000A400304B9C4664446368834200D2606063
:1022B0002B1FDBB29B46012B3DD9C0239B0123433F
:1022C000802212011A60AB00274A9958002907D0D2
:1022D000506911F09FFB431C5800C0180338FDD211
:1022E00053465A0123685A40E0231A4080235B0179
:1022F00023431A605A46012A28D980239B0123438D
:10230000802212011A604346636042460023300077
:10231000494611F0BDFBAD00134B58510120F0BCF4
:10232000BB46B246A946A046F8BD104B104A332121
:10233000104810F0B5F9012FBFD1C0239B012343F2
:1023400003221A60A368DB07FCD5C9E7216879403E
:1023500003220A401A60A2680123BB401342FAD04C
:10236000CBE7C04600800040643A00207420021091
:10237000D42002108820021030B583B00C2001F068
:10238000E3FEFFF789FB00280DD0002304E099004D
:102390002D4A2E4888500133092BF8D92A4B2C4A54
:1023A0005A6203B030BD2B4B00229A6701F03EFF0A
:1023B000294B01221A60274B5B6C012BFBD1274B69
:1023C00003221A60234B9B6B012BFBD1013300933B
:1023D0000433234A0121234801F026FE05230093FC
:1023E000214A0121214801F01FFE214B00930022C8
:1023F00002210420FFF73CFF1E4D00952B00002218
:1024000001210520FFF734FF104C00942300002227
:1024100000210720FFF72CFF009423000022002159
:102420000820FFF725FF0A4B00932300002200211C
:102430000920FFF71DFF00952B0000220021062038
:10244000FFF716FFADE7C046643A0020006CDC02DF
:102450001BB70000008000403CB0004030B000409E
:10246000002F685900800240008C864700C002405F
:10247000001BB700405973078000014BC0587047DC
:10248000643A002010B58300084A944663441C68EF
:1024900040226240C02414408022520113431C6039
:1024A000C000034B9C466044416010BD04C0014025
:1024B0000040014080000B4B9C46604400290DD039
:1024C0000823002A0CD004221343026853400C2234
:1024D0001340802252011043036070470023F0E74D
:1024E0000022F1E704C00140002909D08000094B17
:1024F0009C46604480239B0118430223036070477D
:102500008000044B9C466044C0239B011843022377
:102510000360F4E704C0014070B5D0231B061B68BC
:102520009D00094C2C59204207D19B002043064CAA
:1025300018510D2000F042F970BD044B044ACC2123
:10254000044810F0ADF8C046E4FB0020E42002107F
:10255000A82102101021021010B50400D0231B0680
:102560001B689B000A4A9B5818420BD00D2000F0B4
:102570003FFAD0231B061B6805499B005A58A2430B
:102580005A5010BD034B044AD621044810F088F875
:10259000E4FB0020582102108421021010210210B7
:1025A000072303409B00C00899403C308000014B4A
:1025B000C150704700400140F8B507000C001600FC
:1025C0001D00FFF7EDFFFB089B00ED1807203840CA
:1025D00080008440002E04D080239B011D432C608A
:1025E000F8BDC0239B011D432C60F9E710B5D02333
:1025F0001B061B68002B03D0024BFFF7DDFF10BD4D
:10260000014BFAE7304101400041014010B5012380
:102610008340D0221206936293610521FFF732FFB7
:1026200010BD0000074B9B68103080001950BFF3AD
:102630005F8FBFF35F8F044B0021196082F3108816
:102640007047C04600ED00E0240100D01F23181A97
:102650007047000010B5091A081F0A4B9C466144D8
:10266000094A914208D8C30706D440104005400DDE
:10267000064B184380B210BD054B064AA3210648FD
:1026800010F00EF8FC070000FE0F000000E0FFFF56
:10269000DC210210542402100C22021010B5091A79
:1026A00004394C08090B08D14905490D064A114364
:1026B0000180064B2343438010BD054B054AAB21E7
:1026C00005480FF0EDFFC04600F0FFFF00F8FFFFE8
:1026D00054220210282402100C22021001238340ED
:1026E000034A10681840431E9841C0B27047C04664
:1026F00000E100E0002904D0034B1860034B186090
:102700007047034B1860FBE780E200E000E100E067
:1027100080E100E010B5012383401800FFF7EAFFD5
:1027200010BD000001238340014A13607047C0467A
:1027300000E200E0024B9B6810308000C0587047F8
:1027400000ED00E010B5FFF7F5FF002805D0054BC0
:10275000C01A2F2803D8012010BD0020FCE700205C
:10276000FAE7C0460C1F002070B504000D00EFF31F
:10277000108672B60C4B1B68002BFBD0BFF35F8F2B
:102780002000FFF7D7FF094B984201D0A84205D19E
:10279000320029002000FFF745FF70BD044B054AB9
:1027A000862105480FF07CFF240100D0CD010010E8
:1027B00064220210882402100C220210F0B5DE46BA
:1027C00057464E464546E0B589B081460191150011
:1027D000EFF3108A72B6744B1B68002BFBD0BFF36B
:1027E0005F8F724B0027DF57002F40DB7C00E4191E
:1027F000A4006F4824180622A2566C4B1A706D4B29
:102800009A684B4610339B00D35898461E001B1AFB
:102810002F2B38D9684B98452FD105AE674B3380A5
:102820007B009B46D8198000614B9846404402309B
:102830006349FFF70FFF7080624BB380FF23B371D2
:10284000F571019B07935F44BF0047440ECE0EC74E
:1028500001231C43A046524641464846FFF7E2FE8C
:1028600009B0F0BCBB46B246A946A046F0BD564BE7
:10287000564AD72156480FF013FF564B534ADE21D4
:1028800053480FF00DFFC04340440C2111F0C2F833
:10289000002912D101239E43B34633000026DA7982
:1028A000AA4211D90621595600290CDB4A005218B8
:1028B00092001E003E4B9B18F1E7474B434AEA212A
:1028C00043480FF0EDFE1E00002E3AD005AB434A00
:1028D0001A80813A5A800623F3560293002B17DAA6
:1028E0003F4805AB9B469880029A9A71DD71019A28
:1028F0000792301D2100FFF7ADFEB080B7717B005D
:10290000DB199B002A4FFF185B4607CB07C7A2E7DE
:102910007800C0198000264BC0180430321DB388DF
:10292000D90A1C2907D15B055915023149005118F4
:10293000FFF790FED5E72B4B2B4AB12124480FF02F
:10294000AFFE05AE1D4B33807B000293D81980008B
:10295000174A9046020042440392901C1849FFF720
:1029600079FE7080039A101D5946FFF773FEB08000
:102970001E4B5A464146521A524153431B0DB371E6
:10298000F571019A0792029B9C466744BF00474439
:102990000ECE0EC7114B5A461380813B5380012344
:1029A0001C43A04657E7C046240100D086FE002005
:1029B0000C1F002000ED00E0CD01001000A1FFFF82
:1029C0003C1F002001BDFFFF9C220210702402105A
:1029D0000C220210C4220210EC2202100148000056
:1029E00001BD00006023021060240210AAAA0000AA
:1029F000F0B5CE46474680B583B006000D00EFF334
:102A0000108872B6564B1B68002BFBD0BFF35F8F4C
:102A1000544B9A6834001034A300D758524B9F424D
:102A200007D0AF4200D198E00197504BFB1A2F2BF3
:102A300009D9424639003000FFF7F4FD03B0C0BCAD
:102A4000B946B046F0BD3000FFF748FE8146002190
:102A50003000FFF75FFEBFF35F8FEFF305810029C2
:102A600001D08C4211D10123019C9C430022A36818
:102A7000AB4212D00622A256002A0DDB53009B184F
:102A80009B002200394CE418F1E73621384B394AD3
:102A9000FF3139480FF004FE2200AB4256D1062523
:102AA0006557002D38DB6B005B199A002F4B9B1884
:102AB0009A68A260DA79E27106229A56A2719B792D
:102AC0005BB2002B0FDA2D48A0806B005B199B00D6
:102AD000264AD3182A4A1178997115704946300050
:102AE000FFF718FEA5E7201D6B005B199B001F4A2E
:102AF0009B181A1D9B88D90A1C2907D15B055B15F9
:102B0000023359005118FFF7A5FDDDE71D4B1E4AA2
:102B1000B12119480FF0C4FD002912D1002A0ED0AE
:102B2000FF239371194B9380154A1378A371184BA7
:102B30000E49641A644163431B0D1370CEE70A4FBC
:102B4000F2E7201D1349FFF7A9FDC7E76A21124BE1
:102B5000084AFF3108480FF0A3FD034F69E7C0465C
:102B6000240100D000ED00E0CD0100100C1F00207A
:102B700078230210402402100C22021001BD000034
:102B800086FE0020602302106024021001BDFFFFBA
:102B9000AAAA0000461F0020AC23021010B5032390
:102BA00004009C43064A9446644422681840C000CE
:102BB000FC3383409A43130081400B43236010BDD4
:102BC00000E400E070B5012101432E4BCB1A2F2BFE
:102BD00028D8EFF30583002B2BD0EFF3108C72B6BF
:102BE000294A1268002AFBD0BFF35F8F274A0400EE
:102BF000244D641B64416243120D54B2244A92680E
:102C00009B00D2588A421BD00022032A32D853009C
:102C10009B189B001B49CB189B795BB2A3421FD02A
:102C20000132F2E7C7211B4B1B4A49001B480FF03A
:102C300037FD92211A4B184AFF3118480FF030FD2A
:102C4000134A92681749D150174B1A7882711C7039
:102C5000BFF35F8F0C4B00221A608CF3108870BD9D
:102C60000D005300991889006918FF268E710F4ACC
:102C70008A80E9E7D1210E4B074A490007480FF047
:102C80000FFDC0460C1F0020240100D0AAAA00009E
:102C900000ED00E0B42302100C2402100C220210FC
:102CA000DC230210CD01001086FE002001BDFFFFD5
:102CB000E82302100022044B02E0044902C301325F
:102CC000072AFAD97047C04600E400E0808080807F
:102CD00010B5FFF7BBFC01000148FFF74FFA10BD2C
:102CE00092FE002000B583B00100064B009305233F
:102CF00000220548FFF719FA002801DB1F23181AE4
:102D000003B000BDF023021092FE002070B5040055
:102D10000E001500FFF762FA0100200000F006F82F
:102D2000A680E580BFF35F8F70BD0000024B9C461C
:102D300061448900016070474000003410B5040010
:102D4000FFF74CFA01002000FFF7F0FFFF2323718B
:102D5000BFF35F8F10BD10B50400FFF73FFA01000D
:102D60002000FFF7E3FFFF23237100236371BFF30C
:102D70005F8F10BD034B9C46614489000160BFF327
:102D80005F8F70474000003410B504000120FFF74A
:102D900033FA01002000FFF7EDFF10BD70B505000C
:102DA0000C00080000F000FF0949200000F040FE80
:102DB000FFF714FA074B9C466044800068602C754E
:102DC000D0231B061B786B75A400034BE55070BD28
:102DD000E13000104000003418EC00200A4B1A6863
:102DE000EFF3108172B61368002BFCD0BFF35F8F36
:102DF000054B1B68BFF35F8F00221A6081F31088B8
:102E000040BF00200021704708FE002010B50029B7
:102E100022D003681B7B99421ED8174B9C46614405
:102E2000090183689C4661440C684968002A19D0EE
:102E300003681B7B9A4215D883680F488446624416
:102E400012019A1810685368020001208B4201D8C1
:102E50000ED00020C0B210BD084B094A3C210948E1
:102E60000FF01EFC054B064A3C2106480FF018FCEB
:102E7000A242EFD8EDE7C046FFFFFF0F2026021069
:102E80008C280210E025021010B500291ED0037B0B
:102E900099421BD84B005B18033B0468A44663446B
:102EA000002919D0002A1DD0914221D0002A25D016
:102EB000047BA24222D804685000801803382018EE
:102EC0008170197800291FD11A7010BD104B114A5A
:102ED000682111480FF0E4FB104B114A6F310E4886
:102EE0000FF0DEFB0F4B0E4A70210B480FF0D8FBA2
:102EF0000D4B0B4A712108480FF0D2FB044B054AD9
:102F0000682105480FF0CCFB41701A70DDE7C04620
:102F100044260210F828021060260210B42602107F
:102F2000D4280210C0260210CC26021070B506006C
:102F30000D001400002914D0002A14D08068736892
:102F40009847002806D0220029003000FFF79CFF98
:102F5000280007E02A0021003000FFF795FF20003D
:102F600000E0100070BD0800FCE70000F0B583B081
:102F70000500009201930AAB1C780BAB1F78002C64
:102F800026D003685A7B944207D10123002B19D124
:102F9000002C3BD1200003B0F0BD002C0CD01A7BDC
:102FA000944209D81A6863001B19033BD3189B7815
:102FB000002BEBD00123E9E73E4B3F4A68213F4815
:102FC0000FF06EFB3E4B3F4A67213F480FF068FB16
:102FD00003689C7B002CDBD012D01A7B94420FD864
:102FE00062001219033A19688C4662445178997349
:102FF000002900D1D9730023937053701370C7E771
:103000002C4B2D4A68212D480FF04AFB002C3AD05A
:103010002B681B7B9C4236D82C4BE3181B01AA68FB
:1030200094466344009A1A60019A5A60089A9A601A
:10303000099ADA602E68002C2BD030D0337B9C426A
:103040002DD863001B19033B326894466344002269
:103050009A705A701A70717B22003000FFF766FF79
:103060007073844200D095E7287D009A019B00F0A0
:1030700027FD061E01D0002F17D00C9B002B00D17E
:1030800088E71E7086E7124B124A3C210E480FF06B
:1030900007FB114B114AA52108480FF001FB054B16
:1030A000054A682105480FF0FBFA2868210000F066
:1030B0003FFFE2E744260210F828021060260210C3
:1030C000E426021004290210E0250210FFFFFF0F82
:1030D000202602108C280210DC250210E82802109D
:1030E000F0B5DE4657464E464546E0B58BB00990F2
:1030F000002308938200B54BD658370052E0B44BFA
:10310000B44A3F21B4480FF0CBFAB44BB44A3C2147
:10311000B4480FF0C5FA002901D1002869D1002177
:10312000404600F0FBFEA04219D12A686B68069267
:103130000793AB689846EB689A464346002B14D039
:10314000002C18D03B681B7B9C4214D8631EFA6885
:10315000D35C08931B0218433861002015E0A24B92
:10316000A24A8E219F480FF09BFAA14B9F4A9221C1
:103170009C480FF095FA994B9E4A412199480FF0CF
:103180008FFA00239A46984600207B68BFF35F8F32
:1031900000221A6086F310884346002B32D10028A3
:1031A00000D10CE100F000FC02000B1EA7DB0020A8
:1031B0000021069007917868EFF3108672B60168D7
:1031C0000029FCD0BFF35F8F396888464C7B002C08
:1031D000D7D09AD0097B8C4297D8874965182D01A2
:1031E000B9688C46654428686968801A9941002945
:1031F00091DD2A686B68099800F062FC00239A460A
:103200009846C2E7089B1B02234399465146180083
:10321000C04705000E007A68EFF3108B72B6136892
:1032200059424B41D9B2002BF9D1BFF35F8F002E29
:103230001EDB002E46DD3B69002B47D04B456DD190
:1032400000F0B2FB02000B1E6EDB52197341002B23
:1032500070DB002B72DB0021049101310391029499
:1032600051460191414600913800FFF77FFE4CE046
:103270003B69002BDDD04B4514D1069A079B521BAE
:10328000B341002B14DB002B16DB0021049101312C
:103290000391029451460191414600913800FFF795
:1032A00065FE32E0554B514AA1214E480FF0F8F926
:1032B00001225242524BE6E7454B464A3F214648DF
:1032C0000FF0EEF9002E01D1002DB4D13B68002C97
:1032D00050D05A7B944237D1012100294AD1DA7B60
:1032E000002A4DD19A7B002A03D1DA7B002A5AD1D9
:1032F0009C73DC73002C5CD03B681B7B9C4258D8D1
:10330000FA68013C135D0133135500233B617A6871
:10331000BFF35F8F13608BF3108843E7374B334A5B
:10332000A42130480FF0BCF9294B2A4A3F212A48F2
:103330000FF0B6F901225242314B8AE7244B254A5D
:103340003F2125480FF0ACF9002C0DD01A7B944298
:103350000AD862001219033A1868844662449278C7
:10336000002ABAD00121B8E7264B274A682127480E
:103370000FF096F9264B274AF62124480FF090F9D2
:10338000002A0AD0197B8A4207D851008A18033ACA
:1033900019688C4662445470A4E71A4B1A4A682193
:1033A0001A480FF07DF91C4B1A4AFB2117480FF001
:1033B00077F90A4B0F4A41210A480FF071F90BB017
:1033C000F0BCBB46B246A946A046F0BD18EC0020B2
:1033D000F01A0210582802100C1B021020260210AE
:1033E0008C280210E02502100C2702107028021011
:1033F00024270210B0280210FFFFFF0F3027021011
:10340000FFFFFF7F44260210F828021060260210FA
:103410006C270210C42802109027021010B50C4B24
:103420005B68002B04D00A210A48FFF77FFC10BD1F
:10343000074C2300084A1021206800F07FFC03207D
:1034400000F0A6FA03212000FFF7A8FCEBE7C04636
:10345000541F002008FE00200D2E001010B5064B52
:103460005B68002B01D0044810BD044B044A5E2168
:1034700004480FF015F9C046541F0020A42702107D
:1034800098280210E0250210F0B5DE4657464E4659
:103490004546E0B58BB0804616001F00149B9A4647
:1034A000159B994616AB1B789B461F2302AA944690
:1034B000634400221A702BE0002809D042461268AB
:1034C000127B904204D8421E4146C9688A5C41E0A2
:1034D000404B414A412141480FF0E2F807984CE047
:1034E000361BAF41002F07DB002F11DA3C4B3D4A62
:1034F0003F213D480FF0D4F8012676423B4FF3E7D9
:10350000374B384A3F2138480FF0CAF8002F4FDBBD
:1035100043465A68EFF3108472B6136859424B4120
:10352000D9B20791002BF8D1BFF35F8F1F3302AAE6
:103530009446634404930023039302934B46019300
:103540005346009332003B004046FFF70FFD031E39
:10355000B2D1020041464968BFF35F8F00250D607C
:1035600084F31088002B29D01F2302A98C466344C2
:103570001B78002BB2D112021043002B20D05B46E7
:10358000002B1DD04946D04704000D0003000B431B
:103590001DD00029A4DB00F007FA06000F1EAFDBE8
:1035A00036196F41002FB1DA012676420F4FADE791
:1035B0000B4B0C4A3F210C480FF072F8012040429F
:1035C0000BB0F0BCBB46B246A946A046F0BD07987A
:1035D000F6E7C04620260210B0280210E0250210AF
:1035E000F01A0210582802100C1B0210FFFFFF7F78
:1035F000F8B50400002900D162E04268EFF31085BD
:1036000072B6136858424341D8B2002BF9D1BFF3C8
:103610005F8FCBB22268567BB3421BD101200028BA
:1036200048D0206988422BD0090AC9B2002B2ED07D
:103630002068007B83422AD8581EE668305C8842A6
:103640002BD000206368BFF35F8F00221A6085F3E0
:103650001088F8BD002B0DD0167BB3420AD85E004F
:10366000F618033E1768BC466644B678002ED6D0DE
:103670000120D4E7134B144A682114480FF010F8C6
:103680002C21134B134AFF3113480FF009F8134B49
:10369000134A412110480FF003F81900100000F000
:1036A00047FC0028CED199210E4B0A4A49000A480E
:1036B0000EF0F6FF23698B42C4D100232361C1E7DA
:1036C0000020C6E744260210F828021060260210E7
:1036D000C827021040280210E02502102026021000
:1036E000B0280210EC270210407D7047F0B587B07B
:1036F00006000F00EFF30583002B1FD10624644260
:10370000E517A4197D418D4202D803D1844201D925
:1037100000240025002D14DB0494059500F044F9E5
:1037200002000B1E13DBA41A9D41002D17DC14D0E0
:103730003000390000F044F907B0F0BD23480FF025
:1037400049F8234B234A3F2123480EF0A9FF204B81
:10375000204A3F2120480EF0A3FF002CE8D0FFF7BD
:103760007DFE0023029301931C4B0093049A059B5A
:10377000FFF78AFE002818DADAE7002300E00023CA
:10378000002BD5D1164B1A68EFF3108172B613686F
:10379000002BFCD0BFF35F8F114B1B68BFF35F8F13
:1037A00000221A6081F3108820BF0499059A0D4BFE
:1037B0005B6A9A42E3D80B48806A884203D29A42F5
:1037C000DBD00123DCE70123DAE7C046F027021053
:1037D000F01A0210582802100C1B0210DD2D0010E8
:1037E00008FE00200040054070B504000D0000F008
:1037F000DBF802000B1E0ADB20002900801859416B
:1038000000290ADB00290CDBFFF770FF70BD084BB5
:10381000084A3F2108480EF043FF01204042074973
:10382000F0E7034B034A3F2103480EF039FFC0463F
:10383000F01A0210582802100C1B0210FFFFFF7F25
:1038400010B5FA2292000023002110F079FCFFF756
:10385000CBFF10BD70B584B005000C00EFF30583FD
:10386000002B1ED1FFF7FAFD002302930193224B98
:1038700000932A002300FFF707FE061E23DD20BF6A
:10388000FFF7ECFD3100FFF7B3FE1C4B5B6A9C4277
:103890002DD81A4A926AAA422CD29C4225D00120E5
:1038A00026E0164B5B6A994209D8144A926A824212
:1038B00007D2994201D001201AE0002018E0002030
:1038C00016E0012014E00D4B5B6A9C4209D80B4ABC
:1038D000926AAA4207D29C4201D0012008E000204F
:1038E00006E0002004E0012002E0002000E00020CB
:1038F00004B070BD0120FBE7DD2D00100040054045
:1039000070B5EFF305801038EFF3108C72B61A4BD8
:103910001B68002BFBD0BFF35F8F01221300834095
:1039200016494B6316490B60164909780C00C440D0
:10393000224214D0114A546A8200134D52599442C3
:1039400006D38200114C125999430E4B197007E0AF
:103950000A4A031D9B0099589950002200E000225A
:10396000BFF35F8F044B002119608CF31088002A8D
:1039700000D0904770BDC046280100D000400540EF
:103980003C70054091FE002014FE002030380020DD
:1039900010B50100024A0348FEF7AEFB10BDC04659
:1039A0002829021080FE0020044B5B6A034A906ABB
:1039B0001900536A9942F9D17047C046004005404A
:1039C000084B5B6A01E0074B5B6A8B42FBD301E06B
:1039D000044B5B6A8B4203D1024B9B6A8342F7D351
:1039E0007047C0460040054070B504000D00FFF769
:1039F000DBFF02000B0020002900801859418B4298
:103A000002D804D1824202D901204042C1170029C4
:103A100002DBFFF7D5FF70BD024B034A3F2103488D
:103A20000EF03EFEF01A0210D82902100C1B0210F4
:103A300070B504000D00EFF3108672B61B4B1B68C7
:103A4000002BFBD0BFF35F8F002D1CD02000FEF7B2
:103A500071FE174B83420BD019002000FEF784FE45
:103A600001212000FEF756FE0123A340114A1360F6
:103A7000A400114BE550BFF35F8F0C4B00221A607E
:103A800086F3108870BDA2000B4B0021D15001229B
:103A9000A2400A490B7893430B7005492000FEF7BA
:103AA000A7FF00212000FEF735FEE4E7280100D043
:103AB00001390010386005403038002091FE0020A8
:103AC000F0B5DE4600B584B00400150001921E007A
:103AD0000293FFF769FF03958E4202D84ED18542CB
:103AE0004CD9EFF3108B72B6274B1B68002BFBD021
:103AF000BFF35F8F254A17780125A540EBB23B4302
:103B00001370234B5D63221D92000199D150A200D6
:103B10002049029850501B6A2B4212D11C4B1B6C3F
:103B20002B4208D00020BFF35F8F174B00221A6092
:103B30008BF3108823E0184B184AC52118480EF063
:103B4000AFFDFFF731FF8E4214D802D1039B8342B1
:103B500010D80E4B1B78BB420ED00D4B1D625D631F
:103B60001F2004400123A3400E4A1360074B1F701F
:103B70001E38D8E70020D6E70120D4E7012004B0A2
:103B800080BCBB46F0BDC046280100D091FE00209D
:103B90000040054014FE00204C290210BC290210F0
:103BA0007029021080E200E0EFF3108C72B60B4B2C
:103BB0001B68002BFBD0BFF35F8F01238340084AB3
:103BC000136208490A789A430A70BFF35F8F034B68
:103BD00000221A608CF310887047C046280100D07C
:103BE0000040054091FE002010B500291ED0037B47
:103BF00099421BD84B005B18033B0468A4466344FE
:103C0000002919D0002A1DD0914221D0002A25D0A8
:103C1000047BA24222D80468500080180338201880
:103C20008170197800291FD11A7010BD104B114AEC
:103C3000682111480EF034FD104B114A6F310E48C7
:103C40000EF02EFD0F4B0E4A70210B480EF028FD92
:103C50000D4B0B4A712108480EF022FD044B054A1A
:103C6000682105480EF01CFD41701A70DDE7C04662
:103C700044260210E82A021060260210B426021020
:103C8000D42A0210C0260210CC26021070B50600FD
:103C90000D001400002914D0002A14D08068736825
:103CA0009847002806D0220029003000FFF79CFF2B
:103CB000280007E02A0021003000FFF795FF2000D0
:103CC00000E0100070BD0800FCE7000010B5002304
:103CD000437301338373037BC3730123027B9A42D3
:103CE00014D9002B0CD0027B934209D85A00D21869
:103CF000033A01688C4662440133DBB25370EDE74E
:103D00000B4B0C4A68210C480EF0CAFC002A09D063
:103D1000924207D8016853009A18033A8A18002380
:103D2000537010BD024B034A682103480EF0B8FCE3
:103D300044260210E82A02106026021010B5017312
:103D400042608360FFF7C2FF10BD000070B5040041
:103D5000081E00D170BD002934D0237B994231D890
:103D60004B005B18033B2268944663445A78002A50
:103D7000F0D02DD0237B9A422AD853009B18033BC6
:103D800021688C4663445D7800215970002825D055
:103D9000237B984222D843001B18033B21688C46A2
:103DA00063440021597001002000FFF76FFF0600F7
:103DB00029002000FFF7CAFF020031002000FFF7B2
:103DC00065FFC7E7084B094A682109480EF068FCFF
:103DD000054B064A682106480EF062FC024B034A76
:103DE000682103480EF05CFC44260210E82A021009
:103DF0006026021070B505000C00160000292FD0B7
:103E000034D0037B994231D84B005B18033B0268E6
:103E1000944663445A78002A2ED19A78002A31D1E8
:103E20001978FFF793FF0300002E0AD0EA7B002ADF
:103E30002ED1AA7B002A03D1EA7B002A3BD1AC73A6
:103E4000EC73002B3DD1002C4FD02B7B9C424CD8E7
:103E50002B6861000C19033C1C190023637070BDB2
:103E6000254B264A382126480EF01AFC254B264AB7
:103E7000682126480EF014FC254B204A3A212048A0
:103E80000EF00EFC234B1D4A3B211D480EF008FC92
:103E9000002A0AD0297B8A4207D851008A18033A9F
:103EA00029688C4662445470C3E7164B164A682151
:103EB00016480EF0F5FB184B104A422110480EF040
:103EC000EFFB002B0BD02A7B934208D843001B1832
:103ED000033B2A689446634400229A70B3E7094B77
:103EE000094A682109480EF0DBFB064B064A6821A7
:103EF00006480EF0D5FBC046F0290210C02A021079
:103F0000F829021044260210E82A02106026021046
:103F10003C2A0210642A02109027021070B5040097
:103F20000A00457B2900FFF765FF6073280070BD1C
:103F300070B50400002967D0437B8B420ED0002966
:103F400011D0037B99420ED84B005B18033B0268EB
:103F5000D0188378002B0CD1002056E00121FFF708
:103F6000DDFF012051E0294B294A682129480EF044
:103F700097FB002B20D0227B93421DD85A00D318E8
:103F8000033B2268D2182568EB5C8B421AD0002BC9
:103F90001BD0227B934218D85A00D318033B2268C7
:103FA000D21853788B4216D0002BF0D11A4B1B4AF3
:103FB0006B211B480EF074FB144B154A6821154801
:103FC0000EF06EFB4378137007E0104B104A682127
:103FD00010480EF065FB43785370002383704370E4
:103FE00001222000FFF706FF0200617B814205D01D
:103FF0002000FFF74BFE6073012006E0094B074AE3
:10400000712107480EF04CFB002070BD44260210C1
:10401000E82A021060260210E8230210A82A0210E3
:10402000F8290210882A0210F0B5C64600B504002F
:104030000E0017001D0037480FF0ECFC8046364B91
:10404000FA18364B9A4239D8010038000FF0E2FCDA
:104050000200103A98235B009A4235D86B1E062B5B
:1040600038D8069B013B062B34D83F09474537D348
:104070002D04069B1A0315432368002B36DB284BBF
:104080009C4244D080225201264B1A60264B1A6073
:10409000264B9B6811009943FAD12660A060231D2E
:1040A000C02292011A43212313602368002BFCDAFB
:1040B000E5600823136080BCB846F0BD1C4B1D4A68
:1040C00011211D480EF0ECFA1C4B1A4A19211A480E
:1040D0000EF0E6FA1A4B174A1C2117480EF0E0FAC8
:1040E000184B144A232114480EF0DAFA22683F23B1
:1040F0001340B342C3D1A3681B051B0D8342BED13D
:10410000E368EE22D2021340AB42B8D1D3E780225B
:104110009201B9E7001BB70080E84BD380F8A932C1
:1041200000C0024000E0004000F0004000C000403D
:10413000F42A0210202C0210542B02109C2B021087
:10414000B82B0210042C021080239B000343014A69
:10415000D362704700800540024B1A68024B5A60D8
:104160007047C046005200200080054010B5020094
:10417000164B8020C0051860154B164818600029A2
:104180000AD0154BE021C9041960002A09D1124B4D
:10419000802212061A6010BD0C4BE021C904196080
:1041A000F3E753019B1A9800801800010B4B18602D
:1041B00080235B04984202D3084B094A1A60FFF738
:1041C000CBFF054B8022D2051A60E4E700B0054022
:1041D00008200140FCFF010000A005400052002023
:1041E000FFFFFF0010B5030010000C4A8024E40517
:1041F0001460002B0DD001221343094A094CD461ED
:10420000094C5C401462516293620021FFF7AEFFDB
:1042100010BD034B0022DA61F7E7C04600B005404D
:1042200000800540D3C007B02D3FF84F064BAA22AF
:1042300012011A602F22DA60044B054A1A60024B01
:104240005B68002BFBDA70470040024000600240D0
:1042500000B0FA0010B501F09BFC00F00DFC00F07E
:10426000E5FD00F089FE05F0E7FD01F051FD00F0ED
:1042700060FA05F019FD10BD0302000A184380B270
:10428000704703060202FF2109040A401343020A91
:10429000FF2109020A401343000E18437047F8B586
:1042A000CE46474680B580460F00914608001BF079
:1042B000E1FA061E17D0444600E001342578002DAF
:1042C00017D0A31942464A4493420AD83B78AB42DE
:1042D000F3D13200390020001BF0FAFA0028ECD1AB
:1042E00002E0002400E044462000C0BCB946B046CD
:1042F000F8BD0024F8E730B501E0002C14D00478B4
:1043000001300B7801319C42F7D020222243D2B2F7
:104310001500613DEDB2192D08D820252B43DBB2E5
:104320009A42EAD0012000E0002030BD0120FCE7E5
:1043300000280AD0C07A002809D1431C9B00054AF6
:104340009B58002B04D0012002E0002000E0002058
:104350007047C0461C45002010B5FDF74FFE80B2E7
:10436000002301E00133DBB2032B0FD81A01D2186E
:10437000120107498A18927A022AF3D11A01D21837
:1043800012018A1812898242ECD1E6E710BDC046BC
:1043900024450020F0B5D6464F464646C0B5060037
:1043A0008846002401E00134E4B2032C23D8250020
:1043B00063001B199B00314A9F58002FF3D0630004
:1043C0001B199B00D3181B7AB342ECD13001801922
:1043D000000110302A4BC0189246630099461B1901
:1043E0009B0053445A684146B8474D44AD000023F2
:1043F0005246AB50D7E7002301E00133DBB2032B79
:104400001BD8B342F9D01A01D21812011C498A18DC
:10441000927A022AF1D11A01D21812018A18D07B9D
:104420003201921912018A18D27B9042E5D13301F0
:104430009B191B01CB180422DA7333019B191B0152
:104440000F4AD318DB7B032B04D9E0BCBA46B14634
:10445000A846F0BD0B4C9B00185905F0EBFF084A2D
:10446000300183191B01D318DB7B9B0000211951FC
:104470008019000110180423C373E6E7EC44002000
:1044800024450020DC440020F0B5D6464F46464681
:10449000C0B584B08046030143441B01534AD3187E
:1044A000DB7A012B34D89B00514A9B58002B32D029
:1044B00004014444240110344C4BE41820001BF048
:1044C000D9F9A022123081B29200362000F0E8FF24
:1044D0008146002800D185E001AD0C220021280092
:1044E0000FF0C2FE43461B0143441B013F4AD31851
:1044F0001889FFF7C1FE28800123AB70FF33AB8022
:104500000C222900484601F0F3F9661E0C2737E01B
:1045100038480EF05FF90021FFF73CFF43461801D1
:1045200040440701314BDF190023BB7200242000F7
:1045300004B0E0BCBA46B146A846F0BD0134E4B2CE
:10454000013633782E2B01D0002BF7D1731B9BB291
:104550009A463B19284A934216DC22003900484605
:1045600001F060FA7B1C9BB252462900484601F0DC
:104570000BFA3C19A5B26F1CBFB23378002B09D0DF
:10458000013635000024DCE7484600F04BFF0624E6
:104590006442CCE700223900484601F043FA023574
:1045A000ABB28022520069460A804A80FC3A4846F3
:1045B00001F0EAF90D4943461B0142469A181201DF
:1045C0008A18D07BD37A9B00094AD21880000B4905
:1045D00040583523494605F0A5FE0400484600F042
:1045E00021FFA4E701246442A1E7C046244500203E
:1045F0001C4500202C2C0210FEFF0000DC44002093
:1046000070B50400000100190001414BC018032CD3
:1046100020D823011B191B013D4AD3189B7A022B7A
:1046200034D01AD8002B14D0012B00D06CE0FFF747
:1046300093FE3749220113191B01CB181881022060
:1046400098720020D87201251D7358732000FFF75F
:104650001BFF70BD2F480EF0BDF8032B54D1230172
:104660001B191B012A4A9B58002B07D0013B220132
:104670001219120126495350002BEAD120010419C6
:104680002401234804190023A372E2E723011B1924
:104690001B011F4AD218137B013BDBB21373002BA3
:1046A000D7D123011B191B01194AD218537B01339F
:1046B000DBB25373042B09D02201121912011449E1
:1046C0008A1813732000FFF7DFFEC2E7FFF730FE02
:1046D00000280DD00E49220113191B01CB18D87ADE
:1046E0000130D872012018731A0000235373E9E7D0
:1046F00000212000FFF74EFE200104192401044B85
:104700001C190023A372A4E703480EF063F8C04607
:1047100024450020442C0210602C021010B5002407
:1047200004E02000FFF76CFF0134E4B2032CF8D959
:1047300010BD7047012800D97047002904D08000BF
:104740000A68044BC250F7E78000034B1A68014B1C
:10475000C250F1E71C4500205853021010B5FFF776
:10476000DDFF10BD30B583B06B460022DA80012337
:104770001D000540184206D0002904DD02786B4672
:10478000DA7101390130032213000340104209D0CD
:10479000012903DD03880239023003E0002301E030
:1047A0000839200007290CDD0268D218934200D98D
:1047B00001320400083443689B189A42F0D901334F
:1047C000EEE71A0C1B041B0CD31803E002889B189D
:1047D000023902300129F9DC002902DD01786A463C
:1047E00091716A4606321288D318180C1B041B0CF0
:1047F000C318180C1B041B0CC018002D05D0030691
:104800001B0C020AFF201040184380B203B030BDD9
:10481000F0B583B00600019115001C00002700E0F0
:104820003668002E15D071897068FFF79BFF00195C
:10483000040C0004000C24187389DB07F0D57B42BC
:104840005F41FFB22206120C230AFF241C401443CE
:10485000E6E7002F05D02206120C230AFF241C4095
:1048600014436B469888FFF707FD24182800FFF7CC
:1048700003FD2018030C0004000C1818030C00049E
:10488000000C1818C04380B203B0F0BD70B51C68AE
:1048900025042D0C230C5B19049C246825042D0C85
:1048A000ED18230C5B191C0C1B041B0CE3181C0CCF
:1048B0001B041B0CE318FFF7ABFF70BD10B582B0F3
:1048C000049C0094FFF7E2FF02B010BD10B5FFF7A3
:1048D00049FFC04380B210BD70B50500002600241A
:1048E00000E02D68002D15D069896868FFF73AFF50
:1048F0000019040C0004000C24186B89DB07F0D5A8
:1049000073425E41F6B223061B0C240AFF200440CA
:104910001C43E6E7002E05D023061B0C240AFF20CB
:1049200004401C43E04380B270BD0000014B1B6893
:104930001818704728EC0020024B1B68C01A80B280
:104940007047C04628EC0020F8B50400FFF7F4FFDC
:10495000050027883800FFF7E9FF0600648820007B
:10496000FFF7E4FFFA231B019F420FD89C420FD8A8
:10497000AC4202D00388AB420CD1094B1B68B34256
:104980000AD07388AB4209D1012000E00020F8BDB5
:104990000020FCE70020FAE70120F8E70020F6E716
:1049A0002CEC002070B504002C4B1B68834242D8CD
:1049B0002B4B1D68854241D90379002B41D10088DA
:1049C000FA231B0198423FD8FFF7B0FF844216D06C
:1049D0000379002B13D1854211D0224B1B688342EF
:1049E00035D0038823800088FA231B01984206D023
:1049F000FFF79CFF05002000FFF79EFF688060889E
:104A0000FFF794FF0500844214D00379002B11D1E5
:104A1000144B1B68A3421DD023882B802088FA23C7
:104A20001B01984206D0FFF781FF04002800FFF722
:104A300083FF608070BD0C480DF0CCFE0B480DF07C
:104A4000C9FE0B480DF0C6FE0A480DF0C3FE054B2B
:104A50001C60C6E7034B1860DEE7C04628EC002068
:104A60002CEC0020FC510020802C0210982C02100D
:104A7000B42C0210D02C021070B50C4C033403235C
:104A80009C430B4B1C60FA252D012580002363807D
:104A900023712800FFF74AFF064B186001230371BA
:104AA00005804580044B1C6070BDC04630EC002082
:104AB00028EC00202CEC0020FC51002070B5041ED6
:104AC00023D0830722D10500083D164B1B68AB425B
:104AD0001FD803000C33144A1268934219D80300FC
:104AE000083B1B79002B17D02800FFF72DFF00286B
:104AF00015D0083C002323710C4B1B68AB4201D935
:104B00000A4B1D602800FFF74DFF70BD08480DF0EF
:104B100061FE08480DF05EFE07480DF05BFE074899
:104B20000DF058FE28EC00202CEC0020FC51002059
:104B3000FC2C0210202D02103C2D0210642D0210BE
:104B4000F0B5C64600B50500CC1CA4B203239C43B7
:104B50000B2C05D9FA231B019C4202D900253FE00A
:104B60000C248C4200D277E03C4B1B68AB423BD814
:104B70003B4B1B68AB4237D92F00083F3800FFF78B
:104B8000DBFE06003F883B1A9BB2083B9BB298466F
:104B90009C422CD824D03800FFF7C8FE0379002BA4
:104BA00031D1FA231B019F4224D00788A419A4B253
:104BB0000834A4B22B4B1B6883421ED02000FFF7A1
:104BC000B5FE00230371078046802B00083B1C8044
:104BD0000088FA231B01984202D0FFF7A7FE448009
:104BE000280080BCB846F0BD1F480DF0F3FD1F48FB
:104BF0000DF0F0FD1E480DF0EDFD2000FFF796FED4
:104C0000184B1860DAE7230014334345E8D8A41999
:104C1000A4B20834A4B2FA231B019F4219D0200089
:104C2000FFF784FE0F4B1B68834201D90D4B1860C0
:104C3000002303712B00083B1A88028046801C80E9
:104C40000088FA231B019842CAD0FFF76FFE448008
:104C5000C6E707480DF0BEFD0025C1E728EC00209F
:104C60002CEC0020FC510020982D0210B02D0210D9
:104C7000D02D0210F0B5CE4600B582B0002800D18C
:104C800082E0C51CADB2032295430B2D05D9FA2352
:104C90001B019D4202D9002072E00C25854200D202
:104CA00074E03B4B1B6899461800FFF745FE070070
:104CB00032E038480DF08EFD01230371A14510D07C
:104CC000019BE5180835344B1B689D421DD8A3078E
:104CD0001ED12000083053E04B461888FFF726FE0F
:104CE00081464B461B79002B03D02B4A12684A455C
:104CF000F2D1274A49461160274A12684A45DFD057
:104D0000002BDDD025480DF065FD25480DF062FD36
:104D100024480DF05FFD27883E000195FA231B0112
:104D20005B1B9F422BD23800FFF700FE0400037983
:104D3000002BF0D103889E1B083E019B9E42EAD3C4
:104D400014339E42B8D37E19B6B20836B6B2FA23EF
:104D50001B019E42ADD03000FFF7E8FD0023037138
:104D60002388038047802680012323710088FA234B
:104D70001B019842A2D0FFF7D9FD46809EE7002094
:104D800002B080BCB946F0BD0020F9E70020F7E78B
:104D9000FC510020D02D02102CEC0020E42D02103C
:104DA000002E0210302E021010B50400FCF786FD14
:104DB000E3681C68002C0AD022681A60A30703D19C
:104DC000FCF77EFD200010BD02480DF003FDFCF74E
:104DD00077FDF7E7602E021070B505000C008B0719
:104DE00009D1FCF76BFDEB681B682360EB681C6066
:104DF000FCF766FD70BD01480DF0ECFC842E02103E
:104E0000C36800221A60836803330332934300228D
:104E100007E0C16809681960C1680B6081885B1888
:104E20000132C1889142F4DC7047000010B50024C3
:104E300006E0A200044BD058FFF7E2FF0134A4B211
:104E4000082CF6D910BDC046D42F021010B5082882
:104E500005D88000044BC058FFF7A6FF10BD0348DB
:104E60000FF0E4FB0020F9E7D42F0210A42E02106B
:104E700010B5082807D8002904D08000044BC0587A
:104E8000FFF7AAFF10BD03480FF0D0FBFAE7C046BA
:104E9000D42F0210C42E02100B688268934206D0F1
:104EA000002902D08360012070470023FAE7002028
:104EB000FAE70B68C268934206D0002902D0C360AB
:104EC000012070470023FAE70020FAE70C20404257
:104ED000704770B504000D0001F09AFA2900200017
:104EE00005F0D8FA2900200000F036FE70BD000061
:104EF00010B500280DD03923C25C343B1340052B7C
:104F000006D1CB0704D54368002B01D0130703D487
:104F100010BD03480DF05EFC011D06F0A3FEF7E78F
:104F2000F82F021030B583B005000C0010000029E6
:104F300008D0002A09D06B680A689A4208D100207C
:104F400003B030BD0B480DF045FC0A480DF042FCA3
:104F50000192036001A9FFF7BCFF23686B60012188
:104F60002800FFF7C5FFEB69002B01D02800984708
:104F70000120E5E71C30021070470000F0B5C6467E
:104F800000B582B005000C0017001E00002920D0DB
:104F9000002F20D0002E20D0002C02D02368002B20
:104FA0001DD101AA21002800FFF7BCFF012398466C
:104FB000002239002800FFF76FFF0022310028008F
:104FC000FFF777FF4346002B0CD002B080BCB846F9
:104FD000F0BD074CDCE7064FDCE7054EDCE70023BD
:104FE0009846E5E701AA21002800FFF79BFFECE7C0
:104FF00058530210F0B5C64600B504000E00170065
:105000009846002832D0079B002B34D0002937D097
:10501000002F37D04346002B36D000256560A560B1
:10502000E560354B6361258600223923E254200078
:105030002830042200210FF017F9E5612562069B54
:1050400063622E4B1A783C23E254089B236143464B
:105050003A0031002000FFF791FF2000079B98479E
:10506000002823D0002080BCB846F0BD24480FF0B3
:10507000DDFA2000F7E723480FF0D8FA0020F2E726
:10508000214EC5E7204FC5E71F4B9846C5E7C33BF8
:105090000022E2540EE01D480DF09CFB1C480DF070
:1050A00099FB01313C22A154002B15D03C23E35C39
:1050B000FF2BECD0174B1D682B000022002BF3D0E8
:1050C0009C42E8D00132FF2AE8DC3C21585C615C5C
:1050D0008842E6D01B68F1E73C33E35CFE2B07D047
:1050E0000133064A137025600A4B1C602000BAE7A2
:1050F000024B00221A70F6E7CD4E001089FE002008
:105100002C30021048300210585302106C3002103C
:105110008030021004EC0020014B18607047C0463C
:1051200000EC002010B5041E10D03923C35CDA0750
:105130000BD40122134339228354C369002B00D0BE
:10514000984703212000FFF7D3FE10BD01480FF060
:105150006DFAFAE7B030021010B5041E0FD03923F3
:10516000C35CDA070AD501229343383283541B0704
:1051700009D4E369002B01D02000984710BD0348F3
:105180000FF054FAFAE706F0BFFCF2E7CC30021059
:1051900010B5041E28D04368002B12D13923E35CDC
:1051A000DB0713D4114B1B68A34213D0104B1B68B1
:1051B000A34213D0002B17D01A68A24212D01300BA
:1051C000F8E704300021FFF784FEE7E72000FFF74F
:1051D000C3FFE7E70020FFF79FFFE7E72268044BE4
:1051E0001A6001E022681A6010BDC04600EC002081
:1051F00004EC002010B5041E04D03923C35C5A0708
:1052000004D510BD09480FF011FAFAE70422134340
:105210003922835406F082F803212000FFF768FE4C
:10522000236A002BEDD020009847EAE7EC3002100B
:1052300010B500280CD03923C35C5A0707D50422C7
:10524000934335328354036A002B00D0984710BD36
:1052500001480FF0EBF9FAE710310210021E0BD0F3
:10526000064B1868002808D03C23C35C0133DBB22E
:10527000934202D00068F5E70020704704EC00205C
:1052800030B504AC2578002404604160028143817C
:1052900003AB1B780373457301238373C47330BD61
:1052A00002E0C91A89B20068002802D043898B4203
:1052B000F7D9002A00D011807047000010B5FCF724
:1052C000FDFA034B01221A70FCF7FAFA10BDC04632
:1052D0008BFE002070B500281AD080235B02994213
:1052E00021D2002921D08CB203891B199BB2A34281
:1052F0001DD30C254557002D0DDB002A19D042681F
:10530000511A4160428914194481038100200BE045
:1053100009480DF05FFA4268511A020010328A42C1
:10532000EFD9012000E0012070BD0020FCE7012042
:10533000FAE70120F8E7C046B04C021010B5FCF7C0
:10534000BDFA084B00221A70FCF7BAFA064B18682F
:1053500000E0C068002804D0436F002BF9D000F0B3
:10536000D5FE10BD8BFE002024FE0020F0B583B0DA
:1053700007000E001500412A01D0012A0FD1072095
:10538000FFF764FD041E07D000230193009533004E
:1053900032003900FFF774FF200003B0F0BD014870
:1053A0000DF018FA3431021010B50022FFF792FF09
:1053B00010BD000010B5002814D080235B02994274
:1053C00018D2002918D08AB2438993420DD3446879
:1053D000A446614441609B1A438103899A1A028161
:1053E000002010BD05480DF0F5F905480FF01EF935
:1053F0000120F6E70120F4E70020F2E7B04C0210AC
:105400004831021010B5002902DBFFF763FF10BD21
:105410004942FFF7CFFFFAE710B50122FFF7F2FF8D
:1054200010BD000070B5051E01D000260CE0194823
:105430000DF0D0F918480DF0CDF929000820FFF73C
:1054400017FD0136F6B22500002D21D0FCF736FA03
:10545000AC7B002CEED0013CE4B2AC73FCF730FA2C
:10546000002C15D12C682A7B0F231340022BE4D08B
:10547000012B05D0002B08D12800FFF71FFBE0E728
:1054800029000720FFF7F4FCDBE704480DF0A2F940
:10549000300070BDB04C0210683102108031021033
:1054A000F0B5D6464F464646C0B582B005000F005F
:1054B000904684B2C1235B009A4241D011D8012AA0
:1054C00002D0412A00D07DE0424639000020FFF79B
:1054D0004DFF8146484602B0E0BCBA46B146A846F8
:1054E000F0BDA0239B009A426CD1E31C03218B43A7
:1054F0009BB2FA1C94B28C431B199BB2180010305B
:1055000080B28A43934260D3824261D8FFF7B2FBF4
:1055100081460028DED0290010314944033103249C
:10552000A14300230193434600933B003A00FFF759
:10553000A7FE4B465B682342CCD027480DF04AF9C2
:1055400000250023994626E0FFF7B8FE4B46002BC6
:1055500002D04846FFF766FFA946BBE7B6B2210076
:105560001031691803310324A143002301934346FA
:10557000009333003A002800FFF782FE6B68234255
:105580001BD14B46002B1BD053461D60BF1BBFB227
:105590000024002F9ED0AA460820FFF757FC051EC6
:1055A000D2D0E31C032293439AB20C4B9B1A9BB2BA
:1055B0001E1CBB42D2D93E1CD0E709480DF00AF9A7
:1055C000A946E3E707480DF005F90023994681E76E
:1055D000002399467EE7C046F8310210EC05000032
:1055E000943102102432021070B5041E12D00089CA
:1055F000884220D90D006389AB420ED2ED1AADB2BC
:1056000023890A1A9B1823812468002CF3D113489C
:105610000DF0E0F812480DF0DDF8227B120701D101
:10562000AB4209D1658125812068002801D0FFF7B0
:10563000F9FE0023236070BD6368191B691889B2E5
:105640002000FFF77DFA002804D08442EAD0054804
:105650000DF0C0F804480DF0BDF8C04658320210F5
:10566000403202108C32021070320210030000200F
:1056700002E0013080B21B68002BFAD170470000B5
:1056800010B5041E09D0FCF719F9A37B0133A373ED
:10569000FCF716F9A37B002B00D010BD01480DF0DC
:1056A00099F8C046A832021010B5002801D0002990
:1056B00008D10C480EF0BAFF0FE003890C891B19C2
:1056C000038110000268002AF7D1038942899342BE
:1056D00004D10A899B180381016010BD02480DF0B6
:1056E00079F8C046BC320210F432021010B50C003A
:1056F000FFF7DAFF2000FFF7C3FF10BDF8B5CE4675
:10570000474680B506000D1E914698460AD00A8984
:105710004A4507D300280BD002894B449A4207DB45
:10572000002726E03D480EF081FF1020404270E047
:105730003B480EF07BFF102040426AE039480DF0F4
:1057400049F839480DF046F84B46002B36D1002772
:10575000424539D0002D03D06A892B899A4245D021
:10576000002E03D0728933899A4248D04B46002BD1
:105770004ED0738942469B1A6A89D21B934200D34A
:1057800013004C46994500D91C00706840446B6872
:10579000D91922000EF06EFDA0443F194B461C1B88
:1057A000A3B2994672894245C8D36B89BB42C8D31C
:1057B000CED82D68002DC7D00027C9E71B480EF0B2
:1057C00035FF1020404224E03668002E02D000232E
:1057D0009846BFE74B46002B02D100239846B9E715
:1057E00013480EF023FF1020404212E02B68002BDC
:1057F000B6D010480EF01AFF0620404209E0336888
:10580000002BB3D00B480EF011FF0620404200E001
:105810000020C0BCB946B046F8BDC04624330210D3
:105820005833021088330210A0330210BC33021028
:10583000CC330210DC33021010B5002904D00A89E1
:105840000023FFF75BFF10BD02480EF0EFFE1020B3
:105850004042F8E714340210F8B5CE46474680B50A
:105860000500884691461900002805D04346002BC4
:105870000BD00027002625E019480EF0D7FE0027A0
:105880003800C0BCB946B046F8BD16480EF0CEFE92
:105890000027F5E76C89641AA4B2A14500D24C46F2
:1058A000434698196B689C46614422000EF0E2FC66
:1058B000E719BFB23619B6B24B461C1BA3B29946C4
:1058C00000212D684B46002BDAD0002DD8D00029BE
:1058D000E0D06B898B42DDD8C91A89B2F1E7C046A6
:1058E000303402105034021010B5FFF7D9FC10BD4F
:1058F000F8B5CE46474680B5050088461600914665
:10590000002806D000290AD0038993420DD300272E
:105910001DE018480EF08AFE1020404223E0164891
:105920000EF084FE102040421DE014480EF07EFE72
:105930000120404217E012480CF04CFF4346D919B1
:10594000220068680EF096FC361B3F192D68002E69
:1059500006D0002DEFD06C89B442EFD33400EDE7D0
:105960004F4504D10020C0BCB946B046F8BD05483B
:105970000CF030FF743402108C340210A834021082
:10598000C8340210E0340210F0B583B00F001400E8
:1059900019006B469A1DFFF7A7FF061E24D0028947
:1059A0006B46D88803199A4221DB7389984212D238
:1059B0001A1A944212DD95B273689C4660442A001C
:1059C00039000EF057FC621B92B27919002A07D1F8
:1059D000002003B0F0BD07480CF0FCFE2500EBE70B
:1059E0003068FFF785FFF4E701204042F1E701202E
:1059F0004042EEE7F834021070B50B001500118933
:105A00001A00FFF74DFD041E04D02900FFF714FF14
:105A1000002801D1200070BD01480CF0DBFEC0461B
:105A20001035021010B582B014006B469A1DFFF7B6
:105A30005BFF002807D042896B4606331B889A42D9
:105A400001D94268D45402B010BD000010B5027AEA
:105A5000002A07D0134B5C683C23E35C0133DBB2C4
:105A60009A4213D1002906D0002811D00368002BD8
:105A700010D000200BE000280ED00368002B0DD0C2
:105A8000084A526993420BD0080000E0002010BD84
:105A90000120FCE70120FAE70120F8E70120F6E702
:105AA0000120F4E7E4510020F0B5D6464F4680B51A
:105AB00083B00500244B1968586907F0A8FB07005C
:105AC0006B685E7A214B1C6800239946019313E0B2
:105AD00063699A46002B0DD06B6899461C4B2A00CF
